{
  "_format": "hh-sol-artifact-1",
  "contractName": "OtoCoMaster",
  "sourceName": "contracts/OtoCoMaster.sol",
  "abi": [
    {
      "anonymous": false,
      "inputs": [
        {
          "indexed": true,
          "internalType": "address",
          "name": "owner",
          "type": "address"
        },
        {
          "indexed": true,
          "internalType": "address",
          "name": "approved",
          "type": "address"
        },
        {
          "indexed": true,
          "internalType": "uint256",
          "name": "tokenId",
          "type": "uint256"
        }
      ],
      "name": "Approval",
      "type": "event"
    },
    {
      "anonymous": false,
      "inputs": [
        {
          "indexed": true,
          "internalType": "address",
          "name": "owner",
          "type": "address"
        },
        {
          "indexed": true,
          "internalType": "address",
          "name": "operator",
          "type": "address"
        },
        {
          "indexed": false,
          "internalType": "bool",
          "name": "approved",
          "type": "bool"
        }
      ],
      "name": "ApprovalForAll",
      "type": "event"
    },
    {
      "anonymous": false,
      "inputs": [
        {
          "indexed": false,
          "internalType": "address",
          "name": "owner",
          "type": "address"
        },
        {
          "indexed": false,
          "internalType": "uint256",
          "name": "amount",
          "type": "uint256"
        }
      ],
      "name": "FeesWithdrawn",
      "type": "event"
    },
    {
      "anonymous": false,
      "inputs": [
        {
          "indexed": true,
          "internalType": "address",
          "name": "previousOwner",
          "type": "address"
        },
        {
          "indexed": true,
          "internalType": "address",
          "name": "newOwner",
          "type": "address"
        }
      ],
      "name": "OwnershipTransferred",
      "type": "event"
    },
    {
      "anonymous": false,
      "inputs": [
        {
          "indexed": true,
          "internalType": "address",
          "name": "from",
          "type": "address"
        },
        {
          "indexed": true,
          "internalType": "address",
          "name": "to",
          "type": "address"
        },
        {
          "indexed": true,
          "internalType": "uint256",
          "name": "tokenId",
          "type": "uint256"
        }
      ],
      "name": "Transfer",
      "type": "event"
    },
    {
      "inputs": [
        {
          "internalType": "address",
          "name": "newAddress",
          "type": "address"
        }
      ],
      "name": "addJurisdiction",
      "outputs": [],
      "stateMutability": "nonpayable",
      "type": "function"
    },
    {
      "inputs": [
        {
          "internalType": "address",
          "name": "to",
          "type": "address"
        },
        {
          "internalType": "uint256",
          "name": "tokenId",
          "type": "uint256"
        }
      ],
      "name": "approve",
      "outputs": [],
      "stateMutability": "nonpayable",
      "type": "function"
    },
    {
      "inputs": [
        {
          "internalType": "address",
          "name": "owner",
          "type": "address"
        }
      ],
      "name": "balanceOf",
      "outputs": [
        {
          "internalType": "uint256",
          "name": "",
          "type": "uint256"
        }
      ],
      "stateMutability": "view",
      "type": "function"
    },
    {
      "inputs": [],
      "name": "baseFee",
      "outputs": [
        {
          "internalType": "uint256",
          "name": "",
          "type": "uint256"
        }
      ],
      "stateMutability": "view",
      "type": "function"
    },
    {
      "inputs": [
        {
          "internalType": "uint256",
          "name": "newFee",
          "type": "uint256"
        }
      ],
      "name": "changeBaseFees",
      "outputs": [],
      "stateMutability": "nonpayable",
      "type": "function"
    },
    {
      "inputs": [
        {
          "internalType": "uint256",
          "name": "tokenId",
          "type": "uint256"
        }
      ],
      "name": "closeSeries",
      "outputs": [],
      "stateMutability": "payable",
      "type": "function"
    },
    {
      "inputs": [
        {
          "internalType": "uint16[]",
          "name": "jurisdiction",
          "type": "uint16[]"
        },
        {
          "internalType": "address[]",
          "name": "controller",
          "type": "address[]"
        },
        {
          "internalType": "uint64[]",
          "name": "creation",
          "type": "uint64[]"
        },
        {
          "internalType": "string[]",
          "name": "name",
          "type": "string[]"
        }
      ],
      "name": "createBatchSeries",
      "outputs": [],
      "stateMutability": "nonpayable",
      "type": "function"
    },
    {
      "inputs": [
        {
          "internalType": "uint16",
          "name": "jurisdiction",
          "type": "uint16"
        },
        {
          "internalType": "address",
          "name": "controller",
          "type": "address"
        },
        {
          "internalType": "string",
          "name": "name",
          "type": "string"
        }
      ],
      "name": "createSeries",
      "outputs": [],
      "stateMutability": "payable",
      "type": "function"
    },
    {
      "inputs": [
        {
          "internalType": "uint256",
          "name": "tokenId",
          "type": "uint256"
        }
      ],
      "name": "getApproved",
      "outputs": [
        {
          "internalType": "address",
          "name": "",
          "type": "address"
        }
      ],
      "stateMutability": "view",
      "type": "function"
    },
    {
      "inputs": [
        {
          "internalType": "address[]",
          "name": "jurisdictionAddresses",
          "type": "address[]"
        }
      ],
      "name": "initialize",
      "outputs": [],
      "stateMutability": "nonpayable",
      "type": "function"
    },
    {
      "inputs": [
        {
          "internalType": "address",
          "name": "owner",
          "type": "address"
        },
        {
          "internalType": "address",
          "name": "operator",
          "type": "address"
        }
      ],
      "name": "isApprovedForAll",
      "outputs": [
        {
          "internalType": "bool",
          "name": "",
          "type": "bool"
        }
      ],
      "stateMutability": "view",
      "type": "function"
    },
    {
      "inputs": [
        {
          "internalType": "uint16",
          "name": "",
          "type": "uint16"
        }
      ],
      "name": "jurisdictionAddress",
      "outputs": [
        {
          "internalType": "address",
          "name": "",
          "type": "address"
        }
      ],
      "stateMutability": "view",
      "type": "function"
    },
    {
      "inputs": [],
      "name": "jurisdictionCount",
      "outputs": [
        {
          "internalType": "uint16",
          "name": "",
          "type": "uint16"
        }
      ],
      "stateMutability": "view",
      "type": "function"
    },
    {
      "inputs": [],
      "name": "name",
      "outputs": [
        {
          "internalType": "string",
          "name": "",
          "type": "string"
        }
      ],
      "stateMutability": "view",
      "type": "function"
    },
    {
      "inputs": [],
      "name": "owner",
      "outputs": [
        {
          "internalType": "address",
          "name": "",
          "type": "address"
        }
      ],
      "stateMutability": "view",
      "type": "function"
    },
    {
      "inputs": [
        {
          "internalType": "uint256",
          "name": "tokenId",
          "type": "uint256"
        }
      ],
      "name": "ownerOf",
      "outputs": [
        {
          "internalType": "address",
          "name": "",
          "type": "address"
        }
      ],
      "stateMutability": "view",
      "type": "function"
    },
    {
      "inputs": [],
      "name": "renounceOwnership",
      "outputs": [],
      "stateMutability": "nonpayable",
      "type": "function"
    },
    {
      "inputs": [
        {
          "internalType": "address",
          "name": "from",
          "type": "address"
        },
        {
          "internalType": "address",
          "name": "to",
          "type": "address"
        },
        {
          "internalType": "uint256",
          "name": "tokenId",
          "type": "uint256"
        }
      ],
      "name": "safeTransferFrom",
      "outputs": [],
      "stateMutability": "nonpayable",
      "type": "function"
    },
    {
      "inputs": [
        {
          "internalType": "address",
          "name": "from",
          "type": "address"
        },
        {
          "internalType": "address",
          "name": "to",
          "type": "address"
        },
        {
          "internalType": "uint256",
          "name": "tokenId",
          "type": "uint256"
        },
        {
          "internalType": "bytes",
          "name": "_data",
          "type": "bytes"
        }
      ],
      "name": "safeTransferFrom",
      "outputs": [],
      "stateMutability": "nonpayable",
      "type": "function"
    },
    {
      "inputs": [
        {
          "internalType": "uint256",
          "name": "",
          "type": "uint256"
        }
      ],
      "name": "series",
      "outputs": [
        {
          "internalType": "uint16",
          "name": "jurisdiction",
          "type": "uint16"
        },
        {
          "internalType": "uint16",
          "name": "entityType",
          "type": "uint16"
        },
        {
          "internalType": "uint64",
          "name": "creation",
          "type": "uint64"
        },
        {
          "internalType": "string",
          "name": "name",
          "type": "string"
        }
      ],
      "stateMutability": "view",
      "type": "function"
    },
    {
      "inputs": [],
      "name": "seriesCount",
      "outputs": [
        {
          "internalType": "uint256",
          "name": "",
          "type": "uint256"
        }
      ],
      "stateMutability": "view",
      "type": "function"
    },
    {
      "inputs": [
        {
          "internalType": "uint16",
          "name": "",
          "type": "uint16"
        }
      ],
      "name": "seriesPerJurisdiction",
      "outputs": [
        {
          "internalType": "uint256",
          "name": "",
          "type": "uint256"
        }
      ],
      "stateMutability": "view",
      "type": "function"
    },
    {
      "inputs": [
        {
          "internalType": "address",
          "name": "operator",
          "type": "address"
        },
        {
          "internalType": "bool",
          "name": "approved",
          "type": "bool"
        }
      ],
      "name": "setApprovalForAll",
      "outputs": [],
      "stateMutability": "nonpayable",
      "type": "function"
    },
    {
      "inputs": [
        {
          "internalType": "bytes4",
          "name": "interfaceId",
          "type": "bytes4"
        }
      ],
      "name": "supportsInterface",
      "outputs": [
        {
          "internalType": "bool",
          "name": "",
          "type": "bool"
        }
      ],
      "stateMutability": "view",
      "type": "function"
    },
    {
      "inputs": [],
      "name": "symbol",
      "outputs": [
        {
          "internalType": "string",
          "name": "",
          "type": "string"
        }
      ],
      "stateMutability": "view",
      "type": "function"
    },
    {
      "inputs": [
        {
          "internalType": "uint256",
          "name": "tokenId",
          "type": "uint256"
        }
      ],
      "name": "tokenURI",
      "outputs": [
        {
          "internalType": "string",
          "name": "",
          "type": "string"
        }
      ],
      "stateMutability": "view",
      "type": "function"
    },
    {
      "inputs": [
        {
          "internalType": "address",
          "name": "from",
          "type": "address"
        },
        {
          "internalType": "address",
          "name": "to",
          "type": "address"
        },
        {
          "internalType": "uint256",
          "name": "tokenId",
          "type": "uint256"
        }
      ],
      "name": "transferFrom",
      "outputs": [],
      "stateMutability": "nonpayable",
      "type": "function"
    },
    {
      "inputs": [
        {
          "internalType": "address",
          "name": "newOwner",
          "type": "address"
        }
      ],
      "name": "transferOwnership",
      "outputs": [],
      "stateMutability": "nonpayable",
      "type": "function"
    },
    {
      "inputs": [
        {
          "internalType": "uint16",
          "name": "jurisdiction",
          "type": "uint16"
        },
        {
          "internalType": "address",
          "name": "newAddress",
          "type": "address"
        }
      ],
      "name": "updateJurisdiction",
      "outputs": [],
      "stateMutability": "nonpayable",
      "type": "function"
    },
    {
      "inputs": [],
      "name": "withdrawFees",
      "outputs": [],
      "stateMutability": "nonpayable",
      "type": "function"
    },
    {
      "stateMutability": "payable",
      "type": "receive"
    }
  ],
  "bytecode": "0x608060405234801561001057600080fd5b5061549d806100206000396000f3fe6080604052600436106101d15760003560e01c8063715018a6116100f7578063c87b56dd11610095578063e985e9c511610064578063e985e9c514610671578063ecd04140146106ae578063ee19afad146106eb578063f2fde38b14610707576101d8565b8063c87b56dd1461058c578063d7f2c0ef146105c9578063dc22cb6a146105f4578063e8ab07e714610634576101d8565b8063a224cee7116100d1578063a224cee7146104e6578063a22cb4651461050f578063b514264414610538578063b88d4fde14610563576101d8565b8063715018a6146104795780638da5cb5b1461049057806395d89b41146104bb576101d8565b80633497dccf1161016f5780636352211e1161013e5780636352211e146103ab57806363a879e4146103e85780636ef25c3a1461041157806370a082311461043c576101d8565b80633497dccf1461032657806342842e0e1461034f57806342c92b9114610378578063476343ee14610394576101d8565b8063095ea7b3116101ab578063095ea7b31461028257806309d5a864146102ab57806323b872dd146102d45780632c8a2cc7146102fd576101d8565b806301ffc9a7146101dd57806306fdde031461021a578063081812fc14610245576101d8565b366101d857005b600080fd5b3480156101e957600080fd5b5061020460048036038101906101ff9190613b57565b610730565b6040516102119190614366565b60405180910390f35b34801561022657600080fd5b5061022f610812565b60405161023c9190614381565b60405180910390f35b34801561025157600080fd5b5061026c60048036038101906102679190613cb6565b6108a4565b60405161027991906142d6565b60405180910390f35b34801561028e57600080fd5b506102a960048036038101906102a49190613a01565b610929565b005b3480156102b757600080fd5b506102d260048036038101906102cd9190613c13565b610a41565b005b3480156102e057600080fd5b506102fb60048036038101906102f691906138fb565b610b1b565b005b34801561030957600080fd5b50610324600480360381019061031f9190613cb6565b610b7b565b005b34801561033257600080fd5b5061034d60048036038101906103489190613896565b610c01565b005b34801561035b57600080fd5b50610376600480360381019061037191906138fb565b610d25565b005b610392600480360381019061038d9190613cb6565b610d45565b005b3480156103a057600080fd5b506103a9610e22565b005b3480156103b757600080fd5b506103d260048036038101906103cd9190613cb6565b610f26565b6040516103df91906142d6565b60405180910390f35b3480156103f457600080fd5b5061040f600480360381019061040a9190613a82565b610fd8565b005b34801561041d57600080fd5b50610426611618565b60405161043391906146aa565b60405180910390f35b34801561044857600080fd5b50610463600480360381019061045e9190613896565b61161e565b60405161047091906146aa565b60405180910390f35b34801561048557600080fd5b5061048e6116d6565b005b34801561049c57600080fd5b506104a561175e565b6040516104b291906142d6565b60405180910390f35b3480156104c757600080fd5b506104d0611788565b6040516104dd9190614381565b60405180910390f35b3480156104f257600080fd5b5061050d60048036038101906105089190613a3d565b61181a565b005b34801561051b57600080fd5b50610536600480360381019061053191906139c5565b611a7c565b005b34801561054457600080fd5b5061054d611a92565b60405161055a9190614643565b60405180910390f35b34801561056f57600080fd5b5061058a6004803603810190610585919061394a565b611aa6565b005b34801561059857600080fd5b506105b360048036038101906105ae9190613cb6565b611b08565b6040516105c09190614381565b60405180910390f35b3480156105d557600080fd5b506105de611eb9565b6040516105eb91906146aa565b60405180910390f35b34801561060057600080fd5b5061061b60048036038101906106169190613cb6565b611ebf565b60405161062b949392919061465e565b60405180910390f35b34801561064057600080fd5b5061065b60048036038101906106569190613bea565b611fa7565b60405161066891906142d6565b60405180910390f35b34801561067d57600080fd5b50610698600480360381019061069391906138bf565b611fda565b6040516106a59190614366565b60405180910390f35b3480156106ba57600080fd5b506106d560048036038101906106d09190613bea565b61206e565b6040516106e291906146aa565b60405180910390f35b61070560048036038101906107009190613c4f565b612086565b005b34801561071357600080fd5b5061072e60048036038101906107299190613896565b612302565b005b60007f80ac58cd000000000000000000000000000000000000000000000000000000007bffffffffffffffffffffffffffffffffffffffffffffffffffffffff1916827bffffffffffffffffffffffffffffffffffffffffffffffffffffffff191614806107fb57507f5b5e139f000000000000000000000000000000000000000000000000000000007bffffffffffffffffffffffffffffffffffffffffffffffffffffffff1916827bffffffffffffffffffffffffffffffffffffffffffffffffffffffff1916145b8061080b575061080a826123fa565b5b9050919050565b60606097805461082190614a20565b80601f016020809104026020016040519081016040528092919081815260200182805461084d90614a20565b801561089a5780601f1061086f5761010080835404028352916020019161089a565b820191906000526020600020905b81548152906001019060200180831161087d57829003601f168201915b5050505050905090565b60006108af82612464565b6108ee576040517f08c379a00000000000000000000000000000000000000000000000000000000081526004016108e590614583565b60405180910390fd5b609b600083815260200190815260200160002060009054906101000a900473ffffffffffffffffffffffffffffffffffffffff169050919050565b600061093482610f26565b90508073ffffffffffffffffffffffffffffffffffffffff168373ffffffffffffffffffffffffffffffffffffffff1614156109a5576040517f08c379a000000000000000000000000000000000000000000000000000000000815260040161099c906145c3565b60405180910390fd5b8073ffffffffffffffffffffffffffffffffffffffff166109c46124d0565b73ffffffffffffffffffffffffffffffffffffffff1614806109f357506109f2816109ed6124d0565b611fda565b5b610a32576040517f08c379a0000000000000000000000000000000000000000000000000000000008152600401610a29906144e3565b60405180910390fd5b610a3c83836124d8565b505050565b610a496124d0565b73ffffffffffffffffffffffffffffffffffffffff16610a6761175e565b73ffffffffffffffffffffffffffffffffffffffff1614610abd576040517f08c379a0000000000000000000000000000000000000000000000000000000008152600401610ab4906145a3565b60405180910390fd5b8060cd60008461ffff1661ffff16815260200190815260200160002060006101000a81548173ffffffffffffffffffffffffffffffffffffffff021916908373ffffffffffffffffffffffffffffffffffffffff1602179055505050565b610b2c610b266124d0565b82612591565b610b6b576040517f08c379a0000000000000000000000000000000000000000000000000000000008152600401610b62906145e3565b60405180910390fd5b610b7683838361266f565b505050565b610b836124d0565b73ffffffffffffffffffffffffffffffffffffffff16610ba161175e565b73ffffffffffffffffffffffffffffffffffffffff1614610bf7576040517f08c379a0000000000000000000000000000000000000000000000000000000008152600401610bee906145a3565b60405180910390fd5b8060cf8190555050565b610c096124d0565b73ffffffffffffffffffffffffffffffffffffffff16610c2761175e565b73ffffffffffffffffffffffffffffffffffffffff1614610c7d576040517f08c379a0000000000000000000000000000000000000000000000000000000008152600401610c74906145a3565b60405180910390fd5b8060cd600060cc60009054906101000a900461ffff1661ffff1661ffff16815260200190815260200160002060006101000a81548173ffffffffffffffffffffffffffffffffffffffff021916908373ffffffffffffffffffffffffffffffffffffffff16021790555060cc600081819054906101000a900461ffff1680929190610d0790614a83565b91906101000a81548161ffff021916908361ffff1602179055505050565b610d4083838360405180602001604052806000815250611aa6565b505050565b60cf545a3a610d54919061489d565b610d5e919061486c565b341015610da0576040517f08c379a0000000000000000000000000000000000000000000000000000000008152600401610d9790614603565b60405180910390fd5b3373ffffffffffffffffffffffffffffffffffffffff16610dc082610f26565b73ffffffffffffffffffffffffffffffffffffffff1614610e16576040517f08c379a0000000000000000000000000000000000000000000000000000000008152600401610e0d90614463565b60405180910390fd5b610e1f816128d6565b50565b610e2a6124d0565b73ffffffffffffffffffffffffffffffffffffffff16610e4861175e565b73ffffffffffffffffffffffffffffffffffffffff1614610e9e576040517f08c379a0000000000000000000000000000000000000000000000000000000008152600401610e95906145a3565b60405180910390fd5b60004790503373ffffffffffffffffffffffffffffffffffffffff166108fc829081150290604051600060405180830381858888f19350505050158015610ee9573d6000803e3d6000fd5b507fc0819c13be868895eb93e40eaceb96de976442fa1d404e5c55f14bb65a8c489a3382604051610f1b92919061433d565b60405180910390a150565b6000806099600084815260200190815260200160002060009054906101000a900473ffffffffffffffffffffffffffffffffffffffff169050600073ffffffffffffffffffffffffffffffffffffffff168173ffffffffffffffffffffffffffffffffffffffff161415610fcf576040517f08c379a0000000000000000000000000000000000000000000000000000000008152600401610fc690614523565b60405180910390fd5b80915050919050565b610fe06124d0565b73ffffffffffffffffffffffffffffffffffffffff16610ffe61175e565b73ffffffffffffffffffffffffffffffffffffffff1614611054576040517f08c379a000000000000000000000000000000000000000000000000000000000815260040161104b906145a3565b60405180910390fd5b85859050888890501461109c576040517f08c379a0000000000000000000000000000000000000000000000000000000008152600401611093906143a3565b60405180910390fd5b8585905082829050146110e4576040517f08c379a00000000000000000000000000000000000000000000000000000000081526004016110db906143e3565b60405180910390fd5b6000868690509050600060cc60009054906101000a900461ffff1661ffff1667ffffffffffffffff811115611142577f4e487b7100000000000000000000000000000000000000000000000000000000600052604160045260246000fd5b6040519080825280602002602001820160405280156111705781602001602082028036833780820191505090505b50905060005b8263ffffffff168163ffffffff16101561152557818b8b8363ffffffff168181106111ca577f4e487b7100000000000000000000000000000000000000000000000000000000600052603260045260246000fd5b90506020020160208101906111df9190613bea565b61ffff168151811061121a577f4e487b7100000000000000000000000000000000000000000000000000000000600052603260045260246000fd5b60200260200101805180919061122f90614af7565b63ffffffff1663ffffffff168152505060405180608001604052808c8c8463ffffffff16818110611289577f4e487b7100000000000000000000000000000000000000000000000000000000600052603260045260246000fd5b905060200201602081019061129e9190613bea565b61ffff168152602001600061ffff16815260200188888463ffffffff168181106112f1577f4e487b7100000000000000000000000000000000000000000000000000000000600052603260045260246000fd5b90506020020160208101906113069190613cdf565b67ffffffffffffffff16815260200186868463ffffffff16818110611354577f4e487b7100000000000000000000000000000000000000000000000000000000600052603260045260246000fd5b905060200281019061136691906146f5565b8080601f016020809104026020016040519081016040528093929190818152602001838380828437600081840152601f19601f8201169050808301925050505050505081525060cb600060c9548463ffffffff166113c49190614816565b63ffffffff16815260200190815260200160002060008201518160000160006101000a81548161ffff021916908361ffff16021790555060208201518160000160026101000a81548161ffff021916908361ffff16021790555060408201518160000160046101000a81548167ffffffffffffffff021916908367ffffffffffffffff1602179055506060820151816001019080519060200190611469929190613500565b50905050600073ffffffffffffffffffffffffffffffffffffffff1689898363ffffffff168181106114c4577f4e487b7100000000000000000000000000000000000000000000000000000000600052603260045260246000fd5b90506020020160208101906114d99190613896565b73ffffffffffffffffffffffffffffffffffffffff1614611512576115113360c9548363ffffffff1661150c9190614816565b6129f3565b5b808061151d90614af7565b915050611176565b508163ffffffff1660c95461153a9190614816565b60c98190555060c95460ca8190555060005b60cc60009054906101000a900461ffff1661ffff168160ff16101561160b57818160ff16815181106115a7577f4e487b7100000000000000000000000000000000000000000000000000000000600052603260045260246000fd5b602002602001015163ffffffff1660ce60008360ff1661ffff168152602001908152602001600020546115da9190614816565b60ce60008360ff1661ffff16815260200190815260200160002081905550808061160390614b24565b91505061154c565b5050505050505050505050565b60cf5481565b60008073ffffffffffffffffffffffffffffffffffffffff168273ffffffffffffffffffffffffffffffffffffffff16141561168f576040517f08c379a000000000000000000000000000000000000000000000000000000000815260040161168690614503565b60405180910390fd5b609a60008373ffffffffffffffffffffffffffffffffffffffff1673ffffffffffffffffffffffffffffffffffffffff168152602001908152602001600020549050919050565b6116de6124d0565b73ffffffffffffffffffffffffffffffffffffffff166116fc61175e565b73ffffffffffffffffffffffffffffffffffffffff1614611752576040517f08c379a0000000000000000000000000000000000000000000000000000000008152600401611749906145a3565b60405180910390fd5b61175c6000612bcd565b565b6000603360009054906101000a900473ffffffffffffffffffffffffffffffffffffffff16905090565b60606098805461179790614a20565b80601f01602080910402602001604051908101604052809291908181526020018280546117c390614a20565b80156118105780601f106117e557610100808354040283529160200191611810565b820191906000526020600020905b8154815290600101906020018083116117f357829003601f168201915b5050505050905090565b600060019054906101000a900460ff166118425760008054906101000a900460ff161561184b565b61184a612c93565b5b61188a576040517f08c379a000000000000000000000000000000000000000000000000000000000815260040161188190614543565b60405180910390fd5b60008060019054906101000a900460ff1615905080156118da576001600060016101000a81548160ff02191690831515021790555060016000806101000a81548160ff0219169083151502179055505b6118e2612ca4565b6119566040518060400160405280600c81526020017f4f746f436f2053657269657300000000000000000000000000000000000000008152506040518060400160405280600581526020017f4f544f434f000000000000000000000000000000000000000000000000000000815250612cfd565b600083839050905060005b8161ffff168161ffff161015611a2f5784848261ffff168181106119ae577f4e487b7100000000000000000000000000000000000000000000000000000000600052603260045260246000fd5b90506020020160208101906119c39190613896565b60cd60008361ffff1661ffff16815260200190815260200160002060006101000a81548173ffffffffffffffffffffffffffffffffffffffff021916908373ffffffffffffffffffffffffffffffffffffffff1602179055508080611a2790614a83565b915050611961565b508060cc60006101000a81548161ffff021916908361ffff160217905550600a60cf81905550508015611a775760008060016101000a81548160ff0219169083151502179055505b505050565b611a8e611a876124d0565b8383612d5a565b5050565b60cc60009054906101000a900461ffff1681565b611ab7611ab16124d0565b83612591565b611af6576040517f08c379a0000000000000000000000000000000000000000000000000000000008152600401611aed906145e3565b60405180910390fd5b611b0284848484612ec7565b50505050565b6060600060cb60008481526020019081526020016000206040518060800160405290816000820160009054906101000a900461ffff1661ffff1661ffff1681526020016000820160029054906101000a900461ffff1661ffff1661ffff1681526020016000820160049054906101000a900467ffffffffffffffff1667ffffffffffffffff1667ffffffffffffffff168152602001600182018054611bac90614a20565b80601f0160208091040260200160405190810160405280929190818152602001828054611bd890614a20565b8015611c255780601f10611bfa57610100808354040283529160200191611c25565b820191906000526020600020905b815481529060010190602001808311611c0857829003601f168201915b5050505050815250509050600060cd6000836000015161ffff1661ffff16815260200190815260200160002060009054906101000a900473ffffffffffffffffffffffffffffffffffffffff16905060008173ffffffffffffffffffffffffffffffffffffffff1663806e30ad6040518163ffffffff1660e01b815260040160006040518083038186803b158015611cbc57600080fd5b505afa158015611cd0573d6000803e3d6000fd5b505050506040513d6000823e3d601f19601f82011682018060405250810190611cf99190613ba9565b905060ca54851015611d8b578173ffffffffffffffffffffffffffffffffffffffff16633b6d35736040518163ffffffff1660e01b815260040160006040518083038186803b158015611d4b57600080fd5b505afa158015611d5f573d6000803e3d6000fd5b505050506040513d6000823e3d601f19601f82011682018060405250810190611d889190613ba9565b90505b6000611d9686612f23565b84606001518473ffffffffffffffffffffffffffffffffffffffff1663407e3f276040518163ffffffff1660e01b815260040160006040518083038186803b158015611de157600080fd5b505afa158015611df5573d6000803e3d6000fd5b505050506040513d6000823e3d601f19601f82011682018060405250810190611e1e9190613ba9565b611e35876040015167ffffffffffffffff16612f23565b604051602001611e48949392919061426c565b60405160208183030381529060405290506000611e8b85606001518385604051602001611e77939291906141ed565b6040516020818303038152906040526130d0565b905080604051602001611e9e919061424a565b60405160208183030381529060405295505050505050919050565b60c95481565b60cb6020528060005260406000206000915090508060000160009054906101000a900461ffff16908060000160029054906101000a900461ffff16908060000160049054906101000a900467ffffffffffffffff1690806001018054611f2490614a20565b80601f0160208091040260200160405190810160405280929190818152602001828054611f5090614a20565b8015611f9d5780601f10611f7257610100808354040283529160200191611f9d565b820191906000526020600020905b815481529060010190602001808311611f8057829003601f168201915b5050505050905084565b60cd6020528060005260406000206000915054906101000a900473ffffffffffffffffffffffffffffffffffffffff1681565b6000609c60008473ffffffffffffffffffffffffffffffffffffffff1673ffffffffffffffffffffffffffffffffffffffff16815260200190815260200160002060008373ffffffffffffffffffffffffffffffffffffffff1673ffffffffffffffffffffffffffffffffffffffff16815260200190815260200160002060009054906101000a900460ff16905092915050565b60ce6020528060005260406000206000915090505481565b60cf545a3a612095919061489d565b61209f919061486c565b3410156120e1576040517f08c379a00000000000000000000000000000000000000000000000000000000081526004016120d890614603565b60405180910390fd5b600060c954905060405180608001604052808561ffff168152602001600061ffff1681526020014267ffffffffffffffff16815260200160cd60008761ffff1661ffff16815260200190815260200160002060009054906101000a900473ffffffffffffffffffffffffffffffffffffffff1673ffffffffffffffffffffffffffffffffffffffff1663d7786ba760ce60008961ffff1661ffff16815260200190815260200160002054866040518363ffffffff1660e01b81526004016121a99291906146c5565b60006040518083038186803b1580156121c157600080fd5b505afa1580156121d5573d6000803e3d6000fd5b505050506040513d6000823e3d601f19601f820116820180604052508101906121fe9190613ba9565b81525060cb600083815260200190815260200160002060008201518160000160006101000a81548161ffff021916908361ffff16021790555060208201518160000160026101000a81548161ffff021916908361ffff16021790555060408201518160000160046101000a81548167ffffffffffffffff021916908367ffffffffffffffff16021790555060608201518160010190805190602001906122a5929190613500565b509050506122b383826129f3565b60c960008154809291906122c690614aae565b919050555060ce60008561ffff1661ffff16815260200190815260200160002060008154809291906122f790614aae565b919050555050505050565b61230a6124d0565b73ffffffffffffffffffffffffffffffffffffffff1661232861175e565b73ffffffffffffffffffffffffffffffffffffffff161461237e576040517f08c379a0000000000000000000000000000000000000000000000000000000008152600401612375906145a3565b60405180910390fd5b600073ffffffffffffffffffffffffffffffffffffffff168173ffffffffffffffffffffffffffffffffffffffff1614156123ee576040517f08c379a00000000000000000000000000000000000000000000000000000000081526004016123e590614403565b60405180910390fd5b6123f781612bcd565b50565b60007f01ffc9a7000000000000000000000000000000000000000000000000000000007bffffffffffffffffffffffffffffffffffffffffffffffffffffffff1916827bffffffffffffffffffffffffffffffffffffffffffffffffffffffff1916149050919050565b60008073ffffffffffffffffffffffffffffffffffffffff166099600084815260200190815260200160002060009054906101000a900473ffffffffffffffffffffffffffffffffffffffff1673ffffffffffffffffffffffffffffffffffffffff1614159050919050565b600033905090565b81609b600083815260200190815260200160002060006101000a81548173ffffffffffffffffffffffffffffffffffffffff021916908373ffffffffffffffffffffffffffffffffffffffff160217905550808273ffffffffffffffffffffffffffffffffffffffff1661254b83610f26565b73ffffffffffffffffffffffffffffffffffffffff167f8c5be1e5ebec7d5bd14f71427d1e84f3dd0314c0f7b2291e5b200ac8c7c3b92560405160405180910390a45050565b600061259c82612464565b6125db576040517f08c379a00000000000000000000000000000000000000000000000000000000081526004016125d2906144c3565b60405180910390fd5b60006125e683610f26565b90508073ffffffffffffffffffffffffffffffffffffffff168473ffffffffffffffffffffffffffffffffffffffff16148061265557508373ffffffffffffffffffffffffffffffffffffffff1661263d846108a4565b73ffffffffffffffffffffffffffffffffffffffff16145b8061266657506126658185611fda565b5b91505092915050565b8273ffffffffffffffffffffffffffffffffffffffff1661268f82610f26565b73ffffffffffffffffffffffffffffffffffffffff16146126e5576040517f08c379a00000000000000000000000000000000000000000000000000000000081526004016126dc90614423565b60405180910390fd5b600073ffffffffffffffffffffffffffffffffffffffff168273ffffffffffffffffffffffffffffffffffffffff161415612755576040517f08c379a000000000000000000000000000000000000000000000000000000000815260040161274c90614483565b60405180910390fd5b61276083838361325a565b61276b6000826124d8565b6001609a60008573ffffffffffffffffffffffffffffffffffffffff1673ffffffffffffffffffffffffffffffffffffffff16815260200190815260200160002060008282546127bb91906148f7565b925050819055506001609a60008473ffffffffffffffffffffffffffffffffffffffff1673ffffffffffffffffffffffffffffffffffffffff16815260200190815260200160002060008282546128129190614816565b92505081905550816099600083815260200190815260200160002060006101000a81548173ffffffffffffffffffffffffffffffffffffffff021916908373ffffffffffffffffffffffffffffffffffffffff160217905550808273ffffffffffffffffffffffffffffffffffffffff168473ffffffffffffffffffffffffffffffffffffffff167fddf252ad1be2c89b69c2b068fc378daa952ba7f163c4a11628f55a4df523b3ef60405160405180910390a46128d183838361325f565b505050565b60006128e182610f26565b90506128ef8160008461325a565b6128fa6000836124d8565b6001609a60008373ffffffffffffffffffffffffffffffffffffffff1673ffffffffffffffffffffffffffffffffffffffff168152602001908152602001600020600082825461294a91906148f7565b925050819055506099600083815260200190815260200160002060006101000a81549073ffffffffffffffffffffffffffffffffffffffff021916905581600073ffffffffffffffffffffffffffffffffffffffff168273ffffffffffffffffffffffffffffffffffffffff167fddf252ad1be2c89b69c2b068fc378daa952ba7f163c4a11628f55a4df523b3ef60405160405180910390a46129ef8160008461325f565b5050565b600073ffffffffffffffffffffffffffffffffffffffff168273ffffffffffffffffffffffffffffffffffffffff161415612a63576040517f08c379a0000000000000000000000000000000000000000000000000000000008152600401612a5a90614563565b60405180910390fd5b612a6c81612464565b15612aac576040517f08c379a0000000000000000000000000000000000000000000000000000000008152600401612aa390614443565b60405180910390fd5b612ab86000838361325a565b6001609a60008473ffffffffffffffffffffffffffffffffffffffff1673ffffffffffffffffffffffffffffffffffffffff1681526020019081526020016000206000828254612b089190614816565b92505081905550816099600083815260200190815260200160002060006101000a81548173ffffffffffffffffffffffffffffffffffffffff021916908373ffffffffffffffffffffffffffffffffffffffff160217905550808273ffffffffffffffffffffffffffffffffffffffff16600073ffffffffffffffffffffffffffffffffffffffff167fddf252ad1be2c89b69c2b068fc378daa952ba7f163c4a11628f55a4df523b3ef60405160405180910390a4612bc96000838361325f565b5050565b6000603360009054906101000a900473ffffffffffffffffffffffffffffffffffffffff16905081603360006101000a81548173ffffffffffffffffffffffffffffffffffffffff021916908373ffffffffffffffffffffffffffffffffffffffff1602179055508173ffffffffffffffffffffffffffffffffffffffff168173ffffffffffffffffffffffffffffffffffffffff167f8be0079c531659141344cd1fd0a4f28419497f9722a3daafe3b4186f6b6457e060405160405180910390a35050565b6000612c9e30613264565b15905090565b600060019054906101000a900460ff16612cf3576040517f08c379a0000000000000000000000000000000000000000000000000000000008152600401612cea90614623565b60405180910390fd5b612cfb613287565b565b600060019054906101000a900460ff16612d4c576040517f08c379a0000000000000000000000000000000000000000000000000000000008152600401612d4390614623565b60405180910390fd5b612d5682826132e8565b5050565b8173ffffffffffffffffffffffffffffffffffffffff168373ffffffffffffffffffffffffffffffffffffffff161415612dc9576040517f08c379a0000000000000000000000000000000000000000000000000000000008152600401612dc0906144a3565b60405180910390fd5b80609c60008573ffffffffffffffffffffffffffffffffffffffff1673ffffffffffffffffffffffffffffffffffffffff16815260200190815260200160002060008473ffffffffffffffffffffffffffffffffffffffff1673ffffffffffffffffffffffffffffffffffffffff16815260200190815260200160002060006101000a81548160ff0219169083151502179055508173ffffffffffffffffffffffffffffffffffffffff168373ffffffffffffffffffffffffffffffffffffffff167f17307eab39ab6107e8899845ad3d59bd9653f200f220920489ca2b5937696c3183604051612eba9190614366565b60405180910390a3505050565b612ed284848461266f565b612ede84848484613369565b612f1d576040517f08c379a0000000000000000000000000000000000000000000000000000000008152600401612f14906143c3565b60405180910390fd5b50505050565b60606000821415612f6b576040518060400160405280600181526020017f300000000000000000000000000000000000000000000000000000000000000081525090506130cb565b600082905060005b60008214612f9d578080612f8690614aae565b915050600a82612f96919061486c565b9150612f73565b60008167ffffffffffffffff811115612fdf577f4e487b7100000000000000000000000000000000000000000000000000000000600052604160045260246000fd5b6040519080825280601f01601f1916602001820160405280156130115781602001600182028036833780820191505090505b5090505b600085146130c45760018261302a91906148f7565b9150600a856130399190614b4e565b60306130459190614816565b60f81b818381518110613081577f4e487b7100000000000000000000000000000000000000000000000000000000600052603260045260246000fd5b60200101907effffffffffffffffffffffffffffffffffffffffffffffffffffffffffffff1916908160001a905350600a856130bd919061486c565b9450613015565b8093505050505b919050565b60606000825114156130f357604051806020016040528060008152509050613255565b600060405180606001604052806040815260200161542860409139905060006003600285516131229190614816565b61312c919061486c565b6004613138919061489d565b67ffffffffffffffff811115613177577f4e487b7100000000000000000000000000000000000000000000000000000000600052604160045260246000fd5b6040519080825280601f01601f1916602001820160405280156131a95781602001600182028036833780820191505090505b509050600182016020820185865187015b80821015613215576003820191508151603f8160121c168501518453600184019350603f81600c1c168501518453600184019350603f8160061c168501518453600184019350603f81168501518453600184019350506131ba565b505060038651066001811461323157600281146132445761324c565b603d6001830353603d600283035361324c565b603d60018303535b50505080925050505b919050565b505050565b505050565b6000808273ffffffffffffffffffffffffffffffffffffffff163b119050919050565b600060019054906101000a900460ff166132d6576040517f08c379a00000000000000000000000000000000000000000000000000000000081526004016132cd90614623565b60405180910390fd5b6132e66132e16124d0565b612bcd565b565b600060019054906101000a900460ff16613337576040517f08c379a000000000000000000000000000000000000000000000000000000000815260040161332e90614623565b60405180910390fd5b816097908051906020019061334d929190613500565b508060989080519060200190613364929190613500565b505050565b600061338a8473ffffffffffffffffffffffffffffffffffffffff16613264565b156134f3578373ffffffffffffffffffffffffffffffffffffffff1663150b7a026133b36124d0565b8786866040518563ffffffff1660e01b81526004016133d594939291906142f1565b602060405180830381600087803b1580156133ef57600080fd5b505af192505050801561342057506040513d601f19601f8201168201806040525081019061341d9190613b80565b60015b6134a3573d8060008114613450576040519150601f19603f3d011682016040523d82523d6000602084013e613455565b606091505b5060008151141561349b576040517f08c379a0000000000000000000000000000000000000000000000000000000008152600401613492906143c3565b60405180910390fd5b805181602001fd5b63150b7a0260e01b7bffffffffffffffffffffffffffffffffffffffffffffffffffffffff1916817bffffffffffffffffffffffffffffffffffffffffffffffffffffffff1916149150506134f8565b600190505b949350505050565b82805461350c90614a20565b90600052602060002090601f01602090048101928261352e5760008555613575565b82601f1061354757805160ff1916838001178555613575565b82800160010185558215613575579182015b82811115613574578251825591602001919060010190613559565b5b5090506135829190613586565b5090565b5b8082111561359f576000816000905550600101613587565b5090565b60006135b66135b184614771565b61474c565b9050828152602081018484840111156135ce57600080fd5b6135d98482856149de565b509392505050565b60006135f46135ef846147a2565b61474c565b90508281526020810184848401111561360c57600080fd5b6136178482856149de565b509392505050565b600061363261362d846147a2565b61474c565b90508281526020810184848401111561364a57600080fd5b6136558482856149ed565b509392505050565b60008135905061366c8161539d565b92915050565b60008083601f84011261368457600080fd5b8235905067ffffffffffffffff81111561369d57600080fd5b6020830191508360208202830111156136b557600080fd5b9250929050565b60008083601f8401126136ce57600080fd5b8235905067ffffffffffffffff8111156136e757600080fd5b6020830191508360208202830111156136ff57600080fd5b9250929050565b60008083601f84011261371857600080fd5b8235905067ffffffffffffffff81111561373157600080fd5b60208301915083602082028301111561374957600080fd5b9250929050565b60008083601f84011261376257600080fd5b8235905067ffffffffffffffff81111561377b57600080fd5b60208301915083602082028301111561379357600080fd5b9250929050565b6000813590506137a9816153b4565b92915050565b6000813590506137be816153cb565b92915050565b6000815190506137d3816153cb565b92915050565b600082601f8301126137ea57600080fd5b81356137fa8482602086016135a3565b91505092915050565b600082601f83011261381457600080fd5b81356138248482602086016135e1565b91505092915050565b600082601f83011261383e57600080fd5b815161384e84826020860161361f565b91505092915050565b600081359050613866816153e2565b92915050565b60008135905061387b816153f9565b92915050565b60008135905061389081615410565b92915050565b6000602082840312156138a857600080fd5b60006138b68482850161365d565b91505092915050565b600080604083850312156138d257600080fd5b60006138e08582860161365d565b92505060206138f18582860161365d565b9150509250929050565b60008060006060848603121561391057600080fd5b600061391e8682870161365d565b935050602061392f8682870161365d565b92505060406139408682870161386c565b9150509250925092565b6000806000806080858703121561396057600080fd5b600061396e8782880161365d565b945050602061397f8782880161365d565b93505060406139908782880161386c565b925050606085013567ffffffffffffffff8111156139ad57600080fd5b6139b9878288016137d9565b91505092959194509250565b600080604083850312156139d857600080fd5b60006139e68582860161365d565b92505060206139f78582860161379a565b9150509250929050565b60008060408385031215613a1457600080fd5b6000613a228582860161365d565b9250506020613a338582860161386c565b9150509250929050565b60008060208385031215613a5057600080fd5b600083013567ffffffffffffffff811115613a6a57600080fd5b613a7685828601613672565b92509250509250929050565b6000806000806000806000806080898b031215613a9e57600080fd5b600089013567ffffffffffffffff811115613ab857600080fd5b613ac48b828c01613706565b9850985050602089013567ffffffffffffffff811115613ae357600080fd5b613aef8b828c01613672565b9650965050604089013567ffffffffffffffff811115613b0e57600080fd5b613b1a8b828c01613750565b9450945050606089013567ffffffffffffffff811115613b3957600080fd5b613b458b828c016136bc565b92509250509295985092959890939650565b600060208284031215613b6957600080fd5b6000613b77848285016137af565b91505092915050565b600060208284031215613b9257600080fd5b6000613ba0848285016137c4565b91505092915050565b600060208284031215613bbb57600080fd5b600082015167ffffffffffffffff811115613bd557600080fd5b613be18482850161382d565b91505092915050565b600060208284031215613bfc57600080fd5b6000613c0a84828501613857565b91505092915050565b60008060408385031215613c2657600080fd5b6000613c3485828601613857565b9250506020613c458582860161365d565b9150509250929050565b600080600060608486031215613c6457600080fd5b6000613c7286828701613857565b9350506020613c838682870161365d565b925050604084013567ffffffffffffffff811115613ca057600080fd5b613cac86828701613803565b9150509250925092565b600060208284031215613cc857600080fd5b6000613cd68482850161386c565b91505092915050565b600060208284031215613cf157600080fd5b6000613cff84828501613881565b91505092915050565b613d118161492b565b82525050565b613d208161493d565b82525050565b6000613d31826147d3565b613d3b81856147e9565b9350613d4b8185602086016149ed565b613d5481614c3b565b840191505092915050565b6000613d6a826147de565b613d7481856147fa565b9350613d848185602086016149ed565b613d8d81614c3b565b840191505092915050565b6000613da3826147de565b613dad818561480b565b9350613dbd8185602086016149ed565b80840191505092915050565b6000613dd66040836147fa565b9150613de182614c4c565b604082019050919050565b6000613df960138361480b565b9150613e0482614c9b565b601382019050919050565b6000613e1c6032836147fa565b9150613e2782614cc4565b604082019050919050565b6000613e3f60288361480b565b9150613e4a82614d13565b602882019050919050565b6000613e626038836147fa565b9150613e6d82614d62565b604082019050919050565b6000613e856026836147fa565b9150613e9082614db1565b604082019050919050565b6000613ea86025836147fa565b9150613eb382614e00565b604082019050919050565b6000613ecb601c836147fa565b9150613ed682614e4f565b602082019050919050565b6000613eee6027836147fa565b9150613ef982614e78565b604082019050919050565b6000613f1160128361480b565b9150613f1c82614ec7565b601282019050919050565b6000613f346024836147fa565b9150613f3f82614ef0565b604082019050919050565b6000613f576019836147fa565b9150613f6282614f3f565b602082019050919050565b6000613f7a602c836147fa565b9150613f8582614f68565b604082019050919050565b6000613f9d6038836147fa565b9150613fa882614fb7565b604082019050919050565b6000613fc0602a836147fa565b9150613fcb82615006565b604082019050919050565b6000613fe36029836147fa565b9150613fee82615055565b604082019050919050565b6000614006602e836147fa565b9150614011826150a4565b604082019050919050565b600061402960028361480b565b9150614034826150f3565b600282019050919050565b600061404c6020836147fa565b91506140578261511c565b602082019050919050565b600061406f602c836147fa565b915061407a82615145565b604082019050919050565b60006140926020836147fa565b915061409d82615194565b602082019050919050565b60006140b560038361480b565b91506140c0826151bd565b600382019050919050565b60006140d8600a8361480b565b91506140e3826151e6565b600a82019050919050565b60006140fb6021836147fa565b91506141068261520f565b604082019050919050565b600061411e601d8361480b565b91506141298261525e565b601d82019050919050565b60006141416031836147fa565b915061414c82615287565b604082019050919050565b60006141646033836147fa565b915061416f826152d6565b604082019050919050565b6000614187602b836147fa565b915061419282615325565b604082019050919050565b60006141aa600e8361480b565b91506141b582615374565b600e82019050919050565b6141c981614975565b82525050565b6141d8816149a3565b82525050565b6141e7816149bd565b82525050565b60006141f8826140cb565b91506142048286613d98565b915061420f82613dec565b915061421b8285613d98565b915061422682613f04565b91506142328284613d98565b915061423d8261401c565b9150819050949350505050565b600061425582614111565b91506142618284613d98565b915081905092915050565b60006142778261419d565b91506142838287613d98565b915061428e826140a8565b915061429a8286613d98565b91506142a5826140a8565b91506142b18285613d98565b91506142bc82613e32565b91506142c88284613d98565b915081905095945050505050565b60006020820190506142eb6000830184613d08565b92915050565b60006080820190506143066000830187613d08565b6143136020830186613d08565b61432060408301856141cf565b81810360608301526143328184613d26565b905095945050505050565b60006040820190506143526000830185613d08565b61435f60208301846141cf565b9392505050565b600060208201905061437b6000830184613d17565b92915050565b6000602082019050818103600083015261439b8184613d5f565b905092915050565b600060208201905081810360008301526143bc81613dc9565b9050919050565b600060208201905081810360008301526143dc81613e0f565b9050919050565b600060208201905081810360008301526143fc81613e55565b9050919050565b6000602082019050818103600083015261441c81613e78565b9050919050565b6000602082019050818103600083015261443c81613e9b565b9050919050565b6000602082019050818103600083015261445c81613ebe565b9050919050565b6000602082019050818103600083015261447c81613ee1565b9050919050565b6000602082019050818103600083015261449c81613f27565b9050919050565b600060208201905081810360008301526144bc81613f4a565b9050919050565b600060208201905081810360008301526144dc81613f6d565b9050919050565b600060208201905081810360008301526144fc81613f90565b9050919050565b6000602082019050818103600083015261451c81613fb3565b9050919050565b6000602082019050818103600083015261453c81613fd6565b9050919050565b6000602082019050818103600083015261455c81613ff9565b9050919050565b6000602082019050818103600083015261457c8161403f565b9050919050565b6000602082019050818103600083015261459c81614062565b9050919050565b600060208201905081810360008301526145bc81614085565b9050919050565b600060208201905081810360008301526145dc816140ee565b9050919050565b600060208201905081810360008301526145fc81614134565b9050919050565b6000602082019050818103600083015261461c81614157565b9050919050565b6000602082019050818103600083015261463c8161417a565b9050919050565b600060208201905061465860008301846141c0565b92915050565b600060808201905061467360008301876141c0565b61468060208301866141c0565b61468d60408301856141de565b818103606083015261469f8184613d5f565b905095945050505050565b60006020820190506146bf60008301846141cf565b92915050565b60006040820190506146da60008301856141cf565b81810360208301526146ec8184613d5f565b90509392505050565b6000808335600160200384360303811261470e57600080fd5b80840192508235915067ffffffffffffffff82111561472c57600080fd5b60208301925060018202360383131561474457600080fd5b509250929050565b6000614756614767565b90506147628282614a52565b919050565b6000604051905090565b600067ffffffffffffffff82111561478c5761478b614c0c565b5b61479582614c3b565b9050602081019050919050565b600067ffffffffffffffff8211156147bd576147bc614c0c565b5b6147c682614c3b565b9050602081019050919050565b600081519050919050565b600081519050919050565b600082825260208201905092915050565b600082825260208201905092915050565b600081905092915050565b6000614821826149a3565b915061482c836149a3565b9250827fffffffffffffffffffffffffffffffffffffffffffffffffffffffffffffffff0382111561486157614860614b7f565b5b828201905092915050565b6000614877826149a3565b9150614882836149a3565b92508261489257614891614bae565b5b828204905092915050565b60006148a8826149a3565b91506148b3836149a3565b9250817fffffffffffffffffffffffffffffffffffffffffffffffffffffffffffffffff04831182151516156148ec576148eb614b7f565b5b828202905092915050565b6000614902826149a3565b915061490d836149a3565b9250828210156149205761491f614b7f565b5b828203905092915050565b600061493682614983565b9050919050565b60008115159050919050565b60007fffffffff0000000000000000000000000000000000000000000000000000000082169050919050565b600061ffff82169050919050565b600073ffffffffffffffffffffffffffffffffffffffff82169050919050565b6000819050919050565b600063ffffffff82169050919050565b600067ffffffffffffffff82169050919050565b600060ff82169050919050565b82818337600083830152505050565b60005b83811015614a0b5780820151818401526020810190506149f0565b83811115614a1a576000848401525b50505050565b60006002820490506001821680614a3857607f821691505b60208210811415614a4c57614a4b614bdd565b5b50919050565b614a5b82614c3b565b810181811067ffffffffffffffff82111715614a7a57614a79614c0c565b5b80604052505050565b6000614a8e82614975565b915061ffff821415614aa357614aa2614b7f565b5b600182019050919050565b6000614ab9826149a3565b91507fffffffffffffffffffffffffffffffffffffffffffffffffffffffffffffffff821415614aec57614aeb614b7f565b5b600182019050919050565b6000614b02826149ad565b915063ffffffff821415614b1957614b18614b7f565b5b600182019050919050565b6000614b2f826149d1565b915060ff821415614b4357614b42614b7f565b5b600182019050919050565b6000614b59826149a3565b9150614b64836149a3565b925082614b7457614b73614bae565b5b828206905092915050565b7f4e487b7100000000000000000000000000000000000000000000000000000000600052601160045260246000fd5b7f4e487b7100000000000000000000000000000000000000000000000000000000600052601260045260246000fd5b7f4e487b7100000000000000000000000000000000000000000000000000000000600052602260045260246000fd5b7f4e487b7100000000000000000000000000000000000000000000000000000000600052604160045260246000fd5b6000601f19601f8301169050919050565b7f4f746f436f4d61737465723a204f776e657220616e64204a757269736469637460008201527f696f6e2061727261792073686f756c6420686176652073616d652073697a652e602082015250565b7f222c20226465736372697074696f6e223a202200000000000000000000000000600082015250565b7f4552433732313a207472616e7366657220746f206e6f6e20455243373231526560008201527f63656976657220696d706c656d656e7465720000000000000000000000000000602082015250565b7f202d204372656174656420617420666f6c6c6f77696e6720756e69782074696d60008201527f657374616d703a20000000000000000000000000000000000000000000000000602082015250565b7f4f746f436f4d61737465723a204f776e657220616e64204e616d65206172726160008201527f792073686f756c6420686176652073616d652073697a652e0000000000000000602082015250565b7f4f776e61626c653a206e6577206f776e657220697320746865207a65726f206160008201527f6464726573730000000000000000000000000000000000000000000000000000602082015250565b7f4552433732313a207472616e736665722066726f6d20696e636f72726563742060008201527f6f776e6572000000000000000000000000000000000000000000000000000000602082015250565b7f4552433732313a20746f6b656e20616c7265616479206d696e74656400000000600082015250565b7f4552433732313a20746f6b656e206275726e2066726f6d20696e636f7272656360008201527f74206f776e657200000000000000000000000000000000000000000000000000602082015250565b7f222c2022696d6167655f64617461223a20220000000000000000000000000000600082015250565b7f4552433732313a207472616e7366657220746f20746865207a65726f2061646460008201527f7265737300000000000000000000000000000000000000000000000000000000602082015250565b7f4552433732313a20617070726f766520746f2063616c6c657200000000000000600082015250565b7f4552433732313a206f70657261746f7220717565727920666f72206e6f6e657860008201527f697374656e7420746f6b656e0000000000000000000000000000000000000000602082015250565b7f4552433732313a20617070726f76652063616c6c6572206973206e6f74206f7760008201527f6e6572206e6f7220617070726f76656420666f7220616c6c0000000000000000602082015250565b7f4552433732313a2062616c616e636520717565727920666f7220746865207a6560008201527f726f206164647265737300000000000000000000000000000000000000000000602082015250565b7f4552433732313a206f776e657220717565727920666f72206e6f6e657869737460008201527f656e7420746f6b656e0000000000000000000000000000000000000000000000602082015250565b7f496e697469616c697a61626c653a20636f6e747261637420697320616c72656160008201527f647920696e697469616c697a6564000000000000000000000000000000000000602082015250565b7f227d000000000000000000000000000000000000000000000000000000000000600082015250565b7f4552433732313a206d696e7420746f20746865207a65726f2061646472657373600082015250565b7f4552433732313a20617070726f76656420717565727920666f72206e6f6e657860008201527f697374656e7420746f6b656e0000000000000000000000000000000000000000602082015250565b7f4f776e61626c653a2063616c6c6572206973206e6f7420746865206f776e6572600082015250565b7f202d200000000000000000000000000000000000000000000000000000000000600082015250565b7f7b226e616d65223a202200000000000000000000000000000000000000000000600082015250565b7f4552433732313a20617070726f76616c20746f2063757272656e74206f776e6560008201527f7200000000000000000000000000000000000000000000000000000000000000602082015250565b7f646174613a6170706c69636174696f6e2f6a736f6e3b6261736536342c000000600082015250565b7f4552433732313a207472616e736665722063616c6c6572206973206e6f74206f60008201527f776e6572206e6f7220617070726f766564000000000000000000000000000000602082015250565b7f4f746f436f4d61737465723a204e6f7420656e6f75676820455448207061696460008201527f20666f722074686520657865637574696f6e2e00000000000000000000000000602082015250565b7f496e697469616c697a61626c653a20636f6e7472616374206973206e6f74206960008201527f6e697469616c697a696e67000000000000000000000000000000000000000000602082015250565b7f4f746f436f205365726965732023000000000000000000000000000000000000600082015250565b6153a68161492b565b81146153b157600080fd5b50565b6153bd8161493d565b81146153c857600080fd5b50565b6153d481614949565b81146153df57600080fd5b50565b6153eb81614975565b81146153f657600080fd5b50565b615402816149a3565b811461540d57600080fd5b50565b615419816149bd565b811461542457600080fd5b5056fe4142434445464748494a4b4c4d4e4f505152535455565758595a6162636465666768696a6b6c6d6e6f707172737475767778797a303132333435363738392b2fa26469706673582212201de5b845323d794ee4a8d19e598e29c7bec9cd2d87b5ba53bb42411b36774a3d64736f6c63430008030033",
  "linkReferences": {},
  "deployedLinkReferences": {}
}