{
  "_format": "hh-sol-artifact-1",
  "contractName": "OtoCoMaster",
  "sourceName": "contracts/OtoCoMaster.sol",
  "abi": [
    {
      "anonymous": false,
      "inputs": [
        {
          "indexed": true,
          "internalType": "address",
          "name": "owner",
          "type": "address"
        },
        {
          "indexed": true,
          "internalType": "address",
          "name": "approved",
          "type": "address"
        },
        {
          "indexed": true,
          "internalType": "uint256",
          "name": "tokenId",
          "type": "uint256"
        }
      ],
      "name": "Approval",
      "type": "event"
    },
    {
      "anonymous": false,
      "inputs": [
        {
          "indexed": true,
          "internalType": "address",
          "name": "owner",
          "type": "address"
        },
        {
          "indexed": true,
          "internalType": "address",
          "name": "operator",
          "type": "address"
        },
        {
          "indexed": false,
          "internalType": "bool",
          "name": "approved",
          "type": "bool"
        }
      ],
      "name": "ApprovalForAll",
      "type": "event"
    },
    {
      "anonymous": false,
      "inputs": [
        {
          "indexed": false,
          "internalType": "address",
          "name": "owner",
          "type": "address"
        },
        {
          "indexed": false,
          "internalType": "uint256",
          "name": "amount",
          "type": "uint256"
        }
      ],
      "name": "FeesWithdrawn",
      "type": "event"
    },
    {
      "anonymous": false,
      "inputs": [
        {
          "indexed": true,
          "internalType": "address",
          "name": "previousOwner",
          "type": "address"
        },
        {
          "indexed": true,
          "internalType": "address",
          "name": "newOwner",
          "type": "address"
        }
      ],
      "name": "OwnershipTransferred",
      "type": "event"
    },
    {
      "anonymous": false,
      "inputs": [
        {
          "indexed": true,
          "internalType": "address",
          "name": "from",
          "type": "address"
        },
        {
          "indexed": true,
          "internalType": "address",
          "name": "to",
          "type": "address"
        },
        {
          "indexed": true,
          "internalType": "uint256",
          "name": "tokenId",
          "type": "uint256"
        }
      ],
      "name": "Transfer",
      "type": "event"
    },
    {
      "inputs": [
        {
          "internalType": "address",
          "name": "newAddress",
          "type": "address"
        }
      ],
      "name": "addJurisdiction",
      "outputs": [],
      "stateMutability": "nonpayable",
      "type": "function"
    },
    {
      "inputs": [
        {
          "internalType": "address",
          "name": "to",
          "type": "address"
        },
        {
          "internalType": "uint256",
          "name": "tokenId",
          "type": "uint256"
        }
      ],
      "name": "approve",
      "outputs": [],
      "stateMutability": "nonpayable",
      "type": "function"
    },
    {
      "inputs": [
        {
          "internalType": "address",
          "name": "owner",
          "type": "address"
        }
      ],
      "name": "balanceOf",
      "outputs": [
        {
          "internalType": "uint256",
          "name": "",
          "type": "uint256"
        }
      ],
      "stateMutability": "view",
      "type": "function"
    },
    {
      "inputs": [],
      "name": "baseFee",
      "outputs": [
        {
          "internalType": "uint256",
          "name": "",
          "type": "uint256"
        }
      ],
      "stateMutability": "view",
      "type": "function"
    },
    {
      "inputs": [
        {
          "internalType": "uint256",
          "name": "newFee",
          "type": "uint256"
        }
      ],
      "name": "changeBaseFees",
      "outputs": [],
      "stateMutability": "nonpayable",
      "type": "function"
    },
    {
      "inputs": [
        {
          "internalType": "uint256",
          "name": "tokenId",
          "type": "uint256"
        }
      ],
      "name": "closeSeries",
      "outputs": [],
      "stateMutability": "payable",
      "type": "function"
    },
    {
      "inputs": [
        {
          "internalType": "uint16[]",
          "name": "jurisdiction",
          "type": "uint16[]"
        },
        {
          "internalType": "address[]",
          "name": "controller",
          "type": "address[]"
        },
        {
          "internalType": "uint64[]",
          "name": "creation",
          "type": "uint64[]"
        },
        {
          "internalType": "string[]",
          "name": "name",
          "type": "string[]"
        }
      ],
      "name": "createBatchSeries",
      "outputs": [],
      "stateMutability": "nonpayable",
      "type": "function"
    },
    {
      "inputs": [
        {
          "internalType": "uint16",
          "name": "jurisdiction",
          "type": "uint16"
        },
        {
          "internalType": "address",
          "name": "controller",
          "type": "address"
        },
        {
          "internalType": "string",
          "name": "name",
          "type": "string"
        }
      ],
      "name": "createSeries",
      "outputs": [],
      "stateMutability": "payable",
      "type": "function"
    },
    {
      "inputs": [
        {
          "internalType": "uint256",
          "name": "tokenId",
          "type": "uint256"
        }
      ],
      "name": "getApproved",
      "outputs": [
        {
          "internalType": "address",
          "name": "",
          "type": "address"
        }
      ],
      "stateMutability": "view",
      "type": "function"
    },
    {
      "inputs": [
        {
          "internalType": "address[]",
          "name": "jurisdictionAddresses",
          "type": "address[]"
        }
      ],
      "name": "initialize",
      "outputs": [],
      "stateMutability": "nonpayable",
      "type": "function"
    },
    {
      "inputs": [
        {
          "internalType": "address",
          "name": "owner",
          "type": "address"
        },
        {
          "internalType": "address",
          "name": "operator",
          "type": "address"
        }
      ],
      "name": "isApprovedForAll",
      "outputs": [
        {
          "internalType": "bool",
          "name": "",
          "type": "bool"
        }
      ],
      "stateMutability": "view",
      "type": "function"
    },
    {
      "inputs": [
        {
          "internalType": "uint16",
          "name": "",
          "type": "uint16"
        }
      ],
      "name": "jurisdictionAddress",
      "outputs": [
        {
          "internalType": "address",
          "name": "",
          "type": "address"
        }
      ],
      "stateMutability": "view",
      "type": "function"
    },
    {
      "inputs": [],
      "name": "jurisdictionCount",
      "outputs": [
        {
          "internalType": "uint16",
          "name": "",
          "type": "uint16"
        }
      ],
      "stateMutability": "view",
      "type": "function"
    },
    {
      "inputs": [],
      "name": "name",
      "outputs": [
        {
          "internalType": "string",
          "name": "",
          "type": "string"
        }
      ],
      "stateMutability": "view",
      "type": "function"
    },
    {
      "inputs": [],
      "name": "owner",
      "outputs": [
        {
          "internalType": "address",
          "name": "",
          "type": "address"
        }
      ],
      "stateMutability": "view",
      "type": "function"
    },
    {
      "inputs": [
        {
          "internalType": "uint256",
          "name": "tokenId",
          "type": "uint256"
        }
      ],
      "name": "ownerOf",
      "outputs": [
        {
          "internalType": "address",
          "name": "",
          "type": "address"
        }
      ],
      "stateMutability": "view",
      "type": "function"
    },
    {
      "inputs": [],
      "name": "renounceOwnership",
      "outputs": [],
      "stateMutability": "nonpayable",
      "type": "function"
    },
    {
      "inputs": [
        {
          "internalType": "address",
          "name": "from",
          "type": "address"
        },
        {
          "internalType": "address",
          "name": "to",
          "type": "address"
        },
        {
          "internalType": "uint256",
          "name": "tokenId",
          "type": "uint256"
        }
      ],
      "name": "safeTransferFrom",
      "outputs": [],
      "stateMutability": "nonpayable",
      "type": "function"
    },
    {
      "inputs": [
        {
          "internalType": "address",
          "name": "from",
          "type": "address"
        },
        {
          "internalType": "address",
          "name": "to",
          "type": "address"
        },
        {
          "internalType": "uint256",
          "name": "tokenId",
          "type": "uint256"
        },
        {
          "internalType": "bytes",
          "name": "_data",
          "type": "bytes"
        }
      ],
      "name": "safeTransferFrom",
      "outputs": [],
      "stateMutability": "nonpayable",
      "type": "function"
    },
    {
      "inputs": [
        {
          "internalType": "uint256",
          "name": "",
          "type": "uint256"
        }
      ],
      "name": "series",
      "outputs": [
        {
          "internalType": "uint16",
          "name": "jurisdiction",
          "type": "uint16"
        },
        {
          "internalType": "uint16",
          "name": "entityType",
          "type": "uint16"
        },
        {
          "internalType": "uint64",
          "name": "creation",
          "type": "uint64"
        },
        {
          "internalType": "string",
          "name": "name",
          "type": "string"
        }
      ],
      "stateMutability": "view",
      "type": "function"
    },
    {
      "inputs": [],
      "name": "seriesCount",
      "outputs": [
        {
          "internalType": "uint256",
          "name": "",
          "type": "uint256"
        }
      ],
      "stateMutability": "view",
      "type": "function"
    },
    {
      "inputs": [
        {
          "internalType": "uint16",
          "name": "",
          "type": "uint16"
        }
      ],
      "name": "seriesPerJurisdiction",
      "outputs": [
        {
          "internalType": "uint256",
          "name": "",
          "type": "uint256"
        }
      ],
      "stateMutability": "view",
      "type": "function"
    },
    {
      "inputs": [
        {
          "internalType": "address",
          "name": "operator",
          "type": "address"
        },
        {
          "internalType": "bool",
          "name": "approved",
          "type": "bool"
        }
      ],
      "name": "setApprovalForAll",
      "outputs": [],
      "stateMutability": "nonpayable",
      "type": "function"
    },
    {
      "inputs": [
        {
          "internalType": "bytes4",
          "name": "interfaceId",
          "type": "bytes4"
        }
      ],
      "name": "supportsInterface",
      "outputs": [
        {
          "internalType": "bool",
          "name": "",
          "type": "bool"
        }
      ],
      "stateMutability": "view",
      "type": "function"
    },
    {
      "inputs": [],
      "name": "symbol",
      "outputs": [
        {
          "internalType": "string",
          "name": "",
          "type": "string"
        }
      ],
      "stateMutability": "view",
      "type": "function"
    },
    {
      "inputs": [
        {
          "internalType": "uint256",
          "name": "tokenId",
          "type": "uint256"
        }
      ],
      "name": "tokenURI",
      "outputs": [
        {
          "internalType": "string",
          "name": "",
          "type": "string"
        }
      ],
      "stateMutability": "view",
      "type": "function"
    },
    {
      "inputs": [
        {
          "internalType": "address",
          "name": "from",
          "type": "address"
        },
        {
          "internalType": "address",
          "name": "to",
          "type": "address"
        },
        {
          "internalType": "uint256",
          "name": "tokenId",
          "type": "uint256"
        }
      ],
      "name": "transferFrom",
      "outputs": [],
      "stateMutability": "nonpayable",
      "type": "function"
    },
    {
      "inputs": [
        {
          "internalType": "address",
          "name": "newOwner",
          "type": "address"
        }
      ],
      "name": "transferOwnership",
      "outputs": [],
      "stateMutability": "nonpayable",
      "type": "function"
    },
    {
      "inputs": [
        {
          "internalType": "uint16",
          "name": "jurisdiction",
          "type": "uint16"
        },
        {
          "internalType": "address",
          "name": "newAddress",
          "type": "address"
        }
      ],
      "name": "updateJurisdiction",
      "outputs": [],
      "stateMutability": "nonpayable",
      "type": "function"
    },
    {
      "inputs": [],
      "name": "withdrawFees",
      "outputs": [],
      "stateMutability": "nonpayable",
      "type": "function"
    },
    {
      "stateMutability": "payable",
      "type": "receive"
    }
  ],
  "bytecode": "0x608060405234801561001057600080fd5b50615304806100206000396000f3fe6080604052600436106101d15760003560e01c8063715018a6116100f7578063c87b56dd11610095578063e985e9c511610064578063e985e9c514610671578063ecd04140146106ae578063ee19afad146106eb578063f2fde38b14610707576101d8565b8063c87b56dd1461058c578063d7f2c0ef146105c9578063dc22cb6a146105f4578063e8ab07e714610634576101d8565b8063a224cee7116100d1578063a224cee7146104e6578063a22cb4651461050f578063b514264414610538578063b88d4fde14610563576101d8565b8063715018a6146104795780638da5cb5b1461049057806395d89b41146104bb576101d8565b80633497dccf1161016f5780636352211e1161013e5780636352211e146103ab57806363a879e4146103e85780636ef25c3a1461041157806370a082311461043c576101d8565b80633497dccf1461032657806342842e0e1461034f57806342c92b9114610378578063476343ee14610394576101d8565b8063095ea7b3116101ab578063095ea7b31461028257806309d5a864146102ab57806323b872dd146102d45780632c8a2cc7146102fd576101d8565b806301ffc9a7146101dd57806306fdde031461021a578063081812fc14610245576101d8565b366101d857005b600080fd5b3480156101e957600080fd5b5061020460048036038101906101ff9190613990565b610730565b60405161021191906141d5565b60405180910390f35b34801561022657600080fd5b5061022f610812565b60405161023c91906141f0565b60405180910390f35b34801561025157600080fd5b5061026c60048036038101906102679190613aef565b6108a4565b6040516102799190614145565b60405180910390f35b34801561028e57600080fd5b506102a960048036038101906102a4919061383a565b610929565b005b3480156102b757600080fd5b506102d260048036038101906102cd9190613a4c565b610a41565b005b3480156102e057600080fd5b506102fb60048036038101906102f69190613734565b610b1b565b005b34801561030957600080fd5b50610324600480360381019061031f9190613aef565b610b7b565b005b34801561033257600080fd5b5061034d600480360381019061034891906136cf565b610c01565b005b34801561035b57600080fd5b5061037660048036038101906103719190613734565b610d25565b005b610392600480360381019061038d9190613aef565b610d45565b005b3480156103a057600080fd5b506103a9610e22565b005b3480156103b757600080fd5b506103d260048036038101906103cd9190613aef565b610f26565b6040516103df9190614145565b60405180910390f35b3480156103f457600080fd5b5061040f600480360381019061040a91906138bb565b610fd8565b005b34801561041d57600080fd5b50610426611618565b6040516104339190614519565b60405180910390f35b34801561044857600080fd5b50610463600480360381019061045e91906136cf565b61161e565b6040516104709190614519565b60405180910390f35b34801561048557600080fd5b5061048e6116d6565b005b34801561049c57600080fd5b506104a561175e565b6040516104b29190614145565b60405180910390f35b3480156104c757600080fd5b506104d0611788565b6040516104dd91906141f0565b60405180910390f35b3480156104f257600080fd5b5061050d60048036038101906105089190613876565b61181a565b005b34801561051b57600080fd5b50610536600480360381019061053191906137fe565b611a7c565b005b34801561054457600080fd5b5061054d611a92565b60405161055a91906144b2565b60405180910390f35b34801561056f57600080fd5b5061058a60048036038101906105859190613783565b611aa6565b005b34801561059857600080fd5b506105b360048036038101906105ae9190613aef565b611b08565b6040516105c091906141f0565b60405180910390f35b3480156105d557600080fd5b506105de611e9f565b6040516105eb9190614519565b60405180910390f35b34801561060057600080fd5b5061061b60048036038101906106169190613aef565b611ea5565b60405161062b94939291906144cd565b60405180910390f35b34801561064057600080fd5b5061065b60048036038101906106569190613a23565b611f8d565b6040516106689190614145565b60405180910390f35b34801561067d57600080fd5b50610698600480360381019061069391906136f8565b611fc0565b6040516106a591906141d5565b60405180910390f35b3480156106ba57600080fd5b506106d560048036038101906106d09190613a23565b612054565b6040516106e29190614519565b60405180910390f35b61070560048036038101906107009190613a88565b61206c565b005b34801561071357600080fd5b5061072e600480360381019061072991906136cf565b6122e8565b005b60007f80ac58cd000000000000000000000000000000000000000000000000000000007bffffffffffffffffffffffffffffffffffffffffffffffffffffffff1916827bffffffffffffffffffffffffffffffffffffffffffffffffffffffff191614806107fb57507f5b5e139f000000000000000000000000000000000000000000000000000000007bffffffffffffffffffffffffffffffffffffffffffffffffffffffff1916827bffffffffffffffffffffffffffffffffffffffffffffffffffffffff1916145b8061080b575061080a826123e0565b5b9050919050565b6060609780546108219061488f565b80601f016020809104026020016040519081016040528092919081815260200182805461084d9061488f565b801561089a5780601f1061086f5761010080835404028352916020019161089a565b820191906000526020600020905b81548152906001019060200180831161087d57829003601f168201915b5050505050905090565b60006108af8261244a565b6108ee576040517f08c379a00000000000000000000000000000000000000000000000000000000081526004016108e5906143f2565b60405180910390fd5b609b600083815260200190815260200160002060009054906101000a900473ffffffffffffffffffffffffffffffffffffffff169050919050565b600061093482610f26565b90508073ffffffffffffffffffffffffffffffffffffffff168373ffffffffffffffffffffffffffffffffffffffff1614156109a5576040517f08c379a000000000000000000000000000000000000000000000000000000000815260040161099c90614432565b60405180910390fd5b8073ffffffffffffffffffffffffffffffffffffffff166109c46124b6565b73ffffffffffffffffffffffffffffffffffffffff1614806109f357506109f2816109ed6124b6565b611fc0565b5b610a32576040517f08c379a0000000000000000000000000000000000000000000000000000000008152600401610a2990614352565b60405180910390fd5b610a3c83836124be565b505050565b610a496124b6565b73ffffffffffffffffffffffffffffffffffffffff16610a6761175e565b73ffffffffffffffffffffffffffffffffffffffff1614610abd576040517f08c379a0000000000000000000000000000000000000000000000000000000008152600401610ab490614412565b60405180910390fd5b8060cd60008461ffff1661ffff16815260200190815260200160002060006101000a81548173ffffffffffffffffffffffffffffffffffffffff021916908373ffffffffffffffffffffffffffffffffffffffff1602179055505050565b610b2c610b266124b6565b82612577565b610b6b576040517f08c379a0000000000000000000000000000000000000000000000000000000008152600401610b6290614452565b60405180910390fd5b610b76838383612655565b505050565b610b836124b6565b73ffffffffffffffffffffffffffffffffffffffff16610ba161175e565b73ffffffffffffffffffffffffffffffffffffffff1614610bf7576040517f08c379a0000000000000000000000000000000000000000000000000000000008152600401610bee90614412565b60405180910390fd5b8060cf8190555050565b610c096124b6565b73ffffffffffffffffffffffffffffffffffffffff16610c2761175e565b73ffffffffffffffffffffffffffffffffffffffff1614610c7d576040517f08c379a0000000000000000000000000000000000000000000000000000000008152600401610c7490614412565b60405180910390fd5b8060cd600060cc60009054906101000a900461ffff1661ffff1661ffff16815260200190815260200160002060006101000a81548173ffffffffffffffffffffffffffffffffffffffff021916908373ffffffffffffffffffffffffffffffffffffffff16021790555060cc600081819054906101000a900461ffff1680929190610d07906148f2565b91906101000a81548161ffff021916908361ffff1602179055505050565b610d4083838360405180602001604052806000815250611aa6565b505050565b60cf545a3a610d54919061470c565b610d5e91906146db565b341015610da0576040517f08c379a0000000000000000000000000000000000000000000000000000000008152600401610d9790614492565b60405180910390fd5b3373ffffffffffffffffffffffffffffffffffffffff16610dc082610f26565b73ffffffffffffffffffffffffffffffffffffffff1614610e16576040517f08c379a0000000000000000000000000000000000000000000000000000000008152600401610e0d906142d2565b60405180910390fd5b610e1f816128bc565b50565b610e2a6124b6565b73ffffffffffffffffffffffffffffffffffffffff16610e4861175e565b73ffffffffffffffffffffffffffffffffffffffff1614610e9e576040517f08c379a0000000000000000000000000000000000000000000000000000000008152600401610e9590614412565b60405180910390fd5b60004790503373ffffffffffffffffffffffffffffffffffffffff166108fc829081150290604051600060405180830381858888f19350505050158015610ee9573d6000803e3d6000fd5b507fc0819c13be868895eb93e40eaceb96de976442fa1d404e5c55f14bb65a8c489a3382604051610f1b9291906141ac565b60405180910390a150565b6000806099600084815260200190815260200160002060009054906101000a900473ffffffffffffffffffffffffffffffffffffffff169050600073ffffffffffffffffffffffffffffffffffffffff168173ffffffffffffffffffffffffffffffffffffffff161415610fcf576040517f08c379a0000000000000000000000000000000000000000000000000000000008152600401610fc690614392565b60405180910390fd5b80915050919050565b610fe06124b6565b73ffffffffffffffffffffffffffffffffffffffff16610ffe61175e565b73ffffffffffffffffffffffffffffffffffffffff1614611054576040517f08c379a000000000000000000000000000000000000000000000000000000000815260040161104b90614412565b60405180910390fd5b85859050888890501461109c576040517f08c379a000000000000000000000000000000000000000000000000000000000815260040161109390614212565b60405180910390fd5b8585905082829050146110e4576040517f08c379a00000000000000000000000000000000000000000000000000000000081526004016110db90614252565b60405180910390fd5b6000868690509050600060cc60009054906101000a900461ffff1661ffff1667ffffffffffffffff811115611142577f4e487b7100000000000000000000000000000000000000000000000000000000600052604160045260246000fd5b6040519080825280602002602001820160405280156111705781602001602082028036833780820191505090505b50905060005b8263ffffffff168163ffffffff16101561152557818b8b8363ffffffff168181106111ca577f4e487b7100000000000000000000000000000000000000000000000000000000600052603260045260246000fd5b90506020020160208101906111df9190613a23565b61ffff168151811061121a577f4e487b7100000000000000000000000000000000000000000000000000000000600052603260045260246000fd5b60200260200101805180919061122f90614966565b63ffffffff1663ffffffff168152505060405180608001604052808c8c8463ffffffff16818110611289577f4e487b7100000000000000000000000000000000000000000000000000000000600052603260045260246000fd5b905060200201602081019061129e9190613a23565b61ffff168152602001600061ffff16815260200188888463ffffffff168181106112f1577f4e487b7100000000000000000000000000000000000000000000000000000000600052603260045260246000fd5b90506020020160208101906113069190613b18565b67ffffffffffffffff16815260200186868463ffffffff16818110611354577f4e487b7100000000000000000000000000000000000000000000000000000000600052603260045260246000fd5b90506020028101906113669190614564565b8080601f016020809104026020016040519081016040528093929190818152602001838380828437600081840152601f19601f8201169050808301925050505050505081525060cb600060c9548463ffffffff166113c49190614685565b63ffffffff16815260200190815260200160002060008201518160000160006101000a81548161ffff021916908361ffff16021790555060208201518160000160026101000a81548161ffff021916908361ffff16021790555060408201518160000160046101000a81548167ffffffffffffffff021916908367ffffffffffffffff1602179055506060820151816001019080519060200190611469929190613339565b50905050600073ffffffffffffffffffffffffffffffffffffffff1689898363ffffffff168181106114c4577f4e487b7100000000000000000000000000000000000000000000000000000000600052603260045260246000fd5b90506020020160208101906114d991906136cf565b73ffffffffffffffffffffffffffffffffffffffff1614611512576115113360c9548363ffffffff1661150c9190614685565b6129d9565b5b808061151d90614966565b915050611176565b508163ffffffff1660c95461153a9190614685565b60c98190555060c95460ca8190555060005b60cc60009054906101000a900461ffff1661ffff168160ff16101561160b57818160ff16815181106115a7577f4e487b7100000000000000000000000000000000000000000000000000000000600052603260045260246000fd5b602002602001015163ffffffff1660ce60008360ff1661ffff168152602001908152602001600020546115da9190614685565b60ce60008360ff1661ffff16815260200190815260200160002081905550808061160390614993565b91505061154c565b5050505050505050505050565b60cf5481565b60008073ffffffffffffffffffffffffffffffffffffffff168273ffffffffffffffffffffffffffffffffffffffff16141561168f576040517f08c379a000000000000000000000000000000000000000000000000000000000815260040161168690614372565b60405180910390fd5b609a60008373ffffffffffffffffffffffffffffffffffffffff1673ffffffffffffffffffffffffffffffffffffffff168152602001908152602001600020549050919050565b6116de6124b6565b73ffffffffffffffffffffffffffffffffffffffff166116fc61175e565b73ffffffffffffffffffffffffffffffffffffffff1614611752576040517f08c379a000000000000000000000000000000000000000000000000000000000815260040161174990614412565b60405180910390fd5b61175c6000612bb3565b565b6000603360009054906101000a900473ffffffffffffffffffffffffffffffffffffffff16905090565b6060609880546117979061488f565b80601f01602080910402602001604051908101604052809291908181526020018280546117c39061488f565b80156118105780601f106117e557610100808354040283529160200191611810565b820191906000526020600020905b8154815290600101906020018083116117f357829003601f168201915b5050505050905090565b600060019054906101000a900460ff166118425760008054906101000a900460ff161561184b565b61184a612c79565b5b61188a576040517f08c379a0000000000000000000000000000000000000000000000000000000008152600401611881906143b2565b60405180910390fd5b60008060019054906101000a900460ff1615905080156118da576001600060016101000a81548160ff02191690831515021790555060016000806101000a81548160ff0219169083151502179055505b6118e2612c8a565b6119566040518060400160405280600c81526020017f4f746f436f2053657269657300000000000000000000000000000000000000008152506040518060400160405280600581526020017f4f544f434f000000000000000000000000000000000000000000000000000000815250612ce3565b600083839050905060005b8161ffff168161ffff161015611a2f5784848261ffff168181106119ae577f4e487b7100000000000000000000000000000000000000000000000000000000600052603260045260246000fd5b90506020020160208101906119c391906136cf565b60cd60008361ffff1661ffff16815260200190815260200160002060006101000a81548173ffffffffffffffffffffffffffffffffffffffff021916908373ffffffffffffffffffffffffffffffffffffffff1602179055508080611a27906148f2565b915050611961565b508060cc60006101000a81548161ffff021916908361ffff160217905550600a60cf81905550508015611a775760008060016101000a81548160ff0219169083151502179055505b505050565b611a8e611a876124b6565b8383612d40565b5050565b60cc60009054906101000a900461ffff1681565b611ab7611ab16124b6565b83612577565b611af6576040517f08c379a0000000000000000000000000000000000000000000000000000000008152600401611aed90614452565b60405180910390fd5b611b0284848484612ead565b50505050565b6060600060cb60008481526020019081526020016000206040518060800160405290816000820160009054906101000a900461ffff1661ffff1661ffff1681526020016000820160029054906101000a900461ffff1661ffff1661ffff1681526020016000820160049054906101000a900467ffffffffffffffff1667ffffffffffffffff1667ffffffffffffffff168152602001600182018054611bac9061488f565b80601f0160208091040260200160405190810160405280929190818152602001828054611bd89061488f565b8015611c255780601f10611bfa57610100808354040283529160200191611c25565b820191906000526020600020905b815481529060010190602001808311611c0857829003601f168201915b5050505050815250509050600060cd6000836000015161ffff1661ffff16815260200190815260200160002060009054906101000a900473ffffffffffffffffffffffffffffffffffffffff16905060008173ffffffffffffffffffffffffffffffffffffffff1663806e30ad6040518163ffffffff1660e01b815260040160006040518083038186803b158015611cbc57600080fd5b505afa158015611cd0573d6000803e3d6000fd5b505050506040513d6000823e3d601f19601f82011682018060405250810190611cf991906139e2565b905060ca54851015611d8b578173ffffffffffffffffffffffffffffffffffffffff16633b6d35736040518163ffffffff1660e01b815260040160006040518083038186803b158015611d4b57600080fd5b505afa158015611d5f573d6000803e3d6000fd5b505050506040513d6000823e3d601f19601f82011682018060405250810190611d8891906139e2565b90505b60008584606001518473ffffffffffffffffffffffffffffffffffffffff1663407e3f276040518163ffffffff1660e01b815260040160006040518083038186803b158015611dd957600080fd5b505afa158015611ded573d6000803e3d6000fd5b505050506040513d6000823e3d601f19601f82011682018060405250810190611e1691906139e2565b8660400151604051602001611e2e94939291906140d3565b60405160208183030381529060405290506000611e7185606001518385604051602001611e5d93929190614054565b604051602081830303815290604052612f09565b905080604051602001611e8491906140b1565b60405160208183030381529060405295505050505050919050565b60c95481565b60cb6020528060005260406000206000915090508060000160009054906101000a900461ffff16908060000160029054906101000a900461ffff16908060000160049054906101000a900467ffffffffffffffff1690806001018054611f0a9061488f565b80601f0160208091040260200160405190810160405280929190818152602001828054611f369061488f565b8015611f835780601f10611f5857610100808354040283529160200191611f83565b820191906000526020600020905b815481529060010190602001808311611f6657829003601f168201915b5050505050905084565b60cd6020528060005260406000206000915054906101000a900473ffffffffffffffffffffffffffffffffffffffff1681565b6000609c60008473ffffffffffffffffffffffffffffffffffffffff1673ffffffffffffffffffffffffffffffffffffffff16815260200190815260200160002060008373ffffffffffffffffffffffffffffffffffffffff1673ffffffffffffffffffffffffffffffffffffffff16815260200190815260200160002060009054906101000a900460ff16905092915050565b60ce6020528060005260406000206000915090505481565b60cf545a3a61207b919061470c565b61208591906146db565b3410156120c7576040517f08c379a00000000000000000000000000000000000000000000000000000000081526004016120be90614492565b60405180910390fd5b600060c954905060405180608001604052808561ffff168152602001600061ffff1681526020014267ffffffffffffffff16815260200160cd60008761ffff1661ffff16815260200190815260200160002060009054906101000a900473ffffffffffffffffffffffffffffffffffffffff1673ffffffffffffffffffffffffffffffffffffffff1663d7786ba760ce60008961ffff1661ffff16815260200190815260200160002054866040518363ffffffff1660e01b815260040161218f929190614534565b60006040518083038186803b1580156121a757600080fd5b505afa1580156121bb573d6000803e3d6000fd5b505050506040513d6000823e3d601f19601f820116820180604052508101906121e491906139e2565b81525060cb600083815260200190815260200160002060008201518160000160006101000a81548161ffff021916908361ffff16021790555060208201518160000160026101000a81548161ffff021916908361ffff16021790555060408201518160000160046101000a81548167ffffffffffffffff021916908367ffffffffffffffff160217905550606082015181600101908051906020019061228b929190613339565b5090505061229983826129d9565b60c960008154809291906122ac9061491d565b919050555060ce60008561ffff1661ffff16815260200190815260200160002060008154809291906122dd9061491d565b919050555050505050565b6122f06124b6565b73ffffffffffffffffffffffffffffffffffffffff1661230e61175e565b73ffffffffffffffffffffffffffffffffffffffff1614612364576040517f08c379a000000000000000000000000000000000000000000000000000000000815260040161235b90614412565b60405180910390fd5b600073ffffffffffffffffffffffffffffffffffffffff168173ffffffffffffffffffffffffffffffffffffffff1614156123d4576040517f08c379a00000000000000000000000000000000000000000000000000000000081526004016123cb90614272565b60405180910390fd5b6123dd81612bb3565b50565b60007f01ffc9a7000000000000000000000000000000000000000000000000000000007bffffffffffffffffffffffffffffffffffffffffffffffffffffffff1916827bffffffffffffffffffffffffffffffffffffffffffffffffffffffff1916149050919050565b60008073ffffffffffffffffffffffffffffffffffffffff166099600084815260200190815260200160002060009054906101000a900473ffffffffffffffffffffffffffffffffffffffff1673ffffffffffffffffffffffffffffffffffffffff1614159050919050565b600033905090565b81609b600083815260200190815260200160002060006101000a81548173ffffffffffffffffffffffffffffffffffffffff021916908373ffffffffffffffffffffffffffffffffffffffff160217905550808273ffffffffffffffffffffffffffffffffffffffff1661253183610f26565b73ffffffffffffffffffffffffffffffffffffffff167f8c5be1e5ebec7d5bd14f71427d1e84f3dd0314c0f7b2291e5b200ac8c7c3b92560405160405180910390a45050565b60006125828261244a565b6125c1576040517f08c379a00000000000000000000000000000000000000000000000000000000081526004016125b890614332565b60405180910390fd5b60006125cc83610f26565b90508073ffffffffffffffffffffffffffffffffffffffff168473ffffffffffffffffffffffffffffffffffffffff16148061263b57508373ffffffffffffffffffffffffffffffffffffffff16612623846108a4565b73ffffffffffffffffffffffffffffffffffffffff16145b8061264c575061264b8185611fc0565b5b91505092915050565b8273ffffffffffffffffffffffffffffffffffffffff1661267582610f26565b73ffffffffffffffffffffffffffffffffffffffff16146126cb576040517f08c379a00000000000000000000000000000000000000000000000000000000081526004016126c290614292565b60405180910390fd5b600073ffffffffffffffffffffffffffffffffffffffff168273ffffffffffffffffffffffffffffffffffffffff16141561273b576040517f08c379a0000000000000000000000000000000000000000000000000000000008152600401612732906142f2565b60405180910390fd5b612746838383613093565b6127516000826124be565b6001609a60008573ffffffffffffffffffffffffffffffffffffffff1673ffffffffffffffffffffffffffffffffffffffff16815260200190815260200160002060008282546127a19190614766565b925050819055506001609a60008473ffffffffffffffffffffffffffffffffffffffff1673ffffffffffffffffffffffffffffffffffffffff16815260200190815260200160002060008282546127f89190614685565b92505081905550816099600083815260200190815260200160002060006101000a81548173ffffffffffffffffffffffffffffffffffffffff021916908373ffffffffffffffffffffffffffffffffffffffff160217905550808273ffffffffffffffffffffffffffffffffffffffff168473ffffffffffffffffffffffffffffffffffffffff167fddf252ad1be2c89b69c2b068fc378daa952ba7f163c4a11628f55a4df523b3ef60405160405180910390a46128b7838383613098565b505050565b60006128c782610f26565b90506128d581600084613093565b6128e06000836124be565b6001609a60008373ffffffffffffffffffffffffffffffffffffffff1673ffffffffffffffffffffffffffffffffffffffff16815260200190815260200160002060008282546129309190614766565b925050819055506099600083815260200190815260200160002060006101000a81549073ffffffffffffffffffffffffffffffffffffffff021916905581600073ffffffffffffffffffffffffffffffffffffffff168273ffffffffffffffffffffffffffffffffffffffff167fddf252ad1be2c89b69c2b068fc378daa952ba7f163c4a11628f55a4df523b3ef60405160405180910390a46129d581600084613098565b5050565b600073ffffffffffffffffffffffffffffffffffffffff168273ffffffffffffffffffffffffffffffffffffffff161415612a49576040517f08c379a0000000000000000000000000000000000000000000000000000000008152600401612a40906143d2565b60405180910390fd5b612a528161244a565b15612a92576040517f08c379a0000000000000000000000000000000000000000000000000000000008152600401612a89906142b2565b60405180910390fd5b612a9e60008383613093565b6001609a60008473ffffffffffffffffffffffffffffffffffffffff1673ffffffffffffffffffffffffffffffffffffffff1681526020019081526020016000206000828254612aee9190614685565b92505081905550816099600083815260200190815260200160002060006101000a81548173ffffffffffffffffffffffffffffffffffffffff021916908373ffffffffffffffffffffffffffffffffffffffff160217905550808273ffffffffffffffffffffffffffffffffffffffff16600073ffffffffffffffffffffffffffffffffffffffff167fddf252ad1be2c89b69c2b068fc378daa952ba7f163c4a11628f55a4df523b3ef60405160405180910390a4612baf60008383613098565b5050565b6000603360009054906101000a900473ffffffffffffffffffffffffffffffffffffffff16905081603360006101000a81548173ffffffffffffffffffffffffffffffffffffffff021916908373ffffffffffffffffffffffffffffffffffffffff1602179055508173ffffffffffffffffffffffffffffffffffffffff168173ffffffffffffffffffffffffffffffffffffffff167f8be0079c531659141344cd1fd0a4f28419497f9722a3daafe3b4186f6b6457e060405160405180910390a35050565b6000612c843061309d565b15905090565b600060019054906101000a900460ff16612cd9576040517f08c379a0000000000000000000000000000000000000000000000000000000008152600401612cd090614472565b60405180910390fd5b612ce16130c0565b565b600060019054906101000a900460ff16612d32576040517f08c379a0000000000000000000000000000000000000000000000000000000008152600401612d2990614472565b60405180910390fd5b612d3c8282613121565b5050565b8173ffffffffffffffffffffffffffffffffffffffff168373ffffffffffffffffffffffffffffffffffffffff161415612daf576040517f08c379a0000000000000000000000000000000000000000000000000000000008152600401612da690614312565b60405180910390fd5b80609c60008573ffffffffffffffffffffffffffffffffffffffff1673ffffffffffffffffffffffffffffffffffffffff16815260200190815260200160002060008473ffffffffffffffffffffffffffffffffffffffff1673ffffffffffffffffffffffffffffffffffffffff16815260200190815260200160002060006101000a81548160ff0219169083151502179055508173ffffffffffffffffffffffffffffffffffffffff168373ffffffffffffffffffffffffffffffffffffffff167f17307eab39ab6107e8899845ad3d59bd9653f200f220920489ca2b5937696c3183604051612ea091906141d5565b60405180910390a3505050565b612eb8848484612655565b612ec4848484846131a2565b612f03576040517f08c379a0000000000000000000000000000000000000000000000000000000008152600401612efa90614232565b60405180910390fd5b50505050565b6060600082511415612f2c5760405180602001604052806000815250905061308e565b600060405180606001604052806040815260200161528f6040913990506000600360028551612f5b9190614685565b612f6591906146db565b6004612f71919061470c565b67ffffffffffffffff811115612fb0577f4e487b7100000000000000000000000000000000000000000000000000000000600052604160045260246000fd5b6040519080825280601f01601f191660200182016040528015612fe25781602001600182028036833780820191505090505b509050600182016020820185865187015b8082101561304e576003820191508151603f8160121c168501518453600184019350603f81600c1c168501518453600184019350603f8160061c168501518453600184019350603f8116850151845360018401935050612ff3565b505060038651066001811461306a576002811461307d57613085565b603d6001830353603d6002830353613085565b603d60018303535b50505080925050505b919050565b505050565b505050565b6000808273ffffffffffffffffffffffffffffffffffffffff163b119050919050565b600060019054906101000a900460ff1661310f576040517f08c379a000000000000000000000000000000000000000000000000000000000815260040161310690614472565b60405180910390fd5b61311f61311a6124b6565b612bb3565b565b600060019054906101000a900460ff16613170576040517f08c379a000000000000000000000000000000000000000000000000000000000815260040161316790614472565b60405180910390fd5b8160979080519060200190613186929190613339565b50806098908051906020019061319d929190613339565b505050565b60006131c38473ffffffffffffffffffffffffffffffffffffffff1661309d565b1561332c578373ffffffffffffffffffffffffffffffffffffffff1663150b7a026131ec6124b6565b8786866040518563ffffffff1660e01b815260040161320e9493929190614160565b602060405180830381600087803b15801561322857600080fd5b505af192505050801561325957506040513d601f19601f8201168201806040525081019061325691906139b9565b60015b6132dc573d8060008114613289576040519150601f19603f3d011682016040523d82523d6000602084013e61328e565b606091505b506000815114156132d4576040517f08c379a00000000000000000000000000000000000000000000000000000000081526004016132cb90614232565b60405180910390fd5b805181602001fd5b63150b7a0260e01b7bffffffffffffffffffffffffffffffffffffffffffffffffffffffff1916817bffffffffffffffffffffffffffffffffffffffffffffffffffffffff191614915050613331565b600190505b949350505050565b8280546133459061488f565b90600052602060002090601f01602090048101928261336757600085556133ae565b82601f1061338057805160ff19168380011785556133ae565b828001600101855582156133ae579182015b828111156133ad578251825591602001919060010190613392565b5b5090506133bb91906133bf565b5090565b5b808211156133d85760008160009055506001016133c0565b5090565b60006133ef6133ea846145e0565b6145bb565b90508281526020810184848401111561340757600080fd5b61341284828561484d565b509392505050565b600061342d61342884614611565b6145bb565b90508281526020810184848401111561344557600080fd5b61345084828561484d565b509392505050565b600061346b61346684614611565b6145bb565b90508281526020810184848401111561348357600080fd5b61348e84828561485c565b509392505050565b6000813590506134a581615204565b92915050565b60008083601f8401126134bd57600080fd5b8235905067ffffffffffffffff8111156134d657600080fd5b6020830191508360208202830111156134ee57600080fd5b9250929050565b60008083601f84011261350757600080fd5b8235905067ffffffffffffffff81111561352057600080fd5b60208301915083602082028301111561353857600080fd5b9250929050565b60008083601f84011261355157600080fd5b8235905067ffffffffffffffff81111561356a57600080fd5b60208301915083602082028301111561358257600080fd5b9250929050565b60008083601f84011261359b57600080fd5b8235905067ffffffffffffffff8111156135b457600080fd5b6020830191508360208202830111156135cc57600080fd5b9250929050565b6000813590506135e28161521b565b92915050565b6000813590506135f781615232565b92915050565b60008151905061360c81615232565b92915050565b600082601f83011261362357600080fd5b81356136338482602086016133dc565b91505092915050565b600082601f83011261364d57600080fd5b813561365d84826020860161341a565b91505092915050565b600082601f83011261367757600080fd5b8151613687848260208601613458565b91505092915050565b60008135905061369f81615249565b92915050565b6000813590506136b481615260565b92915050565b6000813590506136c981615277565b92915050565b6000602082840312156136e157600080fd5b60006136ef84828501613496565b91505092915050565b6000806040838503121561370b57600080fd5b600061371985828601613496565b925050602061372a85828601613496565b9150509250929050565b60008060006060848603121561374957600080fd5b600061375786828701613496565b935050602061376886828701613496565b9250506040613779868287016136a5565b9150509250925092565b6000806000806080858703121561379957600080fd5b60006137a787828801613496565b94505060206137b887828801613496565b93505060406137c9878288016136a5565b925050606085013567ffffffffffffffff8111156137e657600080fd5b6137f287828801613612565b91505092959194509250565b6000806040838503121561381157600080fd5b600061381f85828601613496565b9250506020613830858286016135d3565b9150509250929050565b6000806040838503121561384d57600080fd5b600061385b85828601613496565b925050602061386c858286016136a5565b9150509250929050565b6000806020838503121561388957600080fd5b600083013567ffffffffffffffff8111156138a357600080fd5b6138af858286016134ab565b92509250509250929050565b6000806000806000806000806080898b0312156138d757600080fd5b600089013567ffffffffffffffff8111156138f157600080fd5b6138fd8b828c0161353f565b9850985050602089013567ffffffffffffffff81111561391c57600080fd5b6139288b828c016134ab565b9650965050604089013567ffffffffffffffff81111561394757600080fd5b6139538b828c01613589565b9450945050606089013567ffffffffffffffff81111561397257600080fd5b61397e8b828c016134f5565b92509250509295985092959890939650565b6000602082840312156139a257600080fd5b60006139b0848285016135e8565b91505092915050565b6000602082840312156139cb57600080fd5b60006139d9848285016135fd565b91505092915050565b6000602082840312156139f457600080fd5b600082015167ffffffffffffffff811115613a0e57600080fd5b613a1a84828501613666565b91505092915050565b600060208284031215613a3557600080fd5b6000613a4384828501613690565b91505092915050565b60008060408385031215613a5f57600080fd5b6000613a6d85828601613690565b9250506020613a7e85828601613496565b9150509250929050565b600080600060608486031215613a9d57600080fd5b6000613aab86828701613690565b9350506020613abc86828701613496565b925050604084013567ffffffffffffffff811115613ad957600080fd5b613ae58682870161363c565b9150509250925092565b600060208284031215613b0157600080fd5b6000613b0f848285016136a5565b91505092915050565b600060208284031215613b2a57600080fd5b6000613b38848285016136ba565b91505092915050565b613b4a8161479a565b82525050565b613b59816147ac565b82525050565b6000613b6a82614642565b613b748185614658565b9350613b8481856020860161485c565b613b8d81614a95565b840191505092915050565b6000613ba38261464d565b613bad8185614669565b9350613bbd81856020860161485c565b613bc681614a95565b840191505092915050565b6000613bdc8261464d565b613be6818561467a565b9350613bf681856020860161485c565b80840191505092915050565b6000613c0f604083614669565b9150613c1a82614ab3565b604082019050919050565b6000613c3260138361467a565b9150613c3d82614b02565b601382019050919050565b6000613c55603283614669565b9150613c6082614b2b565b604082019050919050565b6000613c7860288361467a565b9150613c8382614b7a565b602882019050919050565b6000613c9b603883614669565b9150613ca682614bc9565b604082019050919050565b6000613cbe602683614669565b9150613cc982614c18565b604082019050919050565b6000613ce1602583614669565b9150613cec82614c67565b604082019050919050565b6000613d04601c83614669565b9150613d0f82614cb6565b602082019050919050565b6000613d27602783614669565b9150613d3282614cdf565b604082019050919050565b6000613d4a60128361467a565b9150613d5582614d2e565b601282019050919050565b6000613d6d602483614669565b9150613d7882614d57565b604082019050919050565b6000613d90601983614669565b9150613d9b82614da6565b602082019050919050565b6000613db3602c83614669565b9150613dbe82614dcf565b604082019050919050565b6000613dd6603883614669565b9150613de182614e1e565b604082019050919050565b6000613df9602a83614669565b9150613e0482614e6d565b604082019050919050565b6000613e1c602983614669565b9150613e2782614ebc565b604082019050919050565b6000613e3f602e83614669565b9150613e4a82614f0b565b604082019050919050565b6000613e6260028361467a565b9150613e6d82614f5a565b600282019050919050565b6000613e85602083614669565b9150613e9082614f83565b602082019050919050565b6000613ea8602c83614669565b9150613eb382614fac565b604082019050919050565b6000613ecb602083614669565b9150613ed682614ffb565b602082019050919050565b6000613eee60038361467a565b9150613ef982615024565b600382019050919050565b6000613f11600a8361467a565b9150613f1c8261504d565b600a82019050919050565b6000613f34602183614669565b9150613f3f82615076565b604082019050919050565b6000613f57601d8361467a565b9150613f62826150c5565b601d82019050919050565b6000613f7a603183614669565b9150613f85826150ee565b604082019050919050565b6000613f9d602b83614669565b9150613fa88261513d565b604082019050919050565b6000613fc0602683614669565b9150613fcb8261518c565b604082019050919050565b6000613fe3600e8361467a565b9150613fee826151db565b600e82019050919050565b614002816147e4565b82525050565b61401181614812565b82525050565b61402861402382614812565b6149bd565b82525050565b6140378161482c565b82525050565b61404e6140498261482c565b6149c7565b82525050565b600061405f82613f04565b915061406b8286613bd1565b915061407682613c25565b91506140828285613bd1565b915061408d82613d3d565b91506140998284613bd1565b91506140a482613e55565b9150819050949350505050565b60006140bc82613f4a565b91506140c88284613bd1565b915081905092915050565b60006140de82613fd6565b91506140ea8287614017565b6020820191506140f982613ee1565b91506141058286613bd1565b915061411082613ee1565b915061411c8285613bd1565b915061412782613c6b565b9150614133828461403d565b60088201915081905095945050505050565b600060208201905061415a6000830184613b41565b92915050565b60006080820190506141756000830187613b41565b6141826020830186613b41565b61418f6040830185614008565b81810360608301526141a18184613b5f565b905095945050505050565b60006040820190506141c16000830185613b41565b6141ce6020830184614008565b9392505050565b60006020820190506141ea6000830184613b50565b92915050565b6000602082019050818103600083015261420a8184613b98565b905092915050565b6000602082019050818103600083015261422b81613c02565b9050919050565b6000602082019050818103600083015261424b81613c48565b9050919050565b6000602082019050818103600083015261426b81613c8e565b9050919050565b6000602082019050818103600083015261428b81613cb1565b9050919050565b600060208201905081810360008301526142ab81613cd4565b9050919050565b600060208201905081810360008301526142cb81613cf7565b9050919050565b600060208201905081810360008301526142eb81613d1a565b9050919050565b6000602082019050818103600083015261430b81613d60565b9050919050565b6000602082019050818103600083015261432b81613d83565b9050919050565b6000602082019050818103600083015261434b81613da6565b9050919050565b6000602082019050818103600083015261436b81613dc9565b9050919050565b6000602082019050818103600083015261438b81613dec565b9050919050565b600060208201905081810360008301526143ab81613e0f565b9050919050565b600060208201905081810360008301526143cb81613e32565b9050919050565b600060208201905081810360008301526143eb81613e78565b9050919050565b6000602082019050818103600083015261440b81613e9b565b9050919050565b6000602082019050818103600083015261442b81613ebe565b9050919050565b6000602082019050818103600083015261444b81613f27565b9050919050565b6000602082019050818103600083015261446b81613f6d565b9050919050565b6000602082019050818103600083015261448b81613f90565b9050919050565b600060208201905081810360008301526144ab81613fb3565b9050919050565b60006020820190506144c76000830184613ff9565b92915050565b60006080820190506144e26000830187613ff9565b6144ef6020830186613ff9565b6144fc604083018561402e565b818103606083015261450e8184613b98565b905095945050505050565b600060208201905061452e6000830184614008565b92915050565b60006040820190506145496000830185614008565b818103602083015261455b8184613b98565b90509392505050565b6000808335600160200384360303811261457d57600080fd5b80840192508235915067ffffffffffffffff82111561459b57600080fd5b6020830192506001820236038313156145b357600080fd5b509250929050565b60006145c56145d6565b90506145d182826148c1565b919050565b6000604051905090565b600067ffffffffffffffff8211156145fb576145fa614a66565b5b61460482614a95565b9050602081019050919050565b600067ffffffffffffffff82111561462c5761462b614a66565b5b61463582614a95565b9050602081019050919050565b600081519050919050565b600081519050919050565b600082825260208201905092915050565b600082825260208201905092915050565b600081905092915050565b600061469082614812565b915061469b83614812565b9250827fffffffffffffffffffffffffffffffffffffffffffffffffffffffffffffffff038211156146d0576146cf6149d9565b5b828201905092915050565b60006146e682614812565b91506146f183614812565b92508261470157614700614a08565b5b828204905092915050565b600061471782614812565b915061472283614812565b9250817fffffffffffffffffffffffffffffffffffffffffffffffffffffffffffffffff048311821515161561475b5761475a6149d9565b5b828202905092915050565b600061477182614812565b915061477c83614812565b92508282101561478f5761478e6149d9565b5b828203905092915050565b60006147a5826147f2565b9050919050565b60008115159050919050565b60007fffffffff0000000000000000000000000000000000000000000000000000000082169050919050565b600061ffff82169050919050565b600073ffffffffffffffffffffffffffffffffffffffff82169050919050565b6000819050919050565b600063ffffffff82169050919050565b600067ffffffffffffffff82169050919050565b600060ff82169050919050565b82818337600083830152505050565b60005b8381101561487a57808201518184015260208101905061485f565b83811115614889576000848401525b50505050565b600060028204905060018216806148a757607f821691505b602082108114156148bb576148ba614a37565b5b50919050565b6148ca82614a95565b810181811067ffffffffffffffff821117156148e9576148e8614a66565b5b80604052505050565b60006148fd826147e4565b915061ffff821415614912576149116149d9565b5b600182019050919050565b600061492882614812565b91507fffffffffffffffffffffffffffffffffffffffffffffffffffffffffffffffff82141561495b5761495a6149d9565b5b600182019050919050565b60006149718261481c565b915063ffffffff821415614988576149876149d9565b5b600182019050919050565b600061499e82614840565b915060ff8214156149b2576149b16149d9565b5b600182019050919050565b6000819050919050565b60006149d282614aa6565b9050919050565b7f4e487b7100000000000000000000000000000000000000000000000000000000600052601160045260246000fd5b7f4e487b7100000000000000000000000000000000000000000000000000000000600052601260045260246000fd5b7f4e487b7100000000000000000000000000000000000000000000000000000000600052602260045260246000fd5b7f4e487b7100000000000000000000000000000000000000000000000000000000600052604160045260246000fd5b6000601f19601f8301169050919050565b60008160c01b9050919050565b7f4f746f436f4d61737465723a204f776e657220616e64204a757269736469637460008201527f696f6e2061727261792073686f756c6420686176652073616d652073697a652e602082015250565b7f222c20226465736372697074696f6e223a202200000000000000000000000000600082015250565b7f4552433732313a207472616e7366657220746f206e6f6e20455243373231526560008201527f63656976657220696d706c656d656e7465720000000000000000000000000000602082015250565b7f202d204372656174656420617420666f6c6c6f77696e6720756e69782074696d60008201527f657374616d703a20000000000000000000000000000000000000000000000000602082015250565b7f4f746f436f4d61737465723a204f776e657220616e64204e616d65206172726160008201527f792073686f756c6420686176652073616d652073697a652e0000000000000000602082015250565b7f4f776e61626c653a206e6577206f776e657220697320746865207a65726f206160008201527f6464726573730000000000000000000000000000000000000000000000000000602082015250565b7f4552433732313a207472616e736665722066726f6d20696e636f72726563742060008201527f6f776e6572000000000000000000000000000000000000000000000000000000602082015250565b7f4552433732313a20746f6b656e20616c7265616479206d696e74656400000000600082015250565b7f4552433732313a20746f6b656e206275726e2066726f6d20696e636f7272656360008201527f74206f776e657200000000000000000000000000000000000000000000000000602082015250565b7f222c2022696d6167655f64617461223a20220000000000000000000000000000600082015250565b7f4552433732313a207472616e7366657220746f20746865207a65726f2061646460008201527f7265737300000000000000000000000000000000000000000000000000000000602082015250565b7f4552433732313a20617070726f766520746f2063616c6c657200000000000000600082015250565b7f4552433732313a206f70657261746f7220717565727920666f72206e6f6e657860008201527f697374656e7420746f6b656e0000000000000000000000000000000000000000602082015250565b7f4552433732313a20617070726f76652063616c6c6572206973206e6f74206f7760008201527f6e6572206e6f7220617070726f76656420666f7220616c6c0000000000000000602082015250565b7f4552433732313a2062616c616e636520717565727920666f7220746865207a6560008201527f726f206164647265737300000000000000000000000000000000000000000000602082015250565b7f4552433732313a206f776e657220717565727920666f72206e6f6e657869737460008201527f656e7420746f6b656e0000000000000000000000000000000000000000000000602082015250565b7f496e697469616c697a61626c653a20636f6e747261637420697320616c72656160008201527f647920696e697469616c697a6564000000000000000000000000000000000000602082015250565b7f227d000000000000000000000000000000000000000000000000000000000000600082015250565b7f4552433732313a206d696e7420746f20746865207a65726f2061646472657373600082015250565b7f4552433732313a20617070726f76656420717565727920666f72206e6f6e657860008201527f697374656e7420746f6b656e0000000000000000000000000000000000000000602082015250565b7f4f776e61626c653a2063616c6c6572206973206e6f7420746865206f776e6572600082015250565b7f202d200000000000000000000000000000000000000000000000000000000000600082015250565b7f7b226e616d65223a202200000000000000000000000000000000000000000000600082015250565b7f4552433732313a20617070726f76616c20746f2063757272656e74206f776e6560008201527f7200000000000000000000000000000000000000000000000000000000000000602082015250565b7f646174613a6170706c69636174696f6e2f6a736f6e3b6261736536342c000000600082015250565b7f4552433732313a207472616e736665722063616c6c6572206973206e6f74206f60008201527f776e6572206e6f7220617070726f766564000000000000000000000000000000602082015250565b7f496e697469616c697a61626c653a20636f6e7472616374206973206e6f74206960008201527f6e697469616c697a696e67000000000000000000000000000000000000000000602082015250565b7f4e6f7420656e6f75676820455448207061696420666f7220746865206578656360008201527f7574696f6e2e0000000000000000000000000000000000000000000000000000602082015250565b7f4f746f436f205365726965732023000000000000000000000000000000000000600082015250565b61520d8161479a565b811461521857600080fd5b50565b615224816147ac565b811461522f57600080fd5b50565b61523b816147b8565b811461524657600080fd5b50565b615252816147e4565b811461525d57600080fd5b50565b61526981614812565b811461527457600080fd5b50565b6152808161482c565b811461528b57600080fd5b5056fe4142434445464748494a4b4c4d4e4f505152535455565758595a6162636465666768696a6b6c6d6e6f707172737475767778797a303132333435363738392b2fa2646970667358221220737b95eaa689f7cd767f590c734a0bfa87664cc2eef4f7b2b2e142b23b642d7964736f6c63430008030033",
  "linkReferences": {},
  "deployedLinkReferences": {}
}