{
  "_format": "hh-sol-artifact-1",
  "contractName": "OtoCoMaster",
  "sourceName": "contracts/OtoCoMaster.sol",
  "abi": [
    {
      "anonymous": false,
      "inputs": [
        {
          "indexed": true,
          "internalType": "address",
          "name": "owner",
          "type": "address"
        },
        {
          "indexed": true,
          "internalType": "address",
          "name": "approved",
          "type": "address"
        },
        {
          "indexed": true,
          "internalType": "uint256",
          "name": "tokenId",
          "type": "uint256"
        }
      ],
      "name": "Approval",
      "type": "event"
    },
    {
      "anonymous": false,
      "inputs": [
        {
          "indexed": true,
          "internalType": "address",
          "name": "owner",
          "type": "address"
        },
        {
          "indexed": true,
          "internalType": "address",
          "name": "operator",
          "type": "address"
        },
        {
          "indexed": false,
          "internalType": "bool",
          "name": "approved",
          "type": "bool"
        }
      ],
      "name": "ApprovalForAll",
      "type": "event"
    },
    {
      "anonymous": false,
      "inputs": [
        {
          "indexed": false,
          "internalType": "address",
          "name": "owner",
          "type": "address"
        },
        {
          "indexed": false,
          "internalType": "uint256",
          "name": "amount",
          "type": "uint256"
        }
      ],
      "name": "FeesWithdrawn",
      "type": "event"
    },
    {
      "anonymous": false,
      "inputs": [
        {
          "indexed": true,
          "internalType": "address",
          "name": "previousOwner",
          "type": "address"
        },
        {
          "indexed": true,
          "internalType": "address",
          "name": "newOwner",
          "type": "address"
        }
      ],
      "name": "OwnershipTransferred",
      "type": "event"
    },
    {
      "anonymous": false,
      "inputs": [
        {
          "indexed": true,
          "internalType": "address",
          "name": "from",
          "type": "address"
        },
        {
          "indexed": true,
          "internalType": "address",
          "name": "to",
          "type": "address"
        },
        {
          "indexed": true,
          "internalType": "uint256",
          "name": "tokenId",
          "type": "uint256"
        }
      ],
      "name": "Transfer",
      "type": "event"
    },
    {
      "inputs": [
        {
          "internalType": "address",
          "name": "newAddress",
          "type": "address"
        }
      ],
      "name": "addJurisdiction",
      "outputs": [],
      "stateMutability": "nonpayable",
      "type": "function"
    },
    {
      "inputs": [
        {
          "internalType": "address",
          "name": "to",
          "type": "address"
        },
        {
          "internalType": "uint256",
          "name": "tokenId",
          "type": "uint256"
        }
      ],
      "name": "approve",
      "outputs": [],
      "stateMutability": "nonpayable",
      "type": "function"
    },
    {
      "inputs": [
        {
          "internalType": "address",
          "name": "owner",
          "type": "address"
        }
      ],
      "name": "balanceOf",
      "outputs": [
        {
          "internalType": "uint256",
          "name": "",
          "type": "uint256"
        }
      ],
      "stateMutability": "view",
      "type": "function"
    },
    {
      "inputs": [],
      "name": "baseFee",
      "outputs": [
        {
          "internalType": "uint256",
          "name": "",
          "type": "uint256"
        }
      ],
      "stateMutability": "view",
      "type": "function"
    },
    {
      "inputs": [
        {
          "internalType": "uint256",
          "name": "newFee",
          "type": "uint256"
        }
      ],
      "name": "changeBaseFees",
      "outputs": [],
      "stateMutability": "nonpayable",
      "type": "function"
    },
    {
      "inputs": [
        {
          "internalType": "uint256",
          "name": "tokenId",
          "type": "uint256"
        }
      ],
      "name": "closeSeries",
      "outputs": [],
      "stateMutability": "payable",
      "type": "function"
    },
    {
      "inputs": [
        {
          "internalType": "uint16[]",
          "name": "jurisdiction",
          "type": "uint16[]"
        },
        {
          "internalType": "address[]",
          "name": "controller",
          "type": "address[]"
        },
        {
          "internalType": "uint64[]",
          "name": "creation",
          "type": "uint64[]"
        },
        {
          "internalType": "string[]",
          "name": "name",
          "type": "string[]"
        }
      ],
      "name": "createBatchSeries",
      "outputs": [],
      "stateMutability": "nonpayable",
      "type": "function"
    },
    {
      "inputs": [
        {
          "internalType": "uint16",
          "name": "jurisdiction",
          "type": "uint16"
        },
        {
          "internalType": "address",
          "name": "controller",
          "type": "address"
        },
        {
          "internalType": "string",
          "name": "name",
          "type": "string"
        }
      ],
      "name": "createSeries",
      "outputs": [],
      "stateMutability": "payable",
      "type": "function"
    },
    {
      "inputs": [
        {
          "internalType": "uint256",
          "name": "tokenId",
          "type": "uint256"
        }
      ],
      "name": "getApproved",
      "outputs": [
        {
          "internalType": "address",
          "name": "",
          "type": "address"
        }
      ],
      "stateMutability": "view",
      "type": "function"
    },
    {
      "inputs": [
        {
          "internalType": "address[]",
          "name": "jurisdictionAddresses",
          "type": "address[]"
        }
      ],
      "name": "initialize",
      "outputs": [],
      "stateMutability": "nonpayable",
      "type": "function"
    },
    {
      "inputs": [
        {
          "internalType": "address",
          "name": "owner",
          "type": "address"
        },
        {
          "internalType": "address",
          "name": "operator",
          "type": "address"
        }
      ],
      "name": "isApprovedForAll",
      "outputs": [
        {
          "internalType": "bool",
          "name": "",
          "type": "bool"
        }
      ],
      "stateMutability": "view",
      "type": "function"
    },
    {
      "inputs": [
        {
          "internalType": "uint16",
          "name": "",
          "type": "uint16"
        }
      ],
      "name": "jurisdictionAddress",
      "outputs": [
        {
          "internalType": "address",
          "name": "",
          "type": "address"
        }
      ],
      "stateMutability": "view",
      "type": "function"
    },
    {
      "inputs": [],
      "name": "jurisdictionCount",
      "outputs": [
        {
          "internalType": "uint16",
          "name": "",
          "type": "uint16"
        }
      ],
      "stateMutability": "view",
      "type": "function"
    },
    {
      "inputs": [],
      "name": "name",
      "outputs": [
        {
          "internalType": "string",
          "name": "",
          "type": "string"
        }
      ],
      "stateMutability": "view",
      "type": "function"
    },
    {
      "inputs": [],
      "name": "owner",
      "outputs": [
        {
          "internalType": "address",
          "name": "",
          "type": "address"
        }
      ],
      "stateMutability": "view",
      "type": "function"
    },
    {
      "inputs": [
        {
          "internalType": "uint256",
          "name": "tokenId",
          "type": "uint256"
        }
      ],
      "name": "ownerOf",
      "outputs": [
        {
          "internalType": "address",
          "name": "",
          "type": "address"
        }
      ],
      "stateMutability": "view",
      "type": "function"
    },
    {
      "inputs": [],
      "name": "renounceOwnership",
      "outputs": [],
      "stateMutability": "nonpayable",
      "type": "function"
    },
    {
      "inputs": [
        {
          "internalType": "address",
          "name": "from",
          "type": "address"
        },
        {
          "internalType": "address",
          "name": "to",
          "type": "address"
        },
        {
          "internalType": "uint256",
          "name": "tokenId",
          "type": "uint256"
        }
      ],
      "name": "safeTransferFrom",
      "outputs": [],
      "stateMutability": "nonpayable",
      "type": "function"
    },
    {
      "inputs": [
        {
          "internalType": "address",
          "name": "from",
          "type": "address"
        },
        {
          "internalType": "address",
          "name": "to",
          "type": "address"
        },
        {
          "internalType": "uint256",
          "name": "tokenId",
          "type": "uint256"
        },
        {
          "internalType": "bytes",
          "name": "_data",
          "type": "bytes"
        }
      ],
      "name": "safeTransferFrom",
      "outputs": [],
      "stateMutability": "nonpayable",
      "type": "function"
    },
    {
      "inputs": [
        {
          "internalType": "uint256",
          "name": "",
          "type": "uint256"
        }
      ],
      "name": "series",
      "outputs": [
        {
          "internalType": "uint16",
          "name": "jurisdiction",
          "type": "uint16"
        },
        {
          "internalType": "uint16",
          "name": "entityType",
          "type": "uint16"
        },
        {
          "internalType": "uint64",
          "name": "creation",
          "type": "uint64"
        },
        {
          "internalType": "string",
          "name": "name",
          "type": "string"
        }
      ],
      "stateMutability": "view",
      "type": "function"
    },
    {
      "inputs": [
        {
          "internalType": "uint16",
          "name": "",
          "type": "uint16"
        }
      ],
      "name": "seriesPerJurisdiction",
      "outputs": [
        {
          "internalType": "uint256",
          "name": "",
          "type": "uint256"
        }
      ],
      "stateMutability": "view",
      "type": "function"
    },
    {
      "inputs": [
        {
          "internalType": "address",
          "name": "operator",
          "type": "address"
        },
        {
          "internalType": "bool",
          "name": "approved",
          "type": "bool"
        }
      ],
      "name": "setApprovalForAll",
      "outputs": [],
      "stateMutability": "nonpayable",
      "type": "function"
    },
    {
      "inputs": [
        {
          "internalType": "bytes4",
          "name": "interfaceId",
          "type": "bytes4"
        }
      ],
      "name": "supportsInterface",
      "outputs": [
        {
          "internalType": "bool",
          "name": "",
          "type": "bool"
        }
      ],
      "stateMutability": "view",
      "type": "function"
    },
    {
      "inputs": [],
      "name": "symbol",
      "outputs": [
        {
          "internalType": "string",
          "name": "",
          "type": "string"
        }
      ],
      "stateMutability": "view",
      "type": "function"
    },
    {
      "inputs": [
        {
          "internalType": "uint256",
          "name": "tokenId",
          "type": "uint256"
        }
      ],
      "name": "tokenURI",
      "outputs": [
        {
          "internalType": "string",
          "name": "",
          "type": "string"
        }
      ],
      "stateMutability": "view",
      "type": "function"
    },
    {
      "inputs": [
        {
          "internalType": "address",
          "name": "from",
          "type": "address"
        },
        {
          "internalType": "address",
          "name": "to",
          "type": "address"
        },
        {
          "internalType": "uint256",
          "name": "tokenId",
          "type": "uint256"
        }
      ],
      "name": "transferFrom",
      "outputs": [],
      "stateMutability": "nonpayable",
      "type": "function"
    },
    {
      "inputs": [
        {
          "internalType": "address",
          "name": "newOwner",
          "type": "address"
        }
      ],
      "name": "transferOwnership",
      "outputs": [],
      "stateMutability": "nonpayable",
      "type": "function"
    },
    {
      "inputs": [
        {
          "internalType": "uint16",
          "name": "jurisdiction",
          "type": "uint16"
        },
        {
          "internalType": "address",
          "name": "newAddress",
          "type": "address"
        }
      ],
      "name": "updateJurisdiction",
      "outputs": [],
      "stateMutability": "nonpayable",
      "type": "function"
    },
    {
      "inputs": [],
      "name": "withdrawFees",
      "outputs": [],
      "stateMutability": "nonpayable",
      "type": "function"
    },
    {
      "stateMutability": "payable",
      "type": "receive"
    }
  ],
  "bytecode": "0x608060405234801561001057600080fd5b506150e8806100206000396000f3fe6080604052600436106101c65760003560e01c806370a08231116100f7578063b88d4fde11610095578063e985e9c511610064578063e985e9c51461063b578063ecd0414014610678578063ee19afad146106b5578063f2fde38b146106d1576101cd565b8063b88d4fde14610558578063c87b56dd14610581578063dc22cb6a146105be578063e8ab07e7146105fe576101cd565b806395d89b41116100d157806395d89b41146104b0578063a224cee7146104db578063a22cb46514610504578063b51426441461052d576101cd565b806370a0823114610431578063715018a61461046e5780638da5cb5b14610485576101cd565b80633497dccf11610164578063476343ee1161013e578063476343ee146103895780636352211e146103a057806363a879e4146103dd5780636ef25c3a14610406576101cd565b80633497dccf1461031b57806342842e0e1461034457806342c92b911461036d576101cd565b8063095ea7b3116101a0578063095ea7b31461027757806309d5a864146102a057806323b872dd146102c95780632c8a2cc7146102f2576101cd565b806301ffc9a7146101d257806306fdde031461020f578063081812fc1461023a576101cd565b366101cd57005b600080fd5b3480156101de57600080fd5b506101f960048036038101906101f49190613836565b6106fa565b6040516102069190614058565b60405180910390f35b34801561021b57600080fd5b506102246107dc565b6040516102319190614073565b60405180910390f35b34801561024657600080fd5b50610261600480360381019061025c9190613995565b61086e565b60405161026e9190613fc8565b60405180910390f35b34801561028357600080fd5b5061029e600480360381019061029991906136e0565b6108f3565b005b3480156102ac57600080fd5b506102c760048036038101906102c291906138f2565b610a0b565b005b3480156102d557600080fd5b506102f060048036038101906102eb91906135da565b610ae5565b005b3480156102fe57600080fd5b5061031960048036038101906103149190613995565b610b45565b005b34801561032757600080fd5b50610342600480360381019061033d9190613575565b610bcb565b005b34801561035057600080fd5b5061036b600480360381019061036691906135da565b610cef565b005b61038760048036038101906103829190613995565b610d0f565b005b34801561039557600080fd5b5061039e610dec565b005b3480156103ac57600080fd5b506103c760048036038101906103c29190613995565b610ef0565b6040516103d49190613fc8565b60405180910390f35b3480156103e957600080fd5b5061040460048036038101906103ff9190613761565b610fa2565b005b34801561041257600080fd5b5061041b6115bc565b604051610428919061437c565b60405180910390f35b34801561043d57600080fd5b5061045860048036038101906104539190613575565b6115c2565b604051610465919061437c565b60405180910390f35b34801561047a57600080fd5b5061048361167a565b005b34801561049157600080fd5b5061049a611702565b6040516104a79190613fc8565b60405180910390f35b3480156104bc57600080fd5b506104c561172c565b6040516104d29190614073565b60405180910390f35b3480156104e757600080fd5b5061050260048036038101906104fd919061371c565b6117be565b005b34801561051057600080fd5b5061052b600480360381019061052691906136a4565b611956565b005b34801561053957600080fd5b5061054261196c565b60405161054f9190614315565b60405180910390f35b34801561056457600080fd5b5061057f600480360381019061057a9190613629565b611980565b005b34801561058d57600080fd5b506105a860048036038101906105a39190613995565b6119e2565b6040516105b59190614073565b60405180910390f35b3480156105ca57600080fd5b506105e560048036038101906105e09190613995565b611d79565b6040516105f59493929190614330565b60405180910390f35b34801561060a57600080fd5b50610625600480360381019061062091906138c9565b611e61565b6040516106329190613fc8565b60405180910390f35b34801561064757600080fd5b50610662600480360381019061065d919061359e565b611e94565b60405161066f9190614058565b60405180910390f35b34801561068457600080fd5b5061069f600480360381019061069a91906138c9565b611f28565b6040516106ac919061437c565b60405180910390f35b6106cf60048036038101906106ca919061392e565b611f40565b005b3480156106dd57600080fd5b506106f860048036038101906106f39190613575565b61219f565b005b60007f80ac58cd000000000000000000000000000000000000000000000000000000007bffffffffffffffffffffffffffffffffffffffffffffffffffffffff1916827bffffffffffffffffffffffffffffffffffffffffffffffffffffffff191614806107c557507f5b5e139f000000000000000000000000000000000000000000000000000000007bffffffffffffffffffffffffffffffffffffffffffffffffffffffff1916827bffffffffffffffffffffffffffffffffffffffffffffffffffffffff1916145b806107d557506107d482612297565b5b9050919050565b6060606580546107eb906146c2565b80601f0160208091040260200160405190810160405280929190818152602001828054610817906146c2565b80156108645780601f1061083957610100808354040283529160200191610864565b820191906000526020600020905b81548152906001019060200180831161084757829003601f168201915b5050505050905090565b600061087982612301565b6108b8576040517f08c379a00000000000000000000000000000000000000000000000000000000081526004016108af90614215565b60405180910390fd5b6069600083815260200190815260200160002060009054906101000a900473ffffffffffffffffffffffffffffffffffffffff169050919050565b60006108fe82610ef0565b90508073ffffffffffffffffffffffffffffffffffffffff168373ffffffffffffffffffffffffffffffffffffffff16141561096f576040517f08c379a000000000000000000000000000000000000000000000000000000000815260040161096690614255565b60405180910390fd5b8073ffffffffffffffffffffffffffffffffffffffff1661098e61236d565b73ffffffffffffffffffffffffffffffffffffffff1614806109bd57506109bc816109b761236d565b611e94565b5b6109fc576040517f08c379a00000000000000000000000000000000000000000000000000000000081526004016109f390614195565b60405180910390fd5b610a068383612375565b505050565b610a1361236d565b73ffffffffffffffffffffffffffffffffffffffff16610a31611702565b73ffffffffffffffffffffffffffffffffffffffff1614610a87576040517f08c379a0000000000000000000000000000000000000000000000000000000008152600401610a7e90614235565b60405180910390fd5b8060cd60008461ffff1661ffff16815260200190815260200160002060006101000a81548173ffffffffffffffffffffffffffffffffffffffff021916908373ffffffffffffffffffffffffffffffffffffffff1602179055505050565b610af6610af061236d565b8261242e565b610b35576040517f08c379a0000000000000000000000000000000000000000000000000000000008152600401610b2c90614275565b60405180910390fd5b610b4083838361250c565b505050565b610b4d61236d565b73ffffffffffffffffffffffffffffffffffffffff16610b6b611702565b73ffffffffffffffffffffffffffffffffffffffff1614610bc1576040517f08c379a0000000000000000000000000000000000000000000000000000000008152600401610bb890614235565b60405180910390fd5b8060cf8190555050565b610bd361236d565b73ffffffffffffffffffffffffffffffffffffffff16610bf1611702565b73ffffffffffffffffffffffffffffffffffffffff1614610c47576040517f08c379a0000000000000000000000000000000000000000000000000000000008152600401610c3e90614235565b60405180910390fd5b8060cd600060cc60009054906101000a900461ffff1661ffff1661ffff16815260200190815260200160002060006101000a81548173ffffffffffffffffffffffffffffffffffffffff021916908373ffffffffffffffffffffffffffffffffffffffff16021790555060cc600081819054906101000a900461ffff1680929190610cd190614725565b91906101000a81548161ffff021916908361ffff1602179055505050565b610d0a83838360405180602001604052806000815250611980565b505050565b60cf545a3a610d1e919061453f565b610d28919061450e565b341015610d6a576040517f08c379a0000000000000000000000000000000000000000000000000000000008152600401610d61906142f5565b60405180910390fd5b3373ffffffffffffffffffffffffffffffffffffffff16610d8a82610ef0565b73ffffffffffffffffffffffffffffffffffffffff1614610de0576040517f08c379a0000000000000000000000000000000000000000000000000000000008152600401610dd790614115565b60405180910390fd5b610de981612773565b50565b610df461236d565b73ffffffffffffffffffffffffffffffffffffffff16610e12611702565b73ffffffffffffffffffffffffffffffffffffffff1614610e68576040517f08c379a0000000000000000000000000000000000000000000000000000000008152600401610e5f90614235565b60405180910390fd5b60004790503373ffffffffffffffffffffffffffffffffffffffff166108fc829081150290604051600060405180830381858888f19350505050158015610eb3573d6000803e3d6000fd5b507fc0819c13be868895eb93e40eaceb96de976442fa1d404e5c55f14bb65a8c489a3382604051610ee592919061402f565b60405180910390a150565b6000806067600084815260200190815260200160002060009054906101000a900473ffffffffffffffffffffffffffffffffffffffff169050600073ffffffffffffffffffffffffffffffffffffffff168173ffffffffffffffffffffffffffffffffffffffff161415610f99576040517f08c379a0000000000000000000000000000000000000000000000000000000008152600401610f90906141d5565b60405180910390fd5b80915050919050565b610faa61236d565b73ffffffffffffffffffffffffffffffffffffffff16610fc8611702565b73ffffffffffffffffffffffffffffffffffffffff161461101e576040517f08c379a000000000000000000000000000000000000000000000000000000000815260040161101590614235565b60405180910390fd5b858590508888905014611066576040517f08c379a000000000000000000000000000000000000000000000000000000000815260040161105d906142d5565b60405180910390fd5b8585905082829050146110ae576040517f08c379a00000000000000000000000000000000000000000000000000000000081526004016110a590614295565b60405180910390fd5b60008686905090506000600367ffffffffffffffff8111156110f9577f4e487b7100000000000000000000000000000000000000000000000000000000600052604160045260246000fd5b6040519080825280602002602001820160405280156111275781602001602082028036833780820191505090505b50905060005b8263ffffffff168163ffffffff1610156114dc57818b8b8363ffffffff16818110611181577f4e487b7100000000000000000000000000000000000000000000000000000000600052603260045260246000fd5b905060200201602081019061119691906138c9565b61ffff16815181106111d1577f4e487b7100000000000000000000000000000000000000000000000000000000600052603260045260246000fd5b6020026020010180518091906111e690614799565b63ffffffff1663ffffffff168152505060405180608001604052808c8c8463ffffffff16818110611240577f4e487b7100000000000000000000000000000000000000000000000000000000600052603260045260246000fd5b905060200201602081019061125591906138c9565b61ffff168152602001600061ffff16815260200188888463ffffffff168181106112a8577f4e487b7100000000000000000000000000000000000000000000000000000000600052603260045260246000fd5b90506020020160208101906112bd91906139be565b67ffffffffffffffff16815260200186868463ffffffff1681811061130b577f4e487b7100000000000000000000000000000000000000000000000000000000600052603260045260246000fd5b905060200281019061131d9190614397565b8080601f016020809104026020016040519081016040528093929190818152602001838380828437600081840152601f19601f8201169050808301925050505050505081525060cb600060c9548463ffffffff1661137b91906144b8565b63ffffffff16815260200190815260200160002060008201518160000160006101000a81548161ffff021916908361ffff16021790555060208201518160000160026101000a81548161ffff021916908361ffff16021790555060408201518160000160046101000a81548167ffffffffffffffff021916908367ffffffffffffffff16021790555060608201518160010190805190602001906114209291906131df565b50905050600073ffffffffffffffffffffffffffffffffffffffff1689898363ffffffff1681811061147b577f4e487b7100000000000000000000000000000000000000000000000000000000600052603260045260246000fd5b90506020020160208101906114909190613575565b73ffffffffffffffffffffffffffffffffffffffff16146114c9576114c83360c9548363ffffffff166114c391906144b8565b612890565b5b80806114d490614799565b91505061112d565b508163ffffffff1660c9546114f191906144b8565b60c98190555060c95460ca8190555060005b60038160ff1610156115af57818160ff168151811061154b577f4e487b7100000000000000000000000000000000000000000000000000000000600052603260045260246000fd5b602002602001015163ffffffff1660ce60008360ff1661ffff1681526020019081526020016000205461157e91906144b8565b60ce60008360ff1661ffff1681526020019081526020016000208190555080806115a7906147c6565b915050611503565b5050505050505050505050565b60cf5481565b60008073ffffffffffffffffffffffffffffffffffffffff168273ffffffffffffffffffffffffffffffffffffffff161415611633576040517f08c379a000000000000000000000000000000000000000000000000000000000815260040161162a906141b5565b60405180910390fd5b606860008373ffffffffffffffffffffffffffffffffffffffff1673ffffffffffffffffffffffffffffffffffffffff168152602001908152602001600020549050919050565b61168261236d565b73ffffffffffffffffffffffffffffffffffffffff166116a0611702565b73ffffffffffffffffffffffffffffffffffffffff16146116f6576040517f08c379a00000000000000000000000000000000000000000000000000000000081526004016116ed90614235565b60405180910390fd5b6117006000612a6a565b565b6000609760009054906101000a900473ffffffffffffffffffffffffffffffffffffffff16905090565b60606066805461173b906146c2565b80601f0160208091040260200160405190810160405280929190818152602001828054611767906146c2565b80156117b45780601f10611789576101008083540402835291602001916117b4565b820191906000526020600020905b81548152906001019060200180831161179757829003601f168201915b5050505050905090565b6117c6612b30565b61183a6040518060400160405280600c81526020017f4f746f436f2053657269657300000000000000000000000000000000000000008152506040518060400160405280600581526020017f4f544f434f000000000000000000000000000000000000000000000000000000815250612b89565b600082829050905060005b8161ffff168161ffff1610156119135783838261ffff16818110611892577f4e487b7100000000000000000000000000000000000000000000000000000000600052603260045260246000fd5b90506020020160208101906118a79190613575565b60cd60008361ffff1661ffff16815260200190815260200160002060006101000a81548173ffffffffffffffffffffffffffffffffffffffff021916908373ffffffffffffffffffffffffffffffffffffffff160217905550808061190b90614725565b915050611845565b508060cc60006101000a81548161ffff021916908361ffff160217905550600a60cf8190555060c9600081548092919061194c90614750565b9190505550505050565b61196861196161236d565b8383612be6565b5050565b60cc60009054906101000a900461ffff1681565b61199161198b61236d565b8361242e565b6119d0576040517f08c379a00000000000000000000000000000000000000000000000000000000081526004016119c790614275565b60405180910390fd5b6119dc84848484612d53565b50505050565b6060600060cb60008481526020019081526020016000206040518060800160405290816000820160009054906101000a900461ffff1661ffff1661ffff1681526020016000820160029054906101000a900461ffff1661ffff1661ffff1681526020016000820160049054906101000a900467ffffffffffffffff1667ffffffffffffffff1667ffffffffffffffff168152602001600182018054611a86906146c2565b80601f0160208091040260200160405190810160405280929190818152602001828054611ab2906146c2565b8015611aff5780601f10611ad457610100808354040283529160200191611aff565b820191906000526020600020905b815481529060010190602001808311611ae257829003601f168201915b5050505050815250509050600060cd6000836000015161ffff1661ffff16815260200190815260200160002060009054906101000a900473ffffffffffffffffffffffffffffffffffffffff16905060008173ffffffffffffffffffffffffffffffffffffffff1663806e30ad6040518163ffffffff1660e01b815260040160006040518083038186803b158015611b9657600080fd5b505afa158015611baa573d6000803e3d6000fd5b505050506040513d6000823e3d601f19601f82011682018060405250810190611bd39190613888565b905060ca54851015611c65578173ffffffffffffffffffffffffffffffffffffffff16633b6d35736040518163ffffffff1660e01b815260040160006040518083038186803b158015611c2557600080fd5b505afa158015611c39573d6000803e3d6000fd5b505050506040513d6000823e3d601f19601f82011682018060405250810190611c629190613888565b90505b60008584606001518473ffffffffffffffffffffffffffffffffffffffff1663407e3f276040518163ffffffff1660e01b815260040160006040518083038186803b158015611cb357600080fd5b505afa158015611cc7573d6000803e3d6000fd5b505050506040513d6000823e3d601f19601f82011682018060405250810190611cf09190613888565b8660400151604051602001611d089493929190613f56565b60405160208183030381529060405290506000611d4b85606001518385604051602001611d3793929190613ed7565b604051602081830303815290604052612daf565b905080604051602001611d5e9190613f34565b60405160208183030381529060405295505050505050919050565b60cb6020528060005260406000206000915090508060000160009054906101000a900461ffff16908060000160029054906101000a900461ffff16908060000160049054906101000a900467ffffffffffffffff1690806001018054611dde906146c2565b80601f0160208091040260200160405190810160405280929190818152602001828054611e0a906146c2565b8015611e575780601f10611e2c57610100808354040283529160200191611e57565b820191906000526020600020905b815481529060010190602001808311611e3a57829003601f168201915b5050505050905084565b60cd6020528060005260406000206000915054906101000a900473ffffffffffffffffffffffffffffffffffffffff1681565b6000606a60008473ffffffffffffffffffffffffffffffffffffffff1673ffffffffffffffffffffffffffffffffffffffff16815260200190815260200160002060008373ffffffffffffffffffffffffffffffffffffffff1673ffffffffffffffffffffffffffffffffffffffff16815260200190815260200160002060009054906101000a900460ff16905092915050565b60ce6020528060005260406000206000915090505481565b60cf545a3a611f4f919061453f565b611f59919061450e565b341015611f9b576040517f08c379a0000000000000000000000000000000000000000000000000000000008152600401611f92906142f5565b60405180910390fd5b600060c954905060405180608001604052808561ffff168152602001600061ffff1681526020014267ffffffffffffffff16815260200160cd60008761ffff1661ffff16815260200190815260200160002060009054906101000a900473ffffffffffffffffffffffffffffffffffffffff1673ffffffffffffffffffffffffffffffffffffffff166383a66e6f856040518263ffffffff1660e01b81526004016120469190614073565b60006040518083038186803b15801561205e57600080fd5b505afa158015612072573d6000803e3d6000fd5b505050506040513d6000823e3d601f19601f8201168201806040525081019061209b9190613888565b81525060cb600083815260200190815260200160002060008201518160000160006101000a81548161ffff021916908361ffff16021790555060208201518160000160026101000a81548161ffff021916908361ffff16021790555060408201518160000160046101000a81548167ffffffffffffffff021916908367ffffffffffffffff16021790555060608201518160010190805190602001906121429291906131df565b509050506121508382612890565b60c9600081548092919061216390614750565b919050555060ce60008561ffff1661ffff168152602001908152602001600020600081548092919061219490614750565b919050555050505050565b6121a761236d565b73ffffffffffffffffffffffffffffffffffffffff166121c5611702565b73ffffffffffffffffffffffffffffffffffffffff161461221b576040517f08c379a000000000000000000000000000000000000000000000000000000000815260040161221290614235565b60405180910390fd5b600073ffffffffffffffffffffffffffffffffffffffff168173ffffffffffffffffffffffffffffffffffffffff16141561228b576040517f08c379a0000000000000000000000000000000000000000000000000000000008152600401612282906140b5565b60405180910390fd5b61229481612a6a565b50565b60007f01ffc9a7000000000000000000000000000000000000000000000000000000007bffffffffffffffffffffffffffffffffffffffffffffffffffffffff1916827bffffffffffffffffffffffffffffffffffffffffffffffffffffffff1916149050919050565b60008073ffffffffffffffffffffffffffffffffffffffff166067600084815260200190815260200160002060009054906101000a900473ffffffffffffffffffffffffffffffffffffffff1673ffffffffffffffffffffffffffffffffffffffff1614159050919050565b600033905090565b816069600083815260200190815260200160002060006101000a81548173ffffffffffffffffffffffffffffffffffffffff021916908373ffffffffffffffffffffffffffffffffffffffff160217905550808273ffffffffffffffffffffffffffffffffffffffff166123e883610ef0565b73ffffffffffffffffffffffffffffffffffffffff167f8c5be1e5ebec7d5bd14f71427d1e84f3dd0314c0f7b2291e5b200ac8c7c3b92560405160405180910390a45050565b600061243982612301565b612478576040517f08c379a000000000000000000000000000000000000000000000000000000000815260040161246f90614175565b60405180910390fd5b600061248383610ef0565b90508073ffffffffffffffffffffffffffffffffffffffff168473ffffffffffffffffffffffffffffffffffffffff1614806124f257508373ffffffffffffffffffffffffffffffffffffffff166124da8461086e565b73ffffffffffffffffffffffffffffffffffffffff16145b8061250357506125028185611e94565b5b91505092915050565b8273ffffffffffffffffffffffffffffffffffffffff1661252c82610ef0565b73ffffffffffffffffffffffffffffffffffffffff1614612582576040517f08c379a0000000000000000000000000000000000000000000000000000000008152600401612579906140d5565b60405180910390fd5b600073ffffffffffffffffffffffffffffffffffffffff168273ffffffffffffffffffffffffffffffffffffffff1614156125f2576040517f08c379a00000000000000000000000000000000000000000000000000000000081526004016125e990614135565b60405180910390fd5b6125fd838383612f39565b612608600082612375565b6001606860008573ffffffffffffffffffffffffffffffffffffffff1673ffffffffffffffffffffffffffffffffffffffff16815260200190815260200160002060008282546126589190614599565b925050819055506001606860008473ffffffffffffffffffffffffffffffffffffffff1673ffffffffffffffffffffffffffffffffffffffff16815260200190815260200160002060008282546126af91906144b8565b92505081905550816067600083815260200190815260200160002060006101000a81548173ffffffffffffffffffffffffffffffffffffffff021916908373ffffffffffffffffffffffffffffffffffffffff160217905550808273ffffffffffffffffffffffffffffffffffffffff168473ffffffffffffffffffffffffffffffffffffffff167fddf252ad1be2c89b69c2b068fc378daa952ba7f163c4a11628f55a4df523b3ef60405160405180910390a461276e838383612f3e565b505050565b600061277e82610ef0565b905061278c81600084612f39565b612797600083612375565b6001606860008373ffffffffffffffffffffffffffffffffffffffff1673ffffffffffffffffffffffffffffffffffffffff16815260200190815260200160002060008282546127e79190614599565b925050819055506067600083815260200190815260200160002060006101000a81549073ffffffffffffffffffffffffffffffffffffffff021916905581600073ffffffffffffffffffffffffffffffffffffffff168273ffffffffffffffffffffffffffffffffffffffff167fddf252ad1be2c89b69c2b068fc378daa952ba7f163c4a11628f55a4df523b3ef60405160405180910390a461288c81600084612f3e565b5050565b600073ffffffffffffffffffffffffffffffffffffffff168273ffffffffffffffffffffffffffffffffffffffff161415612900576040517f08c379a00000000000000000000000000000000000000000000000000000000081526004016128f7906141f5565b60405180910390fd5b61290981612301565b15612949576040517f08c379a0000000000000000000000000000000000000000000000000000000008152600401612940906140f5565b60405180910390fd5b61295560008383612f39565b6001606860008473ffffffffffffffffffffffffffffffffffffffff1673ffffffffffffffffffffffffffffffffffffffff16815260200190815260200160002060008282546129a591906144b8565b92505081905550816067600083815260200190815260200160002060006101000a81548173ffffffffffffffffffffffffffffffffffffffff021916908373ffffffffffffffffffffffffffffffffffffffff160217905550808273ffffffffffffffffffffffffffffffffffffffff16600073ffffffffffffffffffffffffffffffffffffffff167fddf252ad1be2c89b69c2b068fc378daa952ba7f163c4a11628f55a4df523b3ef60405160405180910390a4612a6660008383612f3e565b5050565b6000609760009054906101000a900473ffffffffffffffffffffffffffffffffffffffff16905081609760006101000a81548173ffffffffffffffffffffffffffffffffffffffff021916908373ffffffffffffffffffffffffffffffffffffffff1602179055508173ffffffffffffffffffffffffffffffffffffffff168173ffffffffffffffffffffffffffffffffffffffff167f8be0079c531659141344cd1fd0a4f28419497f9722a3daafe3b4186f6b6457e060405160405180910390a35050565b600060019054906101000a900460ff16612b7f576040517f08c379a0000000000000000000000000000000000000000000000000000000008152600401612b76906142b5565b60405180910390fd5b612b87612f43565b565b600060019054906101000a900460ff16612bd8576040517f08c379a0000000000000000000000000000000000000000000000000000000008152600401612bcf906142b5565b60405180910390fd5b612be28282612fa4565b5050565b8173ffffffffffffffffffffffffffffffffffffffff168373ffffffffffffffffffffffffffffffffffffffff161415612c55576040517f08c379a0000000000000000000000000000000000000000000000000000000008152600401612c4c90614155565b60405180910390fd5b80606a60008573ffffffffffffffffffffffffffffffffffffffff1673ffffffffffffffffffffffffffffffffffffffff16815260200190815260200160002060008473ffffffffffffffffffffffffffffffffffffffff1673ffffffffffffffffffffffffffffffffffffffff16815260200190815260200160002060006101000a81548160ff0219169083151502179055508173ffffffffffffffffffffffffffffffffffffffff168373ffffffffffffffffffffffffffffffffffffffff167f17307eab39ab6107e8899845ad3d59bd9653f200f220920489ca2b5937696c3183604051612d469190614058565b60405180910390a3505050565b612d5e84848461250c565b612d6a84848484613025565b612da9576040517f08c379a0000000000000000000000000000000000000000000000000000000008152600401612da090614095565b60405180910390fd5b50505050565b6060600082511415612dd257604051806020016040528060008152509050612f34565b60006040518060600160405280604081526020016150736040913990506000600360028551612e0191906144b8565b612e0b919061450e565b6004612e17919061453f565b67ffffffffffffffff811115612e56577f4e487b7100000000000000000000000000000000000000000000000000000000600052604160045260246000fd5b6040519080825280601f01601f191660200182016040528015612e885781602001600182028036833780820191505090505b509050600182016020820185865187015b80821015612ef4576003820191508151603f8160121c168501518453600184019350603f81600c1c168501518453600184019350603f8160061c168501518453600184019350603f8116850151845360018401935050612e99565b5050600386510660018114612f105760028114612f2357612f2b565b603d6001830353603d6002830353612f2b565b603d60018303535b50505080925050505b919050565b505050565b505050565b600060019054906101000a900460ff16612f92576040517f08c379a0000000000000000000000000000000000000000000000000000000008152600401612f89906142b5565b60405180910390fd5b612fa2612f9d61236d565b612a6a565b565b600060019054906101000a900460ff16612ff3576040517f08c379a0000000000000000000000000000000000000000000000000000000008152600401612fea906142b5565b60405180910390fd5b81606590805190602001906130099291906131df565b5080606690805190602001906130209291906131df565b505050565b60006130468473ffffffffffffffffffffffffffffffffffffffff166131bc565b156131af578373ffffffffffffffffffffffffffffffffffffffff1663150b7a0261306f61236d565b8786866040518563ffffffff1660e01b81526004016130919493929190613fe3565b602060405180830381600087803b1580156130ab57600080fd5b505af19250505080156130dc57506040513d601f19601f820116820180604052508101906130d9919061385f565b60015b61315f573d806000811461310c576040519150601f19603f3d011682016040523d82523d6000602084013e613111565b606091505b50600081511415613157576040517f08c379a000000000000000000000000000000000000000000000000000000000815260040161314e90614095565b60405180910390fd5b805181602001fd5b63150b7a0260e01b7bffffffffffffffffffffffffffffffffffffffffffffffffffffffff1916817bffffffffffffffffffffffffffffffffffffffffffffffffffffffff1916149150506131b4565b600190505b949350505050565b6000808273ffffffffffffffffffffffffffffffffffffffff163b119050919050565b8280546131eb906146c2565b90600052602060002090601f01602090048101928261320d5760008555613254565b82601f1061322657805160ff1916838001178555613254565b82800160010185558215613254579182015b82811115613253578251825591602001919060010190613238565b5b5090506132619190613265565b5090565b5b8082111561327e576000816000905550600101613266565b5090565b600061329561329084614413565b6143ee565b9050828152602081018484840111156132ad57600080fd5b6132b8848285614680565b509392505050565b60006132d36132ce84614444565b6143ee565b9050828152602081018484840111156132eb57600080fd5b6132f6848285614680565b509392505050565b600061331161330c84614444565b6143ee565b90508281526020810184848401111561332957600080fd5b61333484828561468f565b509392505050565b60008135905061334b81614fe8565b92915050565b60008083601f84011261336357600080fd5b8235905067ffffffffffffffff81111561337c57600080fd5b60208301915083602082028301111561339457600080fd5b9250929050565b60008083601f8401126133ad57600080fd5b8235905067ffffffffffffffff8111156133c657600080fd5b6020830191508360208202830111156133de57600080fd5b9250929050565b60008083601f8401126133f757600080fd5b8235905067ffffffffffffffff81111561341057600080fd5b60208301915083602082028301111561342857600080fd5b9250929050565b60008083601f84011261344157600080fd5b8235905067ffffffffffffffff81111561345a57600080fd5b60208301915083602082028301111561347257600080fd5b9250929050565b60008135905061348881614fff565b92915050565b60008135905061349d81615016565b92915050565b6000815190506134b281615016565b92915050565b600082601f8301126134c957600080fd5b81356134d9848260208601613282565b91505092915050565b600082601f8301126134f357600080fd5b81356135038482602086016132c0565b91505092915050565b600082601f83011261351d57600080fd5b815161352d8482602086016132fe565b91505092915050565b6000813590506135458161502d565b92915050565b60008135905061355a81615044565b92915050565b60008135905061356f8161505b565b92915050565b60006020828403121561358757600080fd5b60006135958482850161333c565b91505092915050565b600080604083850312156135b157600080fd5b60006135bf8582860161333c565b92505060206135d08582860161333c565b9150509250929050565b6000806000606084860312156135ef57600080fd5b60006135fd8682870161333c565b935050602061360e8682870161333c565b925050604061361f8682870161354b565b9150509250925092565b6000806000806080858703121561363f57600080fd5b600061364d8782880161333c565b945050602061365e8782880161333c565b935050604061366f8782880161354b565b925050606085013567ffffffffffffffff81111561368c57600080fd5b613698878288016134b8565b91505092959194509250565b600080604083850312156136b757600080fd5b60006136c58582860161333c565b92505060206136d685828601613479565b9150509250929050565b600080604083850312156136f357600080fd5b60006137018582860161333c565b92505060206137128582860161354b565b9150509250929050565b6000806020838503121561372f57600080fd5b600083013567ffffffffffffffff81111561374957600080fd5b61375585828601613351565b92509250509250929050565b6000806000806000806000806080898b03121561377d57600080fd5b600089013567ffffffffffffffff81111561379757600080fd5b6137a38b828c016133e5565b9850985050602089013567ffffffffffffffff8111156137c257600080fd5b6137ce8b828c01613351565b9650965050604089013567ffffffffffffffff8111156137ed57600080fd5b6137f98b828c0161342f565b9450945050606089013567ffffffffffffffff81111561381857600080fd5b6138248b828c0161339b565b92509250509295985092959890939650565b60006020828403121561384857600080fd5b60006138568482850161348e565b91505092915050565b60006020828403121561387157600080fd5b600061387f848285016134a3565b91505092915050565b60006020828403121561389a57600080fd5b600082015167ffffffffffffffff8111156138b457600080fd5b6138c08482850161350c565b91505092915050565b6000602082840312156138db57600080fd5b60006138e984828501613536565b91505092915050565b6000806040838503121561390557600080fd5b600061391385828601613536565b92505060206139248582860161333c565b9150509250929050565b60008060006060848603121561394357600080fd5b600061395186828701613536565b93505060206139628682870161333c565b925050604084013567ffffffffffffffff81111561397f57600080fd5b61398b868287016134e2565b9150509250925092565b6000602082840312156139a757600080fd5b60006139b58482850161354b565b91505092915050565b6000602082840312156139d057600080fd5b60006139de84828501613560565b91505092915050565b6139f0816145cd565b82525050565b6139ff816145df565b82525050565b6000613a1082614475565b613a1a818561448b565b9350613a2a81856020860161468f565b613a33816148c8565b840191505092915050565b6000613a4982614480565b613a53818561449c565b9350613a6381856020860161468f565b613a6c816148c8565b840191505092915050565b6000613a8282614480565b613a8c81856144ad565b9350613a9c81856020860161468f565b80840191505092915050565b6000613ab56013836144ad565b9150613ac0826148e6565b601382019050919050565b6000613ad860328361449c565b9150613ae38261490f565b604082019050919050565b6000613afb6028836144ad565b9150613b068261495e565b602882019050919050565b6000613b1e60268361449c565b9150613b29826149ad565b604082019050919050565b6000613b4160258361449c565b9150613b4c826149fc565b604082019050919050565b6000613b64601c8361449c565b9150613b6f82614a4b565b602082019050919050565b6000613b8760278361449c565b9150613b9282614a74565b604082019050919050565b6000613baa6012836144ad565b9150613bb582614ac3565b601282019050919050565b6000613bcd60248361449c565b9150613bd882614aec565b604082019050919050565b6000613bf060198361449c565b9150613bfb82614b3b565b602082019050919050565b6000613c13602c8361449c565b9150613c1e82614b64565b604082019050919050565b6000613c3660388361449c565b9150613c4182614bb3565b604082019050919050565b6000613c59602a8361449c565b9150613c6482614c02565b604082019050919050565b6000613c7c60298361449c565b9150613c8782614c51565b604082019050919050565b6000613c9f6002836144ad565b9150613caa82614ca0565b600282019050919050565b6000613cc260208361449c565b9150613ccd82614cc9565b602082019050919050565b6000613ce5602c8361449c565b9150613cf082614cf2565b604082019050919050565b6000613d0860208361449c565b9150613d1382614d41565b602082019050919050565b6000613d2b6003836144ad565b9150613d3682614d6a565b600382019050919050565b6000613d4e600a836144ad565b9150613d5982614d93565b600a82019050919050565b6000613d7160218361449c565b9150613d7c82614dbc565b604082019050919050565b6000613d94601d836144ad565b9150613d9f82614e0b565b601d82019050919050565b6000613db760318361449c565b9150613dc282614e34565b604082019050919050565b6000613dda60338361449c565b9150613de582614e83565b604082019050919050565b6000613dfd602b8361449c565b9150613e0882614ed2565b604082019050919050565b6000613e20603b8361449c565b9150613e2b82614f21565b604082019050919050565b6000613e4360268361449c565b9150613e4e82614f70565b604082019050919050565b6000613e66600e836144ad565b9150613e7182614fbf565b600e82019050919050565b613e8581614617565b82525050565b613e9481614645565b82525050565b613eab613ea682614645565b6147f0565b82525050565b613eba8161465f565b82525050565b613ed1613ecc8261465f565b6147fa565b82525050565b6000613ee282613d41565b9150613eee8286613a77565b9150613ef982613aa8565b9150613f058285613a77565b9150613f1082613b9d565b9150613f1c8284613a77565b9150613f2782613c92565b9150819050949350505050565b6000613f3f82613d87565b9150613f4b8284613a77565b915081905092915050565b6000613f6182613e59565b9150613f6d8287613e9a565b602082019150613f7c82613d1e565b9150613f888286613a77565b9150613f9382613d1e565b9150613f9f8285613a77565b9150613faa82613aee565b9150613fb68284613ec0565b60088201915081905095945050505050565b6000602082019050613fdd60008301846139e7565b92915050565b6000608082019050613ff860008301876139e7565b61400560208301866139e7565b6140126040830185613e8b565b81810360608301526140248184613a05565b905095945050505050565b600060408201905061404460008301856139e7565b6140516020830184613e8b565b9392505050565b600060208201905061406d60008301846139f6565b92915050565b6000602082019050818103600083015261408d8184613a3e565b905092915050565b600060208201905081810360008301526140ae81613acb565b9050919050565b600060208201905081810360008301526140ce81613b11565b9050919050565b600060208201905081810360008301526140ee81613b34565b9050919050565b6000602082019050818103600083015261410e81613b57565b9050919050565b6000602082019050818103600083015261412e81613b7a565b9050919050565b6000602082019050818103600083015261414e81613bc0565b9050919050565b6000602082019050818103600083015261416e81613be3565b9050919050565b6000602082019050818103600083015261418e81613c06565b9050919050565b600060208201905081810360008301526141ae81613c29565b9050919050565b600060208201905081810360008301526141ce81613c4c565b9050919050565b600060208201905081810360008301526141ee81613c6f565b9050919050565b6000602082019050818103600083015261420e81613cb5565b9050919050565b6000602082019050818103600083015261422e81613cd8565b9050919050565b6000602082019050818103600083015261424e81613cfb565b9050919050565b6000602082019050818103600083015261426e81613d64565b9050919050565b6000602082019050818103600083015261428e81613daa565b9050919050565b600060208201905081810360008301526142ae81613dcd565b9050919050565b600060208201905081810360008301526142ce81613df0565b9050919050565b600060208201905081810360008301526142ee81613e13565b9050919050565b6000602082019050818103600083015261430e81613e36565b9050919050565b600060208201905061432a6000830184613e7c565b92915050565b60006080820190506143456000830187613e7c565b6143526020830186613e7c565b61435f6040830185613eb1565b81810360608301526143718184613a3e565b905095945050505050565b60006020820190506143916000830184613e8b565b92915050565b600080833560016020038436030381126143b057600080fd5b80840192508235915067ffffffffffffffff8211156143ce57600080fd5b6020830192506001820236038313156143e657600080fd5b509250929050565b60006143f8614409565b905061440482826146f4565b919050565b6000604051905090565b600067ffffffffffffffff82111561442e5761442d614899565b5b614437826148c8565b9050602081019050919050565b600067ffffffffffffffff82111561445f5761445e614899565b5b614468826148c8565b9050602081019050919050565b600081519050919050565b600081519050919050565b600082825260208201905092915050565b600082825260208201905092915050565b600081905092915050565b60006144c382614645565b91506144ce83614645565b9250827fffffffffffffffffffffffffffffffffffffffffffffffffffffffffffffffff038211156145035761450261480c565b5b828201905092915050565b600061451982614645565b915061452483614645565b9250826145345761453361483b565b5b828204905092915050565b600061454a82614645565b915061455583614645565b9250817fffffffffffffffffffffffffffffffffffffffffffffffffffffffffffffffff048311821515161561458e5761458d61480c565b5b828202905092915050565b60006145a482614645565b91506145af83614645565b9250828210156145c2576145c161480c565b5b828203905092915050565b60006145d882614625565b9050919050565b60008115159050919050565b60007fffffffff0000000000000000000000000000000000000000000000000000000082169050919050565b600061ffff82169050919050565b600073ffffffffffffffffffffffffffffffffffffffff82169050919050565b6000819050919050565b600063ffffffff82169050919050565b600067ffffffffffffffff82169050919050565b600060ff82169050919050565b82818337600083830152505050565b60005b838110156146ad578082015181840152602081019050614692565b838111156146bc576000848401525b50505050565b600060028204905060018216806146da57607f821691505b602082108114156146ee576146ed61486a565b5b50919050565b6146fd826148c8565b810181811067ffffffffffffffff8211171561471c5761471b614899565b5b80604052505050565b600061473082614617565b915061ffff8214156147455761474461480c565b5b600182019050919050565b600061475b82614645565b91507fffffffffffffffffffffffffffffffffffffffffffffffffffffffffffffffff82141561478e5761478d61480c565b5b600182019050919050565b60006147a48261464f565b915063ffffffff8214156147bb576147ba61480c565b5b600182019050919050565b60006147d182614673565b915060ff8214156147e5576147e461480c565b5b600182019050919050565b6000819050919050565b6000614805826148d9565b9050919050565b7f4e487b7100000000000000000000000000000000000000000000000000000000600052601160045260246000fd5b7f4e487b7100000000000000000000000000000000000000000000000000000000600052601260045260246000fd5b7f4e487b7100000000000000000000000000000000000000000000000000000000600052602260045260246000fd5b7f4e487b7100000000000000000000000000000000000000000000000000000000600052604160045260246000fd5b6000601f19601f8301169050919050565b60008160c01b9050919050565b7f222c20226465736372697074696f6e223a202200000000000000000000000000600082015250565b7f4552433732313a207472616e7366657220746f206e6f6e20455243373231526560008201527f63656976657220696d706c656d656e7465720000000000000000000000000000602082015250565b7f202d204372656174656420617420666f6c6c6f77696e6720756e69782074696d60008201527f657374616d703a20000000000000000000000000000000000000000000000000602082015250565b7f4f776e61626c653a206e6577206f776e657220697320746865207a65726f206160008201527f6464726573730000000000000000000000000000000000000000000000000000602082015250565b7f4552433732313a207472616e736665722066726f6d20696e636f72726563742060008201527f6f776e6572000000000000000000000000000000000000000000000000000000602082015250565b7f4552433732313a20746f6b656e20616c7265616479206d696e74656400000000600082015250565b7f4552433732313a20746f6b656e206275726e2066726f6d20696e636f7272656360008201527f74206f776e657200000000000000000000000000000000000000000000000000602082015250565b7f222c2022696d6167655f64617461223a20220000000000000000000000000000600082015250565b7f4552433732313a207472616e7366657220746f20746865207a65726f2061646460008201527f7265737300000000000000000000000000000000000000000000000000000000602082015250565b7f4552433732313a20617070726f766520746f2063616c6c657200000000000000600082015250565b7f4552433732313a206f70657261746f7220717565727920666f72206e6f6e657860008201527f697374656e7420746f6b656e0000000000000000000000000000000000000000602082015250565b7f4552433732313a20617070726f76652063616c6c6572206973206e6f74206f7760008201527f6e6572206e6f7220617070726f76656420666f7220616c6c0000000000000000602082015250565b7f4552433732313a2062616c616e636520717565727920666f7220746865207a6560008201527f726f206164647265737300000000000000000000000000000000000000000000602082015250565b7f4552433732313a206f776e657220717565727920666f72206e6f6e657869737460008201527f656e7420746f6b656e0000000000000000000000000000000000000000000000602082015250565b7f227d000000000000000000000000000000000000000000000000000000000000600082015250565b7f4552433732313a206d696e7420746f20746865207a65726f2061646472657373600082015250565b7f4552433732313a20617070726f76656420717565727920666f72206e6f6e657860008201527f697374656e7420746f6b656e0000000000000000000000000000000000000000602082015250565b7f4f776e61626c653a2063616c6c6572206973206e6f7420746865206f776e6572600082015250565b7f202d200000000000000000000000000000000000000000000000000000000000600082015250565b7f7b226e616d65223a202200000000000000000000000000000000000000000000600082015250565b7f4552433732313a20617070726f76616c20746f2063757272656e74206f776e6560008201527f7200000000000000000000000000000000000000000000000000000000000000602082015250565b7f646174613a6170706c69636174696f6e2f6a736f6e3b6261736536342c000000600082015250565b7f4552433732313a207472616e736665722063616c6c6572206973206e6f74206f60008201527f776e6572206e6f7220617070726f766564000000000000000000000000000000602082015250565b7f4d61737465723a204f776e657220616e64204e616d652061727261792073686f60008201527f756c6420686176652073616d652073697a652e00000000000000000000000000602082015250565b7f496e697469616c697a61626c653a20636f6e7472616374206973206e6f74206960008201527f6e697469616c697a696e67000000000000000000000000000000000000000000602082015250565b7f4d61737465723a204f776e657220616e64204a7572697364696374696f6e206160008201527f727261792073686f756c6420686176652073616d652073697a652e0000000000602082015250565b7f4e6f7420656e6f75676820455448207061696420666f7220746865206578656360008201527f7574696f6e2e0000000000000000000000000000000000000000000000000000602082015250565b7f4f746f436f205365726965732023000000000000000000000000000000000000600082015250565b614ff1816145cd565b8114614ffc57600080fd5b50565b615008816145df565b811461501357600080fd5b50565b61501f816145eb565b811461502a57600080fd5b50565b61503681614617565b811461504157600080fd5b50565b61504d81614645565b811461505857600080fd5b50565b6150648161465f565b811461506f57600080fd5b5056fe4142434445464748494a4b4c4d4e4f505152535455565758595a6162636465666768696a6b6c6d6e6f707172737475767778797a303132333435363738392b2fa264697066735822122034532b43bf27a0ace9c1fc8b0c98ea9081b69cc01bd626eb80d1699f857b66d564736f6c63430008030033",
  "linkReferences": {},
  "deployedLinkReferences": {}
}