{
  "_format": "hh-sol-artifact-1",
  "contractName": "Multisig",
  "sourceName": "contracts/plugins/Multisig.sol",
  "abi": [
    {
      "inputs": [
        {
          "internalType": "address payable",
          "name": "otocoMaster",
          "type": "address"
        },
        {
          "internalType": "address",
          "name": "masterCopy",
          "type": "address"
        },
        {
          "internalType": "uint256[]",
          "name": "prevIds",
          "type": "uint256[]"
        },
        {
          "internalType": "address[]",
          "name": "prevMultisig",
          "type": "address[]"
        }
      ],
      "stateMutability": "nonpayable",
      "type": "constructor"
    },
    {
      "anonymous": false,
      "inputs": [
        {
          "indexed": true,
          "internalType": "uint256",
          "name": "series",
          "type": "uint256"
        },
        {
          "indexed": false,
          "internalType": "address",
          "name": "multisig",
          "type": "address"
        }
      ],
      "name": "MultisigAdded",
      "type": "event"
    },
    {
      "anonymous": false,
      "inputs": [
        {
          "indexed": true,
          "internalType": "uint256",
          "name": "series",
          "type": "uint256"
        },
        {
          "indexed": false,
          "internalType": "address",
          "name": "multisig",
          "type": "address"
        }
      ],
      "name": "MultisigRemoved",
      "type": "event"
    },
    {
      "anonymous": false,
      "inputs": [
        {
          "indexed": true,
          "internalType": "address",
          "name": "previousOwner",
          "type": "address"
        },
        {
          "indexed": true,
          "internalType": "address",
          "name": "newOwner",
          "type": "address"
        }
      ],
      "name": "OwnershipTransferred",
      "type": "event"
    },
    {
      "inputs": [
        {
          "internalType": "uint256",
          "name": "seriesId",
          "type": "uint256"
        },
        {
          "internalType": "bytes",
          "name": "pluginData",
          "type": "bytes"
        }
      ],
      "name": "addPlugin",
      "outputs": [],
      "stateMutability": "payable",
      "type": "function"
    },
    {
      "inputs": [
        {
          "internalType": "uint256",
          "name": "seriesId",
          "type": "uint256"
        },
        {
          "internalType": "bytes",
          "name": "pluginData",
          "type": "bytes"
        }
      ],
      "name": "attachPlugin",
      "outputs": [],
      "stateMutability": "payable",
      "type": "function"
    },
    {
      "inputs": [],
      "name": "gnosisMasterCopy",
      "outputs": [
        {
          "internalType": "address",
          "name": "",
          "type": "address"
        }
      ],
      "stateMutability": "view",
      "type": "function"
    },
    {
      "inputs": [],
      "name": "gnosisMultisigFactory",
      "outputs": [
        {
          "internalType": "address",
          "name": "",
          "type": "address"
        }
      ],
      "stateMutability": "view",
      "type": "function"
    },
    {
      "inputs": [],
      "name": "otocoMaster",
      "outputs": [
        {
          "internalType": "contract IOtoCoMaster",
          "name": "",
          "type": "address"
        }
      ],
      "stateMutability": "view",
      "type": "function"
    },
    {
      "inputs": [],
      "name": "owner",
      "outputs": [
        {
          "internalType": "address",
          "name": "",
          "type": "address"
        }
      ],
      "stateMutability": "view",
      "type": "function"
    },
    {
      "inputs": [
        {
          "internalType": "uint256",
          "name": "seriesId",
          "type": "uint256"
        },
        {
          "internalType": "bytes",
          "name": "pluginData",
          "type": "bytes"
        }
      ],
      "name": "removePlugin",
      "outputs": [],
      "stateMutability": "payable",
      "type": "function"
    },
    {
      "inputs": [],
      "name": "renounceOwnership",
      "outputs": [],
      "stateMutability": "nonpayable",
      "type": "function"
    },
    {
      "inputs": [
        {
          "internalType": "address",
          "name": "newOwner",
          "type": "address"
        }
      ],
      "name": "transferOwnership",
      "outputs": [],
      "stateMutability": "nonpayable",
      "type": "function"
    },
    {
      "inputs": [
        {
          "internalType": "address",
          "name": "newAddress",
          "type": "address"
        }
      ],
      "name": "updateGnosisMasterCopy",
      "outputs": [],
      "stateMutability": "nonpayable",
      "type": "function"
    },
    {
      "inputs": [
        {
          "internalType": "address",
          "name": "newAddress",
          "type": "address"
        }
      ],
      "name": "updateGnosisMultisigFactory",
      "outputs": [],
      "stateMutability": "nonpayable",
      "type": "function"
    }
  ],
  "bytecode": "0x60806040523480156200001157600080fd5b50604051620023b6380380620023b6833981810160405281019062000037919062000510565b83620000586200004c620002bb60201b60201c565b620002c360201b60201c565b80600160006101000a81548173ffffffffffffffffffffffffffffffffffffffff021916908373ffffffffffffffffffffffffffffffffffffffff1602179055505082600260006101000a81548173ffffffffffffffffffffffffffffffffffffffff021916908373ffffffffffffffffffffffffffffffffffffffff16021790555060005b8251811015620002b0576004600084838151811062000126577f4e487b7100000000000000000000000000000000000000000000000000000000600052603260045260246000fd5b6020026020010151815260200190815260200160002082828151811062000176577f4e487b7100000000000000000000000000000000000000000000000000000000600052603260045260246000fd5b60200260200101519080600181540180825580915050600190039060005260206000200160009091909190916101000a81548173ffffffffffffffffffffffffffffffffffffffff021916908373ffffffffffffffffffffffffffffffffffffffff16021790555082818151811062000218577f4e487b7100000000000000000000000000000000000000000000000000000000600052603260045260246000fd5b60200260200101517f3776ac189fa2c8d3a4733e7397d93d333d542704c4fc0bdb77eea756207651b28383815181106200027b577f4e487b7100000000000000000000000000000000000000000000000000000000600052603260045260246000fd5b6020026020010151604051620002929190620005bf565b60405180910390a28080620002a790620006eb565b915050620000de565b5050505050620007f6565b600033905090565b60008060009054906101000a900473ffffffffffffffffffffffffffffffffffffffff169050816000806101000a81548173ffffffffffffffffffffffffffffffffffffffff021916908373ffffffffffffffffffffffffffffffffffffffff1602179055508173ffffffffffffffffffffffffffffffffffffffff168173ffffffffffffffffffffffffffffffffffffffff167f8be0079c531659141344cd1fd0a4f28419497f9722a3daafe3b4186f6b6457e060405160405180910390a35050565b60006200039e620003988462000605565b620005dc565b90508083825260208201905082856020860282011115620003be57600080fd5b60005b85811015620003f25781620003d7888262000471565b845260208401935060208301925050600181019050620003c1565b5050509392505050565b6000620004136200040d8462000634565b620005dc565b905080838252602082019050828560208602820111156200043357600080fd5b60005b858110156200046757816200044c8882620004f9565b84526020840193506020830192505060018101905062000436565b5050509392505050565b6000815190506200048281620007a8565b92915050565b6000815190506200049981620007c2565b92915050565b600082601f830112620004b157600080fd5b8151620004c384826020860162000387565b91505092915050565b600082601f830112620004de57600080fd5b8151620004f0848260208601620003fc565b91505092915050565b6000815190506200050a81620007dc565b92915050565b600080600080608085870312156200052757600080fd5b6000620005378782880162000488565b94505060206200054a8782880162000471565b935050604085015167ffffffffffffffff8111156200056857600080fd5b6200057687828801620004cc565b925050606085015167ffffffffffffffff8111156200059457600080fd5b620005a2878288016200049f565b91505092959194509250565b620005b98162000663565b82525050565b6000602082019050620005d66000830184620005ae565b92915050565b6000620005e8620005fb565b9050620005f68282620006b5565b919050565b6000604051905090565b600067ffffffffffffffff82111562000623576200062262000768565b5b602082029050602081019050919050565b600067ffffffffffffffff82111562000652576200065162000768565b5b602082029050602081019050919050565b600062000670826200068b565b9050919050565b600062000684826200068b565b9050919050565b600073ffffffffffffffffffffffffffffffffffffffff82169050919050565b6000819050919050565b620006c08262000797565b810181811067ffffffffffffffff82111715620006e257620006e162000768565b5b80604052505050565b6000620006f882620006ab565b91507fffffffffffffffffffffffffffffffffffffffffffffffffffffffffffffffff8214156200072e576200072d62000739565b5b600182019050919050565b7f4e487b7100000000000000000000000000000000000000000000000000000000600052601160045260246000fd5b7f4e487b7100000000000000000000000000000000000000000000000000000000600052604160045260246000fd5b6000601f19601f8301169050919050565b620007b38162000663565b8114620007bf57600080fd5b50565b620007cd8162000677565b8114620007d957600080fd5b50565b620007e781620006ab565b8114620007f357600080fd5b50565b611bb080620008066000396000f3fe60806040526004361061009c5760003560e01c806393d200e11161006457806393d200e114610151578063949c485b1461017c578063c86df17e14610198578063efcf936e146101c3578063f2fde38b146101df578063f9bcfa15146102085761009c565b80630602a789146100a15780636360e7e9146100ca578063715018a6146100f35780638629d6a81461010a5780638da5cb5b14610126575b600080fd5b3480156100ad57600080fd5b506100c860048036038101906100c39190611401565b610233565b005b3480156100d657600080fd5b506100f160048036038101906100ec9190611401565b6102f3565b005b3480156100ff57600080fd5b506101086103b3565b005b610124600480360381019061011f919061150f565b61043b565b005b34801561013257600080fd5b5061013b61077d565b6040516101489190611659565b60405180910390f35b34801561015d57600080fd5b506101666107a6565b6040516101739190611659565b60405180910390f35b6101966004803603810190610191919061150f565b6107cc565b005b3480156101a457600080fd5b506101ad610be4565b6040516101ba9190611659565b60405180910390f35b6101dd60048036038101906101d8919061150f565b610c0a565b005b3480156101eb57600080fd5b5061020660048036038101906102019190611401565b6110fc565b005b34801561021457600080fd5b5061021d6111f4565b60405161022a91906116a4565b60405180910390f35b61023b61121a565b73ffffffffffffffffffffffffffffffffffffffff1661025961077d565b73ffffffffffffffffffffffffffffffffffffffff16146102af576040517f08c379a00000000000000000000000000000000000000000000000000000000081526004016102a6906116ff565b60405180910390fd5b80600260006101000a81548173ffffffffffffffffffffffffffffffffffffffff021916908373ffffffffffffffffffffffffffffffffffffffff16021790555050565b6102fb61121a565b73ffffffffffffffffffffffffffffffffffffffff1661031961077d565b73ffffffffffffffffffffffffffffffffffffffff161461036f576040517f08c379a0000000000000000000000000000000000000000000000000000000008152600401610366906116ff565b60405180910390fd5b80600360006101000a81548173ffffffffffffffffffffffffffffffffffffffff021916908373ffffffffffffffffffffffffffffffffffffffff16021790555050565b6103bb61121a565b73ffffffffffffffffffffffffffffffffffffffff166103d961077d565b73ffffffffffffffffffffffffffffffffffffffff161461042f576040517f08c379a0000000000000000000000000000000000000000000000000000000008152600401610426906116ff565b60405180910390fd5b6104396000611222565b565b823373ffffffffffffffffffffffffffffffffffffffff16600160009054906101000a900473ffffffffffffffffffffffffffffffffffffffff1673ffffffffffffffffffffffffffffffffffffffff16636352211e836040518263ffffffff1660e01b81526004016104ae919061173f565b60206040518083038186803b1580156104c657600080fd5b505afa1580156104da573d6000803e3d6000fd5b505050506040513d601f19601f820116820180604052508101906104fe919061142a565b73ffffffffffffffffffffffffffffffffffffffff1614610554576040517f08c379a000000000000000000000000000000000000000000000000000000000815260040161054b9061171f565b60405180910390fd5b600160009054906101000a900473ffffffffffffffffffffffffffffffffffffffff1673ffffffffffffffffffffffffffffffffffffffff16634eeec55e6040518163ffffffff1660e01b8152600401602060405180830381600087803b1580156105be57600080fd5b505af11580156105d2573d6000803e3d6000fd5b505050506040513d601f19601f820116820180604052508101906105f691906114e6565b5a3a610602919061180e565b61060c91906117dd565b34101561064e576040517f08c379a0000000000000000000000000000000000000000000000000000000008152600401610645906116df565b60405180910390fd5b600160009054906101000a900473ffffffffffffffffffffffffffffffffffffffff1673ffffffffffffffffffffffffffffffffffffffff166108fc349081150290604051600060405180830381858888f193505050501580156106b6573d6000803e3d6000fd5b50600083838101906106c89190611453565b905060046000868152602001908152602001600020819080600181540180825580915050600190039060005260206000200160009091909190916101000a81548173ffffffffffffffffffffffffffffffffffffffff021916908373ffffffffffffffffffffffffffffffffffffffff160217905550847f3776ac189fa2c8d3a4733e7397d93d333d542704c4fc0bdb77eea756207651b28260405161076e9190611659565b60405180910390a25050505050565b60008060009054906101000a900473ffffffffffffffffffffffffffffffffffffffff16905090565b600260009054906101000a900473ffffffffffffffffffffffffffffffffffffffff1681565b823373ffffffffffffffffffffffffffffffffffffffff16600160009054906101000a900473ffffffffffffffffffffffffffffffffffffffff1673ffffffffffffffffffffffffffffffffffffffff16636352211e836040518263ffffffff1660e01b815260040161083f919061173f565b60206040518083038186803b15801561085757600080fd5b505afa15801561086b573d6000803e3d6000fd5b505050506040513d601f19601f8201168201806040525081019061088f919061142a565b73ffffffffffffffffffffffffffffffffffffffff16146108e5576040517f08c379a00000000000000000000000000000000000000000000000000000000081526004016108dc9061171f565b60405180910390fd5b600160009054906101000a900473ffffffffffffffffffffffffffffffffffffffff1673ffffffffffffffffffffffffffffffffffffffff16634eeec55e6040518163ffffffff1660e01b8152600401602060405180830381600087803b15801561094f57600080fd5b505af1158015610963573d6000803e3d6000fd5b505050506040513d601f19601f8201168201806040525081019061098791906114e6565b5a3a610993919061180e565b61099d91906117dd565b3410156109df576040517f08c379a00000000000000000000000000000000000000000000000000000000081526004016109d6906116df565b60405180910390fd5b600160009054906101000a900473ffffffffffffffffffffffffffffffffffffffff1673ffffffffffffffffffffffffffffffffffffffff166108fc349081150290604051600060405180830381858888f19350505050158015610a47573d6000803e3d6000fd5b5060008383810190610a59919061147c565b90506000600360009054906101000a900473ffffffffffffffffffffffffffffffffffffffff1673ffffffffffffffffffffffffffffffffffffffff166361b69abd600260009054906101000a900473ffffffffffffffffffffffffffffffffffffffff16846040518363ffffffff1660e01b8152600401610adc929190611674565b602060405180830381600087803b158015610af657600080fd5b505af1158015610b0a573d6000803e3d6000fd5b505050506040513d601f19601f82011682018060405250810190610b2e919061142a565b905060046000878152602001908152602001600020819080600181540180825580915050600190039060005260206000200160009091909190916101000a81548173ffffffffffffffffffffffffffffffffffffffff021916908373ffffffffffffffffffffffffffffffffffffffff160217905550857f3776ac189fa2c8d3a4733e7397d93d333d542704c4fc0bdb77eea756207651b282604051610bd49190611659565b60405180910390a2505050505050565b600360009054906101000a900473ffffffffffffffffffffffffffffffffffffffff1681565b823373ffffffffffffffffffffffffffffffffffffffff16600160009054906101000a900473ffffffffffffffffffffffffffffffffffffffff1673ffffffffffffffffffffffffffffffffffffffff16636352211e836040518263ffffffff1660e01b8152600401610c7d919061173f565b60206040518083038186803b158015610c9557600080fd5b505afa158015610ca9573d6000803e3d6000fd5b505050506040513d601f19601f82011682018060405250810190610ccd919061142a565b73ffffffffffffffffffffffffffffffffffffffff1614610d23576040517f08c379a0000000000000000000000000000000000000000000000000000000008152600401610d1a9061171f565b60405180910390fd5b600160009054906101000a900473ffffffffffffffffffffffffffffffffffffffff1673ffffffffffffffffffffffffffffffffffffffff16634eeec55e6040518163ffffffff1660e01b8152600401602060405180830381600087803b158015610d8d57600080fd5b505af1158015610da1573d6000803e3d6000fd5b505050506040513d601f19601f82011682018060405250810190610dc591906114e6565b5a3a610dd1919061180e565b610ddb91906117dd565b341015610e1d576040517f08c379a0000000000000000000000000000000000000000000000000000000008152600401610e14906116df565b60405180910390fd5b600160009054906101000a900473ffffffffffffffffffffffffffffffffffffffff1673ffffffffffffffffffffffffffffffffffffffff166108fc349081150290604051600060405180830381858888f19350505050158015610e85573d6000803e3d6000fd5b5060008383810190610e9791906114bd565b90506000600460008781526020019081526020016000208281548110610ee6577f4e487b7100000000000000000000000000000000000000000000000000000000600052603260045260246000fd5b9060005260206000200160009054906101000a900473ffffffffffffffffffffffffffffffffffffffff1690506004600087815260200190815260200160002060016004600089815260200190815260200160002080549050610f499190611868565b81548110610f80577f4e487b7100000000000000000000000000000000000000000000000000000000600052603260045260246000fd5b9060005260206000200160009054906101000a900473ffffffffffffffffffffffffffffffffffffffff16600460008881526020019081526020016000208381548110610ff6577f4e487b7100000000000000000000000000000000000000000000000000000000600052603260045260246000fd5b9060005260206000200160006101000a81548173ffffffffffffffffffffffffffffffffffffffff021916908373ffffffffffffffffffffffffffffffffffffffff16021790555060046000878152602001908152602001600020805480611087577f4e487b7100000000000000000000000000000000000000000000000000000000600052603160045260246000fd5b6001900381819060005260206000200160006101000a81549073ffffffffffffffffffffffffffffffffffffffff02191690559055857f6df21889b6202fd995285f8fa1ba8a89b63fb772ad4b0323e242b6ea72957024826040516110ec9190611659565b60405180910390a2505050505050565b61110461121a565b73ffffffffffffffffffffffffffffffffffffffff1661112261077d565b73ffffffffffffffffffffffffffffffffffffffff1614611178576040517f08c379a000000000000000000000000000000000000000000000000000000000815260040161116f906116ff565b60405180910390fd5b600073ffffffffffffffffffffffffffffffffffffffff168173ffffffffffffffffffffffffffffffffffffffff1614156111e8576040517f08c379a00000000000000000000000000000000000000000000000000000000081526004016111df906116bf565b60405180910390fd5b6111f181611222565b50565b600160009054906101000a900473ffffffffffffffffffffffffffffffffffffffff1681565b600033905090565b60008060009054906101000a900473ffffffffffffffffffffffffffffffffffffffff169050816000806101000a81548173ffffffffffffffffffffffffffffffffffffffff021916908373ffffffffffffffffffffffffffffffffffffffff1602179055508173ffffffffffffffffffffffffffffffffffffffff168173ffffffffffffffffffffffffffffffffffffffff167f8be0079c531659141344cd1fd0a4f28419497f9722a3daafe3b4186f6b6457e060405160405180910390a35050565b60006112f96112f48461177f565b61175a565b90508281526020810184848401111561131157600080fd5b61131c84828561190e565b509392505050565b60008135905061133381611b35565b92915050565b60008151905061134881611b35565b92915050565b60008135905061135d81611b4c565b92915050565b60008083601f84011261137557600080fd5b8235905067ffffffffffffffff81111561138e57600080fd5b6020830191508360018202830111156113a657600080fd5b9250929050565b600082601f8301126113be57600080fd5b81356113ce8482602086016112e6565b91505092915050565b6000813590506113e681611b63565b92915050565b6000815190506113fb81611b63565b92915050565b60006020828403121561141357600080fd5b600061142184828501611324565b91505092915050565b60006020828403121561143c57600080fd5b600061144a84828501611339565b91505092915050565b60006020828403121561146557600080fd5b60006114738482850161134e565b91505092915050565b60006020828403121561148e57600080fd5b600082013567ffffffffffffffff8111156114a857600080fd5b6114b4848285016113ad565b91505092915050565b6000602082840312156114cf57600080fd5b60006114dd848285016113d7565b91505092915050565b6000602082840312156114f857600080fd5b6000611506848285016113ec565b91505092915050565b60008060006040848603121561152457600080fd5b6000611532868287016113d7565b935050602084013567ffffffffffffffff81111561154f57600080fd5b61155b86828701611363565b92509250509250925092565b6115708161189c565b82525050565b6000611581826117b0565b61158b81856117bb565b935061159b81856020860161191d565b6115a481611a0e565b840191505092915050565b6115b8816118ea565b82525050565b60006115cb6026836117cc565b91506115d682611a1f565b604082019050919050565b60006115ee6035836117cc565b91506115f982611a6e565b604082019050919050565b60006116116020836117cc565b915061161c82611abd565b602082019050919050565b60006116346022836117cc565b915061163f82611ae6565b604082019050919050565b611653816118e0565b82525050565b600060208201905061166e6000830184611567565b92915050565b60006040820190506116896000830185611567565b818103602083015261169b8184611576565b90509392505050565b60006020820190506116b960008301846115af565b92915050565b600060208201905081810360008301526116d8816115be565b9050919050565b600060208201905081810360008301526116f8816115e1565b9050919050565b6000602082019050818103600083015261171881611604565b9050919050565b6000602082019050818103600083015261173881611627565b9050919050565b6000602082019050611754600083018461164a565b92915050565b6000611764611775565b90506117708282611950565b919050565b6000604051905090565b600067ffffffffffffffff82111561179a576117996119df565b5b6117a382611a0e565b9050602081019050919050565b600081519050919050565b600082825260208201905092915050565b600082825260208201905092915050565b60006117e8826118e0565b91506117f3836118e0565b925082611803576118026119b0565b5b828204905092915050565b6000611819826118e0565b9150611824836118e0565b9250817fffffffffffffffffffffffffffffffffffffffffffffffffffffffffffffffff048311821515161561185d5761185c611981565b5b828202905092915050565b6000611873826118e0565b915061187e836118e0565b92508282101561189157611890611981565b5b828203905092915050565b60006118a7826118c0565b9050919050565b60006118b9826118c0565b9050919050565b600073ffffffffffffffffffffffffffffffffffffffff82169050919050565b6000819050919050565b60006118f5826118fc565b9050919050565b6000611907826118c0565b9050919050565b82818337600083830152505050565b60005b8381101561193b578082015181840152602081019050611920565b8381111561194a576000848401525b50505050565b61195982611a0e565b810181811067ffffffffffffffff82111715611978576119776119df565b5b80604052505050565b7f4e487b7100000000000000000000000000000000000000000000000000000000600052601160045260246000fd5b7f4e487b7100000000000000000000000000000000000000000000000000000000600052601260045260246000fd5b7f4e487b7100000000000000000000000000000000000000000000000000000000600052604160045260246000fd5b6000601f19601f8301169050919050565b7f4f776e61626c653a206e6577206f776e657220697320746865207a65726f206160008201527f6464726573730000000000000000000000000000000000000000000000000000602082015250565b7f4f746f436f506c7567696e3a204e6f7420656e6f75676820455448207061696460008201527f20666f7220746865207472616e73616374696f6e2e0000000000000000000000602082015250565b7f4f776e61626c653a2063616c6c6572206973206e6f7420746865206f776e6572600082015250565b7f4f746f436f506c7567696e3a204e6f742074686520656e74697479206f776e6560008201527f722e000000000000000000000000000000000000000000000000000000000000602082015250565b611b3e8161189c565b8114611b4957600080fd5b50565b611b55816118ae565b8114611b6057600080fd5b50565b611b6c816118e0565b8114611b7757600080fd5b5056fea26469706673582212208f2c956224710a0586d8919e2149b150e6749e3aee75a4ff0fe92393c078ca1c64736f6c63430008030033",
  "linkReferences": {},
  "deployedLinkReferences": {}
}