{
    "_format": "hh-sol-artifact-1",
    "contractName": "LaunchCurveExponential",
    "sourceName": "https://github.com/otoco-io/OtoGo-SmartContracts/blob/main/contracts/launchcurve.sol",
    "abi": [
        {
            "inputs": [
                {
                    "internalType": "uint256",
                    "name": "supply",
                    "type": "uint256"
                },
                {
                    "internalType": "uint256",
                    "name": "pool",
                    "type": "uint256"
                },
                {
                    "internalType": "uint256",
                    "name": "stake",
                    "type": "uint256"
                },
                {
                    "internalType": "uint256",
                    "name": "reducer",
                    "type": "uint256"
                },
                {
                    "internalType": "uint256",
                    "name": "minPrice",
                    "type": "uint256"
                }
            ],
            "name": "getShares",
            "outputs": [
                {
                    "internalType": "uint256",
                    "name": "",
                    "type": "uint256"
                }
            ],
            "stateMutability": "view",
            "type": "function"
        },
        {
            "inputs": [
                {
                    "internalType": "uint256",
                    "name": "supply",
                    "type": "uint256"
                },
                {
                    "internalType": "uint256",
                    "name": "pool",
                    "type": "uint256"
                },
                {
                    "internalType": "uint256",
                    "name": "reducer",
                    "type": "uint256"
                },
                {
                    "internalType": "uint256",
                    "name": "minPrice",
                    "type": "uint256"
                }
            ],
            "name": "getUnitPrice",
            "outputs": [
                {
                    "internalType": "uint256",
                    "name": "",
                    "type": "uint256"
                }
            ],
            "stateMutability": "pure",
            "type": "function"
        },
        {
            "inputs": [
                {
                    "internalType": "uint256",
                    "name": "supply",
                    "type": "uint256"
                },
                {
                    "internalType": "uint256",
                    "name": "pool",
                    "type": "uint256"
                },
                {
                    "internalType": "uint256",
                    "name": "reducer",
                    "type": "uint256"
                }
            ],
            "name": "getCurve",
            "outputs": [
                {
                    "internalType": "uint256",
                    "name": "",
                    "type": "uint256"
                }
            ],
            "stateMutability": "pure",
            "type": "function"
        }
    ],
    "bytecode": "0x6080604052670de0b6b3a764000060005534801561001c57600080fd5b506102b98061002c6000396000f3fe608060405234801561001057600080fd5b50600436106100415760003560e01c80632ca9e7ab146100465780635302d0dd1461006b578063f8a4ad5b1461007e575b600080fd5b610059610054366004610180565b610091565b60405190815260200160405180910390f35b6100596100793660046101ab565b6100c6565b61005961008c3660046101dc565b610104565b60006100be846100a484620186a061024e565b6100ae919061024e565b6100b8858061024e565b90610161565b949350505050565b6000806100ee866100da86620186a061024e565b6100e4919061024e565b6100b8878061024e565b90506100fa8382610216565b9695505050505050565b60008061012c8461011889620186a061024e565b610122919061024e565b6100b8888061024e565b9050600061013a8483610216565b9050610155816100b86000548961017490919063ffffffff16565b98975050505050505050565b600061016d828461022e565b9392505050565b600061016d828461024e565b600080600060608486031215610194578283fd5b505081359360208301359350604090920135919050565b600080600080608085870312156101c0578081fd5b5050823594602084013594506040840135936060013592509050565b600080600080600060a086880312156101f3578081fd5b505083359560208501359550604085013594606081013594506080013592509050565b600082198211156102295761022961026d565b500190565b60008261024957634e487b7160e01b81526012600452602481fd5b500490565b60008160001904831182151516156102685761026861026d565b500290565b634e487b7160e01b600052601160045260246000fdfea2646970667358221220ad1a52687365247483fe079992c15de80d44476dba04ac260547d1dc28c0180164736f6c63430008040033",
    "linkReferences": {},
    "deployedLinkReferences": {}
}