{
  "_format": "hh-sol-artifact-1",
  "contractName": "LaunchpoolFactory",
  "sourceName": "contracts/plugins/Launchpool.sol",
  "abi": [
    {
      "inputs": [
        {
          "internalType": "address payable",
          "name": "otocoMaster",
          "type": "address"
        },
        {
          "internalType": "address",
          "name": "poolSource",
          "type": "address"
        },
        {
          "internalType": "address",
          "name": "curveSource",
          "type": "address"
        }
      ],
      "stateMutability": "nonpayable",
      "type": "constructor"
    },
    {
      "anonymous": false,
      "inputs": [
        {
          "indexed": true,
          "internalType": "address",
          "name": "newSource",
          "type": "address"
        }
      ],
      "name": "AddedCurveSource",
      "type": "event"
    },
    {
      "anonymous": false,
      "inputs": [
        {
          "indexed": false,
          "internalType": "uint256",
          "name": "seriesId",
          "type": "uint256"
        },
        {
          "indexed": true,
          "internalType": "address",
          "name": "sponsor",
          "type": "address"
        },
        {
          "indexed": false,
          "internalType": "address",
          "name": "pool",
          "type": "address"
        },
        {
          "indexed": false,
          "internalType": "string",
          "name": "metadata",
          "type": "string"
        }
      ],
      "name": "LaunchpoolCreated",
      "type": "event"
    },
    {
      "anonymous": false,
      "inputs": [
        {
          "indexed": false,
          "internalType": "uint256",
          "name": "seriesId",
          "type": "uint256"
        },
        {
          "indexed": false,
          "internalType": "address",
          "name": "pool",
          "type": "address"
        }
      ],
      "name": "LaunchpoolRemoved",
      "type": "event"
    },
    {
      "anonymous": false,
      "inputs": [
        {
          "indexed": true,
          "internalType": "address",
          "name": "previousOwner",
          "type": "address"
        },
        {
          "indexed": true,
          "internalType": "address",
          "name": "newOwner",
          "type": "address"
        }
      ],
      "name": "OwnershipTransferred",
      "type": "event"
    },
    {
      "anonymous": false,
      "inputs": [
        {
          "indexed": true,
          "internalType": "address",
          "name": "newSource",
          "type": "address"
        }
      ],
      "name": "UpdatedPoolSource",
      "type": "event"
    },
    {
      "anonymous": false,
      "inputs": [
        {
          "indexed": true,
          "internalType": "address",
          "name": "newAddress",
          "type": "address"
        }
      ],
      "name": "UpdatedRegistry",
      "type": "event"
    },
    {
      "inputs": [
        {
          "internalType": "address",
          "name": "newAddress",
          "type": "address"
        }
      ],
      "name": "addCurveSource",
      "outputs": [],
      "stateMutability": "nonpayable",
      "type": "function"
    },
    {
      "inputs": [
        {
          "internalType": "uint256",
          "name": "seriesId",
          "type": "uint256"
        },
        {
          "internalType": "bytes",
          "name": "pluginData",
          "type": "bytes"
        }
      ],
      "name": "addPlugin",
      "outputs": [],
      "stateMutability": "payable",
      "type": "function"
    },
    {
      "inputs": [
        {
          "internalType": "uint256",
          "name": "seriesId",
          "type": "uint256"
        },
        {
          "internalType": "bytes",
          "name": "pluginData",
          "type": "bytes"
        }
      ],
      "name": "attachPlugin",
      "outputs": [],
      "stateMutability": "payable",
      "type": "function"
    },
    {
      "inputs": [],
      "name": "otocoMaster",
      "outputs": [
        {
          "internalType": "contract IOtoCoMaster",
          "name": "",
          "type": "address"
        }
      ],
      "stateMutability": "view",
      "type": "function"
    },
    {
      "inputs": [],
      "name": "owner",
      "outputs": [
        {
          "internalType": "address",
          "name": "",
          "type": "address"
        }
      ],
      "stateMutability": "view",
      "type": "function"
    },
    {
      "inputs": [
        {
          "internalType": "uint256",
          "name": "seriesId",
          "type": "uint256"
        },
        {
          "internalType": "bytes",
          "name": "pluginData",
          "type": "bytes"
        }
      ],
      "name": "removePlugin",
      "outputs": [],
      "stateMutability": "payable",
      "type": "function"
    },
    {
      "inputs": [],
      "name": "renounceOwnership",
      "outputs": [],
      "stateMutability": "nonpayable",
      "type": "function"
    },
    {
      "inputs": [
        {
          "internalType": "address",
          "name": "newOwner",
          "type": "address"
        }
      ],
      "name": "transferOwnership",
      "outputs": [],
      "stateMutability": "nonpayable",
      "type": "function"
    },
    {
      "inputs": [
        {
          "internalType": "address",
          "name": "newAddress",
          "type": "address"
        }
      ],
      "name": "updatePoolSource",
      "outputs": [],
      "stateMutability": "nonpayable",
      "type": "function"
    }
  ],
  "bytecode": "0x60806040523480156200001157600080fd5b506040516200215638038062002156833981810160405281019062000037919062000241565b82620000586200004c6200014760201b60201c565b6200014f60201b60201c565b80600160006101000a81548173ffffffffffffffffffffffffffffffffffffffff021916908373ffffffffffffffffffffffffffffffffffffffff1602179055505081600260006101000a81548173ffffffffffffffffffffffffffffffffffffffff021916908373ffffffffffffffffffffffffffffffffffffffff1602179055506003819080600181540180825580915050600190039060005260206000200160009091909190916101000a81548173ffffffffffffffffffffffffffffffffffffffff021916908373ffffffffffffffffffffffffffffffffffffffff16021790555050505062000313565b600033905090565b60008060009054906101000a900473ffffffffffffffffffffffffffffffffffffffff169050816000806101000a81548173ffffffffffffffffffffffffffffffffffffffff021916908373ffffffffffffffffffffffffffffffffffffffff1602179055508173ffffffffffffffffffffffffffffffffffffffff168173ffffffffffffffffffffffffffffffffffffffff167f8be0079c531659141344cd1fd0a4f28419497f9722a3daafe3b4186f6b6457e060405160405180910390a35050565b6000815190506200022481620002df565b92915050565b6000815190506200023b81620002f9565b92915050565b6000806000606084860312156200025757600080fd5b600062000267868287016200022a565b93505060206200027a8682870162000213565b92505060406200028d8682870162000213565b9150509250925092565b6000620002a482620002bf565b9050919050565b6000620002b882620002bf565b9050919050565b600073ffffffffffffffffffffffffffffffffffffffff82169050919050565b620002ea8162000297565b8114620002f657600080fd5b50565b6200030481620002ab565b81146200031057600080fd5b50565b611e3380620003236000396000f3fe6080604052600436106100865760003560e01c80638da5cb5b116100595780638da5cb5b14610110578063949c485b1461013b578063efcf936e14610157578063f2fde38b14610173578063f9bcfa151461019c57610086565b80631fa4a6fb1461008b5780633c03a53f146100b4578063715018a6146100dd5780638629d6a8146100f4575b600080fd5b34801561009757600080fd5b506100b260048036038101906100ad919061132e565b6101c7565b005b3480156100c057600080fd5b506100db60048036038101906100d6919061132e565b6102ec565b005b3480156100e957600080fd5b506100f26103ef565b005b61010e60048036038101906101099190611491565b610477565b005b34801561011c57600080fd5b5061012561047c565b6040516101329190611708565b60405180910390f35b61015560048036038101906101509190611491565b6104a5565b005b610171600480360381019061016c9190611491565b610920565b005b34801561017f57600080fd5b5061019a6004803603810190610195919061132e565b610e13565b005b3480156101a857600080fd5b506101b1610f0b565b6040516101be9190611799565b60405180910390f35b6101cf610f31565b73ffffffffffffffffffffffffffffffffffffffff166101ed61047c565b73ffffffffffffffffffffffffffffffffffffffff1614610243576040517f08c379a000000000000000000000000000000000000000000000000000000000815260040161023a90611814565b60405180910390fd5b6003819080600181540180825580915050600190039060005260206000200160009091909190916101000a81548173ffffffffffffffffffffffffffffffffffffffff021916908373ffffffffffffffffffffffffffffffffffffffff1602179055508073ffffffffffffffffffffffffffffffffffffffff167fb4b5f08034caf34caa3c5d7a8bca7c4bcba4cd87a246848de4e70c35296d44d860405160405180910390a250565b6102f4610f31565b73ffffffffffffffffffffffffffffffffffffffff1661031261047c565b73ffffffffffffffffffffffffffffffffffffffff1614610368576040517f08c379a000000000000000000000000000000000000000000000000000000000815260040161035f90611814565b60405180910390fd5b80600260006101000a81548173ffffffffffffffffffffffffffffffffffffffff021916908373ffffffffffffffffffffffffffffffffffffffff1602179055508073ffffffffffffffffffffffffffffffffffffffff167fc60a6189781793472e434efc6675f07b49df5011c409cc65d438a69b6482f1ba60405160405180910390a250565b6103f7610f31565b73ffffffffffffffffffffffffffffffffffffffff1661041561047c565b73ffffffffffffffffffffffffffffffffffffffff161461046b576040517f08c379a000000000000000000000000000000000000000000000000000000000815260040161046290611814565b60405180910390fd5b6104756000610f39565b565b505050565b60008060009054906101000a900473ffffffffffffffffffffffffffffffffffffffff16905090565b823373ffffffffffffffffffffffffffffffffffffffff16600160009054906101000a900473ffffffffffffffffffffffffffffffffffffffff1673ffffffffffffffffffffffffffffffffffffffff16636352211e836040518263ffffffff1660e01b81526004016105189190611854565b60206040518083038186803b15801561053057600080fd5b505afa158015610544573d6000803e3d6000fd5b505050506040513d601f19601f820116820180604052508101906105689190611357565b73ffffffffffffffffffffffffffffffffffffffff16146105be576040517f08c379a00000000000000000000000000000000000000000000000000000000081526004016105b590611834565b60405180910390fd5b600160009054906101000a900473ffffffffffffffffffffffffffffffffffffffff1673ffffffffffffffffffffffffffffffffffffffff16634eeec55e6040518163ffffffff1660e01b8152600401602060405180830381600087803b15801561062857600080fd5b505af115801561063c573d6000803e3d6000fd5b505050506040513d601f19601f820116820180604052508101906106609190611468565b5a3a61066c9190611a43565b6106769190611a12565b3410156106b8576040517f08c379a00000000000000000000000000000000000000000000000000000000081526004016106af906117f4565b60405180910390fd5b600160009054906101000a900473ffffffffffffffffffffffffffffffffffffffff1673ffffffffffffffffffffffffffffffffffffffff166108fc349081150290604051600060405180830381858888f19350505050158015610720573d6000803e3d6000fd5b50600080600080600087878101906107389190611380565b94509450945094509450600061076f600260009054906101000a900473ffffffffffffffffffffffffffffffffffffffff16610ffd565b90508073ffffffffffffffffffffffffffffffffffffffff1663edab8283878787338860038961ffff16815481106107d0577f4e487b7100000000000000000000000000000000000000000000000000000000600052603260045260246000fd5b9060005260206000200160009054906101000a900473ffffffffffffffffffffffffffffffffffffffff166040518763ffffffff1660e01b815260040161081c96959493929190611723565b600060405180830381600087803b15801561083657600080fd5b505af115801561084a573d6000803e3d6000fd5b50505050600460008b8152602001908152602001600020819080600181540180825580915050600190039060005260206000200160009091909190916101000a81548173ffffffffffffffffffffffffffffffffffffffff021916908373ffffffffffffffffffffffffffffffffffffffff1602179055503373ffffffffffffffffffffffffffffffffffffffff167f1b35af1256a849d40f04e11e08d58ab65d4f2288d7359452ebd66b8e0d143e798b838760405161090c93929190611898565b60405180910390a250505050505050505050565b823373ffffffffffffffffffffffffffffffffffffffff16600160009054906101000a900473ffffffffffffffffffffffffffffffffffffffff1673ffffffffffffffffffffffffffffffffffffffff16636352211e836040518263ffffffff1660e01b81526004016109939190611854565b60206040518083038186803b1580156109ab57600080fd5b505afa1580156109bf573d6000803e3d6000fd5b505050506040513d601f19601f820116820180604052508101906109e39190611357565b73ffffffffffffffffffffffffffffffffffffffff1614610a39576040517f08c379a0000000000000000000000000000000000000000000000000000000008152600401610a3090611834565b60405180910390fd5b600160009054906101000a900473ffffffffffffffffffffffffffffffffffffffff1673ffffffffffffffffffffffffffffffffffffffff16634eeec55e6040518163ffffffff1660e01b8152600401602060405180830381600087803b158015610aa357600080fd5b505af1158015610ab7573d6000803e3d6000fd5b505050506040513d601f19601f82011682018060405250810190610adb9190611468565b5a3a610ae79190611a43565b610af19190611a12565b341015610b33576040517f08c379a0000000000000000000000000000000000000000000000000000000008152600401610b2a906117f4565b60405180910390fd5b600160009054906101000a900473ffffffffffffffffffffffffffffffffffffffff1673ffffffffffffffffffffffffffffffffffffffff166108fc349081150290604051600060405180830381858888f19350505050158015610b9b573d6000803e3d6000fd5b5060008383810190610bad919061143f565b90506000600460008781526020019081526020016000208281548110610bfc577f4e487b7100000000000000000000000000000000000000000000000000000000600052603260045260246000fd5b9060005260206000200160009054906101000a900473ffffffffffffffffffffffffffffffffffffffff1690506004600087815260200190815260200160002060016004600089815260200190815260200160002080549050610c5f9190611a9d565b81548110610c96577f4e487b7100000000000000000000000000000000000000000000000000000000600052603260045260246000fd5b9060005260206000200160009054906101000a900473ffffffffffffffffffffffffffffffffffffffff16600460008881526020019081526020016000208381548110610d0c577f4e487b7100000000000000000000000000000000000000000000000000000000600052603260045260246000fd5b9060005260206000200160006101000a81548173ffffffffffffffffffffffffffffffffffffffff021916908373ffffffffffffffffffffffffffffffffffffffff16021790555060046000878152602001908152602001600020805480610d9d577f4e487b7100000000000000000000000000000000000000000000000000000000600052603160045260246000fd5b6001900381819060005260206000200160006101000a81549073ffffffffffffffffffffffffffffffffffffffff021916905590557fa2f05746878585e34a7479e4d05bf7a870ebbf5d8629b0177abbd028501d5d7a8682604051610e0392919061186f565b60405180910390a1505050505050565b610e1b610f31565b73ffffffffffffffffffffffffffffffffffffffff16610e3961047c565b73ffffffffffffffffffffffffffffffffffffffff1614610e8f576040517f08c379a0000000000000000000000000000000000000000000000000000000008152600401610e8690611814565b60405180910390fd5b600073ffffffffffffffffffffffffffffffffffffffff168173ffffffffffffffffffffffffffffffffffffffff161415610eff576040517f08c379a0000000000000000000000000000000000000000000000000000000008152600401610ef6906117b4565b60405180910390fd5b610f0881610f39565b50565b600160009054906101000a900473ffffffffffffffffffffffffffffffffffffffff1681565b600033905090565b60008060009054906101000a900473ffffffffffffffffffffffffffffffffffffffff169050816000806101000a81548173ffffffffffffffffffffffffffffffffffffffff021916908373ffffffffffffffffffffffffffffffffffffffff1602179055508173ffffffffffffffffffffffffffffffffffffffff168173ffffffffffffffffffffffffffffffffffffffff167f8be0079c531659141344cd1fd0a4f28419497f9722a3daafe3b4186f6b6457e060405160405180910390a35050565b60006040517f3d602d80600a3d3981f3363d3d373d3d3d363d7300000000000000000000000081528260601b60148201527f5af43d82803e903d91602b57fd5bf3000000000000000000000000000000000060288201526037816000f0915050600073ffffffffffffffffffffffffffffffffffffffff168173ffffffffffffffffffffffffffffffffffffffff1614156110cd576040517f08c379a00000000000000000000000000000000000000000000000000000000081526004016110c4906117d4565b60405180910390fd5b919050565b60006110e56110e0846118fb565b6118d6565b9050808382526020820190508285602086028201111561110457600080fd5b60005b85811015611134578161111a88826111e8565b845260208401935060208301925050600181019050611107565b5050509392505050565b600061115161114c84611927565b6118d6565b9050808382526020820190508285602086028201111561117057600080fd5b60005b858110156111a057816111868882611304565b845260208401935060208301925050600181019050611173565b5050509392505050565b60006111bd6111b884611953565b6118d6565b9050828152602081018484840111156111d557600080fd5b6111e0848285611b51565b509392505050565b6000813590506111f781611da1565b92915050565b60008151905061120c81611da1565b92915050565b60008135905061122181611db8565b92915050565b600082601f83011261123857600080fd5b81356112488482602086016110d2565b91505092915050565b600082601f83011261126257600080fd5b813561127284826020860161113e565b91505092915050565b60008083601f84011261128d57600080fd5b8235905067ffffffffffffffff8111156112a657600080fd5b6020830191508360018202830111156112be57600080fd5b9250929050565b600082601f8301126112d657600080fd5b81356112e68482602086016111aa565b91505092915050565b6000813590506112fe81611dcf565b92915050565b60008135905061131381611de6565b92915050565b60008151905061132881611de6565b92915050565b60006020828403121561134057600080fd5b600061134e848285016111e8565b91505092915050565b60006020828403121561136957600080fd5b6000611377848285016111fd565b91505092915050565b600080600080600060a0868803121561139857600080fd5b600086013567ffffffffffffffff8111156113b257600080fd5b6113be88828901611227565b955050602086013567ffffffffffffffff8111156113db57600080fd5b6113e788828901611251565b945050604086013567ffffffffffffffff81111561140457600080fd5b611410888289016112c5565b935050606061142188828901611212565b9250506080611432888289016112ef565b9150509295509295909350565b60006020828403121561145157600080fd5b600061145f84828501611304565b91505092915050565b60006020828403121561147a57600080fd5b600061148884828501611319565b91505092915050565b6000806000604084860312156114a657600080fd5b60006114b486828701611304565b935050602084013567ffffffffffffffff8111156114d157600080fd5b6114dd8682870161127b565b92509250509250925092565b60006114f58383611519565b60208301905092915050565b600061150d83836116ea565b60208301905092915050565b61152281611ad1565b82525050565b61153181611ad1565b82525050565b6000611542826119a4565b61154c81856119df565b935061155783611984565b8060005b8381101561158857815161156f88826114e9565b975061157a836119c5565b92505060018101905061155b565b5085935050505092915050565b60006115a0826119af565b6115aa81856119f0565b93506115b583611994565b8060005b838110156115e65781516115cd8882611501565b97506115d8836119d2565b9250506001810190506115b9565b5085935050505092915050565b6115fc81611b2d565b82525050565b600061160d826119ba565b6116178185611a01565b9350611627818560208601611b60565b61163081611c51565b840191505092915050565b6000611648602683611a01565b915061165382611c62565b604082019050919050565b600061166b601683611a01565b915061167682611cb1565b602082019050919050565b600061168e603583611a01565b915061169982611cda565b604082019050919050565b60006116b1602083611a01565b91506116bc82611d29565b602082019050919050565b60006116d4602283611a01565b91506116df82611d52565b604082019050919050565b6116f381611b23565b82525050565b61170281611b23565b82525050565b600060208201905061171d6000830184611528565b92915050565b600060c082019050818103600083015261173d8189611537565b905081810360208301526117518188611595565b905081810360408301526117658187611602565b90506117746060830186611528565b6117816080830185611528565b61178e60a0830184611528565b979650505050505050565b60006020820190506117ae60008301846115f3565b92915050565b600060208201905081810360008301526117cd8161163b565b9050919050565b600060208201905081810360008301526117ed8161165e565b9050919050565b6000602082019050818103600083015261180d81611681565b9050919050565b6000602082019050818103600083015261182d816116a4565b9050919050565b6000602082019050818103600083015261184d816116c7565b9050919050565b600060208201905061186960008301846116f9565b92915050565b600060408201905061188460008301856116f9565b6118916020830184611528565b9392505050565b60006060820190506118ad60008301866116f9565b6118ba6020830185611528565b81810360408301526118cc8184611602565b9050949350505050565b60006118e06118f1565b90506118ec8282611b93565b919050565b6000604051905090565b600067ffffffffffffffff82111561191657611915611c22565b5b602082029050602081019050919050565b600067ffffffffffffffff82111561194257611941611c22565b5b602082029050602081019050919050565b600067ffffffffffffffff82111561196e5761196d611c22565b5b61197782611c51565b9050602081019050919050565b6000819050602082019050919050565b6000819050602082019050919050565b600081519050919050565b600081519050919050565b600081519050919050565b6000602082019050919050565b6000602082019050919050565b600082825260208201905092915050565b600082825260208201905092915050565b600082825260208201905092915050565b6000611a1d82611b23565b9150611a2883611b23565b925082611a3857611a37611bf3565b5b828204905092915050565b6000611a4e82611b23565b9150611a5983611b23565b9250817fffffffffffffffffffffffffffffffffffffffffffffffffffffffffffffffff0483118215151615611a9257611a91611bc4565b5b828202905092915050565b6000611aa882611b23565b9150611ab383611b23565b925082821015611ac657611ac5611bc4565b5b828203905092915050565b6000611adc82611b03565b9050919050565b6000611aee82611b03565b9050919050565b600061ffff82169050919050565b600073ffffffffffffffffffffffffffffffffffffffff82169050919050565b6000819050919050565b6000611b3882611b3f565b9050919050565b6000611b4a82611b03565b9050919050565b82818337600083830152505050565b60005b83811015611b7e578082015181840152602081019050611b63565b83811115611b8d576000848401525b50505050565b611b9c82611c51565b810181811067ffffffffffffffff82111715611bbb57611bba611c22565b5b80604052505050565b7f4e487b7100000000000000000000000000000000000000000000000000000000600052601160045260246000fd5b7f4e487b7100000000000000000000000000000000000000000000000000000000600052601260045260246000fd5b7f4e487b7100000000000000000000000000000000000000000000000000000000600052604160045260246000fd5b6000601f19601f8301169050919050565b7f4f776e61626c653a206e6577206f776e657220697320746865207a65726f206160008201527f6464726573730000000000000000000000000000000000000000000000000000602082015250565b7f455243313136373a20637265617465206661696c656400000000000000000000600082015250565b7f4f746f436f506c7567696e3a204e6f7420656e6f75676820455448207061696460008201527f20666f7220746865207472616e73616374696f6e2e0000000000000000000000602082015250565b7f4f776e61626c653a2063616c6c6572206973206e6f7420746865206f776e6572600082015250565b7f4f746f436f506c7567696e3a204e6f742074686520656e74697479206f776e6560008201527f722e000000000000000000000000000000000000000000000000000000000000602082015250565b611daa81611ad1565b8114611db557600080fd5b50565b611dc181611ae3565b8114611dcc57600080fd5b50565b611dd881611af5565b8114611de357600080fd5b50565b611def81611b23565b8114611dfa57600080fd5b5056fea264697066735822122086c7c7db018af27509f5e30cd67a0122b79140183bb2516f597f3b7bae02b14d64736f6c63430008030033",
  "linkReferences": {},
  "deployedLinkReferences": {}
}