{
  "_format": "hh-sol-artifact-1",
  "contractName": "JurisdictionWyoming",
  "sourceName": "contracts/jurisdictions/Wyoming.sol",
  "abi": [
    {
      "inputs": [
        {
          "internalType": "string",
          "name": "_name",
          "type": "string"
        },
        {
          "internalType": "string",
          "name": "_defaultBadge",
          "type": "string"
        },
        {
          "internalType": "string",
          "name": "_goldBadge",
          "type": "string"
        }
      ],
      "stateMutability": "nonpayable",
      "type": "constructor"
    },
    {
      "inputs": [],
      "name": "getJurisdictionBadge",
      "outputs": [
        {
          "internalType": "string",
          "name": "",
          "type": "string"
        }
      ],
      "stateMutability": "view",
      "type": "function"
    },
    {
      "inputs": [],
      "name": "getJurisdictionGoldBadge",
      "outputs": [
        {
          "internalType": "string",
          "name": "",
          "type": "string"
        }
      ],
      "stateMutability": "view",
      "type": "function"
    },
    {
      "inputs": [],
      "name": "getJurisdictionName",
      "outputs": [
        {
          "internalType": "string",
          "name": "",
          "type": "string"
        }
      ],
      "stateMutability": "view",
      "type": "function"
    },
    {
      "inputs": [
        {
          "internalType": "uint256",
          "name": "count",
          "type": "uint256"
        },
        {
          "internalType": "string",
          "name": "nameToFormat",
          "type": "string"
        }
      ],
      "name": "getSeriesNameFormatted",
      "outputs": [
        {
          "internalType": "string",
          "name": "",
          "type": "string"
        }
      ],
      "stateMutability": "pure",
      "type": "function"
    }
  ],
  "bytecode": "0x60806040523480156200001157600080fd5b5060405162000cff38038062000cff8339818101604052810190620000379190620001b3565b82828282600090805190602001906200005292919062000091565b5081600190805190602001906200006b92919062000091565b5080600290805190602001906200008492919062000091565b50505050505050620003c4565b8280546200009f90620002e9565b90600052602060002090601f016020900481019282620000c357600085556200010f565b82601f10620000de57805160ff19168380011785556200010f565b828001600101855582156200010f579182015b828111156200010e578251825591602001919060010190620000f1565b5b5090506200011e919062000122565b5090565b5b808211156200013d57600081600090555060010162000123565b5090565b60006200015862000152846200027d565b62000254565b9050828152602081018484840111156200017157600080fd5b6200017e848285620002b3565b509392505050565b600082601f8301126200019857600080fd5b8151620001aa84826020860162000141565b91505092915050565b600080600060608486031215620001c957600080fd5b600084015167ffffffffffffffff811115620001e457600080fd5b620001f28682870162000186565b935050602084015167ffffffffffffffff8111156200021057600080fd5b6200021e8682870162000186565b925050604084015167ffffffffffffffff8111156200023c57600080fd5b6200024a8682870162000186565b9150509250925092565b60006200026062000273565b90506200026e82826200031f565b919050565b6000604051905090565b600067ffffffffffffffff8211156200029b576200029a62000384565b5b620002a682620003b3565b9050602081019050919050565b60005b83811015620002d3578082015181840152602081019050620002b6565b83811115620002e3576000848401525b50505050565b600060028204905060018216806200030257607f821691505b6020821081141562000319576200031862000355565b5b50919050565b6200032a82620003b3565b810181811067ffffffffffffffff821117156200034c576200034b62000384565b5b80604052505050565b7f4e487b7100000000000000000000000000000000000000000000000000000000600052602260045260246000fd5b7f4e487b7100000000000000000000000000000000000000000000000000000000600052604160045260246000fd5b6000601f19601f8301169050919050565b61092b80620003d46000396000f3fe608060405234801561001057600080fd5b506004361061004c5760003560e01c80633b6d357314610051578063407e3f271461006f578063806e30ad1461008d578063d7786ba7146100ab575b600080fd5b6100596100db565b604051610066919061061b565b60405180910390f35b61007761016d565b604051610084919061061b565b60405180910390f35b6100956101ff565b6040516100a2919061061b565b60405180910390f35b6100c560048036038101906100c091906104e0565b610291565b6040516100d2919061061b565b60405180910390f35b6060600280546100ea9061076b565b80601f01602080910402602001604051908101604052809291908181526020018280546101169061076b565b80156101635780601f1061013857610100808354040283529160200191610163565b820191906000526020600020905b81548152906001019060200180831161014657829003601f168201915b5050505050905090565b60606000805461017c9061076b565b80601f01602080910402602001604051908101604052809291908181526020018280546101a89061076b565b80156101f55780601f106101ca576101008083540402835291602001916101f5565b820191906000526020600020905b8154815290600101906020018083116101d857829003601f168201915b5050505050905090565b60606001805461020e9061076b565b80601f016020809104026020016040519081016040528092919081815260200182805461023a9061076b565b80156102875780601f1061025c57610100808354040283529160200191610287565b820191906000526020600020905b81548152906001019060200180831161026a57829003601f168201915b5050505050905090565b606082826102aa6001876102a59190610664565b6102d4565b6040516020016102bc939291906105ea565b60405160208183030381529060405290509392505050565b6060600082141561031c576040518060400160405280600181526020017f3000000000000000000000000000000000000000000000000000000000000000815250905061047c565b600082905060005b6000821461034e5780806103379061079d565b915050600a8261034791906106ba565b9150610324565b60008167ffffffffffffffff811115610390577f4e487b7100000000000000000000000000000000000000000000000000000000600052604160045260246000fd5b6040519080825280601f01601f1916602001820160405280156103c25781602001600182028036833780820191505090505b5090505b60008514610475576001826103db91906106eb565b9150600a856103ea91906107e6565b60306103f69190610664565b60f81b818381518110610432577f4e487b7100000000000000000000000000000000000000000000000000000000600052603260045260246000fd5b60200101907effffffffffffffffffffffffffffffffffffffffffffffffffffffffffffff1916908160001a905350600a8561046e91906106ba565b94506103c6565b8093505050505b919050565b60008083601f84011261049357600080fd5b8235905067ffffffffffffffff8111156104ac57600080fd5b6020830191508360018202830111156104c457600080fd5b9250929050565b6000813590506104da816108de565b92915050565b6000806000604084860312156104f557600080fd5b6000610503868287016104cb565b935050602084013567ffffffffffffffff81111561052057600080fd5b61052c86828701610481565b92509250509250925092565b60006105448385610659565b9350610551838584610729565b82840190509392505050565b60006105688261063d565b6105728185610648565b9350610582818560208601610738565b61058b816108a4565b840191505092915050565b60006105a18261063d565b6105ab8185610659565b93506105bb818560208601610738565b80840191505092915050565b60006105d4600a83610659565b91506105df826108b5565b600a82019050919050565b60006105f7828587610538565b9150610602826105c7565b915061060e8284610596565b9150819050949350505050565b60006020820190508181036000830152610635818461055d565b905092915050565b600081519050919050565b600082825260208201905092915050565b600081905092915050565b600061066f8261071f565b915061067a8361071f565b9250827fffffffffffffffffffffffffffffffffffffffffffffffffffffffffffffffff038211156106af576106ae610817565b5b828201905092915050565b60006106c58261071f565b91506106d08361071f565b9250826106e0576106df610846565b5b828204905092915050565b60006106f68261071f565b91506107018361071f565b92508282101561071457610713610817565b5b828203905092915050565b6000819050919050565b82818337600083830152505050565b60005b8381101561075657808201518184015260208101905061073b565b83811115610765576000848401525b50505050565b6000600282049050600182168061078357607f821691505b6020821081141561079757610796610875565b5b50919050565b60006107a88261071f565b91507fffffffffffffffffffffffffffffffffffffffffffffffffffffffffffffffff8214156107db576107da610817565b5b600182019050919050565b60006107f18261071f565b91506107fc8361071f565b92508261080c5761080b610846565b5b828206905092915050565b7f4e487b7100000000000000000000000000000000000000000000000000000000600052601160045260246000fd5b7f4e487b7100000000000000000000000000000000000000000000000000000000600052601260045260246000fd5b7f4e487b7100000000000000000000000000000000000000000000000000000000600052602260045260246000fd5b6000601f19601f8301169050919050565b7f202d205365726965732000000000000000000000000000000000000000000000600082015250565b6108e78161071f565b81146108f257600080fd5b5056fea2646970667358221220be9e3e993b7f3d8eb357f1304388e317f79d8339448fb9f958819a3188f29f2e64736f6c63430008030033",
  "linkReferences": {},
  "deployedLinkReferences": {}
}