{
  "_format": "hh-sol-artifact-1",
  "contractName": "OtoCoWyoming",
  "sourceName": "contracts/jurisdictions/Wyoming.sol",
  "abi": [
    {
      "inputs": [
        {
          "internalType": "string",
          "name": "_name",
          "type": "string"
        },
        {
          "internalType": "string",
          "name": "_defaultBadge",
          "type": "string"
        },
        {
          "internalType": "string",
          "name": "_goldBadge",
          "type": "string"
        }
      ],
      "stateMutability": "nonpayable",
      "type": "constructor"
    },
    {
      "inputs": [],
      "name": "getJurisdictionBadge",
      "outputs": [
        {
          "internalType": "string",
          "name": "",
          "type": "string"
        }
      ],
      "stateMutability": "view",
      "type": "function"
    },
    {
      "inputs": [],
      "name": "getJurisdictionGoldBadge",
      "outputs": [
        {
          "internalType": "string",
          "name": "",
          "type": "string"
        }
      ],
      "stateMutability": "view",
      "type": "function"
    },
    {
      "inputs": [],
      "name": "getJurisdictionName",
      "outputs": [
        {
          "internalType": "string",
          "name": "",
          "type": "string"
        }
      ],
      "stateMutability": "view",
      "type": "function"
    },
    {
      "inputs": [
        {
          "internalType": "uint256",
          "name": "count",
          "type": "uint256"
        },
        {
          "internalType": "string",
          "name": "name",
          "type": "string"
        }
      ],
      "name": "getSeriesNameFormatted",
      "outputs": [
        {
          "internalType": "string",
          "name": "",
          "type": "string"
        }
      ],
      "stateMutability": "pure",
      "type": "function"
    }
  ],
  "bytecode": "0x60806040523480156200001157600080fd5b5060405162000da538038062000da58339818101604052810190620000379190620001b3565b82828282600090805190602001906200005292919062000091565b5081600190805190602001906200006b92919062000091565b5080600290805190602001906200008492919062000091565b50505050505050620003c4565b8280546200009f90620002e9565b90600052602060002090601f016020900481019282620000c357600085556200010f565b82601f10620000de57805160ff19168380011785556200010f565b828001600101855582156200010f579182015b828111156200010e578251825591602001919060010190620000f1565b5b5090506200011e919062000122565b5090565b5b808211156200013d57600081600090555060010162000123565b5090565b60006200015862000152846200027d565b62000254565b9050828152602081018484840111156200017157600080fd5b6200017e848285620002b3565b509392505050565b600082601f8301126200019857600080fd5b8151620001aa84826020860162000141565b91505092915050565b600080600060608486031215620001c957600080fd5b600084015167ffffffffffffffff811115620001e457600080fd5b620001f28682870162000186565b935050602084015167ffffffffffffffff8111156200021057600080fd5b6200021e8682870162000186565b925050604084015167ffffffffffffffff8111156200023c57600080fd5b6200024a8682870162000186565b9150509250925092565b60006200026062000273565b90506200026e82826200031f565b919050565b6000604051905090565b600067ffffffffffffffff8211156200029b576200029a62000384565b5b620002a682620003b3565b9050602081019050919050565b60005b83811015620002d3578082015181840152602081019050620002b6565b83811115620002e3576000848401525b50505050565b600060028204905060018216806200030257607f821691505b6020821081141562000319576200031862000355565b5b50919050565b6200032a82620003b3565b810181811067ffffffffffffffff821117156200034c576200034b62000384565b5b80604052505050565b7f4e487b7100000000000000000000000000000000000000000000000000000000600052602260045260246000fd5b7f4e487b7100000000000000000000000000000000000000000000000000000000600052604160045260246000fd5b6000601f19601f8301169050919050565b6109d180620003d46000396000f3fe608060405234801561001057600080fd5b506004361061004c5760003560e01c80633b6d357314610051578063407e3f271461006f578063806e30ad1461008d578063d7786ba7146100ab575b600080fd5b6100596100db565b604051610066919061060b565b60405180910390f35b61007761016d565b604051610084919061060b565b60405180910390f35b6100956101ff565b6040516100a2919061060b565b60405180910390f35b6100c560048036038101906100c091906104fb565b610291565b6040516100d2919061060b565b60405180910390f35b6060600280546100ea906107b1565b80601f0160208091040260200160405190810160405280929190818152602001828054610116906107b1565b80156101635780601f1061013857610100808354040283529160200191610163565b820191906000526020600020905b81548152906001019060200180831161014657829003601f168201915b5050505050905090565b60606000805461017c906107b1565b80601f01602080910402602001604051908101604052809291908181526020018280546101a8906107b1565b80156101f55780601f106101ca576101008083540402835291602001916101f5565b820191906000526020600020905b8154815290600101906020018083116101d857829003601f168201915b5050505050905090565b60606001805461020e906107b1565b80601f016020809104026020016040519081016040528092919081815260200182805461023a906107b1565b80156102875780601f1061025c57610100808354040283529160200191610287565b820191906000526020600020905b81548152906001019060200180831161026a57829003601f168201915b5050505050905090565b6060816102a96001856102a491906106aa565b6102d1565b6040516020016102ba9291906105dc565b604051602081830303815290604052905092915050565b60606000821415610319576040518060400160405280600181526020017f30000000000000000000000000000000000000000000000000000000000000008152509050610479565b600082905060005b6000821461034b57808061033490610814565b915050600a826103449190610700565b9150610321565b60008167ffffffffffffffff81111561038d577f4e487b7100000000000000000000000000000000000000000000000000000000600052604160045260246000fd5b6040519080825280601f01601f1916602001820160405280156103bf5781602001600182028036833780820191505090505b5090505b60008514610472576001826103d89190610731565b9150600a856103e7919061085d565b60306103f391906106aa565b60f81b81838151811061042f577f4e487b7100000000000000000000000000000000000000000000000000000000600052603260045260246000fd5b60200101907effffffffffffffffffffffffffffffffffffffffffffffffffffffffffffff1916908160001a905350600a8561046b9190610700565b94506103c3565b8093505050505b919050565b600061049161048c84610652565b61062d565b9050828152602081018484840111156104a957600080fd5b6104b484828561076f565b509392505050565b600082601f8301126104cd57600080fd5b81356104dd84826020860161047e565b91505092915050565b6000813590506104f581610984565b92915050565b6000806040838503121561050e57600080fd5b600061051c858286016104e6565b925050602083013567ffffffffffffffff81111561053957600080fd5b610545858286016104bc565b9150509250929050565b600061055a82610683565b610564818561068e565b935061057481856020860161077e565b61057d8161094a565b840191505092915050565b600061059382610683565b61059d818561069f565b93506105ad81856020860161077e565b80840191505092915050565b60006105c6600a8361069f565b91506105d18261095b565b600a82019050919050565b60006105e88285610588565b91506105f3826105b9565b91506105ff8284610588565b91508190509392505050565b60006020820190508181036000830152610625818461054f565b905092915050565b6000610637610648565b905061064382826107e3565b919050565b6000604051905090565b600067ffffffffffffffff82111561066d5761066c61091b565b5b6106768261094a565b9050602081019050919050565b600081519050919050565b600082825260208201905092915050565b600081905092915050565b60006106b582610765565b91506106c083610765565b9250827fffffffffffffffffffffffffffffffffffffffffffffffffffffffffffffffff038211156106f5576106f461088e565b5b828201905092915050565b600061070b82610765565b915061071683610765565b925082610726576107256108bd565b5b828204905092915050565b600061073c82610765565b915061074783610765565b92508282101561075a5761075961088e565b5b828203905092915050565b6000819050919050565b82818337600083830152505050565b60005b8381101561079c578082015181840152602081019050610781565b838111156107ab576000848401525b50505050565b600060028204905060018216806107c957607f821691505b602082108114156107dd576107dc6108ec565b5b50919050565b6107ec8261094a565b810181811067ffffffffffffffff8211171561080b5761080a61091b565b5b80604052505050565b600061081f82610765565b91507fffffffffffffffffffffffffffffffffffffffffffffffffffffffffffffffff8214156108525761085161088e565b5b600182019050919050565b600061086882610765565b915061087383610765565b925082610883576108826108bd565b5b828206905092915050565b7f4e487b7100000000000000000000000000000000000000000000000000000000600052601160045260246000fd5b7f4e487b7100000000000000000000000000000000000000000000000000000000600052601260045260246000fd5b7f4e487b7100000000000000000000000000000000000000000000000000000000600052602260045260246000fd5b7f4e487b7100000000000000000000000000000000000000000000000000000000600052604160045260246000fd5b6000601f19601f8301169050919050565b7f202d205365726965732000000000000000000000000000000000000000000000600082015250565b61098d81610765565b811461099857600080fd5b5056fea2646970667358221220af91db64b2632f90bff686a68880449ce758f50c31d06e997de4620cf5578cf764736f6c63430008030033",
  "linkReferences": {},
  "deployedLinkReferences": {}
}