{
    "_format": "hh-sol-artifact-1",
    "contractName": "LaunchPool",
    "sourceName": "https://github.com/otoco-io/OtoGo-SmartContracts/blob/main/contracts/launchpool.sol",
    "abi": [
        {
            "anonymous": false,
            "inputs": [
                {
                    "indexed": false,
                    "internalType": "uint256",
                    "name": "index",
                    "type": "uint256"
                },
                {
                    "indexed": true,
                    "internalType": "address",
                    "name": "investor",
                    "type": "address"
                },
                {
                    "indexed": false,
                    "internalType": "uint256",
                    "name": "amount",
                    "type": "uint256"
                },
                {
                    "indexed": false,
                    "internalType": "uint256",
                    "name": "shares",
                    "type": "uint256"
                }
            ],
            "name": "Distributed",
            "type": "event"
        },
        {
            "anonymous": false,
            "inputs": [
                {
                    "indexed": false,
                    "internalType": "string",
                    "name": "newHash",
                    "type": "string"
                }
            ],
            "name": "MetadataUpdated",
            "type": "event"
        },
        {
            "anonymous": false,
            "inputs": [
                {
                    "indexed": false,
                    "internalType": "uint256",
                    "name": "index",
                    "type": "uint256"
                },
                {
                    "indexed": true,
                    "internalType": "address",
                    "name": "investor",
                    "type": "address"
                },
                {
                    "indexed": true,
                    "internalType": "address",
                    "name": "token",
                    "type": "address"
                },
                {
                    "indexed": false,
                    "internalType": "uint256",
                    "name": "amount",
                    "type": "uint256"
                }
            ],
            "name": "Staked",
            "type": "event"
        },
        {
            "anonymous": false,
            "inputs": [
                {
                    "indexed": false,
                    "internalType": "uint256",
                    "name": "index",
                    "type": "uint256"
                },
                {
                    "indexed": true,
                    "internalType": "address",
                    "name": "investor",
                    "type": "address"
                },
                {
                    "indexed": true,
                    "internalType": "address",
                    "name": "token",
                    "type": "address"
                },
                {
                    "indexed": false,
                    "internalType": "uint256",
                    "name": "amount",
                    "type": "uint256"
                }
            ],
            "name": "Unstaked",
            "type": "event"
        },
        {
            "inputs": [],
            "name": "metadata",
            "outputs": [
                {
                    "internalType": "string",
                    "name": "",
                    "type": "string"
                }
            ],
            "stateMutability": "view",
            "type": "function"
        },
        {
            "inputs": [],
            "name": "stage",
            "outputs": [
                {
                    "internalType": "enum LaunchPool.Stages",
                    "name": "",
                    "type": "uint8"
                }
            ],
            "stateMutability": "view",
            "type": "function"
        },
        {
            "inputs": [
                {
                    "internalType": "address[]",
                    "name": "allowedTokens",
                    "type": "address[]"
                },
                {
                    "internalType": "uint256[]",
                    "name": "uintArgs",
                    "type": "uint256[]"
                },
                {
                    "internalType": "string",
                    "name": "_metadata",
                    "type": "string"
                },
                {
                    "internalType": "address",
                    "name": "_owner",
                    "type": "address"
                },
                {
                    "internalType": "address",
                    "name": "_sharesAddress",
                    "type": "address"
                },
                {
                    "internalType": "address",
                    "name": "_curveAddress",
                    "type": "address"
                }
            ],
            "name": "initialize",
            "outputs": [],
            "stateMutability": "nonpayable",
            "type": "function"
        },
        {
            "inputs": [],
            "name": "sponsor",
            "outputs": [
                {
                    "internalType": "address",
                    "name": "",
                    "type": "address"
                }
            ],
            "stateMutability": "view",
            "type": "function"
        },
        {
            "inputs": [],
            "name": "tokenList",
            "outputs": [
                {
                    "internalType": "address[]",
                    "name": "",
                    "type": "address[]"
                }
            ],
            "stateMutability": "view",
            "type": "function"
        },
        {
            "inputs": [],
            "name": "sharesAddress",
            "outputs": [
                {
                    "internalType": "address",
                    "name": "",
                    "type": "address"
                }
            ],
            "stateMutability": "view",
            "type": "function"
        },
        {
            "inputs": [
                {
                    "internalType": "address",
                    "name": "investor_",
                    "type": "address"
                }
            ],
            "name": "stakesDetailedOf",
            "outputs": [
                {
                    "internalType": "uint256[]",
                    "name": "",
                    "type": "uint256[]"
                }
            ],
            "stateMutability": "view",
            "type": "function"
        },
        {
            "inputs": [
                {
                    "internalType": "address",
                    "name": "investor_",
                    "type": "address"
                }
            ],
            "name": "stakesOf",
            "outputs": [
                {
                    "internalType": "uint256[]",
                    "name": "",
                    "type": "uint256[]"
                }
            ],
            "stateMutability": "view",
            "type": "function"
        },
        {
            "inputs": [],
            "name": "stakesList",
            "outputs": [
                {
                    "internalType": "uint256[]",
                    "name": "",
                    "type": "uint256[]"
                }
            ],
            "stateMutability": "view",
            "type": "function"
        },
        {
            "inputs": [
                {
                    "internalType": "uint256",
                    "name": "amount",
                    "type": "uint256"
                },
                {
                    "internalType": "uint256",
                    "name": "balance",
                    "type": "uint256"
                }
            ],
            "name": "getStakeShares",
            "outputs": [
                {
                    "internalType": "uint256",
                    "name": "",
                    "type": "uint256"
                }
            ],
            "stateMutability": "view",
            "type": "function"
        },
        {
            "inputs": [],
            "name": "getGeneralInfos",
            "outputs": [
                {
                    "internalType": "uint256[]",
                    "name": "values",
                    "type": "uint256[]"
                }
            ],
            "stateMutability": "view",
            "type": "function"
        },
        {
            "inputs": [
                {
                    "internalType": "string",
                    "name": "_hash",
                    "type": "string"
                }
            ],
            "name": "updateMetadata",
            "outputs": [],
            "stateMutability": "nonpayable",
            "type": "function"
        },
        {
            "inputs": [
                {
                    "internalType": "address",
                    "name": "token",
                    "type": "address"
                },
                {
                    "internalType": "uint256",
                    "name": "amount",
                    "type": "uint256"
                }
            ],
            "name": "stake",
            "outputs": [],
            "stateMutability": "nonpayable",
            "type": "function"
        },
        {
            "inputs": [
                {
                    "internalType": "uint256",
                    "name": "stakeId",
                    "type": "uint256"
                }
            ],
            "name": "unstake",
            "outputs": [],
            "stateMutability": "nonpayable",
            "type": "function"
        },
        {
            "inputs": [],
            "name": "pause",
            "outputs": [],
            "stateMutability": "nonpayable",
            "type": "function"
        },
        {
            "inputs": [],
            "name": "unpause",
            "outputs": [],
            "stateMutability": "nonpayable",
            "type": "function"
        },
        {
            "inputs": [
                {
                    "internalType": "uint256",
                    "name": "extension",
                    "type": "uint256"
                }
            ],
            "name": "extendEndTimestamp",
            "outputs": [],
            "stateMutability": "nonpayable",
            "type": "function"
        },
        {
            "inputs": [],
            "name": "lock",
            "outputs": [],
            "stateMutability": "nonpayable",
            "type": "function"
        },
        {
            "inputs": [],
            "name": "calculateSharesChunk",
            "outputs": [],
            "stateMutability": "nonpayable",
            "type": "function"
        },
        {
            "inputs": [],
            "name": "distributeSharesChunk",
            "outputs": [],
            "stateMutability": "nonpayable",
            "type": "function"
        },
        {
            "inputs": [
                {
                    "internalType": "address",
                    "name": "token",
                    "type": "address"
                }
            ],
            "name": "withdrawStakes",
            "outputs": [],
            "stateMutability": "nonpayable",
            "type": "function"
        },
        {
            "inputs": [],
            "name": "abort",
            "outputs": [],
            "stateMutability": "nonpayable",
            "type": "function"
        }
    ],
    "bytecode": "0x6080604052600e805460ff1916905560006014819055601581905560165534801561002957600080fd5b50612e9e806100396000396000f3fe608060405234801561001057600080fd5b50600436106101425760003560e01c80638e420dbc116100b8578063c040e6b81161007c578063c040e6b814610277578063c4b4132614610291578063e233c3f914610299578063edab8283146102ac578063f33670aa146102bf578063f83d08ba146102d057600080fd5b80638e420dbc1461022c578063918b5be1146102345780639e2c58ca14610247578063ad8ac16a1461025c578063adc9772e1461026457600080fd5b80633f4ba83a1161010a5780633f4ba83a146101b5578063639408d5146101bd5780636fc93189146101de57806377c93662146101f15780637a76813d1461021c5780638456cb591461022457600080fd5b80632e17de781461014757806333b69c4c1461015c578063344a5bcc1461018557806335a063b414610198578063392f37e9146101a0575b600080fd5b61015a6101553660046129ce565b6102d8565b005b61016f61016a36600461281b565b61062f565b60405161017c9190612aa9565b60405180910390f35b61016f61019336600461281b565b61069b565b61015a6108b6565b6101a86108fe565b60405161017c9190612b09565b61015a61098c565b6101d06101cb3660046129fe565b610a44565b60405190815260200161017c565b61015a6101ec36600461281b565b610aef565b6000546201000090046001600160a01b03165b6040516001600160a01b03909116815260200161017c565b61015a610c2b565b61015a610e51565b61015a610efb565b61015a610242366004612993565b61111d565b61024f61119c565b60405161017c9190612a5c565b61016f6111fe565b61015a610272366004612835565b6112bb565b600e546102849060ff1681565b60405161017c9190612ae1565b61016f6117c5565b61015a6102a73660046129ce565b611a1e565b61015a6102ba36600461285e565b611b2d565b6002546001600160a01b0316610204565b61015a61229c565b6001600e5460ff1660068111156102ff57634e487b7160e01b600052602160045260246000fd5b148061032f57506006600e5460ff16600681111561032d57634e487b7160e01b600052602160045260246000fd5b145b8061035e57506002600e5460ff16600681111561035c57634e487b7160e01b600052602160045260246000fd5b145b6103af5760405162461bcd60e51b815260206004820181905260248201527f4e6f205374616b696e672f5061757365642f41626f727465642073746167652e60448201526064015b60405180910390fd5b6001600e5460ff1660068111156103d657634e487b7160e01b600052602160045260246000fd5b1415610426576007544211156104265760405162461bcd60e51b815260206004820152601560248201527413185d5b98da08141bdbdb081a5cc818db1bdcd959605a1b60448201526064016103a6565b3360009081526013602052604090205481106104845760405162461bcd60e51b815260206004820152601960248201527f5374616b6520696e646578206f7574206f6620626f756e64730000000000000060448201526064016103a6565b3360009081526013602052604081208054839081106104b357634e487b7160e01b600052603260045260246000fd5b600091825260208083209091015480835260128252604092839020835160808101855281546001600160a01b03908116825260018301541693810193909352600281015493830184905260030154606083015292509061054e5760405162461bcd60e51b815260206004820152601660248201527514dd185ad948185b1c9958591e481d5b9cdd185ad95960521b60448201526064016103a6565b6020808201516001600160a01b03166000908152601190915260409020546105af9033906105809060ff166012612d9d565b61058b90600a612cbc565b836040015161059a9190612c59565b60208401516001600160a01b0316919061239f565b8060400151600a60008282546105c59190612d86565b909155505060008281526012602090815260408083206002019290925582810151838301518351868152928301526001600160a01b03169133917f88567e6595ad345e5250569a2c8d8a50ed9db24198350fa907e42d73faf012d5910160405180910390a3505050565b6001600160a01b03811660009081526013602090815260409182902080548351818402810184019094528084526060939283018282801561068f57602002820191906000526020600020905b81548152602001906001019080831161067b575b50505050509050919050565b6001600160a01b038116600090815260136020526040812054606091906106c3906002612d67565b67ffffffffffffffff8111156106e957634e487b7160e01b600052604160045260246000fd5b604051908082528060200260200182016040528015610712578160200160208202803683370190505b50905060005b6001600160a01b0384166000908152601360205260409020548110156108af57601160006012600060136000896001600160a01b03166001600160a01b03168152602001908152602001600020858154811061078457634e487b7160e01b600052603260045260246000fd5b600091825260208083209091015483528281019390935260409182018120600101546001600160a01b0316845291830193909352910190205460ff16826107cc836002612d67565b815181106107ea57634e487b7160e01b600052603260045260246000fd5b6020026020010181815250506012600060136000876001600160a01b03166001600160a01b03168152602001908152602001600020838154811061083e57634e487b7160e01b600052603260045260246000fd5b9060005260206000200154815260200190815260200160002060020154828260026108699190612d67565b610874906001612c41565b8151811061089257634e487b7160e01b600052603260045260246000fd5b6020908102919091010152806108a781612e21565b915050610718565b5092915050565b6000546001600160a01b03620100009091041633146108e75760405162461bcd60e51b81526004016103a690612b73565b600e80546006919060ff19166001835b0217905550565b6001805461090b90612dec565b80601f016020809104026020016040519081016040528092919081815260200182805461093790612dec565b80156109845780601f1061095957610100808354040283529160200191610984565b820191906000526020600020905b81548152906001019060200180831161096757829003601f168201915b505050505081565b6000546001600160a01b03620100009091041633146109bd5760405162461bcd60e51b81526004016103a690612b73565b6002600e5460ff1660068111156109e457634e487b7160e01b600052602160045260246000fd5b14610a315760405162461bcd60e51b815260206004820152601860248201527f4c61756e6368506f6f6c206973206e6f7420706175736564000000000000000060448201526064016103a6565b600e80546001919060ff191682806108f7565b6003546008546004805460055460405163f8a4ad5b60e01b8152928301939093526024820185905260448201869052606482015260848101919091526000916001600160a01b03169063f8a4ad5b9060a40160206040518083038186803b158015610aae57600080fd5b505afa158015610ac2573d6000803e3d6000fd5b505050506040513d601f19601f82011682018060405250810190610ae691906129e6565b90505b92915050565b6000546001600160a01b0362010000909104163314610b205760405162461bcd60e51b81526004016103a690612b73565b6005600e5460ff166006811115610b4757634e487b7160e01b600052602160045260246000fd5b14610b945760405162461bcd60e51b815260206004820152601d60248201527f4c61756e636820706f6f6c206e6f742066696e616c697a65642079657400000060448201526064016103a6565b6040516370a0823160e01b815230600482015281906000906001600160a01b038316906370a082319060240160206040518083038186803b158015610bd857600080fd5b505afa158015610bec573d6000803e3d6000fd5b505050506040513d601f19601f82011682018060405250810190610c1091906129e6565b9050610c266001600160a01b038316338361239f565b505050565b6000546001600160a01b0362010000909104163314610c5c5760405162461bcd60e51b81526004016103a690612b73565b6004600e5460ff166006811115610c8357634e487b7160e01b600052602160045260246000fd5b14610cdf5760405162461bcd60e51b815260206004820152602660248201527f546f6b656e7320617265206e6f742079657420726561647920746f206469737460448201526572696275746560d01b60648201526084016103a6565b6002546040805160808101825260008082526020820181905291810182905260608101919091526001600160a01b03909116905b600b546016541015610e3457620186a05a1015610d2f57610e34565b50601654600090815260126020908152604091829020825160808101845281546001600160a01b0390811682526001830154169281019290925260028101549282018390526003015460608201529015610e1a5760005481516060830151610dab926001600160a01b0386811693620100009092041691612402565b805160165460408084015160608086015183519485526020850192909252918301526001600160a01b03909216917febfe46b2b9627430364d1cff67d061f2e2f59dfedbd307f28a227b9ba08ad807910160405180910390a26016546000908152601260205260408120600301555b60168054906000610e2a83612e21565b9190505550610d13565b600b5460165410610e4d57600e805460ff191660051790555b5050565b6000546001600160a01b0362010000909104163314610e825760405162461bcd60e51b81526004016103a690612b73565b6006544211610ea35760405162461bcd60e51b81526004016103a690612bb5565b6001600e5460ff166006811115610eca57634e487b7160e01b600052602160045260246000fd5b14610ee75760405162461bcd60e51b81526004016103a690612b3c565b600e80546002919060ff19166001836108f7565b6000546001600160a01b0362010000909104163314610f2c5760405162461bcd60e51b81526004016103a690612b73565b6003600e5460ff166006811115610f5357634e487b7160e01b600052602160045260246000fd5b14610fae5760405162461bcd60e51b815260206004820152602560248201527f546f6b656e7320617265206e6f742079657420726561647920746f2063616c63604482015264756c61746560d81b60648201526084016103a6565b6003546001600160a01b03165b600b54601454101561110157620186a05a1015610fd757611101565b601454600090815260126020526040902060020154156110e757600854601554601454600090815260126020526040908190206002015460048054600554935163f8a4ad5b60e01b81529182019590955260248101939093526044830152606482019290925260848101919091526001600160a01b0382169063f8a4ad5b9060a40160206040518083038186803b15801561107157600080fd5b505afa158015611085573d6000803e3d6000fd5b505050506040513d601f19601f820116820180604052508101906110a991906129e6565b6014805460009081526012602052604080822060030193909355905481529081206002015460158054919290916110e1908490612c41565b90915550505b601480549060006110f783612e21565b9190505550610fbb565b600b546014541061111a57600e805460ff191660041790555b50565b6000546001600160a01b036201000090910416331461114e5760405162461bcd60e51b81526004016103a690612b73565b805161116190600190602084019061268c565b507f1c306e70c05992619e2128ad1ef88df75f36c9476282e59f51401b2abaa42e4e816040516111919190612b09565b60405180910390a150565b6060600f8054806020026020016040519081016040528092919081815260200182805480156111f457602002820191906000526020600020905b81546001600160a01b031681526001909101906020018083116111d6575b5050505050905090565b60606000600b5467ffffffffffffffff81111561122b57634e487b7160e01b600052604160045260246000fd5b604051908082528060200260200182016040528015611254578160200160208202803683370190505b50905060005b600b548110156112b557600081815260126020526040902060020154825183908390811061129857634e487b7160e01b600052603260045260246000fd5b6020908102919091010152806112ad81612e21565b91505061125a565b50919050565b60065442116112dc5760405162461bcd60e51b81526004016103a690612bb5565b6001600e5460ff16600681111561130357634e487b7160e01b600052602160045260246000fd5b146113205760405162461bcd60e51b81526004016103a690612b3c565b6001600160a01b038216600090815260106020526040902054829060ff1661138a5760405162461bcd60e51b815260206004820152601960248201527f43616e6e6f74206465706f736974207468617420746f6b656e0000000000000060448201526064016103a6565b6008546001600160a01b038416600090815260116020526040902054839185916113b89060ff166012612d9d565b6113c390600a612cbc565b6113cd9084612d67565b600a546113da9190612c41565b11156114285760405162461bcd60e51b815260206004820152601e60248201527f4d6178696d756d207374616b656420616d6f756e74206578636565646564000060448201526064016103a6565b600d546001600160a01b038616600090815260116020526040902054859187916114569060ff166012612d9d565b61146190600a612cbc565b61146b9084612d67565b11156114b95760405162461bcd60e51b815260206004820152601d60248201527f5374616b65206d6178696d756d20616d6f756e7420657863656564656400000060448201526064016103a6565b6001600160a01b0387166000908152601160205260408120546114e09060ff166012612d9d565b6114eb90600a612cbc565b6114f59088612d67565b9050600c548110156115495760405162461bcd60e51b815260206004820152601a60248201527f5374616b652062656c6f77206d696e696d756d20616d6f756e7400000000000060448201526064016103a6565b6040516370a0823160e01b81523060048201526000906001600160a01b038a16906370a082319060240160206040518083038186803b15801561158b57600080fd5b505afa15801561159f573d6000803e3d6000fd5b505050506040513d601f19601f820116820180604052508101906115c391906129e6565b90506115da6001600160a01b038a1633308b612402565b6040516370a0823160e01b815230600482015260009082906001600160a01b038c16906370a082319060240160206040518083038186803b15801561161e57600080fd5b505afa158015611632573d6000803e3d6000fd5b505050506040513d601f19601f8201168201806040525081019061165691906129e6565b6116609190612d86565b6001600160a01b038b1660009081526011602052604090205490915061168a9060ff166012612d9d565b61169590600a612cbc565b61169f9082612d67565b9250600060126000600b5481526020019081526020016000209050338160000160006101000a8154816001600160a01b0302191690836001600160a01b031602179055508a8160010160006101000a8154816001600160a01b0302191690836001600160a01b031602179055508381600201819055508060020154600a600082825461172b9190612c41565b9091555050336000818152601360209081526040808320600b805482546001810184559286529484902090910193909355915482519081529081018590526001600160a01b038e1692917f7edb7e181699d1db1f6e3ac27fb17e1db8ac69aeb22eec366e72528c0886726a910160405180910390a36001600b60008282546117b39190612c41565b90915550505050505050505050505050565b60408051600b808252610180820190925260609160208201610160803683370190505090506006548160008151811061180e57634e487b7160e01b600052603260045260246000fd5b6020026020010181815250506007548160018151811061183e57634e487b7160e01b600052603260045260246000fd5b6020026020010181815250506009548160028151811061186e57634e487b7160e01b600052603260045260246000fd5b6020026020010181815250506008548160038151811061189e57634e487b7160e01b600052603260045260246000fd5b602002602001018181525050600a54816004815181106118ce57634e487b7160e01b600052603260045260246000fd5b602002602001018181525050600b54816005815181106118fe57634e487b7160e01b600052603260045260246000fd5b6020026020010181815250506004548160068151811061192e57634e487b7160e01b600052603260045260246000fd5b6020908102919091010152600e5460ff16600681111561195e57634e487b7160e01b600052602160045260246000fd5b8160078151811061197f57634e487b7160e01b600052603260045260246000fd5b602002602001018181525050600c54816008815181106119af57634e487b7160e01b600052603260045260246000fd5b602002602001018181525050600554816009815181106119df57634e487b7160e01b600052603260045260246000fd5b602002602001018181525050600d5481600a81518110611a0f57634e487b7160e01b600052603260045260246000fd5b60200260200101818152505090565b6000546001600160a01b0362010000909104163314611a4f5760405162461bcd60e51b81526004016103a690612b73565b6006544211611a705760405162461bcd60e51b81526004016103a690612bb5565b6001600e5460ff166006811115611a9757634e487b7160e01b600052602160045260246000fd5b14611ab45760405162461bcd60e51b81526004016103a690612b3c565b6301e133808110611b135760405162461bcd60e51b8152602060048201526024808201527f457874656e73696f6e73206d75737420626520736d616c6c207468616e2031206044820152633cb2b0b960e11b60648201526084016103a6565b8060076000828254611b259190612c41565b909155505050565b600054610100900460ff1680611b46575060005460ff16155b611ba95760405162461bcd60e51b815260206004820152602e60248201527f496e697469616c697a61626c653a20636f6e747261637420697320616c72656160448201526d191e481a5b9a5d1a585b1a5e995960921b60648201526084016103a6565b600054610100900460ff16158015611bcb576000805461ffff19166101011790555b6001875110158015611bdf57506003875111155b611c415760405162461bcd60e51b815260206004820152602d60248201527f5468657265206d757374206265206174206c65617374203120616e642061742060448201526c6d6f7374203320746f6b656e7360981b60648201526084016103a6565b85600081518110611c6257634e487b7160e01b600052603260045260246000fd5b602002602001015160098190555085600181518110611c9157634e487b7160e01b600052603260045260246000fd5b602002602001015160088190555085600281518110611cc057634e487b7160e01b600052603260045260246000fd5b602002602001015160068190555085600381518110611cef57634e487b7160e01b600052603260045260246000fd5b602002602001015160078190555085600481518110611d1e57634e487b7160e01b600052603260045260246000fd5b602002602001015160048190555085600581518110611d4d57634e487b7160e01b600052603260045260246000fd5b6020026020010151600c8190555085600681518110611d7c57634e487b7160e01b600052603260045260246000fd5b602002602001015160058190555085600781518110611dab57634e487b7160e01b600052603260045260246000fd5b6020908102919091010151600d556008546004805460055460405163f8a4ad5b60e01b8152928301849052600060248401526044830193909352606482015260848101919091526001600160a01b0383169063f8a4ad5b9060a40160206040518083038186803b158015611e1e57600080fd5b505afa158015611e32573d6000803e3d6000fd5b505050506040513d601f19601f82011682018060405250810190611e5691906129e6565b836001600160a01b03166318160ddd6040518163ffffffff1660e01b815260040160206040518083038186803b158015611e8f57600080fd5b505afa158015611ea3573d6000803e3d6000fd5b505050506040513d601f19601f82011682018060405250810190611ec791906129e6565b1015611f3b5760405162461bcd60e51b815260206004820152603b60248201527f53686172657320746f6b656e20686173206e6f7420656e6f756768207375707060448201527f6c7920666f72207374616b696e6720646973747269627574696f6e000000000060648201526084016103a6565b60005b8751811015612212576012888281518110611f6957634e487b7160e01b600052603260045260246000fd5b60200260200101516001600160a01b031663313ce5676040518163ffffffff1660e01b815260040160206040518083038186803b158015611fa957600080fd5b505afa158015611fbd573d6000803e3d6000fd5b505050506040513d601f19601f82011682018060405250810190611fe19190612a1f565b60ff1611156120425760405162461bcd60e51b815260206004820152602760248201527f546f6b656e20616c6c6f77656420686173206d6f7265207468616e20313820646044820152666563696d616c7360c81b60648201526084016103a6565b87818151811061206257634e487b7160e01b600052603260045260246000fd5b60200260200101516001600160a01b031663313ce5676040518163ffffffff1660e01b815260040160206040518083038186803b1580156120a257600080fd5b505afa1580156120b6573d6000803e3d6000fd5b505050506040513d601f19601f820116820180604052508101906120da9190612a1f565b601160008a84815181106120fe57634e487b7160e01b600052603260045260246000fd5b60200260200101516001600160a01b03166001600160a01b0316815260200190815260200160002060006101000a81548160ff021916908360ff1602179055506001601060008a848151811061216457634e487b7160e01b600052603260045260246000fd5b60200260200101516001600160a01b03166001600160a01b0316815260200190815260200160002060006101000a81548160ff021916908315150217905550600f8882815181106121c557634e487b7160e01b600052603260045260246000fd5b60209081029190910181015182546001810184556000938452919092200180546001600160a01b0319166001600160a01b039092169190911790558061220a81612e21565b915050611f3e565b50600380546001600160a01b038085166001600160a01b03199283161790925560008054878416620100000262010000600160b01b03199091161790556002805492861692909116919091179055845161227390600190602088019061268c565b50600e805460ff191660011790558015612293576000805461ff00191690555b50505050505050565b6000546001600160a01b03620100009091041633146122cd5760405162461bcd60e51b81526004016103a690612b73565b60075442101561232b5760405162461bcd60e51b8152602060048201526024808201527f4c61756e6368506f6f6c20656e642074696d657374616d70206e6f742072656160448201526318da195960e21b60648201526084016103a6565b600954600a54101561238b5760405162461bcd60e51b8152602060048201526024808201527f4c61756e6368506f6f6c206e6f742072656163686564206d696e696d756d207360448201526374616b6560e01b60648201526084016103a6565b600e80546003919060ff19166001836108f7565b6040516001600160a01b038316602482015260448101829052610c2690849063a9059cbb60e01b906064015b60408051601f198184030181529190526020810180516001600160e01b03166001600160e01b031990931692909217909152612440565b6040516001600160a01b038085166024830152831660448201526064810182905261243a9085906323b872dd60e01b906084016123cb565b50505050565b6000612495826040518060400160405280602081526020017f5361666545524332303a206c6f772d6c6576656c2063616c6c206661696c6564815250856001600160a01b03166125129092919063ffffffff16565b805190915015610c2657808060200190518101906124b39190612973565b610c265760405162461bcd60e51b815260206004820152602a60248201527f5361666545524332303a204552433230206f7065726174696f6e20646964206e6044820152691bdd081cdd58d8d9595960b21b60648201526084016103a6565b6060612521848460008561252b565b90505b9392505050565b60608247101561258c5760405162461bcd60e51b815260206004820152602660248201527f416464726573733a20696e73756666696369656e742062616c616e636520666f6044820152651c8818d85b1b60d21b60648201526084016103a6565b843b6125da5760405162461bcd60e51b815260206004820152601d60248201527f416464726573733a2063616c6c20746f206e6f6e2d636f6e747261637400000060448201526064016103a6565b600080866001600160a01b031685876040516125f69190612a40565b60006040518083038185875af1925050503d8060008114612633576040519150601f19603f3d011682016040523d82523d6000602084013e612638565b606091505b5091509150612648828286612653565b979650505050505050565b60608315612662575081612524565b8251156126725782518084602001fd5b8160405162461bcd60e51b81526004016103a69190612b09565b82805461269890612dec565b90600052602060002090601f0160209004810192826126ba5760008555612700565b82601f106126d357805160ff1916838001178555612700565b82800160010185558215612700579182015b828111156127005782518255916020019190600101906126e5565b5061270c929150612710565b5090565b5b8082111561270c5760008155600101612711565b80356001600160a01b038116811461273c57600080fd5b919050565b600082601f830112612751578081fd5b8135602061276661276183612c1d565b612bec565b80838252828201915082860187848660051b8901011115612785578586fd5b855b858110156127a357813584529284019290840190600101612787565b5090979650505050505050565b600082601f8301126127c0578081fd5b813567ffffffffffffffff8111156127da576127da612e52565b6127ed601f8201601f1916602001612bec565b818152846020838601011115612801578283fd5b816020850160208301379081016020019190915292915050565b60006020828403121561282c578081fd5b610ae682612725565b60008060408385031215612847578081fd5b61285083612725565b946020939093013593505050565b60008060008060008060c08789031215612876578182fd5b863567ffffffffffffffff8082111561288d578384fd5b818901915089601f8301126128a0578384fd5b813560206128b061276183612c1d565b8083825282820191508286018e848660051b89010111156128cf578889fd5b8896505b848710156128f8576128e481612725565b8352600196909601959183019183016128d3565b509a50508a01359250508082111561290e578384fd5b61291a8a838b01612741565b9650604089013591508082111561292f578384fd5b5061293c89828a016127b0565b94505061294b60608801612725565b925061295960808801612725565b915061296760a08801612725565b90509295509295509295565b600060208284031215612984578081fd5b81518015158114612524578182fd5b6000602082840312156129a4578081fd5b813567ffffffffffffffff8111156129ba578182fd5b6129c6848285016127b0565b949350505050565b6000602082840312156129df578081fd5b5035919050565b6000602082840312156129f7578081fd5b5051919050565b60008060408385031215612a10578182fd5b50508035926020909101359150565b600060208284031215612a30578081fd5b815160ff81168114612524578182fd5b60008251612a52818460208701612dc0565b9190910192915050565b6020808252825182820181905260009190848201906040850190845b81811015612a9d5783516001600160a01b031683529284019291840191600101612a78565b50909695505050505050565b6020808252825182820181905260009190848201906040850190845b81811015612a9d57835183529284019291840191600101612ac5565b6020810160078310612b0357634e487b7160e01b600052602160045260246000fd5b91905290565b6020815260008251806020840152612b28816040850160208701612dc0565b601f01601f19169190910160400192915050565b6020808252601a908201527f4c61756e636820506f6f6c206973206e6f74207374616b696e67000000000000604082015260600190565b60208082526022908201527f53706f6e736f723a2063616c6c6572206973206e6f74207468652073706f6e7360408201526137b960f11b606082015260800190565b6020808252601b908201527f4c61756e636820506f6f6c20686173206e6f7420737461727465640000000000604082015260600190565b604051601f8201601f1916810167ffffffffffffffff81118282101715612c1557612c15612e52565b604052919050565b600067ffffffffffffffff821115612c3757612c37612e52565b5060051b60200190565b60008219821115612c5457612c54612e3c565b500190565b600082612c7457634e487b7160e01b81526012600452602481fd5b500490565b600181815b80851115612cb4578160001904821115612c9a57612c9a612e3c565b80851615612ca757918102915b93841c9390800290612c7e565b509250929050565b6000610ae660ff841683600082612cd557506001610ae9565b81612ce257506000610ae9565b8160018114612cf85760028114612d0257612d1e565b6001915050610ae9565b60ff841115612d1357612d13612e3c565b50506001821b610ae9565b5060208310610133831016604e8410600b8410161715612d41575081810a610ae9565b612d4b8383612c79565b8060001904821115612d5f57612d5f612e3c565b029392505050565b6000816000190483118215151615612d8157612d81612e3c565b500290565b600082821015612d9857612d98612e3c565b500390565b600060ff821660ff841680821015612db757612db7612e3c565b90039392505050565b60005b83811015612ddb578181015183820152602001612dc3565b8381111561243a5750506000910152565b600181811c90821680612e0057607f821691505b602082108114156112b557634e487b7160e01b600052602260045260246000fd5b6000600019821415612e3557612e35612e3c565b5060010190565b634e487b7160e01b600052601160045260246000fd5b634e487b7160e01b600052604160045260246000fdfea26469706673582212202522e8455f7ccc42f9c5ed3477dc5731b8c9eb47f865d0ffaa3a64bb22f054fb64736f6c63430008040033",
    "linkReferences": {},
    "deployedLinkReferences": {}
}