{
  "_format": "hh-sol-artifact-1",
  "contractName": "SeriesToken",
  "sourceName": "contracts/utils/OtoCoToken.sol",
  "abi": [
    {
      "inputs": [],
      "stateMutability": "nonpayable",
      "type": "constructor"
    },
    {
      "anonymous": false,
      "inputs": [
        {
          "indexed": true,
          "internalType": "address",
          "name": "owner",
          "type": "address"
        },
        {
          "indexed": true,
          "internalType": "address",
          "name": "spender",
          "type": "address"
        },
        {
          "indexed": false,
          "internalType": "uint256",
          "name": "value",
          "type": "uint256"
        }
      ],
      "name": "Approval",
      "type": "event"
    },
    {
      "anonymous": false,
      "inputs": [
        {
          "indexed": false,
          "internalType": "address",
          "name": "member",
          "type": "address"
        },
        {
          "indexed": false,
          "internalType": "uint256",
          "name": "timestamp",
          "type": "uint256"
        }
      ],
      "name": "Initialized",
      "type": "event"
    },
    {
      "anonymous": false,
      "inputs": [
        {
          "indexed": true,
          "internalType": "address",
          "name": "from",
          "type": "address"
        },
        {
          "indexed": true,
          "internalType": "address",
          "name": "to",
          "type": "address"
        },
        {
          "indexed": false,
          "internalType": "uint256",
          "name": "value",
          "type": "uint256"
        }
      ],
      "name": "Transfer",
      "type": "event"
    },
    {
      "inputs": [
        {
          "internalType": "address",
          "name": "owner",
          "type": "address"
        },
        {
          "internalType": "address",
          "name": "spender",
          "type": "address"
        }
      ],
      "name": "allowance",
      "outputs": [
        {
          "internalType": "uint256",
          "name": "",
          "type": "uint256"
        }
      ],
      "stateMutability": "view",
      "type": "function"
    },
    {
      "inputs": [
        {
          "internalType": "address",
          "name": "spender",
          "type": "address"
        },
        {
          "internalType": "uint256",
          "name": "amount",
          "type": "uint256"
        }
      ],
      "name": "approve",
      "outputs": [
        {
          "internalType": "bool",
          "name": "",
          "type": "bool"
        }
      ],
      "stateMutability": "nonpayable",
      "type": "function"
    },
    {
      "inputs": [
        {
          "internalType": "address",
          "name": "account",
          "type": "address"
        }
      ],
      "name": "balanceOf",
      "outputs": [
        {
          "internalType": "uint256",
          "name": "",
          "type": "uint256"
        }
      ],
      "stateMutability": "view",
      "type": "function"
    },
    {
      "inputs": [],
      "name": "decimals",
      "outputs": [
        {
          "internalType": "uint8",
          "name": "",
          "type": "uint8"
        }
      ],
      "stateMutability": "view",
      "type": "function"
    },
    {
      "inputs": [
        {
          "internalType": "address",
          "name": "spender",
          "type": "address"
        },
        {
          "internalType": "uint256",
          "name": "subtractedValue",
          "type": "uint256"
        }
      ],
      "name": "decreaseAllowance",
      "outputs": [
        {
          "internalType": "bool",
          "name": "",
          "type": "bool"
        }
      ],
      "stateMutability": "nonpayable",
      "type": "function"
    },
    {
      "inputs": [
        {
          "internalType": "address",
          "name": "spender",
          "type": "address"
        },
        {
          "internalType": "uint256",
          "name": "addedValue",
          "type": "uint256"
        }
      ],
      "name": "increaseAllowance",
      "outputs": [
        {
          "internalType": "bool",
          "name": "",
          "type": "bool"
        }
      ],
      "stateMutability": "nonpayable",
      "type": "function"
    },
    {
      "inputs": [
        {
          "internalType": "string",
          "name": "name",
          "type": "string"
        },
        {
          "internalType": "string",
          "name": "symbol",
          "type": "string"
        },
        {
          "internalType": "uint256",
          "name": "supply",
          "type": "uint256"
        },
        {
          "internalType": "address",
          "name": "member",
          "type": "address"
        }
      ],
      "name": "initialize",
      "outputs": [],
      "stateMutability": "nonpayable",
      "type": "function"
    },
    {
      "inputs": [],
      "name": "name",
      "outputs": [
        {
          "internalType": "string",
          "name": "",
          "type": "string"
        }
      ],
      "stateMutability": "view",
      "type": "function"
    },
    {
      "inputs": [],
      "name": "symbol",
      "outputs": [
        {
          "internalType": "string",
          "name": "",
          "type": "string"
        }
      ],
      "stateMutability": "view",
      "type": "function"
    },
    {
      "inputs": [],
      "name": "totalSupply",
      "outputs": [
        {
          "internalType": "uint256",
          "name": "",
          "type": "uint256"
        }
      ],
      "stateMutability": "view",
      "type": "function"
    },
    {
      "inputs": [
        {
          "internalType": "address",
          "name": "to",
          "type": "address"
        },
        {
          "internalType": "uint256",
          "name": "amount",
          "type": "uint256"
        }
      ],
      "name": "transfer",
      "outputs": [
        {
          "internalType": "bool",
          "name": "",
          "type": "bool"
        }
      ],
      "stateMutability": "nonpayable",
      "type": "function"
    },
    {
      "inputs": [
        {
          "internalType": "address",
          "name": "from",
          "type": "address"
        },
        {
          "internalType": "address",
          "name": "to",
          "type": "address"
        },
        {
          "internalType": "uint256",
          "name": "amount",
          "type": "uint256"
        }
      ],
      "name": "transferFrom",
      "outputs": [
        {
          "internalType": "bool",
          "name": "",
          "type": "bool"
        }
      ],
      "stateMutability": "nonpayable",
      "type": "function"
    }
  ],
  "bytecode": "0x60806040523480156200001157600080fd5b50604051806020016040528060008152506040518060200160405280600081525081600390805190602001906200004a9291906200006c565b508060049080519060200190620000639291906200006c565b50505062000181565b8280546200007a906200011c565b90600052602060002090601f0160209004810192826200009e5760008555620000ea565b82601f10620000b957805160ff1916838001178555620000ea565b82800160010185558215620000ea579182015b82811115620000e9578251825591602001919060010190620000cc565b5b509050620000f99190620000fd565b5090565b5b8082111562000118576000816000905550600101620000fe565b5090565b600060028204905060018216806200013557607f821691505b602082108114156200014c576200014b62000152565b5b50919050565b7f4e487b7100000000000000000000000000000000000000000000000000000000600052602260045260246000fd5b6117a680620001916000396000f3fe608060405234801561001057600080fd5b50600436106100b45760003560e01c806370a082311161007157806370a08231146101a357806395d89b41146101d3578063a457c2d7146101f1578063a9059cbb14610221578063bd3a13f614610251578063dd62ed3e1461026d576100b4565b806306fdde03146100b9578063095ea7b3146100d757806318160ddd1461010757806323b872dd14610125578063313ce567146101555780633950935114610173575b600080fd5b6100c161029d565b6040516100ce9190611138565b60405180910390f35b6100f160048036038101906100ec9190610e98565b61032f565b6040516100fe919061111d565b60405180910390f35b61010f610352565b60405161011c919061125a565b60405180910390f35b61013f600480360381019061013a9190610e49565b61035c565b60405161014c919061111d565b60405180910390f35b61015d61038b565b60405161016a9190611275565b60405180910390f35b61018d60048036038101906101889190610e98565b610394565b60405161019a919061111d565b60405180910390f35b6101bd60048036038101906101b89190610de4565b61043e565b6040516101ca919061125a565b60405180910390f35b6101db610486565b6040516101e89190611138565b60405180910390f35b61020b60048036038101906102069190610e98565b610518565b604051610218919061111d565b60405180910390f35b61023b60048036038101906102369190610e98565b610602565b604051610248919061111d565b60405180910390f35b61026b60048036038101906102669190610ed4565b610625565b005b61028760048036038101906102829190610e0d565b61073e565b604051610294919061125a565b60405180910390f35b6060600380546102ac906113ef565b80601f01602080910402602001604051908101604052809291908181526020018280546102d8906113ef565b80156103255780601f106102fa57610100808354040283529160200191610325565b820191906000526020600020905b81548152906001019060200180831161030857829003601f168201915b5050505050905090565b60008061033a6107c5565b90506103478185856107cd565b600191505092915050565b6000600254905090565b6000806103676107c5565b9050610374858285610998565b61037f858585610a24565b60019150509392505050565b60006012905090565b60008061039f6107c5565b9050610433818585600160008673ffffffffffffffffffffffffffffffffffffffff1673ffffffffffffffffffffffffffffffffffffffff16815260200190815260200160002060008973ffffffffffffffffffffffffffffffffffffffff1673ffffffffffffffffffffffffffffffffffffffff1681526020019081526020016000205461042e9190611302565b6107cd565b600191505092915050565b60008060008373ffffffffffffffffffffffffffffffffffffffff1673ffffffffffffffffffffffffffffffffffffffff168152602001908152602001600020549050919050565b606060048054610495906113ef565b80601f01602080910402602001604051908101604052809291908181526020018280546104c1906113ef565b801561050e5780601f106104e35761010080835404028352916020019161050e565b820191906000526020600020905b8154815290600101906020018083116104f157829003601f168201915b5050505050905090565b6000806105236107c5565b90506000600160008373ffffffffffffffffffffffffffffffffffffffff1673ffffffffffffffffffffffffffffffffffffffff16815260200190815260200160002060008673ffffffffffffffffffffffffffffffffffffffff1673ffffffffffffffffffffffffffffffffffffffff168152602001908152602001600020549050838110156105e9576040517f08c379a00000000000000000000000000000000000000000000000000000000081526004016105e09061123a565b60405180910390fd5b6105f682868684036107cd565b60019250505092915050565b60008061060d6107c5565b905061061a818585610a24565b600191505092915050565b60006007541461066a576040517f08c379a0000000000000000000000000000000000000000000000000000000008152600401610661906111fa565b60405180910390fd5b8360089080519060200190610680929190610caf565b508260099080519060200190610697929190610caf565b506012600a60006101000a81548160ff021916908360ff1602179055508160078190555081600560008373ffffffffffffffffffffffffffffffffffffffff1673ffffffffffffffffffffffffffffffffffffffff168152602001908152602001600020819055507f25ff68dd81b34665b5ba7e553ee5511bf6812e12adb4a7e2c0d9e26b3099ce7981426040516107309291906110f4565b60405180910390a150505050565b6000600160008473ffffffffffffffffffffffffffffffffffffffff1673ffffffffffffffffffffffffffffffffffffffff16815260200190815260200160002060008373ffffffffffffffffffffffffffffffffffffffff1673ffffffffffffffffffffffffffffffffffffffff16815260200190815260200160002054905092915050565b600033905090565b600073ffffffffffffffffffffffffffffffffffffffff168373ffffffffffffffffffffffffffffffffffffffff16141561083d576040517f08c379a00000000000000000000000000000000000000000000000000000000081526004016108349061121a565b60405180910390fd5b600073ffffffffffffffffffffffffffffffffffffffff168273ffffffffffffffffffffffffffffffffffffffff1614156108ad576040517f08c379a00000000000000000000000000000000000000000000000000000000081526004016108a49061117a565b60405180910390fd5b80600160008573ffffffffffffffffffffffffffffffffffffffff1673ffffffffffffffffffffffffffffffffffffffff16815260200190815260200160002060008473ffffffffffffffffffffffffffffffffffffffff1673ffffffffffffffffffffffffffffffffffffffff168152602001908152602001600020819055508173ffffffffffffffffffffffffffffffffffffffff168373ffffffffffffffffffffffffffffffffffffffff167f8c5be1e5ebec7d5bd14f71427d1e84f3dd0314c0f7b2291e5b200ac8c7c3b9258360405161098b919061125a565b60405180910390a3505050565b60006109a4848461073e565b90507fffffffffffffffffffffffffffffffffffffffffffffffffffffffffffffffff8114610a1e5781811015610a10576040517f08c379a0000000000000000000000000000000000000000000000000000000008152600401610a079061119a565b60405180910390fd5b610a1d84848484036107cd565b5b50505050565b600073ffffffffffffffffffffffffffffffffffffffff168373ffffffffffffffffffffffffffffffffffffffff161415610a94576040517f08c379a0000000000000000000000000000000000000000000000000000000008152600401610a8b906111da565b60405180910390fd5b600073ffffffffffffffffffffffffffffffffffffffff168273ffffffffffffffffffffffffffffffffffffffff161415610b04576040517f08c379a0000000000000000000000000000000000000000000000000000000008152600401610afb9061115a565b60405180910390fd5b610b0f838383610ca5565b60008060008573ffffffffffffffffffffffffffffffffffffffff1673ffffffffffffffffffffffffffffffffffffffff16815260200190815260200160002054905081811015610b95576040517f08c379a0000000000000000000000000000000000000000000000000000000008152600401610b8c906111ba565b60405180910390fd5b8181036000808673ffffffffffffffffffffffffffffffffffffffff1673ffffffffffffffffffffffffffffffffffffffff16815260200190815260200160002081905550816000808573ffffffffffffffffffffffffffffffffffffffff1673ffffffffffffffffffffffffffffffffffffffff1681526020019081526020016000206000828254610c289190611302565b925050819055508273ffffffffffffffffffffffffffffffffffffffff168473ffffffffffffffffffffffffffffffffffffffff167fddf252ad1be2c89b69c2b068fc378daa952ba7f163c4a11628f55a4df523b3ef84604051610c8c919061125a565b60405180910390a3610c9f848484610caa565b50505050565b505050565b505050565b828054610cbb906113ef565b90600052602060002090601f016020900481019282610cdd5760008555610d24565b82601f10610cf657805160ff1916838001178555610d24565b82800160010185558215610d24579182015b82811115610d23578251825591602001919060010190610d08565b5b509050610d319190610d35565b5090565b5b80821115610d4e576000816000905550600101610d36565b5090565b6000610d65610d60846112b5565b611290565b905082815260208101848484011115610d7d57600080fd5b610d888482856113ad565b509392505050565b600081359050610d9f81611742565b92915050565b600082601f830112610db657600080fd5b8135610dc6848260208601610d52565b91505092915050565b600081359050610dde81611759565b92915050565b600060208284031215610df657600080fd5b6000610e0484828501610d90565b91505092915050565b60008060408385031215610e2057600080fd5b6000610e2e85828601610d90565b9250506020610e3f85828601610d90565b9150509250929050565b600080600060608486031215610e5e57600080fd5b6000610e6c86828701610d90565b9350506020610e7d86828701610d90565b9250506040610e8e86828701610dcf565b9150509250925092565b60008060408385031215610eab57600080fd5b6000610eb985828601610d90565b9250506020610eca85828601610dcf565b9150509250929050565b60008060008060808587031215610eea57600080fd5b600085013567ffffffffffffffff811115610f0457600080fd5b610f1087828801610da5565b945050602085013567ffffffffffffffff811115610f2d57600080fd5b610f3987828801610da5565b9350506040610f4a87828801610dcf565b9250506060610f5b87828801610d90565b91505092959194509250565b610f7081611358565b82525050565b610f7f8161136a565b82525050565b6000610f90826112e6565b610f9a81856112f1565b9350610faa8185602086016113bc565b610fb3816114df565b840191505092915050565b6000610fcb6023836112f1565b9150610fd6826114f0565b604082019050919050565b6000610fee6022836112f1565b9150610ff98261153f565b604082019050919050565b6000611011601d836112f1565b915061101c8261158e565b602082019050919050565b60006110346026836112f1565b915061103f826115b7565b604082019050919050565b60006110576025836112f1565b915061106282611606565b604082019050919050565b600061107a6023836112f1565b915061108582611655565b604082019050919050565b600061109d6024836112f1565b91506110a8826116a4565b604082019050919050565b60006110c06025836112f1565b91506110cb826116f3565b604082019050919050565b6110df81611396565b82525050565b6110ee816113a0565b82525050565b60006040820190506111096000830185610f67565b61111660208301846110d6565b9392505050565b60006020820190506111326000830184610f76565b92915050565b600060208201905081810360008301526111528184610f85565b905092915050565b6000602082019050818103600083015261117381610fbe565b9050919050565b6000602082019050818103600083015261119381610fe1565b9050919050565b600060208201905081810360008301526111b381611004565b9050919050565b600060208201905081810360008301526111d381611027565b9050919050565b600060208201905081810360008301526111f38161104a565b9050919050565b600060208201905081810360008301526112138161106d565b9050919050565b6000602082019050818103600083015261123381611090565b9050919050565b60006020820190508181036000830152611253816110b3565b9050919050565b600060208201905061126f60008301846110d6565b92915050565b600060208201905061128a60008301846110e5565b92915050565b600061129a6112ab565b90506112a68282611421565b919050565b6000604051905090565b600067ffffffffffffffff8211156112d0576112cf6114b0565b5b6112d9826114df565b9050602081019050919050565b600081519050919050565b600082825260208201905092915050565b600061130d82611396565b915061131883611396565b9250827fffffffffffffffffffffffffffffffffffffffffffffffffffffffffffffffff0382111561134d5761134c611452565b5b828201905092915050565b600061136382611376565b9050919050565b60008115159050919050565b600073ffffffffffffffffffffffffffffffffffffffff82169050919050565b6000819050919050565b600060ff82169050919050565b82818337600083830152505050565b60005b838110156113da5780820151818401526020810190506113bf565b838111156113e9576000848401525b50505050565b6000600282049050600182168061140757607f821691505b6020821081141561141b5761141a611481565b5b50919050565b61142a826114df565b810181811067ffffffffffffffff82111715611449576114486114b0565b5b80604052505050565b7f4e487b7100000000000000000000000000000000000000000000000000000000600052601160045260246000fd5b7f4e487b7100000000000000000000000000000000000000000000000000000000600052602260045260246000fd5b7f4e487b7100000000000000000000000000000000000000000000000000000000600052604160045260246000fd5b6000601f19601f8301169050919050565b7f45524332303a207472616e7366657220746f20746865207a65726f206164647260008201527f6573730000000000000000000000000000000000000000000000000000000000602082015250565b7f45524332303a20617070726f766520746f20746865207a65726f20616464726560008201527f7373000000000000000000000000000000000000000000000000000000000000602082015250565b7f45524332303a20696e73756666696369656e7420616c6c6f77616e6365000000600082015250565b7f45524332303a207472616e7366657220616d6f756e742065786365656473206260008201527f616c616e63650000000000000000000000000000000000000000000000000000602082015250565b7f45524332303a207472616e736665722066726f6d20746865207a65726f20616460008201527f6472657373000000000000000000000000000000000000000000000000000000602082015250565b7f4572726f723a20436f6e747261637420616c726561647920696e697469616c6960008201527f7a65640000000000000000000000000000000000000000000000000000000000602082015250565b7f45524332303a20617070726f76652066726f6d20746865207a65726f2061646460008201527f7265737300000000000000000000000000000000000000000000000000000000602082015250565b7f45524332303a2064656372656173656420616c6c6f77616e63652062656c6f7760008201527f207a65726f000000000000000000000000000000000000000000000000000000602082015250565b61174b81611358565b811461175657600080fd5b50565b61176281611396565b811461176d57600080fd5b5056fea26469706673582212202b01884a50cc83086d0847d3d217740bfa725211a037517752182c08e69f423e64736f6c63430008030033",
  "linkReferences": {},
  "deployedLinkReferences": {}
}