{
  "_format": "hh-sol-artifact-1",
  "contractName": "ENSRegistrar",
  "sourceName": "contracts/plugins/ENS.sol",
  "abi": [
    {
      "inputs": [
        {
          "internalType": "address payable",
          "name": "otocoMaster",
          "type": "address"
        },
        {
          "internalType": "contract ENS",
          "name": "ensAddr",
          "type": "address"
        },
        {
          "internalType": "contract Resolver",
          "name": "resolverAddr",
          "type": "address"
        },
        {
          "internalType": "bytes32",
          "name": "node",
          "type": "bytes32"
        },
        {
          "internalType": "uint256[]",
          "name": "prevSeries",
          "type": "uint256[]"
        },
        {
          "internalType": "string[]",
          "name": "prevDomains",
          "type": "string[]"
        }
      ],
      "stateMutability": "nonpayable",
      "type": "constructor"
    },
    {
      "anonymous": false,
      "inputs": [
        {
          "indexed": true,
          "internalType": "address",
          "name": "previousOwner",
          "type": "address"
        },
        {
          "indexed": true,
          "internalType": "address",
          "name": "newOwner",
          "type": "address"
        }
      ],
      "name": "OwnershipTransferred",
      "type": "event"
    },
    {
      "anonymous": false,
      "inputs": [
        {
          "indexed": true,
          "internalType": "uint256",
          "name": "series",
          "type": "uint256"
        },
        {
          "indexed": false,
          "internalType": "string",
          "name": "value",
          "type": "string"
        }
      ],
      "name": "SubdomainClaimed",
      "type": "event"
    },
    {
      "inputs": [
        {
          "internalType": "uint256",
          "name": "seriesId",
          "type": "uint256"
        },
        {
          "internalType": "bytes",
          "name": "pluginData",
          "type": "bytes"
        }
      ],
      "name": "addPlugin",
      "outputs": [],
      "stateMutability": "payable",
      "type": "function"
    },
    {
      "inputs": [
        {
          "internalType": "uint256",
          "name": "seriesId",
          "type": "uint256"
        },
        {
          "internalType": "bytes",
          "name": "pluginData",
          "type": "bytes"
        }
      ],
      "name": "attachPlugin",
      "outputs": [],
      "stateMutability": "payable",
      "type": "function"
    },
    {
      "inputs": [],
      "name": "defaultResolver",
      "outputs": [
        {
          "internalType": "contract Resolver",
          "name": "",
          "type": "address"
        }
      ],
      "stateMutability": "view",
      "type": "function"
    },
    {
      "inputs": [],
      "name": "ens",
      "outputs": [
        {
          "internalType": "contract ENS",
          "name": "",
          "type": "address"
        }
      ],
      "stateMutability": "view",
      "type": "function"
    },
    {
      "inputs": [],
      "name": "otocoMaster",
      "outputs": [
        {
          "internalType": "contract IOtoCoMaster",
          "name": "",
          "type": "address"
        }
      ],
      "stateMutability": "view",
      "type": "function"
    },
    {
      "inputs": [],
      "name": "owner",
      "outputs": [
        {
          "internalType": "address",
          "name": "",
          "type": "address"
        }
      ],
      "stateMutability": "view",
      "type": "function"
    },
    {
      "inputs": [
        {
          "internalType": "uint256",
          "name": "seriesId",
          "type": "uint256"
        },
        {
          "internalType": "bytes",
          "name": "pluginData",
          "type": "bytes"
        }
      ],
      "name": "removePlugin",
      "outputs": [],
      "stateMutability": "payable",
      "type": "function"
    },
    {
      "inputs": [],
      "name": "renounceOwnership",
      "outputs": [],
      "stateMutability": "nonpayable",
      "type": "function"
    },
    {
      "inputs": [],
      "name": "rootNode",
      "outputs": [
        {
          "internalType": "bytes32",
          "name": "",
          "type": "bytes32"
        }
      ],
      "stateMutability": "view",
      "type": "function"
    },
    {
      "inputs": [
        {
          "internalType": "address",
          "name": "newOwner",
          "type": "address"
        }
      ],
      "name": "transferOwnership",
      "outputs": [],
      "stateMutability": "nonpayable",
      "type": "function"
    }
  ],
  "bytecode": "0x60806040523480156200001157600080fd5b506040516200228038038062002280833981810160405281019062000037919062000675565b85620000586200004c620002e060201b60201c565b620002e860201b60201c565b80600160006101000a81548173ffffffffffffffffffffffffffffffffffffffff021916908373ffffffffffffffffffffffffffffffffffffffff1602179055505084600260006101000a81548173ffffffffffffffffffffffffffffffffffffffff021916908373ffffffffffffffffffffffffffffffffffffffff1602179055508260038190555083600460006101000a81548173ffffffffffffffffffffffffffffffffffffffff021916908373ffffffffffffffffffffffffffffffffffffffff16021790555060005b8251811015620002d3578281815181106200016a577f4e487b7100000000000000000000000000000000000000000000000000000000600052603260045260246000fd5b60200260200101517f901391a2c754d9dbd655eb9eef96490057a882d1bd80b6ddc4d5c8cae33de890838381518110620001cd577f4e487b7100000000000000000000000000000000000000000000000000000000600052603260045260246000fd5b6020026020010151604051620001e491906200077e565b60405180910390a2600560008483815181106200022a577f4e487b7100000000000000000000000000000000000000000000000000000000600052603260045260246000fd5b602002602001015181526020019081526020016000208282815181106200027a577f4e487b7100000000000000000000000000000000000000000000000000000000600052603260045260246000fd5b6020026020010151908060018154018082558091505060019003906000526020600020016000909190919091509080519060200190620002bc929190620003ac565b508080620002ca90620009a1565b91505062000126565b5050505050505062000b0f565b600033905090565b60008060009054906101000a900473ffffffffffffffffffffffffffffffffffffffff169050816000806101000a81548173ffffffffffffffffffffffffffffffffffffffff021916908373ffffffffffffffffffffffffffffffffffffffff1602179055508173ffffffffffffffffffffffffffffffffffffffff168173ffffffffffffffffffffffffffffffffffffffff167f8be0079c531659141344cd1fd0a4f28419497f9722a3daafe3b4186f6b6457e060405160405180910390a35050565b828054620003ba9062000935565b90600052602060002090601f016020900481019282620003de57600085556200042a565b82601f10620003f957805160ff19168380011785556200042a565b828001600101855582156200042a579182015b82811115620004295782518255916020019190600101906200040c565b5b5090506200043991906200043d565b5090565b5b80821115620004585760008160009055506001016200043e565b5090565b6000620004736200046d84620007cb565b620007a2565b9050808382526020820190508260005b85811015620004b757815185016200049c888262000631565b84526020840193506020830192505060018101905062000483565b5050509392505050565b6000620004d8620004d284620007fa565b620007a2565b90508083825260208201905082856020860282011115620004f857600080fd5b60005b858110156200052c57816200051188826200065e565b845260208401935060208301925050600181019050620004fb565b5050509392505050565b60006200054d620005478462000829565b620007a2565b9050828152602081018484840111156200056657600080fd5b62000573848285620008ff565b509392505050565b6000815190506200058c8162000a8d565b92915050565b600082601f830112620005a457600080fd5b8151620005b68482602086016200045c565b91505092915050565b600082601f830112620005d157600080fd5b8151620005e3848260208601620004c1565b91505092915050565b600081519050620005fd8162000aa7565b92915050565b600081519050620006148162000ac1565b92915050565b6000815190506200062b8162000adb565b92915050565b600082601f8301126200064357600080fd5b81516200065584826020860162000536565b91505092915050565b6000815190506200066f8162000af5565b92915050565b60008060008060008060c087890312156200068f57600080fd5b60006200069f89828a016200057b565b9650506020620006b289828a0162000603565b9550506040620006c589828a016200061a565b9450506060620006d889828a01620005ec565b935050608087015167ffffffffffffffff811115620006f657600080fd5b6200070489828a01620005bf565b92505060a087015167ffffffffffffffff8111156200072257600080fd5b6200073089828a0162000592565b9150509295509295509295565b60006200074a826200085f565b6200075681856200086a565b935062000768818560208601620008ff565b620007738162000a7c565b840191505092915050565b600060208201905081810360008301526200079a81846200073d565b905092915050565b6000620007ae620007c1565b9050620007bc82826200096b565b919050565b6000604051905090565b600067ffffffffffffffff821115620007e957620007e862000a4d565b5b602082029050602081019050919050565b600067ffffffffffffffff82111562000818576200081762000a4d565b5b602082029050602081019050919050565b600067ffffffffffffffff82111562000847576200084662000a4d565b5b620008528262000a7c565b9050602081019050919050565b600081519050919050565b600082825260208201905092915050565b60006200088882620008d5565b9050919050565b60006200089c82620008d5565b9050919050565b6000819050919050565b6000620008ba826200087b565b9050919050565b6000620008ce826200087b565b9050919050565b600073ffffffffffffffffffffffffffffffffffffffff82169050919050565b6000819050919050565b60005b838110156200091f57808201518184015260208101905062000902565b838111156200092f576000848401525b50505050565b600060028204905060018216806200094e57607f821691505b6020821081141562000965576200096462000a1e565b5b50919050565b620009768262000a7c565b810181811067ffffffffffffffff8211171562000998576200099762000a4d565b5b80604052505050565b6000620009ae82620008f5565b91507fffffffffffffffffffffffffffffffffffffffffffffffffffffffffffffffff821415620009e457620009e3620009ef565b5b600182019050919050565b7f4e487b7100000000000000000000000000000000000000000000000000000000600052601160045260246000fd5b7f4e487b7100000000000000000000000000000000000000000000000000000000600052602260045260246000fd5b7f4e487b7100000000000000000000000000000000000000000000000000000000600052604160045260246000fd5b6000601f19601f8301169050919050565b62000a98816200088f565b811462000aa457600080fd5b50565b62000ab281620008a3565b811462000abe57600080fd5b50565b62000acc81620008ad565b811462000ad857600080fd5b50565b62000ae681620008c1565b811462000af257600080fd5b50565b62000b0081620008f5565b811462000b0c57600080fd5b50565b6117618062000b1f6000396000f3fe6080604052600436106100915760003560e01c8063949c485b11610059578063949c485b1461014a578063efcf936e14610166578063f2fde38b14610182578063f9bcfa15146101ab578063faff50a8146101d657610091565b80633f15457f14610096578063715018a6146100c1578063828eab0e146100d85780638629d6a8146101035780638da5cb5b1461011f575b600080fd5b3480156100a257600080fd5b506100ab610201565b6040516100b89190611076565b60405180910390f35b3480156100cd57600080fd5b506100d6610227565b005b3480156100e457600080fd5b506100ed6102af565b6040516100fa91906110ac565b60405180910390f35b61011d60048036038101906101189190610d6d565b6102d5565b005b34801561012b57600080fd5b5061013461031b565b6040516101419190610fc4565b60405180910390f35b610164600480360381019061015f9190610d6d565b610344565b005b610180600480360381019061017b9190610d6d565b61069a565b005b34801561018e57600080fd5b506101a960048036038101906101a49190610c9e565b6106e0565b005b3480156101b757600080fd5b506101c06107d8565b6040516101cd9190611091565b60405180910390f35b3480156101e257600080fd5b506101eb6107fe565b6040516101f89190610fdf565b60405180910390f35b600260009054906101000a900473ffffffffffffffffffffffffffffffffffffffff1681565b61022f610804565b73ffffffffffffffffffffffffffffffffffffffff1661024d61031b565b73ffffffffffffffffffffffffffffffffffffffff16146102a3576040517f08c379a000000000000000000000000000000000000000000000000000000000815260040161029a90611169565b60405180910390fd5b6102ad600061080c565b565b600460009054906101000a900473ffffffffffffffffffffffffffffffffffffffff1681565b6000610316576040517f08c379a000000000000000000000000000000000000000000000000000000000815260040161030d90611129565b60405180910390fd5b505050565b60008060009054906101000a900473ffffffffffffffffffffffffffffffffffffffff16905090565b823373ffffffffffffffffffffffffffffffffffffffff16600160009054906101000a900473ffffffffffffffffffffffffffffffffffffffff1673ffffffffffffffffffffffffffffffffffffffff16636352211e836040518263ffffffff1660e01b81526004016103b791906111a9565b60206040518083038186803b1580156103cf57600080fd5b505afa1580156103e3573d6000803e3d6000fd5b505050506040513d601f19601f820116820180604052508101906104079190610cc7565b73ffffffffffffffffffffffffffffffffffffffff161461045d576040517f08c379a000000000000000000000000000000000000000000000000000000000815260040161045490611189565b60405180910390fd5b600160009054906101000a900473ffffffffffffffffffffffffffffffffffffffff1673ffffffffffffffffffffffffffffffffffffffff16634eeec55e6040518163ffffffff1660e01b8152600401602060405180830381600087803b1580156104c757600080fd5b505af11580156104db573d6000803e3d6000fd5b505050506040513d601f19601f820116820180604052508101906104ff9190610d44565b5a3a61050b9190611272565b6105159190611241565b341015610557576040517f08c379a000000000000000000000000000000000000000000000000000000000815260040161054e90611149565b60405180910390fd5b600160009054906101000a900473ffffffffffffffffffffffffffffffffffffffff1673ffffffffffffffffffffffffffffffffffffffff166108fc349081150290604051600060405180830381858888f193505050501580156105bf573d6000803e3d6000fd5b5060008084848101906105d29190610cf0565b915091506000826040516020016105e99190610fad565b60405160208183030381529060405280519060200120905061060c8133846108d0565b6005600088815260200190815260200160002083908060018154018082558091505060019003906000526020600020016000909190919091509080519060200190610658929190610ae0565b50867f901391a2c754d9dbd655eb9eef96490057a882d1bd80b6ddc4d5c8cae33de8908460405161068991906110c7565b60405180910390a250505050505050565b60006106db576040517f08c379a00000000000000000000000000000000000000000000000000000000081526004016106d2906110e9565b60405180910390fd5b505050565b6106e8610804565b73ffffffffffffffffffffffffffffffffffffffff1661070661031b565b73ffffffffffffffffffffffffffffffffffffffff161461075c576040517f08c379a000000000000000000000000000000000000000000000000000000000815260040161075390611169565b60405180910390fd5b600073ffffffffffffffffffffffffffffffffffffffff168173ffffffffffffffffffffffffffffffffffffffff1614156107cc576040517f08c379a00000000000000000000000000000000000000000000000000000000081526004016107c390611109565b60405180910390fd5b6107d58161080c565b50565b600160009054906101000a900473ffffffffffffffffffffffffffffffffffffffff1681565b60035481565b600033905090565b60008060009054906101000a900473ffffffffffffffffffffffffffffffffffffffff169050816000806101000a81548173ffffffffffffffffffffffffffffffffffffffff021916908373ffffffffffffffffffffffffffffffffffffffff1602179055508173ffffffffffffffffffffffffffffffffffffffff168173ffffffffffffffffffffffffffffffffffffffff167f8be0079c531659141344cd1fd0a4f28419497f9722a3daafe3b4186f6b6457e060405160405180910390a35050565b6000600354846040516020016108e7929190610f81565b604051602081830303815290604052805190602001209050600260009054906101000a900473ffffffffffffffffffffffffffffffffffffffff1673ffffffffffffffffffffffffffffffffffffffff16635ef2c7f06003548630600460009054906101000a900473ffffffffffffffffffffffffffffffffffffffff166303c267006040518663ffffffff1660e01b815260040161098a959493929190611023565b600060405180830381600087803b1580156109a457600080fd5b505af11580156109b8573d6000803e3d6000fd5b50505050600460009054906101000a900473ffffffffffffffffffffffffffffffffffffffff1673ffffffffffffffffffffffffffffffffffffffff1663d5fa2b0082846040518363ffffffff1660e01b8152600401610a19929190610ffa565b600060405180830381600087803b158015610a3357600080fd5b505af1158015610a47573d6000803e3d6000fd5b50505050600260009054906101000a900473ffffffffffffffffffffffffffffffffffffffff1673ffffffffffffffffffffffffffffffffffffffff16635b0fc9c382856040518363ffffffff1660e01b8152600401610aa8929190610ffa565b600060405180830381600087803b158015610ac257600080fd5b505af1158015610ad6573d6000803e3d6000fd5b5050505050505050565b828054610aec906113f8565b90600052602060002090601f016020900481019282610b0e5760008555610b55565b82601f10610b2757805160ff1916838001178555610b55565b82800160010185558215610b55579182015b82811115610b54578251825591602001919060010190610b39565b5b509050610b629190610b66565b5090565b5b80821115610b7f576000816000905550600101610b67565b5090565b6000610b96610b91846111e9565b6111c4565b905082815260208101848484011115610bae57600080fd5b610bb98482856113b6565b509392505050565b600081359050610bd0816116e6565b92915050565b600081519050610be5816116e6565b92915050565b600081359050610bfa816116fd565b92915050565b60008083601f840112610c1257600080fd5b8235905067ffffffffffffffff811115610c2b57600080fd5b602083019150836001820283011115610c4357600080fd5b9250929050565b600082601f830112610c5b57600080fd5b8135610c6b848260208601610b83565b91505092915050565b600081359050610c8381611714565b92915050565b600081519050610c9881611714565b92915050565b600060208284031215610cb057600080fd5b6000610cbe84828501610bc1565b91505092915050565b600060208284031215610cd957600080fd5b6000610ce784828501610bd6565b91505092915050565b60008060408385031215610d0357600080fd5b600083013567ffffffffffffffff811115610d1d57600080fd5b610d2985828601610c4a565b9250506020610d3a85828601610beb565b9150509250929050565b600060208284031215610d5657600080fd5b6000610d6484828501610c89565b91505092915050565b600080600060408486031215610d8257600080fd5b6000610d9086828701610c74565b935050602084013567ffffffffffffffff811115610dad57600080fd5b610db986828701610c00565b92509250509250925092565b610dce816112cc565b82525050565b610ddd816112f0565b82525050565b610df4610def826112f0565b61145b565b82525050565b610e0381611338565b82525050565b610e128161135c565b82525050565b610e2181611380565b82525050565b610e30816113a4565b82525050565b6000610e418261121a565b610e4b8185611225565b9350610e5b8185602086016113c5565b610e6481611521565b840191505092915050565b6000610e7a8261121a565b610e848185611236565b9350610e948185602086016113c5565b80840191505092915050565b6000610ead603b83611225565b9150610eb882611532565b604082019050919050565b6000610ed0602683611225565b9150610edb82611581565b604082019050919050565b6000610ef3603b83611225565b9150610efe826115d0565b604082019050919050565b6000610f16603583611225565b9150610f218261161f565b604082019050919050565b6000610f39602083611225565b9150610f448261166e565b602082019050919050565b6000610f5c602283611225565b9150610f6782611697565b604082019050919050565b610f7b8161131a565b82525050565b6000610f8d8285610de3565b602082019150610f9d8284610de3565b6020820191508190509392505050565b6000610fb98284610e6f565b915081905092915050565b6000602082019050610fd96000830184610dc5565b92915050565b6000602082019050610ff46000830184610dd4565b92915050565b600060408201905061100f6000830185610dd4565b61101c6020830184610dc5565b9392505050565b600060a0820190506110386000830188610dd4565b6110456020830187610dd4565b6110526040830186610dc5565b61105f6060830185610dc5565b61106c6080830184610e27565b9695505050505050565b600060208201905061108b6000830184610dfa565b92915050565b60006020820190506110a66000830184610e09565b92915050565b60006020820190506110c16000830184610e18565b92915050565b600060208201905081810360008301526110e18184610e36565b905092915050565b6000602082019050818103600083015261110281610ea0565b9050919050565b6000602082019050818103600083015261112281610ec3565b9050919050565b6000602082019050818103600083015261114281610ee6565b9050919050565b6000602082019050818103600083015261116281610f09565b9050919050565b6000602082019050818103600083015261118281610f2c565b9050919050565b600060208201905081810360008301526111a281610f4f565b9050919050565b60006020820190506111be6000830184610f72565b92915050565b60006111ce6111df565b90506111da828261142a565b919050565b6000604051905090565b600067ffffffffffffffff821115611204576112036114f2565b5b61120d82611521565b9050602081019050919050565b600081519050919050565b600082825260208201905092915050565b600081905092915050565b600061124c8261131a565b91506112578361131a565b92508261126757611266611494565b5b828204905092915050565b600061127d8261131a565b91506112888361131a565b9250817fffffffffffffffffffffffffffffffffffffffffffffffffffffffffffffffff04831182151516156112c1576112c0611465565b5b828202905092915050565b60006112d7826112fa565b9050919050565b60006112e9826112fa565b9050919050565b6000819050919050565b600073ffffffffffffffffffffffffffffffffffffffff82169050919050565b6000819050919050565b600067ffffffffffffffff82169050919050565b60006113438261134a565b9050919050565b6000611355826112fa565b9050919050565b60006113678261136e565b9050919050565b6000611379826112fa565b9050919050565b600061138b82611392565b9050919050565b600061139d826112fa565b9050919050565b60006113af82611324565b9050919050565b82818337600083830152505050565b60005b838110156113e35780820151818401526020810190506113c8565b838111156113f2576000848401525b50505050565b6000600282049050600182168061141057607f821691505b60208210811415611424576114236114c3565b5b50919050565b61143382611521565b810181811067ffffffffffffffff82111715611452576114516114f2565b5b80604052505050565b6000819050919050565b7f4e487b7100000000000000000000000000000000000000000000000000000000600052601160045260246000fd5b7f4e487b7100000000000000000000000000000000000000000000000000000000600052601260045260246000fd5b7f4e487b7100000000000000000000000000000000000000000000000000000000600052602260045260246000fd5b7f4e487b7100000000000000000000000000000000000000000000000000000000600052604160045260246000fd5b6000601f19601f8301169050919050565b7f454e5320506c7567696e3a2052656d6f766520646f6d61696e7320617265206e60008201527f6f7420706f737369626c65206f6e207468697320706c7567696e2e0000000000602082015250565b7f4f776e61626c653a206e6577206f776e657220697320746865207a65726f206160008201527f6464726573730000000000000000000000000000000000000000000000000000602082015250565b7f454e5320506c7567696e3a2041747461636820646f6d61696e7320617265206e60008201527f6f7420706f737369626c65206f6e207468697320706c7567696e2e0000000000602082015250565b7f4f746f436f506c7567696e3a204e6f7420656e6f75676820455448207061696460008201527f20666f7220746865207472616e73616374696f6e2e0000000000000000000000602082015250565b7f4f776e61626c653a2063616c6c6572206973206e6f7420746865206f776e6572600082015250565b7f4f746f436f506c7567696e3a204e6f742074686520656e74697479206f776e6560008201527f722e000000000000000000000000000000000000000000000000000000000000602082015250565b6116ef816112cc565b81146116fa57600080fd5b50565b611706816112de565b811461171157600080fd5b50565b61171d8161131a565b811461172857600080fd5b5056fea2646970667358221220c131506eea208845c1f647a33234034e0ea67363ec30e6e7a8a7029651ba1f6564736f6c63430008030033",
  "linkReferences": {},
  "deployedLinkReferences": {}
}