{
  "_format": "hh-sol-artifact-1",
  "contractName": "Timestamp",
  "sourceName": "contracts/plugins/Timestamp.sol",
  "abi": [
    {
      "inputs": [
        {
          "internalType": "address payable",
          "name": "otocoMaster",
          "type": "address"
        }
      ],
      "stateMutability": "nonpayable",
      "type": "constructor"
    },
    {
      "anonymous": false,
      "inputs": [
        {
          "indexed": true,
          "internalType": "uint256",
          "name": "seriesId",
          "type": "uint256"
        },
        {
          "indexed": false,
          "internalType": "uint256",
          "name": "timestamp",
          "type": "uint256"
        },
        {
          "indexed": false,
          "internalType": "string",
          "name": "filename",
          "type": "string"
        },
        {
          "indexed": false,
          "internalType": "string",
          "name": "cid",
          "type": "string"
        }
      ],
      "name": "DocumentTimestamped",
      "type": "event"
    },
    {
      "anonymous": false,
      "inputs": [
        {
          "indexed": true,
          "internalType": "address",
          "name": "previousOwner",
          "type": "address"
        },
        {
          "indexed": true,
          "internalType": "address",
          "name": "newOwner",
          "type": "address"
        }
      ],
      "name": "OwnershipTransferred",
      "type": "event"
    },
    {
      "inputs": [
        {
          "internalType": "uint256",
          "name": "seriesId",
          "type": "uint256"
        },
        {
          "internalType": "bytes",
          "name": "pluginData",
          "type": "bytes"
        }
      ],
      "name": "addPlugin",
      "outputs": [],
      "stateMutability": "payable",
      "type": "function"
    },
    {
      "inputs": [
        {
          "internalType": "uint256",
          "name": "seriesId",
          "type": "uint256"
        },
        {
          "internalType": "bytes",
          "name": "pluginData",
          "type": "bytes"
        }
      ],
      "name": "attachPlugin",
      "outputs": [],
      "stateMutability": "payable",
      "type": "function"
    },
    {
      "inputs": [],
      "name": "otocoMaster",
      "outputs": [
        {
          "internalType": "contract IOtoCoMaster",
          "name": "",
          "type": "address"
        }
      ],
      "stateMutability": "view",
      "type": "function"
    },
    {
      "inputs": [],
      "name": "owner",
      "outputs": [
        {
          "internalType": "address",
          "name": "",
          "type": "address"
        }
      ],
      "stateMutability": "view",
      "type": "function"
    },
    {
      "inputs": [
        {
          "internalType": "uint256",
          "name": "seriesId",
          "type": "uint256"
        },
        {
          "internalType": "bytes",
          "name": "pluginData",
          "type": "bytes"
        }
      ],
      "name": "removePlugin",
      "outputs": [],
      "stateMutability": "payable",
      "type": "function"
    },
    {
      "inputs": [],
      "name": "renounceOwnership",
      "outputs": [],
      "stateMutability": "nonpayable",
      "type": "function"
    },
    {
      "inputs": [
        {
          "internalType": "address",
          "name": "newOwner",
          "type": "address"
        }
      ],
      "name": "transferOwnership",
      "outputs": [],
      "stateMutability": "nonpayable",
      "type": "function"
    }
  ],
  "bytecode": "0x60806040523480156200001157600080fd5b506040516200146d3803806200146d833981810160405281019062000037919062000184565b80620000586200004c620000a160201b60201c565b620000a960201b60201c565b80600160006101000a81548173ffffffffffffffffffffffffffffffffffffffff021916908373ffffffffffffffffffffffffffffffffffffffff1602179055505050620001fe565b600033905090565b60008060009054906101000a900473ffffffffffffffffffffffffffffffffffffffff169050816000806101000a81548173ffffffffffffffffffffffffffffffffffffffff021916908373ffffffffffffffffffffffffffffffffffffffff1602179055508173ffffffffffffffffffffffffffffffffffffffff168173ffffffffffffffffffffffffffffffffffffffff167f8be0079c531659141344cd1fd0a4f28419497f9722a3daafe3b4186f6b6457e060405160405180910390a35050565b6000815190506200017e81620001e4565b92915050565b6000602082840312156200019757600080fd5b6000620001a7848285016200016d565b91505092915050565b6000620001bd82620001c4565b9050919050565b600073ffffffffffffffffffffffffffffffffffffffff82169050919050565b620001ef81620001b0565b8114620001fb57600080fd5b50565b61125f806200020e6000396000f3fe6080604052600436106100705760003560e01c8063949c485b1161004e578063949c485b146100d3578063efcf936e146100ef578063f2fde38b1461010b578063f9bcfa151461013457610070565b8063715018a6146100755780638629d6a81461008c5780638da5cb5b146100a8575b600080fd5b34801561008157600080fd5b5061008a61015f565b005b6100a660048036038101906100a19190610b85565b6101e7565b005b3480156100b457600080fd5b506100bd6101ec565b6040516100ca9190610cf2565b60405180910390f35b6100ed60048036038101906100e89190610b85565b610215565b005b61010960048036038101906101049190610b85565b6104eb565b005b34801561011757600080fd5b50610132600480360381019061012d9190610a9e565b6107ae565b005b34801561014057600080fd5b506101496108a6565b6040516101569190610d0d565b60405180910390f35b6101676108cc565b73ffffffffffffffffffffffffffffffffffffffff166101856101ec565b73ffffffffffffffffffffffffffffffffffffffff16146101db576040517f08c379a00000000000000000000000000000000000000000000000000000000081526004016101d290610d88565b60405180910390fd5b6101e560006108d4565b565b505050565b60008060009054906101000a900473ffffffffffffffffffffffffffffffffffffffff16905090565b823373ffffffffffffffffffffffffffffffffffffffff16600160009054906101000a900473ffffffffffffffffffffffffffffffffffffffff1673ffffffffffffffffffffffffffffffffffffffff16636352211e836040518263ffffffff1660e01b81526004016102889190610dc8565b60206040518083038186803b1580156102a057600080fd5b505afa1580156102b4573d6000803e3d6000fd5b505050506040513d601f19601f820116820180604052508101906102d89190610ac7565b73ffffffffffffffffffffffffffffffffffffffff161461032e576040517f08c379a000000000000000000000000000000000000000000000000000000000815260040161032590610da8565b60405180910390fd5b600160009054906101000a900473ffffffffffffffffffffffffffffffffffffffff1673ffffffffffffffffffffffffffffffffffffffff16634eeec55e6040518163ffffffff1660e01b8152600401602060405180830381600087803b15801561039857600080fd5b505af11580156103ac573d6000803e3d6000fd5b505050506040513d601f19601f820116820180604052508101906103d09190610b5c565b5a3a6103dc9190610ecb565b6103e69190610e9a565b341015610428576040517f08c379a000000000000000000000000000000000000000000000000000000000815260040161041f90610d48565b60405180910390fd5b600160009054906101000a900473ffffffffffffffffffffffffffffffffffffffff1673ffffffffffffffffffffffffffffffffffffffff166108fc349081150290604051600060405180830381858888f19350505050158015610490573d6000803e3d6000fd5b5060008084848101906104a39190610af0565b91509150857fba592f4cb312ca18d764a0d563b87f9b277fc2e07336257478318817fce729104284846040516104db93929190610de3565b60405180910390a2505050505050565b823373ffffffffffffffffffffffffffffffffffffffff16600160009054906101000a900473ffffffffffffffffffffffffffffffffffffffff1673ffffffffffffffffffffffffffffffffffffffff16636352211e836040518263ffffffff1660e01b815260040161055e9190610dc8565b60206040518083038186803b15801561057657600080fd5b505afa15801561058a573d6000803e3d6000fd5b505050506040513d601f19601f820116820180604052508101906105ae9190610ac7565b73ffffffffffffffffffffffffffffffffffffffff1614610604576040517f08c379a00000000000000000000000000000000000000000000000000000000081526004016105fb90610da8565b60405180910390fd5b600160009054906101000a900473ffffffffffffffffffffffffffffffffffffffff1673ffffffffffffffffffffffffffffffffffffffff16634eeec55e6040518163ffffffff1660e01b8152600401602060405180830381600087803b15801561066e57600080fd5b505af1158015610682573d6000803e3d6000fd5b505050506040513d601f19601f820116820180604052508101906106a69190610b5c565b5a3a6106b29190610ecb565b6106bc9190610e9a565b3410156106fe576040517f08c379a00000000000000000000000000000000000000000000000000000000081526004016106f590610d48565b60405180910390fd5b600160009054906101000a900473ffffffffffffffffffffffffffffffffffffffff1673ffffffffffffffffffffffffffffffffffffffff166108fc349081150290604051600060405180830381858888f19350505050158015610766573d6000803e3d6000fd5b5060006107a8576040517f08c379a000000000000000000000000000000000000000000000000000000000815260040161079f90610d68565b60405180910390fd5b50505050565b6107b66108cc565b73ffffffffffffffffffffffffffffffffffffffff166107d46101ec565b73ffffffffffffffffffffffffffffffffffffffff161461082a576040517f08c379a000000000000000000000000000000000000000000000000000000000815260040161082190610d88565b60405180910390fd5b600073ffffffffffffffffffffffffffffffffffffffff168173ffffffffffffffffffffffffffffffffffffffff16141561089a576040517f08c379a000000000000000000000000000000000000000000000000000000000815260040161089190610d28565b60405180910390fd5b6108a3816108d4565b50565b600160009054906101000a900473ffffffffffffffffffffffffffffffffffffffff1681565b600033905090565b60008060009054906101000a900473ffffffffffffffffffffffffffffffffffffffff169050816000806101000a81548173ffffffffffffffffffffffffffffffffffffffff021916908373ffffffffffffffffffffffffffffffffffffffff1602179055508173ffffffffffffffffffffffffffffffffffffffff168173ffffffffffffffffffffffffffffffffffffffff167f8be0079c531659141344cd1fd0a4f28419497f9722a3daafe3b4186f6b6457e060405160405180910390a35050565b60006109ab6109a684610e4d565b610e28565b9050828152602081018484840111156109c357600080fd5b6109ce848285610f85565b509392505050565b6000813590506109e5816111fb565b92915050565b6000815190506109fa816111fb565b92915050565b60008083601f840112610a1257600080fd5b8235905067ffffffffffffffff811115610a2b57600080fd5b602083019150836001820283011115610a4357600080fd5b9250929050565b600082601f830112610a5b57600080fd5b8135610a6b848260208601610998565b91505092915050565b600081359050610a8381611212565b92915050565b600081519050610a9881611212565b92915050565b600060208284031215610ab057600080fd5b6000610abe848285016109d6565b91505092915050565b600060208284031215610ad957600080fd5b6000610ae7848285016109eb565b91505092915050565b60008060408385031215610b0357600080fd5b600083013567ffffffffffffffff811115610b1d57600080fd5b610b2985828601610a4a565b925050602083013567ffffffffffffffff811115610b4657600080fd5b610b5285828601610a4a565b9150509250929050565b600060208284031215610b6e57600080fd5b6000610b7c84828501610a89565b91505092915050565b600080600060408486031215610b9a57600080fd5b6000610ba886828701610a74565b935050602084013567ffffffffffffffff811115610bc557600080fd5b610bd186828701610a00565b92509250509250925092565b610be681610f25565b82525050565b610bf581610f61565b82525050565b6000610c0682610e7e565b610c108185610e89565b9350610c20818560208601610f94565b610c2981611085565b840191505092915050565b6000610c41602683610e89565b9150610c4c82611096565b604082019050919050565b6000610c64603583610e89565b9150610c6f826110e5565b604082019050919050565b6000610c87603b83610e89565b9150610c9282611134565b604082019050919050565b6000610caa602083610e89565b9150610cb582611183565b602082019050919050565b6000610ccd602283610e89565b9150610cd8826111ac565b604082019050919050565b610cec81610f57565b82525050565b6000602082019050610d076000830184610bdd565b92915050565b6000602082019050610d226000830184610bec565b92915050565b60006020820190508181036000830152610d4181610c34565b9050919050565b60006020820190508181036000830152610d6181610c57565b9050919050565b60006020820190508181036000830152610d8181610c7a565b9050919050565b60006020820190508181036000830152610da181610c9d565b9050919050565b60006020820190508181036000830152610dc181610cc0565b9050919050565b6000602082019050610ddd6000830184610ce3565b92915050565b6000606082019050610df86000830186610ce3565b8181036020830152610e0a8185610bfb565b90508181036040830152610e1e8184610bfb565b9050949350505050565b6000610e32610e43565b9050610e3e8282610fc7565b919050565b6000604051905090565b600067ffffffffffffffff821115610e6857610e67611056565b5b610e7182611085565b9050602081019050919050565b600081519050919050565b600082825260208201905092915050565b6000610ea582610f57565b9150610eb083610f57565b925082610ec057610ebf611027565b5b828204905092915050565b6000610ed682610f57565b9150610ee183610f57565b9250817fffffffffffffffffffffffffffffffffffffffffffffffffffffffffffffffff0483118215151615610f1a57610f19610ff8565b5b828202905092915050565b6000610f3082610f37565b9050919050565b600073ffffffffffffffffffffffffffffffffffffffff82169050919050565b6000819050919050565b6000610f6c82610f73565b9050919050565b6000610f7e82610f37565b9050919050565b82818337600083830152505050565b60005b83811015610fb2578082015181840152602081019050610f97565b83811115610fc1576000848401525b50505050565b610fd082611085565b810181811067ffffffffffffffff82111715610fef57610fee611056565b5b80604052505050565b7f4e487b7100000000000000000000000000000000000000000000000000000000600052601160045260246000fd5b7f4e487b7100000000000000000000000000000000000000000000000000000000600052601260045260246000fd5b7f4e487b7100000000000000000000000000000000000000000000000000000000600052604160045260246000fd5b6000601f19601f8301169050919050565b7f4f776e61626c653a206e6577206f776e657220697320746865207a65726f206160008201527f6464726573730000000000000000000000000000000000000000000000000000602082015250565b7f4f746f436f506c7567696e3a204e6f7420656e6f75676820455448207061696460008201527f20666f7220746865207472616e73616374696f6e2e0000000000000000000000602082015250565b7f54696d657374616d703a2052656d6f766520656c656d656e747320617265206e60008201527f6f7420706f737369626c65206f6e207468697320706c7567696e2e0000000000602082015250565b7f4f776e61626c653a2063616c6c6572206973206e6f7420746865206f776e6572600082015250565b7f4f746f436f506c7567696e3a204e6f742074686520656e74697479206f776e6560008201527f722e000000000000000000000000000000000000000000000000000000000000602082015250565b61120481610f25565b811461120f57600080fd5b50565b61121b81610f57565b811461122657600080fd5b5056fea26469706673582212201d9d4190393a136852b28ed945e57b4a1d67801c2545eb630a9eeab297a8287d64736f6c63430008030033",
  "linkReferences": {},
  "deployedLinkReferences": {}
}