{
  "_format": "hh-sol-artifact-1",
  "contractName": "Token",
  "sourceName": "contracts/plugins/Token.sol",
  "abi": [
    {
      "inputs": [
        {
          "internalType": "address payable",
          "name": "otocoMaster",
          "type": "address"
        },
        {
          "internalType": "address",
          "name": "token",
          "type": "address"
        },
        {
          "internalType": "uint256[]",
          "name": "prevIds",
          "type": "uint256[]"
        },
        {
          "internalType": "address[]",
          "name": "prevTokens",
          "type": "address[]"
        }
      ],
      "stateMutability": "nonpayable",
      "type": "constructor"
    },
    {
      "anonymous": false,
      "inputs": [
        {
          "indexed": true,
          "internalType": "address",
          "name": "previousOwner",
          "type": "address"
        },
        {
          "indexed": true,
          "internalType": "address",
          "name": "newOwner",
          "type": "address"
        }
      ],
      "name": "OwnershipTransferred",
      "type": "event"
    },
    {
      "anonymous": false,
      "inputs": [
        {
          "indexed": true,
          "internalType": "uint256",
          "name": "series",
          "type": "uint256"
        },
        {
          "indexed": false,
          "internalType": "address",
          "name": "token",
          "type": "address"
        }
      ],
      "name": "TokenAdded",
      "type": "event"
    },
    {
      "anonymous": false,
      "inputs": [
        {
          "indexed": true,
          "internalType": "uint256",
          "name": "series",
          "type": "uint256"
        },
        {
          "indexed": false,
          "internalType": "address",
          "name": "token",
          "type": "address"
        }
      ],
      "name": "TokenRemoved",
      "type": "event"
    },
    {
      "inputs": [
        {
          "internalType": "uint256",
          "name": "seriesId",
          "type": "uint256"
        },
        {
          "internalType": "bytes",
          "name": "pluginData",
          "type": "bytes"
        }
      ],
      "name": "addPlugin",
      "outputs": [],
      "stateMutability": "payable",
      "type": "function"
    },
    {
      "inputs": [
        {
          "internalType": "uint256",
          "name": "seriesId",
          "type": "uint256"
        },
        {
          "internalType": "bytes",
          "name": "pluginData",
          "type": "bytes"
        }
      ],
      "name": "attachPlugin",
      "outputs": [],
      "stateMutability": "payable",
      "type": "function"
    },
    {
      "inputs": [],
      "name": "otocoMaster",
      "outputs": [
        {
          "internalType": "contract IOtoCoMaster",
          "name": "",
          "type": "address"
        }
      ],
      "stateMutability": "view",
      "type": "function"
    },
    {
      "inputs": [],
      "name": "owner",
      "outputs": [
        {
          "internalType": "address",
          "name": "",
          "type": "address"
        }
      ],
      "stateMutability": "view",
      "type": "function"
    },
    {
      "inputs": [
        {
          "internalType": "uint256",
          "name": "seriesId",
          "type": "uint256"
        },
        {
          "internalType": "bytes",
          "name": "pluginData",
          "type": "bytes"
        }
      ],
      "name": "removePlugin",
      "outputs": [],
      "stateMutability": "payable",
      "type": "function"
    },
    {
      "inputs": [],
      "name": "renounceOwnership",
      "outputs": [],
      "stateMutability": "nonpayable",
      "type": "function"
    },
    {
      "inputs": [
        {
          "internalType": "address",
          "name": "newOwner",
          "type": "address"
        }
      ],
      "name": "transferOwnership",
      "outputs": [],
      "stateMutability": "nonpayable",
      "type": "function"
    },
    {
      "inputs": [
        {
          "internalType": "address",
          "name": "newAddress",
          "type": "address"
        }
      ],
      "name": "updateTokenContract",
      "outputs": [],
      "stateMutability": "nonpayable",
      "type": "function"
    }
  ],
  "bytecode": "0x60806040523480156200001157600080fd5b506040516200253138038062002531833981810160405281019062000037919062000557565b83620000586200004c6200030260201b60201c565b6200030a60201b60201c565b80600160006101000a81548173ffffffffffffffffffffffffffffffffffffffff021916908373ffffffffffffffffffffffffffffffffffffffff160217905550508051825114620000e1576040517f08c379a0000000000000000000000000000000000000000000000000000000008152600401620000d8906200064a565b60405180910390fd5b82600260006101000a81548173ffffffffffffffffffffffffffffffffffffffff021916908373ffffffffffffffffffffffffffffffffffffffff16021790555060005b8251811015620002f757600360008483815181106200016d577f4e487b7100000000000000000000000000000000000000000000000000000000600052603260045260246000fd5b60200260200101518152602001908152602001600020828281518110620001bd577f4e487b7100000000000000000000000000000000000000000000000000000000600052603260045260246000fd5b60200260200101519080600181540180825580915050600190039060005260206000200160009091909190916101000a81548173ffffffffffffffffffffffffffffffffffffffff021916908373ffffffffffffffffffffffffffffffffffffffff1602179055508281815181106200025f577f4e487b7100000000000000000000000000000000000000000000000000000000600052603260045260246000fd5b60200260200101517fca37a60f79854243dcab36b6ad6fcaafc7ae13448087ee70547943babc7dccf0838381518110620002c2577f4e487b7100000000000000000000000000000000000000000000000000000000600052603260045260246000fd5b6020026020010151604051620002d991906200062d565b60405180910390a28080620002ee906200078c565b91505062000125565b5050505050620008e6565b600033905090565b60008060009054906101000a900473ffffffffffffffffffffffffffffffffffffffff169050816000806101000a81548173ffffffffffffffffffffffffffffffffffffffff021916908373ffffffffffffffffffffffffffffffffffffffff1602179055508173ffffffffffffffffffffffffffffffffffffffff168173ffffffffffffffffffffffffffffffffffffffff167f8be0079c531659141344cd1fd0a4f28419497f9722a3daafe3b4186f6b6457e060405160405180910390a35050565b6000620003e5620003df8462000695565b6200066c565b905080838252602082019050828560208602820111156200040557600080fd5b60005b858110156200043957816200041e8882620004b8565b84526020840193506020830192505060018101905062000408565b5050509392505050565b60006200045a6200045484620006c4565b6200066c565b905080838252602082019050828560208602820111156200047a57600080fd5b60005b85811015620004ae578162000493888262000540565b8452602084019350602083019250506001810190506200047d565b5050509392505050565b600081519050620004c98162000898565b92915050565b600081519050620004e081620008b2565b92915050565b600082601f830112620004f857600080fd5b81516200050a848260208601620003ce565b91505092915050565b600082601f8301126200052557600080fd5b81516200053784826020860162000443565b91505092915050565b6000815190506200055181620008cc565b92915050565b600080600080608085870312156200056e57600080fd5b60006200057e87828801620004cf565b94505060206200059187828801620004b8565b935050604085015167ffffffffffffffff811115620005af57600080fd5b620005bd8782880162000513565b925050606085015167ffffffffffffffff811115620005db57600080fd5b620005e987828801620004e6565b91505092959194509250565b620006008162000704565b82525050565b600062000615603983620006f3565b9150620006228262000849565b604082019050919050565b6000602082019050620006446000830184620005f5565b92915050565b60006020820190508181036000830152620006658162000606565b9050919050565b6000620006786200068b565b905062000686828262000756565b919050565b6000604051905090565b600067ffffffffffffffff821115620006b357620006b262000809565b5b602082029050602081019050919050565b600067ffffffffffffffff821115620006e257620006e162000809565b5b602082029050602081019050919050565b600082825260208201905092915050565b600062000711826200072c565b9050919050565b600062000725826200072c565b9050919050565b600073ffffffffffffffffffffffffffffffffffffffff82169050919050565b6000819050919050565b620007618262000838565b810181811067ffffffffffffffff8211171562000783576200078262000809565b5b80604052505050565b600062000799826200074c565b91507fffffffffffffffffffffffffffffffffffffffffffffffffffffffffffffffff821415620007cf57620007ce620007da565b5b600182019050919050565b7f4e487b7100000000000000000000000000000000000000000000000000000000600052601160045260246000fd5b7f4e487b7100000000000000000000000000000000000000000000000000000000600052604160045260246000fd5b6000601f19601f8301169050919050565b7f50726576696f7573207365726965732073697a6520646966666572656e74207460008201527f68616e2070726576696f757320746f6b656e732073697a652e00000000000000602082015250565b620008a38162000704565b8114620008af57600080fd5b50565b620008bd8162000718565b8114620008c957600080fd5b50565b620008d7816200074c565b8114620008e357600080fd5b50565b611c3b80620008f66000396000f3fe60806040526004361061007b5760003560e01c8063989ced261161004e578063989ced26146100fa578063efcf936e14610123578063f2fde38b1461013f578063f9bcfa15146101685761007b565b8063715018a6146100805780638629d6a8146100975780638da5cb5b146100b3578063949c485b146100de575b600080fd5b34801561008c57600080fd5b50610095610193565b005b6100b160048036038101906100ac919061149d565b61021b565b005b3480156100bf57600080fd5b506100c86105c6565b6040516100d59190611689565b60405180910390f35b6100f860048036038101906100f3919061149d565b6105ef565b005b34801561010657600080fd5b50610121600480360381019061011c91906113d0565b610a44565b005b61013d6004803603810190610138919061149d565b610b04565b005b34801561014b57600080fd5b50610166600480360381019061016191906113d0565b610ff6565b005b34801561017457600080fd5b5061017d6110ee565b60405161018a91906116a4565b60405180910390f35b61019b611114565b73ffffffffffffffffffffffffffffffffffffffff166101b96105c6565b73ffffffffffffffffffffffffffffffffffffffff161461020f576040517f08c379a000000000000000000000000000000000000000000000000000000000815260040161020690611772565b60405180910390fd5b610219600061111c565b565b823373ffffffffffffffffffffffffffffffffffffffff16600160009054906101000a900473ffffffffffffffffffffffffffffffffffffffff1673ffffffffffffffffffffffffffffffffffffffff16636352211e836040518263ffffffff1660e01b815260040161028e91906117b2565b60206040518083038186803b1580156102a657600080fd5b505afa1580156102ba573d6000803e3d6000fd5b505050506040513d601f19601f820116820180604052508101906102de91906113f9565b73ffffffffffffffffffffffffffffffffffffffff1614610334576040517f08c379a000000000000000000000000000000000000000000000000000000000815260040161032b90611792565b60405180910390fd5b600160009054906101000a900473ffffffffffffffffffffffffffffffffffffffff1673ffffffffffffffffffffffffffffffffffffffff16634eeec55e6040518163ffffffff1660e01b8152600401602060405180830381600087803b15801561039e57600080fd5b505af11580156103b2573d6000803e3d6000fd5b505050506040513d601f19601f820116820180604052508101906103d69190611474565b5a3a6103e29190611870565b6103ec919061183f565b34101561042e576040517f08c379a000000000000000000000000000000000000000000000000000000000815260040161042590611752565b60405180910390fd5b600160009054906101000a900473ffffffffffffffffffffffffffffffffffffffff1673ffffffffffffffffffffffffffffffffffffffff166108fc349081150290604051600060405180830381858888f19350505050158015610496573d6000803e3d6000fd5b50600083838101906104a89190611422565b9050600160009054906101000a900473ffffffffffffffffffffffffffffffffffffffff1673ffffffffffffffffffffffffffffffffffffffff166108fc349081150290604051600060405180830381858888f19350505050158015610512573d6000803e3d6000fd5b5060036000868152602001908152602001600020819080600181540180825580915050600190039060005260206000200160009091909190916101000a81548173ffffffffffffffffffffffffffffffffffffffff021916908373ffffffffffffffffffffffffffffffffffffffff160217905550847fca37a60f79854243dcab36b6ad6fcaafc7ae13448087ee70547943babc7dccf0826040516105b79190611689565b60405180910390a25050505050565b60008060009054906101000a900473ffffffffffffffffffffffffffffffffffffffff16905090565b823373ffffffffffffffffffffffffffffffffffffffff16600160009054906101000a900473ffffffffffffffffffffffffffffffffffffffff1673ffffffffffffffffffffffffffffffffffffffff16636352211e836040518263ffffffff1660e01b815260040161066291906117b2565b60206040518083038186803b15801561067a57600080fd5b505afa15801561068e573d6000803e3d6000fd5b505050506040513d601f19601f820116820180604052508101906106b291906113f9565b73ffffffffffffffffffffffffffffffffffffffff1614610708576040517f08c379a00000000000000000000000000000000000000000000000000000000081526004016106ff90611792565b60405180910390fd5b600160009054906101000a900473ffffffffffffffffffffffffffffffffffffffff1673ffffffffffffffffffffffffffffffffffffffff16634eeec55e6040518163ffffffff1660e01b8152600401602060405180830381600087803b15801561077257600080fd5b505af1158015610786573d6000803e3d6000fd5b505050506040513d601f19601f820116820180604052508101906107aa9190611474565b5a3a6107b69190611870565b6107c0919061183f565b341015610802576040517f08c379a00000000000000000000000000000000000000000000000000000000081526004016107f990611752565b60405180910390fd5b600160009054906101000a900473ffffffffffffffffffffffffffffffffffffffff1673ffffffffffffffffffffffffffffffffffffffff166108fc349081150290604051600060405180830381858888f1935050505015801561086a573d6000803e3d6000fd5b506000806000858581019061087f91906114f5565b925092509250600160009054906101000a900473ffffffffffffffffffffffffffffffffffffffff1673ffffffffffffffffffffffffffffffffffffffff166108fc349081150290604051600060405180830381858888f193505050501580156108ed573d6000803e3d6000fd5b50600061091b600260009054906101000a900473ffffffffffffffffffffffffffffffffffffffff166111e0565b90508073ffffffffffffffffffffffffffffffffffffffff1663bd3a13f6848487336040518563ffffffff1660e01b815260040161095c94939291906116bf565b600060405180830381600087803b15801561097657600080fd5b505af115801561098a573d6000803e3d6000fd5b5050505060036000898152602001908152602001600020819080600181540180825580915050600190039060005260206000200160009091909190916101000a81548173ffffffffffffffffffffffffffffffffffffffff021916908373ffffffffffffffffffffffffffffffffffffffff160217905550877fca37a60f79854243dcab36b6ad6fcaafc7ae13448087ee70547943babc7dccf082604051610a329190611689565b60405180910390a25050505050505050565b610a4c611114565b73ffffffffffffffffffffffffffffffffffffffff16610a6a6105c6565b73ffffffffffffffffffffffffffffffffffffffff1614610ac0576040517f08c379a0000000000000000000000000000000000000000000000000000000008152600401610ab790611772565b60405180910390fd5b80600260006101000a81548173ffffffffffffffffffffffffffffffffffffffff021916908373ffffffffffffffffffffffffffffffffffffffff16021790555050565b823373ffffffffffffffffffffffffffffffffffffffff16600160009054906101000a900473ffffffffffffffffffffffffffffffffffffffff1673ffffffffffffffffffffffffffffffffffffffff16636352211e836040518263ffffffff1660e01b8152600401610b7791906117b2565b60206040518083038186803b158015610b8f57600080fd5b505afa158015610ba3573d6000803e3d6000fd5b505050506040513d601f19601f82011682018060405250810190610bc791906113f9565b73ffffffffffffffffffffffffffffffffffffffff1614610c1d576040517f08c379a0000000000000000000000000000000000000000000000000000000008152600401610c1490611792565b60405180910390fd5b600160009054906101000a900473ffffffffffffffffffffffffffffffffffffffff1673ffffffffffffffffffffffffffffffffffffffff16634eeec55e6040518163ffffffff1660e01b8152600401602060405180830381600087803b158015610c8757600080fd5b505af1158015610c9b573d6000803e3d6000fd5b505050506040513d601f19601f82011682018060405250810190610cbf9190611474565b5a3a610ccb9190611870565b610cd5919061183f565b341015610d17576040517f08c379a0000000000000000000000000000000000000000000000000000000008152600401610d0e90611752565b60405180910390fd5b600160009054906101000a900473ffffffffffffffffffffffffffffffffffffffff1673ffffffffffffffffffffffffffffffffffffffff166108fc349081150290604051600060405180830381858888f19350505050158015610d7f573d6000803e3d6000fd5b5060008383810190610d91919061144b565b90506000600360008781526020019081526020016000208281548110610de0577f4e487b7100000000000000000000000000000000000000000000000000000000600052603260045260246000fd5b9060005260206000200160009054906101000a900473ffffffffffffffffffffffffffffffffffffffff1690506003600087815260200190815260200160002060016003600089815260200190815260200160002080549050610e4391906118ca565b81548110610e7a577f4e487b7100000000000000000000000000000000000000000000000000000000600052603260045260246000fd5b9060005260206000200160009054906101000a900473ffffffffffffffffffffffffffffffffffffffff16600360008881526020019081526020016000208381548110610ef0577f4e487b7100000000000000000000000000000000000000000000000000000000600052603260045260246000fd5b9060005260206000200160006101000a81548173ffffffffffffffffffffffffffffffffffffffff021916908373ffffffffffffffffffffffffffffffffffffffff16021790555060036000878152602001908152602001600020805480610f81577f4e487b7100000000000000000000000000000000000000000000000000000000600052603160045260246000fd5b6001900381819060005260206000200160006101000a81549073ffffffffffffffffffffffffffffffffffffffff02191690559055857fb3036f81a7a8205f3b94de16897df636d553839d92289fb7ec72dd2d5413284282604051610fe69190611689565b60405180910390a2505050505050565b610ffe611114565b73ffffffffffffffffffffffffffffffffffffffff1661101c6105c6565b73ffffffffffffffffffffffffffffffffffffffff1614611072576040517f08c379a000000000000000000000000000000000000000000000000000000000815260040161106990611772565b60405180910390fd5b600073ffffffffffffffffffffffffffffffffffffffff168173ffffffffffffffffffffffffffffffffffffffff1614156110e2576040517f08c379a00000000000000000000000000000000000000000000000000000000081526004016110d990611712565b60405180910390fd5b6110eb8161111c565b50565b600160009054906101000a900473ffffffffffffffffffffffffffffffffffffffff1681565b600033905090565b60008060009054906101000a900473ffffffffffffffffffffffffffffffffffffffff169050816000806101000a81548173ffffffffffffffffffffffffffffffffffffffff021916908373ffffffffffffffffffffffffffffffffffffffff1602179055508173ffffffffffffffffffffffffffffffffffffffff168173ffffffffffffffffffffffffffffffffffffffff167f8be0079c531659141344cd1fd0a4f28419497f9722a3daafe3b4186f6b6457e060405160405180910390a35050565b60006040517f3d602d80600a3d3981f3363d3d373d3d3d363d7300000000000000000000000081528260601b60148201527f5af43d82803e903d91602b57fd5bf3000000000000000000000000000000000060288201526037816000f0915050600073ffffffffffffffffffffffffffffffffffffffff168173ffffffffffffffffffffffffffffffffffffffff1614156112b0576040517f08c379a00000000000000000000000000000000000000000000000000000000081526004016112a790611732565b60405180910390fd5b919050565b60006112c86112c3846117f2565b6117cd565b9050828152602081018484840111156112e057600080fd5b6112eb848285611970565b509392505050565b60008135905061130281611bc0565b92915050565b60008151905061131781611bc0565b92915050565b60008135905061132c81611bd7565b92915050565b60008083601f84011261134457600080fd5b8235905067ffffffffffffffff81111561135d57600080fd5b60208301915083600182028301111561137557600080fd5b9250929050565b600082601f83011261138d57600080fd5b813561139d8482602086016112b5565b91505092915050565b6000813590506113b581611bee565b92915050565b6000815190506113ca81611bee565b92915050565b6000602082840312156113e257600080fd5b60006113f0848285016112f3565b91505092915050565b60006020828403121561140b57600080fd5b600061141984828501611308565b91505092915050565b60006020828403121561143457600080fd5b60006114428482850161131d565b91505092915050565b60006020828403121561145d57600080fd5b600061146b848285016113a6565b91505092915050565b60006020828403121561148657600080fd5b6000611494848285016113bb565b91505092915050565b6000806000604084860312156114b257600080fd5b60006114c0868287016113a6565b935050602084013567ffffffffffffffff8111156114dd57600080fd5b6114e986828701611332565b92509250509250925092565b60008060006060848603121561150a57600080fd5b6000611518868287016113a6565b935050602084013567ffffffffffffffff81111561153557600080fd5b6115418682870161137c565b925050604084013567ffffffffffffffff81111561155e57600080fd5b61156a8682870161137c565b9150509250925092565b61157d816118fe565b82525050565b61158c8161194c565b82525050565b600061159d82611823565b6115a7818561182e565b93506115b781856020860161197f565b6115c081611a70565b840191505092915050565b60006115d860268361182e565b91506115e382611a81565b604082019050919050565b60006115fb60168361182e565b915061160682611ad0565b602082019050919050565b600061161e60358361182e565b915061162982611af9565b604082019050919050565b600061164160208361182e565b915061164c82611b48565b602082019050919050565b600061166460228361182e565b915061166f82611b71565b604082019050919050565b61168381611942565b82525050565b600060208201905061169e6000830184611574565b92915050565b60006020820190506116b96000830184611583565b92915050565b600060808201905081810360008301526116d98187611592565b905081810360208301526116ed8186611592565b90506116fc604083018561167a565b6117096060830184611574565b95945050505050565b6000602082019050818103600083015261172b816115cb565b9050919050565b6000602082019050818103600083015261174b816115ee565b9050919050565b6000602082019050818103600083015261176b81611611565b9050919050565b6000602082019050818103600083015261178b81611634565b9050919050565b600060208201905081810360008301526117ab81611657565b9050919050565b60006020820190506117c7600083018461167a565b92915050565b60006117d76117e8565b90506117e382826119b2565b919050565b6000604051905090565b600067ffffffffffffffff82111561180d5761180c611a41565b5b61181682611a70565b9050602081019050919050565b600081519050919050565b600082825260208201905092915050565b600061184a82611942565b915061185583611942565b92508261186557611864611a12565b5b828204905092915050565b600061187b82611942565b915061188683611942565b9250817fffffffffffffffffffffffffffffffffffffffffffffffffffffffffffffffff04831182151516156118bf576118be6119e3565b5b828202905092915050565b60006118d582611942565b91506118e083611942565b9250828210156118f3576118f26119e3565b5b828203905092915050565b600061190982611922565b9050919050565b600061191b82611922565b9050919050565b600073ffffffffffffffffffffffffffffffffffffffff82169050919050565b6000819050919050565b60006119578261195e565b9050919050565b600061196982611922565b9050919050565b82818337600083830152505050565b60005b8381101561199d578082015181840152602081019050611982565b838111156119ac576000848401525b50505050565b6119bb82611a70565b810181811067ffffffffffffffff821117156119da576119d9611a41565b5b80604052505050565b7f4e487b7100000000000000000000000000000000000000000000000000000000600052601160045260246000fd5b7f4e487b7100000000000000000000000000000000000000000000000000000000600052601260045260246000fd5b7f4e487b7100000000000000000000000000000000000000000000000000000000600052604160045260246000fd5b6000601f19601f8301169050919050565b7f4f776e61626c653a206e6577206f776e657220697320746865207a65726f206160008201527f6464726573730000000000000000000000000000000000000000000000000000602082015250565b7f455243313136373a20637265617465206661696c656400000000000000000000600082015250565b7f4f746f436f506c7567696e3a204e6f7420656e6f75676820455448207061696460008201527f20666f7220746865207472616e73616374696f6e2e0000000000000000000000602082015250565b7f4f776e61626c653a2063616c6c6572206973206e6f7420746865206f776e6572600082015250565b7f4f746f436f506c7567696e3a204e6f742074686520656e74697479206f776e6560008201527f722e000000000000000000000000000000000000000000000000000000000000602082015250565b611bc9816118fe565b8114611bd457600080fd5b50565b611be081611910565b8114611beb57600080fd5b50565b611bf781611942565b8114611c0257600080fd5b5056fea26469706673582212200f1dcdd2496a80a8ffec9117ae6543e339ac3f2361e0e804f5c97c3f47fe6cc764736f6c63430008030033",
  "linkReferences": {},
  "deployedLinkReferences": {}
}