{
  "contractName": "MasterRegistryV2",
  "abi": [
    {
      "anonymous": false,
      "inputs": [
        {
          "indexed": true,
          "internalType": "address",
          "name": "series",
          "type": "address"
        },
        {
          "indexed": true,
          "internalType": "uint16",
          "name": "key",
          "type": "uint16"
        },
        {
          "indexed": false,
          "internalType": "string",
          "name": "value",
          "type": "string"
        }
      ],
      "name": "ContentChanged",
      "type": "event"
    },
    {
      "anonymous": false,
      "inputs": [
        {
          "indexed": true,
          "internalType": "address",
          "name": "previousOwner",
          "type": "address"
        },
        {
          "indexed": true,
          "internalType": "address",
          "name": "newOwner",
          "type": "address"
        }
      ],
      "name": "OwnershipTransferred",
      "type": "event"
    },
    {
      "anonymous": false,
      "inputs": [
        {
          "indexed": true,
          "internalType": "address",
          "name": "series",
          "type": "address"
        },
        {
          "indexed": true,
          "internalType": "uint16",
          "name": "key",
          "type": "uint16"
        },
        {
          "indexed": false,
          "internalType": "address",
          "name": "value",
          "type": "address"
        }
      ],
      "name": "RecordChanged",
      "type": "event"
    },
    {
      "inputs": [],
      "name": "owner",
      "outputs": [
        {
          "internalType": "address",
          "name": "",
          "type": "address"
        }
      ],
      "stateMutability": "view",
      "type": "function"
    },
    {
      "inputs": [],
      "name": "renounceOwnership",
      "outputs": [],
      "stateMutability": "nonpayable",
      "type": "function"
    },
    {
      "inputs": [],
      "name": "testVariable",
      "outputs": [
        {
          "internalType": "uint16",
          "name": "",
          "type": "uint16"
        }
      ],
      "stateMutability": "view",
      "type": "function"
    },
    {
      "inputs": [
        {
          "internalType": "address",
          "name": "newOwner",
          "type": "address"
        }
      ],
      "name": "transferOwnership",
      "outputs": [],
      "stateMutability": "nonpayable",
      "type": "function"
    },
    {
      "inputs": [],
      "name": "setTestVariable",
      "outputs": [],
      "stateMutability": "nonpayable",
      "type": "function"
    },
    {
      "inputs": [
        {
          "internalType": "address",
          "name": "series",
          "type": "address"
        },
        {
          "internalType": "uint16",
          "name": "key",
          "type": "uint16"
        },
        {
          "internalType": "address",
          "name": "value",
          "type": "address"
        }
      ],
      "name": "setRecord",
      "outputs": [],
      "stateMutability": "nonpayable",
      "type": "function"
    },
    {
      "inputs": [
        {
          "internalType": "address",
          "name": "series",
          "type": "address"
        },
        {
          "internalType": "uint16",
          "name": "key",
          "type": "uint16"
        }
      ],
      "name": "getRecord",
      "outputs": [
        {
          "internalType": "address",
          "name": "",
          "type": "address"
        }
      ],
      "stateMutability": "view",
      "type": "function"
    },
    {
      "inputs": [
        {
          "internalType": "address",
          "name": "series",
          "type": "address"
        },
        {
          "internalType": "uint16",
          "name": "key",
          "type": "uint16"
        },
        {
          "internalType": "string",
          "name": "value",
          "type": "string"
        }
      ],
      "name": "setContent",
      "outputs": [],
      "stateMutability": "nonpayable",
      "type": "function"
    },
    {
      "inputs": [
        {
          "internalType": "address",
          "name": "series",
          "type": "address"
        },
        {
          "internalType": "uint16",
          "name": "key",
          "type": "uint16"
        }
      ],
      "name": "getContent",
      "outputs": [
        {
          "internalType": "string",
          "name": "",
          "type": "string"
        }
      ],
      "stateMutability": "view",
      "type": "function"
    },
    {
      "inputs": [
        {
          "internalType": "uint16",
          "name": "pluginID",
          "type": "uint16"
        },
        {
          "internalType": "address",
          "name": "pluginAddress",
          "type": "address"
        }
      ],
      "name": "setPluginController",
      "outputs": [],
      "stateMutability": "nonpayable",
      "type": "function"
    }
  ],
  "bytecode": "0x608060405234801561001057600080fd5b50611224806100206000396000f3fe608060405234801561001057600080fd5b506004361061009e5760003560e01c8063715018a611610066578063715018a6146103655780638da5cb5b1461036f578063cc880961146103b9578063e42429ae1461040b578063f2fde38b146104315761009e565b80630b15babc146100a35780631e7b18f214610135578063245c3d301461021e57806355161ef1146102e957806357bd2412146102f3575b600080fd5b6100f3600480360360408110156100b957600080fd5b81019080803573ffffffffffffffffffffffffffffffffffffffff169060200190929190803561ffff169060200190929190505050610475565b604051808273ffffffffffffffffffffffffffffffffffffffff1673ffffffffffffffffffffffffffffffffffffffff16815260200191505060405180910390f35b61021c6004803603606081101561014b57600080fd5b81019080803573ffffffffffffffffffffffffffffffffffffffff169060200190929190803561ffff1690602001909291908035906020019064010000000081111561019657600080fd5b8201836020820111156101a857600080fd5b803590602001918460018302840111640100000000831117156101ca57600080fd5b91908080601f016020809104026020016040519081016040528093929190818152602001838380828437600081840152601f19601f8201169050808301925050505050505091929192905050506104f8565b005b61026e6004803603604081101561023457600080fd5b81019080803573ffffffffffffffffffffffffffffffffffffffff169060200190929190803561ffff1690602001909291905050506106a1565b6040518080602001828103825283818151815260200191508051906020019080838360005b838110156102ae578082015181840152602081019050610293565b50505050905090810190601f1680156102db5780820380516001836020036101000a031916815260200191505b509250505060405180910390f35b6102f161079c565b005b6103636004803603606081101561030957600080fd5b81019080803573ffffffffffffffffffffffffffffffffffffffff169060200190929190803561ffff169060200190929190803573ffffffffffffffffffffffffffffffffffffffff1690602001909291905050506107bc565b005b61036d610978565b005b610377610b03565b604051808273ffffffffffffffffffffffffffffffffffffffff1673ffffffffffffffffffffffffffffffffffffffff16815260200191505060405180910390f35b610409600480360360408110156103cf57600080fd5b81019080803561ffff169060200190929190803573ffffffffffffffffffffffffffffffffffffffff169060200190929190505050610b2d565b005b610413610c55565b604051808261ffff1661ffff16815260200191505060405180910390f35b6104736004803603602081101561044757600080fd5b81019080803573ffffffffffffffffffffffffffffffffffffffff169060200190929190505050610c69565b005b6000606660008473ffffffffffffffffffffffffffffffffffffffff1673ffffffffffffffffffffffffffffffffffffffff16815260200190815260200160002060008361ffff1661ffff16815260200190815260200160002060009054906101000a900473ffffffffffffffffffffffffffffffffffffffff16905092915050565b828261050382610e79565b610575576040517f08c379a000000000000000000000000000000000000000000000000000000000815260040180806020018281038252600e8152602001807f4e6f7420617574686f72697a656400000000000000000000000000000000000081525060200191505060405180910390fd5b82606760008773ffffffffffffffffffffffffffffffffffffffff1673ffffffffffffffffffffffffffffffffffffffff16815260200190815260200160002060008661ffff1661ffff16815260200190815260200160002090805190602001906105e1929190611123565b508361ffff168573ffffffffffffffffffffffffffffffffffffffff167f3e5cb35232b9847a30ff70662e1419f2e5fe64e95098da905eaf3b67924b6954856040518080602001828103825283818151815260200191508051906020019080838360005b83811015610660578082015181840152602081019050610645565b50505050905090810190601f16801561068d5780820380516001836020036101000a031916815260200191505b509250505060405180910390a35050505050565b6060606760008473ffffffffffffffffffffffffffffffffffffffff1673ffffffffffffffffffffffffffffffffffffffff16815260200190815260200160002060008361ffff1661ffff1681526020019081526020016000208054600181600116156101000203166002900480601f01602080910402602001604051908101604052809291908181526020018280546001816001161561010002031660029004801561078f5780601f106107645761010080835404028352916020019161078f565b820191906000526020600020905b81548152906001019060200180831161077257829003601f168201915b5050505050905092915050565b602a606860006101000a81548161ffff021916908361ffff160217905550565b82826107c782610e79565b806107d857506107d78282610f38565b5b806107e957506107e88282610ff0565b5b61085b576040517f08c379a000000000000000000000000000000000000000000000000000000000815260040180806020018281038252600e8152602001807f4e6f7420617574686f72697a656400000000000000000000000000000000000081525060200191505060405180910390fd5b82606660008773ffffffffffffffffffffffffffffffffffffffff1673ffffffffffffffffffffffffffffffffffffffff16815260200190815260200160002060008661ffff1661ffff16815260200190815260200160002060006101000a81548173ffffffffffffffffffffffffffffffffffffffff021916908373ffffffffffffffffffffffffffffffffffffffff1602179055508361ffff168573ffffffffffffffffffffffffffffffffffffffff167f1ec93fbaf16b55afda845ed8b38d373f803e0be3b2de82ae11ef55e35c2fb50985604051808273ffffffffffffffffffffffffffffffffffffffff1673ffffffffffffffffffffffffffffffffffffffff16815260200191505060405180910390a35050505050565b61098061111b565b73ffffffffffffffffffffffffffffffffffffffff16603360009054906101000a900473ffffffffffffffffffffffffffffffffffffffff1673ffffffffffffffffffffffffffffffffffffffff1614610a42576040517f08c379a00000000000000000000000000000000000000000000000000000000081526004018080602001828103825260208152602001807f4f776e61626c653a2063616c6c6572206973206e6f7420746865206f776e657281525060200191505060405180910390fd5b600073ffffffffffffffffffffffffffffffffffffffff16603360009054906101000a900473ffffffffffffffffffffffffffffffffffffffff1673ffffffffffffffffffffffffffffffffffffffff167f8be0079c531659141344cd1fd0a4f28419497f9722a3daafe3b4186f6b6457e060405160405180910390a36000603360006101000a81548173ffffffffffffffffffffffffffffffffffffffff021916908373ffffffffffffffffffffffffffffffffffffffff160217905550565b6000603360009054906101000a900473ffffffffffffffffffffffffffffffffffffffff16905090565b610b3561111b565b73ffffffffffffffffffffffffffffffffffffffff16603360009054906101000a900473ffffffffffffffffffffffffffffffffffffffff1673ffffffffffffffffffffffffffffffffffffffff1614610bf7576040517f08c379a00000000000000000000000000000000000000000000000000000000081526004018080602001828103825260208152602001807f4f776e61626c653a2063616c6c6572206973206e6f7420746865206f776e657281525060200191505060405180910390fd5b80606560008461ffff1661ffff16815260200190815260200160002060006101000a81548173ffffffffffffffffffffffffffffffffffffffff021916908373ffffffffffffffffffffffffffffffffffffffff1602179055505050565b606860009054906101000a900461ffff1681565b610c7161111b565b73ffffffffffffffffffffffffffffffffffffffff16603360009054906101000a900473ffffffffffffffffffffffffffffffffffffffff1673ffffffffffffffffffffffffffffffffffffffff1614610d33576040517f08c379a00000000000000000000000000000000000000000000000000000000081526004018080602001828103825260208152602001807f4f776e61626c653a2063616c6c6572206973206e6f7420746865206f776e657281525060200191505060405180910390fd5b600073ffffffffffffffffffffffffffffffffffffffff168173ffffffffffffffffffffffffffffffffffffffff161415610db9576040517f08c379a00000000000000000000000000000000000000000000000000000000081526004018080602001828103825260268152602001806111c96026913960400191505060405180910390fd5b8073ffffffffffffffffffffffffffffffffffffffff16603360009054906101000a900473ffffffffffffffffffffffffffffffffffffffff1673ffffffffffffffffffffffffffffffffffffffff167f8be0079c531659141344cd1fd0a4f28419497f9722a3daafe3b4186f6b6457e060405160405180910390a380603360006101000a81548173ffffffffffffffffffffffffffffffffffffffff021916908373ffffffffffffffffffffffffffffffffffffffff16021790555050565b6000610e8361111b565b73ffffffffffffffffffffffffffffffffffffffff168273ffffffffffffffffffffffffffffffffffffffff16638da5cb5b6040518163ffffffff1660e01b815260040160206040518083038186803b158015610edf57600080fd5b505afa158015610ef3573d6000803e3d6000fd5b505050506040513d6020811015610f0957600080fd5b810190808051906020019092919050505073ffffffffffffffffffffffffffffffffffffffff16149050919050565b6000610f4261111b565b73ffffffffffffffffffffffffffffffffffffffff16606660008573ffffffffffffffffffffffffffffffffffffffff1673ffffffffffffffffffffffffffffffffffffffff16815260200190815260200160002060008461ffff1661ffff16815260200190815260200160002060009054906101000a900473ffffffffffffffffffffffffffffffffffffffff1673ffffffffffffffffffffffffffffffffffffffff1614905092915050565b6000606560008361ffff1661ffff16815260200190815260200160002060009054906101000a900473ffffffffffffffffffffffffffffffffffffffff1673ffffffffffffffffffffffffffffffffffffffff1661104c61111b565b73ffffffffffffffffffffffffffffffffffffffff161480156111135750600073ffffffffffffffffffffffffffffffffffffffff16606660008573ffffffffffffffffffffffffffffffffffffffff1673ffffffffffffffffffffffffffffffffffffffff16815260200190815260200160002060008461ffff1661ffff16815260200190815260200160002060009054906101000a900473ffffffffffffffffffffffffffffffffffffffff1673ffffffffffffffffffffffffffffffffffffffff16145b905092915050565b600033905090565b828054600181600116156101000203166002900490600052602060002090601f016020900481019282601f1061116457805160ff1916838001178555611192565b82800160010185558215611192579182015b82811115611191578251825591602001919060010190611176565b5b50905061119f91906111a3565b5090565b6111c591905b808211156111c15760008160009055506001016111a9565b5090565b9056fe4f776e61626c653a206e6577206f776e657220697320746865207a65726f2061646472657373a26469706673582212207065d8530dc86d411acb333ef799d3aadfda64ff47960f02a215fcbd3b445e5664736f6c63430006000033",
  "source": "// SPDX-License-Identifier: UNLICENSED\npragma solidity 0.6.0;\n\nimport '@openzeppelin/contracts-upgradeable/access/OwnableUpgradeable.sol';\nimport '@openzeppelin/contracts-upgradeable/proxy/Initializable.sol';\n/**\n * Master Registry Contract.\n */\ncontract MasterRegistryV2 is Initializable, OwnableUpgradeable {\n\n    event RecordChanged(address indexed series, uint16 indexed key, address value);\n    event ContentChanged(address indexed series, uint16 indexed key, string value);\n\n    // Mapping PluginID => Pluggin contract address\n    mapping(uint16=>address) private plugins;\n    // Mapping Series Address => PluginID => Deployd Contract Address \n    mapping(address=>mapping(uint16=>address)) private records;\n    // Mapping Series Address => PluginID => Content\n    mapping(address=>mapping(uint16=>string)) private contents;\n    uint16 public testVariable;\n\n    /**\n     * Modifier that only allow the following entities change content:\n     * - Series owners\n     * - Plugin itself in case of empty series record\n     * - Current module itself addressed by record\n     * @param _series The plugin index to update.\n     * @param _key The new address where remains the plugin.\n     */\n    modifier authorizedRecord(address _series, uint16 _key) {\n        require(isSeriesOwner(_series) ||\n        isRecordItself(_series, _key) || \n        isRecordPlugin(_series, _key), \"Not authorized\");\n        _;\n    }\n    \n    /**\n     * Modifier to allow only series owners to change content.\n     * @param _series The plugin index to update.\n     * @param _key The new address where remains the plugin.\n     */\n    modifier onlySeriesOwner(address _series, uint16 _key) {\n        require(isSeriesOwner(_series), \"Not authorized\");\n        _;\n    }\n\n    function setTestVariable() external {\n        testVariable = 42;\n    }\n\n    /**\n     * Sets the module contract associated with an Series and record.\n     * May only be called by the owner of that series, module itself or record plugin itself.\n     * @param series The series to update.\n     * @param key The key to set.\n     * @param value The text data value to set.\n     */\n    function setRecord(address series, uint16 key, address value) public authorizedRecord(series, key) {\n        records[series][key] = value;\n        emit RecordChanged(series, key, value);\n    }\n\n    /**\n     * Returns the data associated with an record Series and Key.\n     * @param series The series node to query.\n     * @param key The text data key to query.\n     * @return The associated text data.\n     */\n    function getRecord(address series, uint16 key) public view returns (address) {\n        return records[series][key];\n    }\n\n    /**\n     * Sets the content data associated with an Series and key.\n     * May only be called by the owner of that series.\n     * @param series The series to update.\n     * @param key The key to set.\n     * @param value The text data value to set.\n     */\n    function setContent(address series, uint16 key, string memory value) public onlySeriesOwner(series, key) {\n        contents[series][key] = value;\n        emit ContentChanged(series, key, value);\n    }\n\n    /**\n     * Returns the content associated with an content Series and Key.\n     * @param series The series node to query.\n     * @param key The text data key to query.\n     * @return The associated text data.\n     */\n    function getContent(address series, uint16 key) public view returns (string memory) {\n        return contents[series][key];\n    }\n\n    /**\n     * Sets the plugin that controls specific entry on records.\n     * Only owner of this contract has permission.\n     * @param pluginID The plugin index to update.\n     * @param pluginAddress The new address where remains the plugin.\n     */\n    function setPluginController(uint16 pluginID, address pluginAddress) public onlyOwner {\n        plugins[pluginID] = pluginAddress;\n    }\n\n    function isSeriesOwner(address _series) private view returns (bool) {\n        return OwnableUpgradeable(_series).owner() == _msgSender();\n    }\n\n    function isRecordItself(address _series, uint16 _key) private view returns (bool) {\n        return records[_series][_key] == _msgSender();\n    }\n\n    function isRecordPlugin(address _series, uint16 _key) private view returns (bool) {\n        return _msgSender() == plugins[_key] && records[_series][_key] == address(0);\n    }\n}",
  "sourcePath": "/Users/filipemsoccol/Documents/doiim/otoco-smart-contracts/contracts/MasterRegistryV2.sol",
  "compiler": {
    "name": "solc",
    "version": "0.6.0+commit.26b70077.Emscripten.clang"
  },
  "schemaVersion": "3.3.2",
  "updatedAt": "2020-11-28T13:59:07.918Z",
  "devdoc": {
    "methods": {
      "getContent(address,uint16)": {
        "params": {
          "key": "The text data key to query.",
          "series": "The series node to query."
        },
        "returns": {
          "_0": "The associated text data."
        }
      },
      "getRecord(address,uint16)": {
        "params": {
          "key": "The text data key to query.",
          "series": "The series node to query."
        },
        "returns": {
          "_0": "The associated text data."
        }
      },
      "owner()": {
        "details": "Returns the address of the current owner."
      },
      "renounceOwnership()": {
        "details": "Leaves the contract without owner. It will not be possible to call `onlyOwner` functions anymore. Can only be called by the current owner.     * NOTE: Renouncing ownership will leave the contract without an owner, thereby removing any functionality that is only available to the owner."
      },
      "setContent(address,uint16,string)": {
        "params": {
          "key": "The key to set.",
          "series": "The series to update.",
          "value": "The text data value to set."
        }
      },
      "setPluginController(uint16,address)": {
        "params": {
          "pluginAddress": "The new address where remains the plugin.",
          "pluginID": "The plugin index to update."
        }
      },
      "setRecord(address,uint16,address)": {
        "params": {
          "key": "The key to set.",
          "series": "The series to update.",
          "value": "The text data value to set."
        }
      },
      "transferOwnership(address)": {
        "details": "Transfers ownership of the contract to a new account (`newOwner`). Can only be called by the current owner."
      }
    }
  },
  "userdoc": {
    "methods": {
      "getContent(address,uint16)": {
        "notice": "Returns the content associated with an content Series and Key."
      },
      "getRecord(address,uint16)": {
        "notice": "Returns the data associated with an record Series and Key."
      },
      "setContent(address,uint16,string)": {
        "notice": "Sets the content data associated with an Series and key. May only be called by the owner of that series."
      },
      "setPluginController(uint16,address)": {
        "notice": "Sets the plugin that controls specific entry on records. Only owner of this contract has permission."
      },
      "setRecord(address,uint16,address)": {
        "notice": "Sets the module contract associated with an Series and record. May only be called by the owner of that series, module itself or record plugin itself."
      }
    },
    "notice": "Master Registry Contract."
  }
}