{
  "contractName": "MasterRegistryV2",
  "abi": [
    {
      "anonymous": false,
      "inputs": [
        {
          "indexed": true,
          "internalType": "address",
          "name": "series",
          "type": "address"
        },
        {
          "indexed": true,
          "internalType": "uint16",
          "name": "key",
          "type": "uint16"
        },
        {
          "indexed": false,
          "internalType": "string",
          "name": "value",
          "type": "string"
        }
      ],
      "name": "ContentChanged",
      "type": "event"
    },
    {
      "anonymous": false,
      "inputs": [
        {
          "indexed": true,
          "internalType": "address",
          "name": "series",
          "type": "address"
        },
        {
          "indexed": false,
          "internalType": "uint256",
          "name": "timestamp",
          "type": "uint256"
        },
        {
          "indexed": false,
          "internalType": "string",
          "name": "filename",
          "type": "string"
        },
        {
          "indexed": false,
          "internalType": "string",
          "name": "cid",
          "type": "string"
        }
      ],
      "name": "DocumentTimestamped",
      "type": "event"
    },
    {
      "anonymous": false,
      "inputs": [
        {
          "indexed": true,
          "internalType": "address",
          "name": "previousOwner",
          "type": "address"
        },
        {
          "indexed": true,
          "internalType": "address",
          "name": "newOwner",
          "type": "address"
        }
      ],
      "name": "OwnershipTransferred",
      "type": "event"
    },
    {
      "anonymous": false,
      "inputs": [
        {
          "indexed": true,
          "internalType": "address",
          "name": "series",
          "type": "address"
        },
        {
          "indexed": true,
          "internalType": "uint16",
          "name": "key",
          "type": "uint16"
        },
        {
          "indexed": false,
          "internalType": "address",
          "name": "value",
          "type": "address"
        }
      ],
      "name": "RecordChanged",
      "type": "event"
    },
    {
      "inputs": [],
      "name": "owner",
      "outputs": [
        {
          "internalType": "address",
          "name": "",
          "type": "address"
        }
      ],
      "stateMutability": "view",
      "type": "function",
      "constant": true
    },
    {
      "inputs": [],
      "name": "renounceOwnership",
      "outputs": [],
      "stateMutability": "nonpayable",
      "type": "function"
    },
    {
      "inputs": [
        {
          "internalType": "address",
          "name": "newOwner",
          "type": "address"
        }
      ],
      "name": "transferOwnership",
      "outputs": [],
      "stateMutability": "nonpayable",
      "type": "function"
    },
    {
      "inputs": [
        {
          "internalType": "address",
          "name": "series",
          "type": "address"
        },
        {
          "internalType": "uint16",
          "name": "key",
          "type": "uint16"
        },
        {
          "internalType": "address",
          "name": "value",
          "type": "address"
        }
      ],
      "name": "setRecord",
      "outputs": [],
      "stateMutability": "nonpayable",
      "type": "function"
    },
    {
      "inputs": [
        {
          "internalType": "address",
          "name": "series",
          "type": "address"
        },
        {
          "internalType": "uint16",
          "name": "key",
          "type": "uint16"
        }
      ],
      "name": "getRecord",
      "outputs": [
        {
          "internalType": "address",
          "name": "",
          "type": "address"
        }
      ],
      "stateMutability": "view",
      "type": "function",
      "constant": true
    },
    {
      "inputs": [
        {
          "internalType": "address",
          "name": "series",
          "type": "address"
        },
        {
          "internalType": "uint16",
          "name": "key",
          "type": "uint16"
        },
        {
          "internalType": "string",
          "name": "value",
          "type": "string"
        }
      ],
      "name": "setContent",
      "outputs": [],
      "stateMutability": "nonpayable",
      "type": "function"
    },
    {
      "inputs": [
        {
          "internalType": "address",
          "name": "series",
          "type": "address"
        },
        {
          "internalType": "uint16",
          "name": "key",
          "type": "uint16"
        }
      ],
      "name": "getContent",
      "outputs": [
        {
          "internalType": "string",
          "name": "",
          "type": "string"
        }
      ],
      "stateMutability": "view",
      "type": "function",
      "constant": true
    },
    {
      "inputs": [
        {
          "internalType": "uint16",
          "name": "pluginID",
          "type": "uint16"
        },
        {
          "internalType": "address",
          "name": "pluginAddress",
          "type": "address"
        }
      ],
      "name": "setPluginController",
      "outputs": [],
      "stateMutability": "nonpayable",
      "type": "function"
    },
    {
      "inputs": [
        {
          "internalType": "address",
          "name": "series",
          "type": "address"
        },
        {
          "internalType": "string",
          "name": "filename",
          "type": "string"
        },
        {
          "internalType": "string",
          "name": "cid",
          "type": "string"
        }
      ],
      "name": "addTimestamp",
      "outputs": [],
      "stateMutability": "nonpayable",
      "type": "function"
    }
  ],
  "bytecode": "0x608060405234801561001057600080fd5b506114d4806100206000396000f3fe608060405234801561001057600080fd5b50600436106100935760003560e01c8063715018a611610066578063715018a6146103505780638da5cb5b1461035a578063cc880961146103a4578063e9d2426c146103f6578063f2fde38b1461056857610093565b80630b15babc146100985780631e7b18f21461012a578063245c3d301461021357806357bd2412146102de575b600080fd5b6100e8600480360360408110156100ae57600080fd5b81019080803573ffffffffffffffffffffffffffffffffffffffff169060200190929190803561ffff1690602001909291905050506105ac565b604051808273ffffffffffffffffffffffffffffffffffffffff1673ffffffffffffffffffffffffffffffffffffffff16815260200191505060405180910390f35b6102116004803603606081101561014057600080fd5b81019080803573ffffffffffffffffffffffffffffffffffffffff169060200190929190803561ffff1690602001909291908035906020019064010000000081111561018b57600080fd5b82018360208201111561019d57600080fd5b803590602001918460018302840111640100000000831117156101bf57600080fd5b91908080601f016020809104026020016040519081016040528093929190818152602001838380828437600081840152601f19601f82011690508083019250505050505050919291929050505061062f565b005b6102636004803603604081101561022957600080fd5b81019080803573ffffffffffffffffffffffffffffffffffffffff169060200190929190803561ffff1690602001909291905050506107d8565b6040518080602001828103825283818151815260200191508051906020019080838360005b838110156102a3578082015181840152602081019050610288565b50505050905090810190601f1680156102d05780820380516001836020036101000a031916815260200191505b509250505060405180910390f35b61034e600480360360608110156102f457600080fd5b81019080803573ffffffffffffffffffffffffffffffffffffffff169060200190929190803561ffff169060200190929190803573ffffffffffffffffffffffffffffffffffffffff1690602001909291905050506108d3565b005b610358610a8f565b005b610362610c1a565b604051808273ffffffffffffffffffffffffffffffffffffffff1673ffffffffffffffffffffffffffffffffffffffff16815260200191505060405180910390f35b6103f4600480360360408110156103ba57600080fd5b81019080803561ffff169060200190929190803573ffffffffffffffffffffffffffffffffffffffff169060200190929190505050610c44565b005b6105666004803603606081101561040c57600080fd5b81019080803573ffffffffffffffffffffffffffffffffffffffff1690602001909291908035906020019064010000000081111561044957600080fd5b82018360208201111561045b57600080fd5b8035906020019184600183028401116401000000008311171561047d57600080fd5b91908080601f016020809104026020016040519081016040528093929190818152602001838380828437600081840152601f19601f820116905080830192505050505050509192919290803590602001906401000000008111156104e057600080fd5b8201836020820111156104f257600080fd5b8035906020019184600183028401116401000000008311171561051457600080fd5b91908080601f016020809104026020016040519081016040528093929190818152602001838380828437600081840152601f19601f820116905080830192505050505050509192919290505050610d6c565b005b6105aa6004803603602081101561057e57600080fd5b81019080803573ffffffffffffffffffffffffffffffffffffffff169060200190929190505050610f19565b005b6000606660008473ffffffffffffffffffffffffffffffffffffffff1673ffffffffffffffffffffffffffffffffffffffff16815260200190815260200160002060008361ffff1661ffff16815260200190815260200160002060009054906101000a900473ffffffffffffffffffffffffffffffffffffffff16905092915050565b828261063a82611129565b6106ac576040517f08c379a000000000000000000000000000000000000000000000000000000000815260040180806020018281038252600e8152602001807f4e6f7420617574686f72697a656400000000000000000000000000000000000081525060200191505060405180910390fd5b82606760008773ffffffffffffffffffffffffffffffffffffffff1673ffffffffffffffffffffffffffffffffffffffff16815260200190815260200160002060008661ffff1661ffff16815260200190815260200160002090805190602001906107189291906113d3565b508361ffff168573ffffffffffffffffffffffffffffffffffffffff167f3e5cb35232b9847a30ff70662e1419f2e5fe64e95098da905eaf3b67924b6954856040518080602001828103825283818151815260200191508051906020019080838360005b8381101561079757808201518184015260208101905061077c565b50505050905090810190601f1680156107c45780820380516001836020036101000a031916815260200191505b509250505060405180910390a35050505050565b6060606760008473ffffffffffffffffffffffffffffffffffffffff1673ffffffffffffffffffffffffffffffffffffffff16815260200190815260200160002060008361ffff1661ffff1681526020019081526020016000208054600181600116156101000203166002900480601f0160208091040260200160405190810160405280929190818152602001828054600181600116156101000203166002900480156108c65780601f1061089b576101008083540402835291602001916108c6565b820191906000526020600020905b8154815290600101906020018083116108a957829003601f168201915b5050505050905092915050565b82826108de82611129565b806108ef57506108ee82826111e8565b5b8061090057506108ff82826112a0565b5b610972576040517f08c379a000000000000000000000000000000000000000000000000000000000815260040180806020018281038252600e8152602001807f4e6f7420617574686f72697a656400000000000000000000000000000000000081525060200191505060405180910390fd5b82606660008773ffffffffffffffffffffffffffffffffffffffff1673ffffffffffffffffffffffffffffffffffffffff16815260200190815260200160002060008661ffff1661ffff16815260200190815260200160002060006101000a81548173ffffffffffffffffffffffffffffffffffffffff021916908373ffffffffffffffffffffffffffffffffffffffff1602179055508361ffff168573ffffffffffffffffffffffffffffffffffffffff167f1ec93fbaf16b55afda845ed8b38d373f803e0be3b2de82ae11ef55e35c2fb50985604051808273ffffffffffffffffffffffffffffffffffffffff1673ffffffffffffffffffffffffffffffffffffffff16815260200191505060405180910390a35050505050565b610a976113cb565b73ffffffffffffffffffffffffffffffffffffffff16603360009054906101000a900473ffffffffffffffffffffffffffffffffffffffff1673ffffffffffffffffffffffffffffffffffffffff1614610b59576040517f08c379a00000000000000000000000000000000000000000000000000000000081526004018080602001828103825260208152602001807f4f776e61626c653a2063616c6c6572206973206e6f7420746865206f776e657281525060200191505060405180910390fd5b600073ffffffffffffffffffffffffffffffffffffffff16603360009054906101000a900473ffffffffffffffffffffffffffffffffffffffff1673ffffffffffffffffffffffffffffffffffffffff167f8be0079c531659141344cd1fd0a4f28419497f9722a3daafe3b4186f6b6457e060405160405180910390a36000603360006101000a81548173ffffffffffffffffffffffffffffffffffffffff021916908373ffffffffffffffffffffffffffffffffffffffff160217905550565b6000603360009054906101000a900473ffffffffffffffffffffffffffffffffffffffff16905090565b610c4c6113cb565b73ffffffffffffffffffffffffffffffffffffffff16603360009054906101000a900473ffffffffffffffffffffffffffffffffffffffff1673ffffffffffffffffffffffffffffffffffffffff1614610d0e576040517f08c379a00000000000000000000000000000000000000000000000000000000081526004018080602001828103825260208152602001807f4f776e61626c653a2063616c6c6572206973206e6f7420746865206f776e657281525060200191505060405180910390fd5b80606560008461ffff1661ffff16815260200190815260200160002060006101000a81548173ffffffffffffffffffffffffffffffffffffffff021916908373ffffffffffffffffffffffffffffffffffffffff1602179055505050565b826001610d7882611129565b610dea576040517f08c379a000000000000000000000000000000000000000000000000000000000815260040180806020018281038252600e8152602001807f4e6f7420617574686f72697a656400000000000000000000000000000000000081525060200191505060405180910390fd5b8473ffffffffffffffffffffffffffffffffffffffff167faaaaf7b7e009ce138b0c01e5d6d329d749740451d4d55022e51ea51c62c333d2428686604051808481526020018060200180602001838103835285818151815260200191508051906020019080838360005b83811015610e6f578082015181840152602081019050610e54565b50505050905090810190601f168015610e9c5780820380516001836020036101000a031916815260200191505b50838103825284818151815260200191508051906020019080838360005b83811015610ed5578082015181840152602081019050610eba565b50505050905090810190601f168015610f025780820380516001836020036101000a031916815260200191505b509550505050505060405180910390a25050505050565b610f216113cb565b73ffffffffffffffffffffffffffffffffffffffff16603360009054906101000a900473ffffffffffffffffffffffffffffffffffffffff1673ffffffffffffffffffffffffffffffffffffffff1614610fe3576040517f08c379a00000000000000000000000000000000000000000000000000000000081526004018080602001828103825260208152602001807f4f776e61626c653a2063616c6c6572206973206e6f7420746865206f776e657281525060200191505060405180910390fd5b600073ffffffffffffffffffffffffffffffffffffffff168173ffffffffffffffffffffffffffffffffffffffff161415611069576040517f08c379a00000000000000000000000000000000000000000000000000000000081526004018080602001828103825260268152602001806114796026913960400191505060405180910390fd5b8073ffffffffffffffffffffffffffffffffffffffff16603360009054906101000a900473ffffffffffffffffffffffffffffffffffffffff1673ffffffffffffffffffffffffffffffffffffffff167f8be0079c531659141344cd1fd0a4f28419497f9722a3daafe3b4186f6b6457e060405160405180910390a380603360006101000a81548173ffffffffffffffffffffffffffffffffffffffff021916908373ffffffffffffffffffffffffffffffffffffffff16021790555050565b60006111336113cb565b73ffffffffffffffffffffffffffffffffffffffff168273ffffffffffffffffffffffffffffffffffffffff16638da5cb5b6040518163ffffffff1660e01b815260040160206040518083038186803b15801561118f57600080fd5b505afa1580156111a3573d6000803e3d6000fd5b505050506040513d60208110156111b957600080fd5b810190808051906020019092919050505073ffffffffffffffffffffffffffffffffffffffff16149050919050565b60006111f26113cb565b73ffffffffffffffffffffffffffffffffffffffff16606660008573ffffffffffffffffffffffffffffffffffffffff1673ffffffffffffffffffffffffffffffffffffffff16815260200190815260200160002060008461ffff1661ffff16815260200190815260200160002060009054906101000a900473ffffffffffffffffffffffffffffffffffffffff1673ffffffffffffffffffffffffffffffffffffffff1614905092915050565b6000606560008361ffff1661ffff16815260200190815260200160002060009054906101000a900473ffffffffffffffffffffffffffffffffffffffff1673ffffffffffffffffffffffffffffffffffffffff166112fc6113cb565b73ffffffffffffffffffffffffffffffffffffffff161480156113c35750600073ffffffffffffffffffffffffffffffffffffffff16606660008573ffffffffffffffffffffffffffffffffffffffff1673ffffffffffffffffffffffffffffffffffffffff16815260200190815260200160002060008461ffff1661ffff16815260200190815260200160002060009054906101000a900473ffffffffffffffffffffffffffffffffffffffff1673ffffffffffffffffffffffffffffffffffffffff16145b905092915050565b600033905090565b828054600181600116156101000203166002900490600052602060002090601f016020900481019282601f1061141457805160ff1916838001178555611442565b82800160010185558215611442579182015b82811115611441578251825591602001919060010190611426565b5b50905061144f9190611453565b5090565b61147591905b80821115611471576000816000905550600101611459565b5090565b9056fe4f776e61626c653a206e6577206f776e657220697320746865207a65726f2061646472657373a2646970667358221220ba1590b439b13c50b56b8f37cb10a7de8b23b6575f17658a959ae6ee3d52e6f464736f6c63430006000033",
  "source": "// SPDX-License-Identifier: UNLICENSED\npragma solidity 0.6.0;\n\nimport '@openzeppelin/contracts-upgradeable/access/OwnableUpgradeable.sol';\nimport '@openzeppelin/contracts-upgradeable/proxy/Initializable.sol';\n/**\n * Master Registry Contract.\n */\ncontract MasterRegistryV2 is Initializable, OwnableUpgradeable {\n\n    event RecordChanged(address indexed series, uint16 indexed key, address value);\n    event ContentChanged(address indexed series, uint16 indexed key, string value);\n    event DocumentTimestamped(address indexed series, uint256 timestamp, string filename, string cid);\n\n    // Mapping PluginID => Pluggin contract address\n    mapping(uint16=>address) private plugins;\n    // Mapping Series Address => PluginID => Deployd Contract Address \n    mapping(address=>mapping(uint16=>address)) private records;\n    // Mapping Series Address => PluginID => Content\n    mapping(address=>mapping(uint16=>string)) private contents;\n\n    /**\n     * Modifier that only allow the following entities change content:\n     * - Series owners\n     * - Plugin itself in case of empty series record\n     * - Current module itself addressed by record\n     * @param _series The plugin index to update.\n     * @param _key The new address where remains the plugin.\n     */\n    modifier authorizedRecord(address _series, uint16 _key) {\n        require(isSeriesOwner(_series) ||\n        isRecordItself(_series, _key) || \n        isRecordPlugin(_series, _key), \"Not authorized\");\n        _;\n    }\n    \n    /**\n     * Modifier to allow only series owners to change content.\n     * @param _series The plugin index to update.\n     * @param _key The new address where remains the plugin.\n     */\n    modifier onlySeriesOwner(address _series, uint16 _key) {\n        require(isSeriesOwner(_series), \"Not authorized\");\n        _;\n    }\n\n    /**\n     * Sets the module contract associated with an Series and record.\n     * May only be called by the owner of that series, module itself or record plugin itself.\n     * @param series The series to update.\n     * @param key The key to set.\n     * @param value The text data value to set.\n     */\n    function setRecord(address series, uint16 key, address value) public authorizedRecord(series, key) {\n        records[series][key] = value;\n        emit RecordChanged(series, key, value);\n    }\n\n    /**\n     * Returns the data associated with an record Series and Key.\n     * @param series The series node to query.\n     * @param key The text data key to query.\n     * @return The associated text data.\n     */\n    function getRecord(address series, uint16 key) public view returns (address) {\n        return records[series][key];\n    }\n\n    /**\n     * Sets the content data associated with an Series and key.\n     * May only be called by the owner of that series.\n     * @param series The series to update.\n     * @param key The key to set.\n     * @param value The text data value to set.\n     */\n    function setContent(address series, uint16 key, string memory value) public onlySeriesOwner(series, key) {\n        contents[series][key] = value;\n        emit ContentChanged(series, key, value);\n    }\n\n    /**\n     * Returns the content associated with an content Series and Key.\n     * @param series The series node to query.\n     * @param key The text data key to query.\n     * @return The associated text data.\n     */\n    function getContent(address series, uint16 key) public view returns (string memory) {\n        return contents[series][key];\n    }\n\n    /**\n     * Sets the plugin that controls specific entry on records.\n     * Only owner of this contract has permission.\n     * @param pluginID The plugin index to update.\n     * @param pluginAddress The new address where remains the plugin.\n     */\n    function setPluginController(uint16 pluginID, address pluginAddress) public onlyOwner {\n        plugins[pluginID] = pluginAddress;\n    }\n\n    /**\n    @notice Sets the module contract associated with an Series and record.\n    May only be called by the owner of that series, module itself or record plugin itself.\n    @param series The series to update.\n    @param cid The hash content to be added.\n     */\n    function addTimestamp(address series, string memory filename, string memory cid) public onlySeriesOwner(series, 1) {\n        //DocumentEntry memory doc = DocumentEntry(value, block.timestamp);\n        //timestamps[series].push(doc);\n        emit DocumentTimestamped(series, block.timestamp, filename, cid);\n    }\n\n    function isSeriesOwner(address _series) private view returns (bool) {\n        return OwnableUpgradeable(_series).owner() == _msgSender();\n    }\n\n    function isRecordItself(address _series, uint16 _key) private view returns (bool) {\n        return records[_series][_key] == _msgSender();\n    }\n\n    function isRecordPlugin(address _series, uint16 _key) private view returns (bool) {\n        return _msgSender() == plugins[_key] && records[_series][_key] == address(0);\n    }\n}",
  "sourcePath": "/Users/filipemsoccol/Documents/doiim/otoco-smart-contracts/contracts/MasterRegistryV2.sol",
  "compiler": {
    "name": "solc",
    "version": "0.6.0+commit.26b70077.Emscripten.clang"
  },
  "schemaVersion": "3.4.4",
  "updatedAt": "2022-03-25T13:14:29.946Z",
  "networkType": "ethereum",
  "devdoc": {
    "methods": {
      "addTimestamp(address,string,string)": {
        "params": {
          "cid": "The hash content to be added.",
          "series": "The series to update."
        }
      },
      "getContent(address,uint16)": {
        "params": {
          "key": "The text data key to query.",
          "series": "The series node to query."
        },
        "returns": {
          "_0": "The associated text data."
        }
      },
      "getRecord(address,uint16)": {
        "params": {
          "key": "The text data key to query.",
          "series": "The series node to query."
        },
        "returns": {
          "_0": "The associated text data."
        }
      },
      "owner()": {
        "details": "Returns the address of the current owner."
      },
      "renounceOwnership()": {
        "details": "Leaves the contract without owner. It will not be possible to call `onlyOwner` functions anymore. Can only be called by the current owner.     * NOTE: Renouncing ownership will leave the contract without an owner, thereby removing any functionality that is only available to the owner."
      },
      "setContent(address,uint16,string)": {
        "params": {
          "key": "The key to set.",
          "series": "The series to update.",
          "value": "The text data value to set."
        }
      },
      "setPluginController(uint16,address)": {
        "params": {
          "pluginAddress": "The new address where remains the plugin.",
          "pluginID": "The plugin index to update."
        }
      },
      "setRecord(address,uint16,address)": {
        "params": {
          "key": "The key to set.",
          "series": "The series to update.",
          "value": "The text data value to set."
        }
      },
      "transferOwnership(address)": {
        "details": "Transfers ownership of the contract to a new account (`newOwner`). Can only be called by the current owner."
      }
    }
  },
  "userdoc": {
    "methods": {
      "addTimestamp(address,string,string)": {
        "notice": "Sets the module contract associated with an Series and record. May only be called by the owner of that series, module itself or record plugin itself."
      },
      "getContent(address,uint16)": {
        "notice": "Returns the content associated with an content Series and Key."
      },
      "getRecord(address,uint16)": {
        "notice": "Returns the data associated with an record Series and Key."
      },
      "setContent(address,uint16,string)": {
        "notice": "Sets the content data associated with an Series and key. May only be called by the owner of that series."
      },
      "setPluginController(uint16,address)": {
        "notice": "Sets the plugin that controls specific entry on records. Only owner of this contract has permission."
      },
      "setRecord(address,uint16,address)": {
        "notice": "Sets the module contract associated with an Series and record. May only be called by the owner of that series, module itself or record plugin itself."
      }
    },
    "notice": "Master Registry Contract."
  }
}