{
  "contractName": "MasterRegistry",
  "abi": [
    {
      "anonymous": false,
      "inputs": [
        {
          "indexed": true,
          "internalType": "address",
          "name": "series",
          "type": "address"
        },
        {
          "indexed": true,
          "internalType": "uint16",
          "name": "key",
          "type": "uint16"
        },
        {
          "indexed": false,
          "internalType": "string",
          "name": "value",
          "type": "string"
        }
      ],
      "name": "ContentChanged",
      "type": "event"
    },
    {
      "anonymous": false,
      "inputs": [
        {
          "indexed": true,
          "internalType": "address",
          "name": "previousOwner",
          "type": "address"
        },
        {
          "indexed": true,
          "internalType": "address",
          "name": "newOwner",
          "type": "address"
        }
      ],
      "name": "OwnershipTransferred",
      "type": "event"
    },
    {
      "anonymous": false,
      "inputs": [
        {
          "indexed": true,
          "internalType": "address",
          "name": "series",
          "type": "address"
        },
        {
          "indexed": true,
          "internalType": "uint16",
          "name": "key",
          "type": "uint16"
        },
        {
          "indexed": false,
          "internalType": "address",
          "name": "value",
          "type": "address"
        }
      ],
      "name": "RecordChanged",
      "type": "event"
    },
    {
      "inputs": [],
      "name": "owner",
      "outputs": [
        {
          "internalType": "address",
          "name": "",
          "type": "address"
        }
      ],
      "stateMutability": "view",
      "type": "function",
      "constant": true
    },
    {
      "inputs": [],
      "name": "renounceOwnership",
      "outputs": [],
      "stateMutability": "nonpayable",
      "type": "function"
    },
    {
      "inputs": [
        {
          "internalType": "address",
          "name": "newOwner",
          "type": "address"
        }
      ],
      "name": "transferOwnership",
      "outputs": [],
      "stateMutability": "nonpayable",
      "type": "function"
    },
    {
      "inputs": [
        {
          "internalType": "address[]",
          "name": "previousSeries",
          "type": "address[]"
        },
        {
          "internalType": "address[]",
          "name": "previousTokens",
          "type": "address[]"
        }
      ],
      "name": "initialize",
      "outputs": [],
      "stateMutability": "nonpayable",
      "type": "function"
    },
    {
      "inputs": [
        {
          "internalType": "address",
          "name": "series",
          "type": "address"
        },
        {
          "internalType": "uint16",
          "name": "key",
          "type": "uint16"
        },
        {
          "internalType": "address",
          "name": "value",
          "type": "address"
        }
      ],
      "name": "setRecord",
      "outputs": [],
      "stateMutability": "nonpayable",
      "type": "function"
    },
    {
      "inputs": [
        {
          "internalType": "address",
          "name": "series",
          "type": "address"
        },
        {
          "internalType": "uint16",
          "name": "key",
          "type": "uint16"
        }
      ],
      "name": "getRecord",
      "outputs": [
        {
          "internalType": "address",
          "name": "",
          "type": "address"
        }
      ],
      "stateMutability": "view",
      "type": "function",
      "constant": true
    },
    {
      "inputs": [
        {
          "internalType": "address",
          "name": "series",
          "type": "address"
        },
        {
          "internalType": "uint16",
          "name": "key",
          "type": "uint16"
        },
        {
          "internalType": "string",
          "name": "value",
          "type": "string"
        }
      ],
      "name": "setContent",
      "outputs": [],
      "stateMutability": "nonpayable",
      "type": "function"
    },
    {
      "inputs": [
        {
          "internalType": "address",
          "name": "series",
          "type": "address"
        },
        {
          "internalType": "uint16",
          "name": "key",
          "type": "uint16"
        }
      ],
      "name": "getContent",
      "outputs": [
        {
          "internalType": "string",
          "name": "",
          "type": "string"
        }
      ],
      "stateMutability": "view",
      "type": "function",
      "constant": true
    },
    {
      "inputs": [
        {
          "internalType": "uint16",
          "name": "pluginID",
          "type": "uint16"
        },
        {
          "internalType": "address",
          "name": "pluginAddress",
          "type": "address"
        }
      ],
      "name": "setPluginController",
      "outputs": [],
      "stateMutability": "nonpayable",
      "type": "function"
    }
  ],
  "bytecode": "0x608060405234801561001057600080fd5b50611925806100206000396000f3fe608060405234801561001057600080fd5b50600436106100935760003560e01c8063715018a611610066578063715018a61461035057806373cf25f81461035a5780638da5cb5b14610428578063cc88096114610472578063f2fde38b146104c457610093565b80630b15babc146100985780631e7b18f21461012a578063245c3d301461021357806357bd2412146102de575b600080fd5b6100e8600480360360408110156100ae57600080fd5b81019080803573ffffffffffffffffffffffffffffffffffffffff169060200190929190803561ffff169060200190929190505050610508565b604051808273ffffffffffffffffffffffffffffffffffffffff1673ffffffffffffffffffffffffffffffffffffffff16815260200191505060405180910390f35b6102116004803603606081101561014057600080fd5b81019080803573ffffffffffffffffffffffffffffffffffffffff169060200190929190803561ffff1690602001909291908035906020019064010000000081111561018b57600080fd5b82018360208201111561019d57600080fd5b803590602001918460018302840111640100000000831117156101bf57600080fd5b91908080601f016020809104026020016040519081016040528093929190818152602001838380828437600081840152601f19601f82011690508083019250505050505050919291929050505061058b565b005b6102636004803603604081101561022957600080fd5b81019080803573ffffffffffffffffffffffffffffffffffffffff169060200190929190803561ffff169060200190929190505050610717565b6040518080602001828103825283818151815260200191508051906020019080838360005b838110156102a3578082015181840152602081019050610288565b50505050905090810190601f1680156102d05780820380516001836020036101000a031916815260200191505b509250505060405180910390f35b61034e600480360360608110156102f457600080fd5b81019080803573ffffffffffffffffffffffffffffffffffffffff169060200190929190803561ffff169060200190929190803573ffffffffffffffffffffffffffffffffffffffff169060200190929190505050610812565b005b6103586109b1565b005b6104266004803603604081101561037057600080fd5b810190808035906020019064010000000081111561038d57600080fd5b82018360208201111561039f57600080fd5b803590602001918460208302840111640100000000831117156103c157600080fd5b9091929391929390803590602001906401000000008111156103e257600080fd5b8201836020820111156103f457600080fd5b8035906020019184602083028401116401000000008311171561041657600080fd5b9091929391929390505050610b3c565b005b610430610d77565b604051808273ffffffffffffffffffffffffffffffffffffffff1673ffffffffffffffffffffffffffffffffffffffff16815260200191505060405180910390f35b6104c26004803603604081101561048857600080fd5b81019080803561ffff169060200190929190803573ffffffffffffffffffffffffffffffffffffffff169060200190929190505050610da1565b005b610506600480360360208110156104da57600080fd5b81019080803573ffffffffffffffffffffffffffffffffffffffff169060200190929190505050610ec9565b005b6000606660008473ffffffffffffffffffffffffffffffffffffffff1673ffffffffffffffffffffffffffffffffffffffff16815260200190815260200160002060008361ffff1661ffff16815260200190815260200160002060009054906101000a900473ffffffffffffffffffffffffffffffffffffffff16905092915050565b8282610596826110d9565b6105eb576040517f08c379a000000000000000000000000000000000000000000000000000000000815260040180806020018281038252602a81526020018061188d602a913960400191505060405180910390fd5b82606760008773ffffffffffffffffffffffffffffffffffffffff1673ffffffffffffffffffffffffffffffffffffffff16815260200190815260200160002060008661ffff1661ffff1681526020019081526020016000209080519060200190610657929190611750565b508361ffff168573ffffffffffffffffffffffffffffffffffffffff167f3e5cb35232b9847a30ff70662e1419f2e5fe64e95098da905eaf3b67924b6954856040518080602001828103825283818151815260200191508051906020019080838360005b838110156106d65780820151818401526020810190506106bb565b50505050905090810190601f1680156107035780820380516001836020036101000a031916815260200191505b509250505060405180910390a35050505050565b6060606760008473ffffffffffffffffffffffffffffffffffffffff1673ffffffffffffffffffffffffffffffffffffffff16815260200190815260200160002060008361ffff1661ffff1681526020019081526020016000208054600181600116156101000203166002900480601f0160208091040260200160405190810160405280929190818152602001828054600181600116156101000203166002900480156108055780601f106107da57610100808354040283529160200191610805565b820191906000526020600020905b8154815290600101906020018083116107e857829003601f168201915b5050505050905092915050565b828261081d826110d9565b8061082e575061082d8282611198565b5b8061083f575061083e8282611250565b5b610894576040517f08c379a000000000000000000000000000000000000000000000000000000000815260040180806020018281038252604381526020018061184a6043913960600191505060405180910390fd5b82606660008773ffffffffffffffffffffffffffffffffffffffff1673ffffffffffffffffffffffffffffffffffffffff16815260200190815260200160002060008661ffff1661ffff16815260200190815260200160002060006101000a81548173ffffffffffffffffffffffffffffffffffffffff021916908373ffffffffffffffffffffffffffffffffffffffff1602179055508361ffff168573ffffffffffffffffffffffffffffffffffffffff167f1ec93fbaf16b55afda845ed8b38d373f803e0be3b2de82ae11ef55e35c2fb50985604051808273ffffffffffffffffffffffffffffffffffffffff1673ffffffffffffffffffffffffffffffffffffffff16815260200191505060405180910390a35050505050565b6109b961137b565b73ffffffffffffffffffffffffffffffffffffffff16603360009054906101000a900473ffffffffffffffffffffffffffffffffffffffff1673ffffffffffffffffffffffffffffffffffffffff1614610a7b576040517f08c379a00000000000000000000000000000000000000000000000000000000081526004018080602001828103825260208152602001807f4f776e61626c653a2063616c6c6572206973206e6f7420746865206f776e657281525060200191505060405180910390fd5b600073ffffffffffffffffffffffffffffffffffffffff16603360009054906101000a900473ffffffffffffffffffffffffffffffffffffffff1673ffffffffffffffffffffffffffffffffffffffff167f8be0079c531659141344cd1fd0a4f28419497f9722a3daafe3b4186f6b6457e060405160405180910390a36000603360006101000a81548173ffffffffffffffffffffffffffffffffffffffff021916908373ffffffffffffffffffffffffffffffffffffffff160217905550565b818190508484905014610b9a576040517f08c379a00000000000000000000000000000000000000000000000000000000081526004018080602001828103825260398152602001806118b76039913960400191505060405180910390fd5b610ba2611383565b60008090505b84849050811015610d7057828282818110610bbf57fe5b9050602002013573ffffffffffffffffffffffffffffffffffffffff1660666000878785818110610bec57fe5b9050602002013573ffffffffffffffffffffffffffffffffffffffff1673ffffffffffffffffffffffffffffffffffffffff1673ffffffffffffffffffffffffffffffffffffffff1681526020019081526020016000206000600161ffff16815260200190815260200160002060006101000a81548173ffffffffffffffffffffffffffffffffffffffff021916908373ffffffffffffffffffffffffffffffffffffffff1602179055506001858583818110610ca557fe5b9050602002013573ffffffffffffffffffffffffffffffffffffffff1673ffffffffffffffffffffffffffffffffffffffff167f1ec93fbaf16b55afda845ed8b38d373f803e0be3b2de82ae11ef55e35c2fb509858585818110610d0557fe5b9050602002013573ffffffffffffffffffffffffffffffffffffffff16604051808273ffffffffffffffffffffffffffffffffffffffff1673ffffffffffffffffffffffffffffffffffffffff16815260200191505060405180910390a38080600101915050610ba8565b5050505050565b6000603360009054906101000a900473ffffffffffffffffffffffffffffffffffffffff16905090565b610da961137b565b73ffffffffffffffffffffffffffffffffffffffff16603360009054906101000a900473ffffffffffffffffffffffffffffffffffffffff1673ffffffffffffffffffffffffffffffffffffffff1614610e6b576040517f08c379a00000000000000000000000000000000000000000000000000000000081526004018080602001828103825260208152602001807f4f776e61626c653a2063616c6c6572206973206e6f7420746865206f776e657281525060200191505060405180910390fd5b80606560008461ffff1661ffff16815260200190815260200160002060006101000a81548173ffffffffffffffffffffffffffffffffffffffff021916908373ffffffffffffffffffffffffffffffffffffffff1602179055505050565b610ed161137b565b73ffffffffffffffffffffffffffffffffffffffff16603360009054906101000a900473ffffffffffffffffffffffffffffffffffffffff1673ffffffffffffffffffffffffffffffffffffffff1614610f93576040517f08c379a00000000000000000000000000000000000000000000000000000000081526004018080602001828103825260208152602001807f4f776e61626c653a2063616c6c6572206973206e6f7420746865206f776e657281525060200191505060405180910390fd5b600073ffffffffffffffffffffffffffffffffffffffff168173ffffffffffffffffffffffffffffffffffffffff161415611019576040517f08c379a00000000000000000000000000000000000000000000000000000000081526004018080602001828103825260268152602001806117f66026913960400191505060405180910390fd5b8073ffffffffffffffffffffffffffffffffffffffff16603360009054906101000a900473ffffffffffffffffffffffffffffffffffffffff1673ffffffffffffffffffffffffffffffffffffffff167f8be0079c531659141344cd1fd0a4f28419497f9722a3daafe3b4186f6b6457e060405160405180910390a380603360006101000a81548173ffffffffffffffffffffffffffffffffffffffff021916908373ffffffffffffffffffffffffffffffffffffffff16021790555050565b60006110e361137b565b73ffffffffffffffffffffffffffffffffffffffff168273ffffffffffffffffffffffffffffffffffffffff16638da5cb5b6040518163ffffffff1660e01b815260040160206040518083038186803b15801561113f57600080fd5b505afa158015611153573d6000803e3d6000fd5b505050506040513d602081101561116957600080fd5b810190808051906020019092919050505073ffffffffffffffffffffffffffffffffffffffff16149050919050565b60006111a261137b565b73ffffffffffffffffffffffffffffffffffffffff16606660008573ffffffffffffffffffffffffffffffffffffffff1673ffffffffffffffffffffffffffffffffffffffff16815260200190815260200160002060008461ffff1661ffff16815260200190815260200160002060009054906101000a900473ffffffffffffffffffffffffffffffffffffffff1673ffffffffffffffffffffffffffffffffffffffff1614905092915050565b6000606560008361ffff1661ffff16815260200190815260200160002060009054906101000a900473ffffffffffffffffffffffffffffffffffffffff1673ffffffffffffffffffffffffffffffffffffffff166112ac61137b565b73ffffffffffffffffffffffffffffffffffffffff161480156113735750600073ffffffffffffffffffffffffffffffffffffffff16606660008573ffffffffffffffffffffffffffffffffffffffff1673ffffffffffffffffffffffffffffffffffffffff16815260200190815260200160002060008461ffff1661ffff16815260200190815260200160002060009054906101000a900473ffffffffffffffffffffffffffffffffffffffff1673ffffffffffffffffffffffffffffffffffffffff16145b905092915050565b600033905090565b600060019054906101000a900460ff16806113a257506113a1611492565b5b806113b957506000809054906101000a900460ff16155b61140e576040517f08c379a000000000000000000000000000000000000000000000000000000000815260040180806020018281038252602e81526020018061181c602e913960400191505060405180910390fd5b60008060019054906101000a900460ff16159050801561145e576001600060016101000a81548160ff02191690831515021790555060016000806101000a81548160ff0219169083151502179055505b6114666114a9565b61146e6115a8565b801561148f5760008060016101000a81548160ff0219169083151502179055505b50565b6000803090506000813b9050600081149250505090565b600060019054906101000a900460ff16806114c857506114c7611492565b5b806114df57506000809054906101000a900460ff16155b611534576040517f08c379a000000000000000000000000000000000000000000000000000000000815260040180806020018281038252602e81526020018061181c602e913960400191505060405180910390fd5b60008060019054906101000a900460ff161590508015611584576001600060016101000a81548160ff02191690831515021790555060016000806101000a81548160ff0219169083151502179055505b80156115a55760008060016101000a81548160ff0219169083151502179055505b50565b600060019054906101000a900460ff16806115c757506115c6611492565b5b806115de57506000809054906101000a900460ff16155b611633576040517f08c379a000000000000000000000000000000000000000000000000000000000815260040180806020018281038252602e81526020018061181c602e913960400191505060405180910390fd5b60008060019054906101000a900460ff161590508015611683576001600060016101000a81548160ff02191690831515021790555060016000806101000a81548160ff0219169083151502179055505b600061168d61137b565b905080603360006101000a81548173ffffffffffffffffffffffffffffffffffffffff021916908373ffffffffffffffffffffffffffffffffffffffff1602179055508073ffffffffffffffffffffffffffffffffffffffff16600073ffffffffffffffffffffffffffffffffffffffff167f8be0079c531659141344cd1fd0a4f28419497f9722a3daafe3b4186f6b6457e060405160405180910390a350801561174d5760008060016101000a81548160ff0219169083151502179055505b50565b828054600181600116156101000203166002900490600052602060002090601f016020900481019282601f1061179157805160ff19168380011785556117bf565b828001600101855582156117bf579182015b828111156117be5782518255916020019190600101906117a3565b5b5090506117cc91906117d0565b5090565b6117f291905b808211156117ee5760008160009055506001016117d6565b5090565b9056fe4f776e61626c653a206e6577206f776e657220697320746865207a65726f2061646472657373496e697469616c697a61626c653a20636f6e747261637420697320616c726561647920696e697469616c697a65644e6f7420417574686f72697a65643a2043616c6c6572206973206e6f7420736572696573206f776e65722c20706c7567696e206f72207265636f726420697473656c664e6f7420417574686f72697a65643a2043616c6c6572206973206e6f7420736572696573206f776e657250726576696f7573207365726965732073697a6520646966666572656e74207468616e2070726576696f757320746f6b656e732073697a652ea264697066735822122079befd351382d67e5d349cabc5f44165e1e5aeb52e5e7e330c2ec81cfbbc22fe64736f6c63430006000033",
  "source": "// SPDX-License-Identifier: UNLICENSED\npragma solidity 0.6.0;\n\nimport '@openzeppelin/contracts-upgradeable/access/OwnableUpgradeable.sol';\nimport '@openzeppelin/contracts-upgradeable/proxy/Initializable.sol';\n/**\n * Master Registry Contract.\n */\ncontract MasterRegistry is Initializable, OwnableUpgradeable {\n\n    event RecordChanged(address indexed series, uint16 indexed key, address value);\n    event ContentChanged(address indexed series, uint16 indexed key, string value);\n\n    // Mapping PluginID => Pluggin contract address\n    mapping(uint16=>address) private plugins;\n    // Mapping Series Address => PluginID => Deployd Contract Address \n    mapping(address=>mapping(uint16=>address)) private records;\n    // Mapping Series Address => PluginID => Content\n    mapping(address=>mapping(uint16=>string)) private contents;\n\n    /**\n     * Modifier that only allow the following entities change content:\n     * - Series owners\n     * - Plugin itself in case of empty series record\n     * - Current module itself addressed by record\n     * @param _series The plugin index to update.\n     * @param _key The new address where remains the plugin.\n     */\n    modifier authorizedRecord(address _series, uint16 _key) {\n        require(isSeriesOwner(_series) ||\n        isRecordItself(_series, _key) || \n        isRecordPlugin(_series, _key), \"Not Authorized: Caller is not series owner, plugin or record itself\");\n        _;\n    }\n    \n    /**\n     * Modifier to allow only series owners to change content.\n     * @param _series The plugin index to update.\n     * @param _key The new address where remains the plugin.\n     */\n    modifier onlySeriesOwner(address _series, uint16 _key) {\n        require(isSeriesOwner(_series), \"Not Authorized: Caller is not series owner\");\n        _;\n    }\n\n    function initialize(address[] calldata previousSeries, address[] calldata previousTokens) external {\n        require(previousSeries.length == previousTokens.length, 'Previous series size different than previous tokens size.');\n        __Ownable_init();\n        // Migrating previous tokens\n        for (uint i = 0; i < previousSeries.length; i++ ) {\n            records[previousSeries[i]][1] = previousTokens[i];\n            emit RecordChanged(previousSeries[i], 1, previousTokens[i]);\n        }\n    }\n\n    /**\n     * Sets the module contract associated with an Series and record.\n     * May only be called by the owner of that series, module itself or record plugin itself.\n     * @param series The series to update.\n     * @param key The key to set.\n     * @param value The text data value to set.\n     */\n    function setRecord(address series, uint16 key, address value) public authorizedRecord(series, key) {\n        records[series][key] = value;\n        emit RecordChanged(series, key, value);\n    }\n\n    /**\n     * Returns the data associated with an record Series and Key.\n     * @param series The series node to query.\n     * @param key The text data key to query.\n     * @return The associated text data.\n     */\n    function getRecord(address series, uint16 key) public view returns (address) {\n        return records[series][key];\n    }\n\n    /**\n     * Sets the content data associated with an Series and key.\n     * May only be called by the owner of that series.\n     * @param series The series to update.\n     * @param key The key to set.\n     * @param value The text data value to set.\n     */\n    function setContent(address series, uint16 key, string memory value) public onlySeriesOwner(series, key) {\n        contents[series][key] = value;\n        emit ContentChanged(series, key, value);\n    }\n\n    /**\n     * Returns the content associated with an content Series and Key.\n     * @param series The series node to query.\n     * @param key The text data key to query.\n     * @return The associated text data.\n     */\n    function getContent(address series, uint16 key) public view returns (string memory) {\n        return contents[series][key];\n    }\n\n    /**\n     * Sets the plugin that controls specific entry on records.\n     * Only owner of this contract has permission.\n     * @param pluginID The plugin index to update.\n     * @param pluginAddress The new address where remains the plugin.\n     */\n    function setPluginController(uint16 pluginID, address pluginAddress) public onlyOwner {\n        plugins[pluginID] = pluginAddress;\n    }\n\n    function isSeriesOwner(address _series) private view returns (bool) {\n        return OwnableUpgradeable(_series).owner() == _msgSender();\n    }\n\n    function isRecordItself(address _series, uint16 _key) private view returns (bool) {\n        return records[_series][_key] == _msgSender();\n    }\n\n    function isRecordPlugin(address _series, uint16 _key) private view returns (bool) {\n        return _msgSender() == plugins[_key] && records[_series][_key] == address(0);\n    }\n}",
  "sourcePath": "/Users/filipemsoccol/Documents/doiim/otoco-smart-contracts/contracts/MasterRegistry.sol",
  "compiler": {
    "name": "solc",
    "version": "0.6.0+commit.26b70077.Emscripten.clang"
  },
  "schemaVersion": "3.3.2",
  "updatedAt": "2020-12-07T17:39:01.384Z",
  "networkType": "ethereum",
  "devdoc": {
    "methods": {
      "getContent(address,uint16)": {
        "params": {
          "key": "The text data key to query.",
          "series": "The series node to query."
        },
        "returns": {
          "_0": "The associated text data."
        }
      },
      "getRecord(address,uint16)": {
        "params": {
          "key": "The text data key to query.",
          "series": "The series node to query."
        },
        "returns": {
          "_0": "The associated text data."
        }
      },
      "owner()": {
        "details": "Returns the address of the current owner."
      },
      "renounceOwnership()": {
        "details": "Leaves the contract without owner. It will not be possible to call `onlyOwner` functions anymore. Can only be called by the current owner.     * NOTE: Renouncing ownership will leave the contract without an owner, thereby removing any functionality that is only available to the owner."
      },
      "setContent(address,uint16,string)": {
        "params": {
          "key": "The key to set.",
          "series": "The series to update.",
          "value": "The text data value to set."
        }
      },
      "setPluginController(uint16,address)": {
        "params": {
          "pluginAddress": "The new address where remains the plugin.",
          "pluginID": "The plugin index to update."
        }
      },
      "setRecord(address,uint16,address)": {
        "params": {
          "key": "The key to set.",
          "series": "The series to update.",
          "value": "The text data value to set."
        }
      },
      "transferOwnership(address)": {
        "details": "Transfers ownership of the contract to a new account (`newOwner`). Can only be called by the current owner."
      }
    }
  },
  "userdoc": {
    "methods": {
      "getContent(address,uint16)": {
        "notice": "Returns the content associated with an content Series and Key."
      },
      "getRecord(address,uint16)": {
        "notice": "Returns the data associated with an record Series and Key."
      },
      "setContent(address,uint16,string)": {
        "notice": "Sets the content data associated with an Series and key. May only be called by the owner of that series."
      },
      "setPluginController(uint16,address)": {
        "notice": "Sets the plugin that controls specific entry on records. Only owner of this contract has permission."
      },
      "setRecord(address,uint16,address)": {
        "notice": "Sets the module contract associated with an Series and record. May only be called by the owner of that series, module itself or record plugin itself."
      }
    },
    "notice": "Master Registry Contract."
  }
}