{
  "contractName": "OtoCorpWyoming",
  "abi": [
    {
      "inputs": [
        {
          "internalType": "contract IERC20",
          "name": "_tkn",
          "type": "address"
        }
      ],
      "stateMutability": "nonpayable",
      "type": "constructor"
    },
    {
      "anonymous": false,
      "inputs": [
        {
          "indexed": false,
          "internalType": "address",
          "name": "_contract",
          "type": "address"
        },
        {
          "indexed": false,
          "internalType": "address",
          "name": "_owner",
          "type": "address"
        },
        {
          "indexed": false,
          "internalType": "string",
          "name": "_name",
          "type": "string"
        }
      ],
      "name": "NewSeriesCreated",
      "type": "event"
    },
    {
      "anonymous": false,
      "inputs": [
        {
          "indexed": true,
          "internalType": "address",
          "name": "previousOwner",
          "type": "address"
        },
        {
          "indexed": true,
          "internalType": "address",
          "name": "newOwner",
          "type": "address"
        }
      ],
      "name": "OwnershipTransferred",
      "type": "event"
    },
    {
      "anonymous": false,
      "inputs": [
        {
          "indexed": false,
          "internalType": "address",
          "name": "src",
          "type": "address"
        },
        {
          "indexed": false,
          "internalType": "uint256",
          "name": "val",
          "type": "uint256"
        }
      ],
      "name": "ReceiveTokenFrom",
      "type": "event"
    },
    {
      "anonymous": false,
      "inputs": [
        {
          "indexed": false,
          "internalType": "uint256",
          "name": "_oldFee",
          "type": "uint256"
        },
        {
          "indexed": false,
          "internalType": "uint256",
          "name": "_newFee",
          "type": "uint256"
        }
      ],
      "name": "SeriesFeeChanged",
      "type": "event"
    },
    {
      "anonymous": false,
      "inputs": [
        {
          "indexed": false,
          "internalType": "address",
          "name": "_oldTknAddr",
          "type": "address"
        },
        {
          "indexed": false,
          "internalType": "address",
          "name": "_newTknAddr",
          "type": "address"
        }
      ],
      "name": "TokenAddrChanged",
      "type": "event"
    },
    {
      "anonymous": false,
      "inputs": [
        {
          "indexed": false,
          "internalType": "address",
          "name": "_owner",
          "type": "address"
        },
        {
          "indexed": false,
          "internalType": "uint256",
          "name": "_total",
          "type": "uint256"
        }
      ],
      "name": "TokenWithdrawn",
      "type": "event"
    },
    {
      "inputs": [],
      "name": "owner",
      "outputs": [
        {
          "internalType": "address",
          "name": "",
          "type": "address"
        }
      ],
      "stateMutability": "view",
      "type": "function"
    },
    {
      "inputs": [],
      "name": "renounceOwnership",
      "outputs": [],
      "stateMutability": "nonpayable",
      "type": "function"
    },
    {
      "inputs": [
        {
          "internalType": "address",
          "name": "newOwner",
          "type": "address"
        }
      ],
      "name": "transferOwnership",
      "outputs": [],
      "stateMutability": "nonpayable",
      "type": "function"
    },
    {
      "inputs": [],
      "name": "withdrawTkn",
      "outputs": [],
      "stateMutability": "nonpayable",
      "type": "function"
    },
    {
      "inputs": [
        {
          "internalType": "string",
          "name": "seriesName",
          "type": "string"
        }
      ],
      "name": "createSeries",
      "outputs": [],
      "stateMutability": "payable",
      "type": "function"
    },
    {
      "inputs": [
        {
          "internalType": "contract IERC20",
          "name": "newTkn",
          "type": "address"
        }
      ],
      "name": "changeTknAddr",
      "outputs": [],
      "stateMutability": "nonpayable",
      "type": "function"
    },
    {
      "inputs": [
        {
          "internalType": "uint256",
          "name": "_newFee",
          "type": "uint256"
        }
      ],
      "name": "changeSeriesFee",
      "outputs": [],
      "stateMutability": "nonpayable",
      "type": "function"
    },
    {
      "inputs": [],
      "name": "balanceTkn",
      "outputs": [
        {
          "internalType": "uint256",
          "name": "",
          "type": "uint256"
        }
      ],
      "stateMutability": "view",
      "type": "function"
    },
    {
      "inputs": [],
      "name": "isUnlockTkn",
      "outputs": [
        {
          "internalType": "bool",
          "name": "",
          "type": "bool"
        }
      ],
      "stateMutability": "view",
      "type": "function"
    },
    {
      "inputs": [],
      "name": "mySeries",
      "outputs": [
        {
          "internalType": "address[]",
          "name": "",
          "type": "address[]"
        }
      ],
      "stateMutability": "view",
      "type": "function"
    },
    {
      "inputs": [],
      "name": "getIndex",
      "outputs": [
        {
          "internalType": "string",
          "name": "",
          "type": "string"
        }
      ],
      "stateMutability": "view",
      "type": "function"
    }
  ],
  "bytecode": "0x6080604052600160035534801561001557600080fd5b506040516123493803806123498339818101604052602081101561003857600080fd5b8101908080519060200190929190505050600061005961014660201b60201c565b9050806000806101000a81548173ffffffffffffffffffffffffffffffffffffffff021916908373ffffffffffffffffffffffffffffffffffffffff1602179055508073ffffffffffffffffffffffffffffffffffffffff16600073ffffffffffffffffffffffffffffffffffffffff167f8be0079c531659141344cd1fd0a4f28419497f9722a3daafe3b4186f6b6457e060405160405180910390a35080600260006101000a81548173ffffffffffffffffffffffffffffffffffffffff021916908373ffffffffffffffffffffffffffffffffffffffff16021790555060006001819055505061014e565b600033905090565b6121ec8061015d6000396000f3fe608060405260043610620000aa5760003560e01c806381045ead116200006d57806381045ead14620001e85780638da5cb5b146200027e5780639501ace214620002d8578063cb9d15d21462000306578063ddf3d3c414620003c7578063f2fde38b14620003f957620000aa565b8063082394c414620000af5780631658fe5114620001205780632d8e6cd8146200013a5780634e4c6c1e1462000179578063715018a614620001ce575b600080fd5b348015620000bc57600080fd5b50620000c76200044e565b6040518080602001828103825283818151815260200191508051906020019060200280838360005b838110156200010c578082015181840152602081019050620000ef565b505050509050019250505060405180910390f35b3480156200012d57600080fd5b50620001386200051b565b005b3480156200014757600080fd5b5062000177600480360360208110156200016057600080fd5b810190808035906020019092919050505062000769565b005b3480156200018657600080fd5b50620001cc600480360360208110156200019f57600080fd5b81019080803573ffffffffffffffffffffffffffffffffffffffff16906020019092919050505062000888565b005b348015620001db57600080fd5b50620001e662000a79565b005b348015620001f557600080fd5b506200020062000c04565b6040518080602001828103825283818151815260200191508051906020019080838360005b838110156200024257808201518184015260208101905062000225565b50505050905090810190601f168015620002705780820380516001836020036101000a031916815260200191505b509250505060405180910390f35b3480156200028b57600080fd5b506200029662000c18565b604051808273ffffffffffffffffffffffffffffffffffffffff1673ffffffffffffffffffffffffffffffffffffffff16815260200191505060405180910390f35b348015620002e557600080fd5b50620002f062000c41565b6040518082815260200191505060405180910390f35b620003c5600480360360208110156200031e57600080fd5b81019080803590602001906401000000008111156200033c57600080fd5b8201836020820111156200034f57600080fd5b803590602001918460018302840111640100000000831117156200037257600080fd5b91908080601f016020809104026020016040519081016040528093929190818152602001838380828437600081840152601f19601f82011690508083019250505050505050919291929050505062000d25565b005b348015620003d457600080fd5b50620003df62001471565b604051808215151515815260200191505060405180910390f35b3480156200040657600080fd5b506200044c600480360360208110156200041f57600080fd5b81019080803573ffffffffffffffffffffffffffffffffffffffff1690602001909291905050506200158b565b005b6060600460003373ffffffffffffffffffffffffffffffffffffffff1673ffffffffffffffffffffffffffffffffffffffff1681526020019081526020016000208054806020026020016040519081016040528092919081815260200182805480156200051157602002820191906000526020600020905b8160009054906101000a900473ffffffffffffffffffffffffffffffffffffffff1673ffffffffffffffffffffffffffffffffffffffff1681526020019060010190808311620004c6575b5050505050905090565b620005256200179d565b73ffffffffffffffffffffffffffffffffffffffff166000809054906101000a900473ffffffffffffffffffffffffffffffffffffffff1673ffffffffffffffffffffffffffffffffffffffff1614620005e7576040517f08c379a00000000000000000000000000000000000000000000000000000000081526004018080602001828103825260208152602001807f4f776e61626c653a2063616c6c6572206973206e6f7420746865206f776e657281525060200191505060405180910390fd5b600260009054906101000a900473ffffffffffffffffffffffffffffffffffffffff1673ffffffffffffffffffffffffffffffffffffffff1663a9059cbb6200062f62000c18565b6200063962000c41565b6040518363ffffffff1660e01b8152600401808373ffffffffffffffffffffffffffffffffffffffff1673ffffffffffffffffffffffffffffffffffffffff16815260200182815260200192505050602060405180830381600087803b158015620006a357600080fd5b505af1158015620006b8573d6000803e3d6000fd5b505050506040513d6020811015620006cf57600080fd5b8101908080519060200190929190505050620006ea57600080fd5b7fa2bd9fcfcdba69f52bcd9a520846ad4bd685b187483f53efc42d035b2ddebff06200071562000c18565b6200071f62000c41565b604051808373ffffffffffffffffffffffffffffffffffffffff1673ffffffffffffffffffffffffffffffffffffffff1681526020018281526020019250505060405180910390a1565b620007736200179d565b73ffffffffffffffffffffffffffffffffffffffff166000809054906101000a900473ffffffffffffffffffffffffffffffffffffffff1673ffffffffffffffffffffffffffffffffffffffff161462000835576040517f08c379a00000000000000000000000000000000000000000000000000000000081526004018080602001828103825260208152602001807f4f776e61626c653a2063616c6c6572206973206e6f7420746865206f776e657281525060200191505060405180910390fd5b60006001549050816001819055507f7b2b3851907b4cf107702e79f555d0962ddf7d780d72e9d264650a97ef99546f81600154604051808381526020018281526020019250505060405180910390a15050565b620008926200179d565b73ffffffffffffffffffffffffffffffffffffffff166000809054906101000a900473ffffffffffffffffffffffffffffffffffffffff1673ffffffffffffffffffffffffffffffffffffffff161462000954576040517f08c379a00000000000000000000000000000000000000000000000000000000081526004018080602001828103825260208152602001807f4f776e61626c653a2063616c6c6572206973206e6f7420746865206f776e657281525060200191505060405180910390fd5b6000600260009054906101000a900473ffffffffffffffffffffffffffffffffffffffff16905081600260006101000a81548173ffffffffffffffffffffffffffffffffffffffff021916908373ffffffffffffffffffffffffffffffffffffffff1602179055507f0aa1e5dfbc6903a56e1aa7d5afdbd4259a11dfef8caa6159c44f8ff6eb6a85f481600260009054906101000a900473ffffffffffffffffffffffffffffffffffffffff16604051808373ffffffffffffffffffffffffffffffffffffffff1673ffffffffffffffffffffffffffffffffffffffff1681526020018273ffffffffffffffffffffffffffffffffffffffff1673ffffffffffffffffffffffffffffffffffffffff1681526020019250505060405180910390a15050565b62000a836200179d565b73ffffffffffffffffffffffffffffffffffffffff166000809054906101000a900473ffffffffffffffffffffffffffffffffffffffff1673ffffffffffffffffffffffffffffffffffffffff161462000b45576040517f08c379a00000000000000000000000000000000000000000000000000000000081526004018080602001828103825260208152602001807f4f776e61626c653a2063616c6c6572206973206e6f7420746865206f776e657281525060200191505060405180910390fd5b600073ffffffffffffffffffffffffffffffffffffffff166000809054906101000a900473ffffffffffffffffffffffffffffffffffffffff1673ffffffffffffffffffffffffffffffffffffffff167f8be0079c531659141344cd1fd0a4f28419497f9722a3daafe3b4186f6b6457e060405160405180910390a360008060006101000a81548173ffffffffffffffffffffffffffffffffffffffff021916908373ffffffffffffffffffffffffffffffffffffffff160217905550565b606062000c13600354620017a5565b905090565b60008060009054906101000a900473ffffffffffffffffffffffffffffffffffffffff16905090565b6000600260009054906101000a900473ffffffffffffffffffffffffffffffffffffffff1673ffffffffffffffffffffffffffffffffffffffff166370a08231306040518263ffffffff1660e01b8152600401808273ffffffffffffffffffffffffffffffffffffffff1673ffffffffffffffffffffffffffffffffffffffff16815260200191505060206040518083038186803b15801562000ce357600080fd5b505afa15801562000cf8573d6000803e3d6000fd5b505050506040513d602081101562000d0f57600080fd5b8101908080519060200190929190505050905090565b600260009054906101000a900473ffffffffffffffffffffffffffffffffffffffff1673ffffffffffffffffffffffffffffffffffffffff166323b872dd33306001546040518463ffffffff1660e01b8152600401808473ffffffffffffffffffffffffffffffffffffffff1673ffffffffffffffffffffffffffffffffffffffff1681526020018373ffffffffffffffffffffffffffffffffffffffff1673ffffffffffffffffffffffffffffffffffffffff1681526020018281526020019350505050602060405180830381600087803b15801562000e0557600080fd5b505af115801562000e1a573d6000803e3d6000fd5b505050506040513d602081101562000e3157600080fd5b810190808051906020019092919050505062000e4c57600080fd5b7f1b25be522a2e391824707aeb0ed2dfcb201fa9fa87ab5b6784cb65927cd07dc033600154604051808373ffffffffffffffffffffffffffffffffffffffff1673ffffffffffffffffffffffffffffffffffffffff1681526020018281526020019250505060405180910390a18062000ec462000c04565b6040516020018083805190602001908083835b6020831062000efc578051825260208201915060208101905060208303925062000ed7565b6001836020036101000a038019825116818451168082178552505050505050905001807f202d205365726965732000000000000000000000000000000000000000000000815250600a0182805190602001908083835b6020831062000f77578051825260208201915060208101905060208303925062000f52565b6001836020036101000a03801982511681845116808217855250505050505090500192505050604051602081830303815290604052905060008160405162000fbf90620018dd565b8080602001828103825283818151815260200191508051906020019080838360005b8381101562000ffe57808201518184015260208101905062000fe1565b50505050905090810190601f1680156200102c5780820380516001836020036101000a031916815260200191505b5092505050604051809103906000f0801580156200104e573d6000803e3d6000fd5b509050600360008154809291906001019190505550600460003373ffffffffffffffffffffffffffffffffffffffff1673ffffffffffffffffffffffffffffffffffffffff168152602001908152602001600020819080600181540180825580915050600190039060005260206000200160009091909190916101000a81548173ffffffffffffffffffffffffffffffffffffffff021916908373ffffffffffffffffffffffffffffffffffffffff1602179055508073ffffffffffffffffffffffffffffffffffffffff1663f2fde38b336040518263ffffffff1660e01b8152600401808273ffffffffffffffffffffffffffffffffffffffff1673ffffffffffffffffffffffffffffffffffffffff168152602001915050600060405180830381600087803b1580156200118357600080fd5b505af115801562001198573d6000803e3d6000fd5b505050507f6b24598605265141922419533776ab91fd1eabd50c014e3f597134d690f5876c818273ffffffffffffffffffffffffffffffffffffffff16638da5cb5b6040518163ffffffff1660e01b815260040160206040518083038186803b1580156200120557600080fd5b505afa1580156200121a573d6000803e3d6000fd5b505050506040513d60208110156200123157600080fd5b81019080805190602001909291905050508373ffffffffffffffffffffffffffffffffffffffff166317d7de7c6040518163ffffffff1660e01b815260040160006040518083038186803b1580156200128957600080fd5b505afa1580156200129e573d6000803e3d6000fd5b505050506040513d6000823e3d601f19601f820116820180604052506020811015620012c957600080fd5b8101908080516040519392919084640100000000821115620012ea57600080fd5b838201915060208201858111156200130157600080fd5b82518660018202830111640100000000821117156200131f57600080fd5b8083526020830192505050908051906020019080838360005b838110156200135557808201518184015260208101905062001338565b50505050905090810190601f168015620013835780820380516001836020036101000a031916815260200191505b50604052505050604051808473ffffffffffffffffffffffffffffffffffffffff1673ffffffffffffffffffffffffffffffffffffffff1681526020018373ffffffffffffffffffffffffffffffffffffffff1673ffffffffffffffffffffffffffffffffffffffff16815260200180602001828103825283818151815260200191508051906020019080838360005b838110156200143057808201518184015260208101905062001413565b50505050905090810190601f1680156200145e5780820380516001836020036101000a031916815260200191505b5094505050505060405180910390a15050565b600080600260009054906101000a900473ffffffffffffffffffffffffffffffffffffffff1673ffffffffffffffffffffffffffffffffffffffff1663dd62ed3e33306040518363ffffffff1660e01b8152600401808373ffffffffffffffffffffffffffffffffffffffff1673ffffffffffffffffffffffffffffffffffffffff1681526020018273ffffffffffffffffffffffffffffffffffffffff1673ffffffffffffffffffffffffffffffffffffffff1681526020019250505060206040518083038186803b1580156200154857600080fd5b505afa1580156200155d573d6000803e3d6000fd5b505050506040513d60208110156200157457600080fd5b810190808051906020019092919050505011905090565b620015956200179d565b73ffffffffffffffffffffffffffffffffffffffff166000809054906101000a900473ffffffffffffffffffffffffffffffffffffffff1673ffffffffffffffffffffffffffffffffffffffff161462001657576040517f08c379a00000000000000000000000000000000000000000000000000000000081526004018080602001828103825260208152602001807f4f776e61626c653a2063616c6c6572206973206e6f7420746865206f776e657281525060200191505060405180910390fd5b600073ffffffffffffffffffffffffffffffffffffffff168173ffffffffffffffffffffffffffffffffffffffff161415620016df576040517f08c379a0000000000000000000000000000000000000000000000000000000008152600401808060200182810382526026815260200180620021916026913960400191505060405180910390fd5b8073ffffffffffffffffffffffffffffffffffffffff166000809054906101000a900473ffffffffffffffffffffffffffffffffffffffff1673ffffffffffffffffffffffffffffffffffffffff167f8be0079c531659141344cd1fd0a4f28419497f9722a3daafe3b4186f6b6457e060405160405180910390a3806000806101000a81548173ffffffffffffffffffffffffffffffffffffffff021916908373ffffffffffffffffffffffffffffffffffffffff16021790555050565b600033905090565b60606000821415620017ef576040518060400160405280600181526020017f30000000000000000000000000000000000000000000000000000000000000008152509050620018d8565b600082905060005b600082146200181c578080600101915050600a82816200181357fe5b049150620017f7565b6060816040519080825280601f01601f191660200182016040528015620018525781602001600182028038833980820191505090505b50905060006001830390505b60008614620018d057600a86816200187257fe5b0660300160f81b828280600190039350815181106200188d57fe5b60200101907effffffffffffffffffffffffffffffffffffffffffffffffffffffffffffff1916908160001a905350600a8681620018c757fe5b0495506200185e565b819450505050505b919050565b6108a580620018ec8339019056fe608060405234801561001057600080fd5b506040516108a53803806108a58339818101604052602081101561003357600080fd5b810190808051604051939291908464010000000082111561005357600080fd5b8382019150602082018581111561006957600080fd5b825186600182028301116401000000008211171561008657600080fd5b8083526020830192505050908051906020019080838360005b838110156100ba57808201518184015260208101905061009f565b50505050905090810190601f1680156100e75780820380516001836020036101000a031916815260200191505b5060405250505060006100fe6101b960201b60201c565b9050806000806101000a81548173ffffffffffffffffffffffffffffffffffffffff021916908373ffffffffffffffffffffffffffffffffffffffff1602179055508073ffffffffffffffffffffffffffffffffffffffff16600073ffffffffffffffffffffffffffffffffffffffff167f8be0079c531659141344cd1fd0a4f28419497f9722a3daafe3b4186f6b6457e060405160405180910390a35080600190805190602001906101b29291906101c1565b5050610266565b600033905090565b828054600181600116156101000203166002900490600052602060002090601f016020900481019282601f1061020257805160ff1916838001178555610230565b82800160010185558215610230579182015b8281111561022f578251825591602001919060010190610214565b5b50905061023d9190610241565b5090565b61026391905b8082111561025f576000816000905550600101610247565b5090565b90565b610630806102756000396000f3fe608060405234801561001057600080fd5b506004361061004c5760003560e01c806317d7de7c14610051578063715018a6146100d45780638da5cb5b146100de578063f2fde38b14610128575b600080fd5b61005961016c565b6040518080602001828103825283818151815260200191508051906020019080838360005b8381101561009957808201518184015260208101905061007e565b50505050905090810190601f1680156100c65780820380516001836020036101000a031916815260200191505b509250505060405180910390f35b6100dc61020e565b005b6100e6610396565b604051808273ffffffffffffffffffffffffffffffffffffffff1673ffffffffffffffffffffffffffffffffffffffff16815260200191505060405180910390f35b61016a6004803603602081101561013e57600080fd5b81019080803573ffffffffffffffffffffffffffffffffffffffff1690602001909291905050506103bf565b005b606060018054600181600116156101000203166002900480601f0160208091040260200160405190810160405280929190818152602001828054600181600116156101000203166002900480156102045780601f106101d957610100808354040283529160200191610204565b820191906000526020600020905b8154815290600101906020018083116101e757829003601f168201915b5050505050905090565b6102166105cc565b73ffffffffffffffffffffffffffffffffffffffff166000809054906101000a900473ffffffffffffffffffffffffffffffffffffffff1673ffffffffffffffffffffffffffffffffffffffff16146102d7576040517f08c379a00000000000000000000000000000000000000000000000000000000081526004018080602001828103825260208152602001807f4f776e61626c653a2063616c6c6572206973206e6f7420746865206f776e657281525060200191505060405180910390fd5b600073ffffffffffffffffffffffffffffffffffffffff166000809054906101000a900473ffffffffffffffffffffffffffffffffffffffff1673ffffffffffffffffffffffffffffffffffffffff167f8be0079c531659141344cd1fd0a4f28419497f9722a3daafe3b4186f6b6457e060405160405180910390a360008060006101000a81548173ffffffffffffffffffffffffffffffffffffffff021916908373ffffffffffffffffffffffffffffffffffffffff160217905550565b60008060009054906101000a900473ffffffffffffffffffffffffffffffffffffffff16905090565b6103c76105cc565b73ffffffffffffffffffffffffffffffffffffffff166000809054906101000a900473ffffffffffffffffffffffffffffffffffffffff1673ffffffffffffffffffffffffffffffffffffffff1614610488576040517f08c379a00000000000000000000000000000000000000000000000000000000081526004018080602001828103825260208152602001807f4f776e61626c653a2063616c6c6572206973206e6f7420746865206f776e657281525060200191505060405180910390fd5b600073ffffffffffffffffffffffffffffffffffffffff168173ffffffffffffffffffffffffffffffffffffffff16141561050e576040517f08c379a00000000000000000000000000000000000000000000000000000000081526004018080602001828103825260268152602001806105d56026913960400191505060405180910390fd5b8073ffffffffffffffffffffffffffffffffffffffff166000809054906101000a900473ffffffffffffffffffffffffffffffffffffffff1673ffffffffffffffffffffffffffffffffffffffff167f8be0079c531659141344cd1fd0a4f28419497f9722a3daafe3b4186f6b6457e060405160405180910390a3806000806101000a81548173ffffffffffffffffffffffffffffffffffffffff021916908373ffffffffffffffffffffffffffffffffffffffff16021790555050565b60003390509056fe4f776e61626c653a206e6577206f776e657220697320746865207a65726f2061646472657373a2646970667358221220e97e5b2b584872127caf6db783d53c50d8ab3c9c3f75c1fbc2b0605415965f1964736f6c634300060000334f776e61626c653a206e6577206f776e657220697320746865207a65726f2061646472657373a264697066735822122073fab60642d8d6ad9d4a127dd013b4dfd2626b4231bf6f09ffb37cb37e90316864736f6c63430006000033",
  "source": "// SPDX-License-Identifier: UNLICENSED\npragma solidity 0.6.0;\n\nimport \"@openzeppelin/contracts/access/Ownable.sol\";\nimport \"@openzeppelin/contracts/token/ERC20/IERC20.sol\";\nimport \"./Series.sol\";\n\ncontract OtoCorpWyoming is Ownable {\n    \n    uint256 private tknSeriesFee;\n    IERC20 private tkn;\n    uint private seriesIndex = 1;\n    mapping(address=>address[]) seriesOfMembers;\n    \n    event TokenAddrChanged(address _oldTknAddr, address _newTknAddr);\n    event ReceiveTokenFrom(address src, uint256 val);\n    event NewSeriesCreated(address _contract, address _owner, string _name);\n    event SeriesFeeChanged(uint256 _oldFee, uint256 _newFee);\n    event TokenWithdrawn(address _owner, uint256 _total);\n    \n    constructor(IERC20 _tkn) public {\n        tkn = _tkn;\n        tknSeriesFee = 0**18;\n    }\n    \n    function withdrawTkn() external onlyOwner {\n        require(tkn.transfer(owner(), balanceTkn()));\n        emit TokenWithdrawn(owner(), balanceTkn());\n    }\n    \n    function createSeries(string memory seriesName) public payable {\n        require(tkn.transferFrom(msg.sender, address(this), tknSeriesFee));\n        emit ReceiveTokenFrom(msg.sender, tknSeriesFee);\n        seriesName = string(abi.encodePacked(seriesName, ' - Series ', getIndex()));\n        Series newContract = new Series(seriesName);\n        seriesIndex ++;\n        seriesOfMembers[msg.sender].push(address(newContract));\n        newContract.transferOwnership(msg.sender);\n        emit NewSeriesCreated(address(newContract), newContract.owner(), newContract.getName());\n    }\n    \n    function changeTknAddr(IERC20 newTkn) external onlyOwner {\n        address oldTknAddr = address(tkn);\n        tkn = newTkn;\n        emit TokenAddrChanged(oldTknAddr, address(tkn));\n    }\n    \n    function changeSeriesFee(uint256 _newFee) external onlyOwner {\n        uint256 oldFee = tknSeriesFee;\n        tknSeriesFee = _newFee;\n        emit SeriesFeeChanged(oldFee, tknSeriesFee);\n    }\n    \n    function balanceTkn() public view returns (uint256){\n        return tkn.balanceOf(address(this));\n    }\n    \n    function isUnlockTkn() public view returns (bool){\n        return tkn.allowance(msg.sender, address(this)) > 0;\n    }\n    \n    function mySeries() public view returns (address[] memory) {\n        return seriesOfMembers[msg.sender];\n    }\n    \n    function getIndex() public view returns (string memory) {\n        return uint2str(seriesIndex);\n    }\n    \n    function uint2str(uint _i) internal pure returns (string memory _uintAsString) {\n        if (_i == 0) {\n            return \"0\";\n        }\n        uint j = _i;\n        uint len;\n        while (j != 0) {\n            len++;\n            j /= 10;\n        }\n        bytes memory bstr = new bytes(len);\n        uint k = len - 1;\n        while (_i != 0) {\n            bstr[k--] = byte(uint8(48 + _i % 10));\n            _i /= 10;\n        }\n        return string(bstr);\n    }\n}\n",
  "sourcePath": "/Users/filipemsoccol/Documents/doiim/otoco-smart-contracts/contracts/OtoCorpWyoming.sol",
  "compiler": {
    "name": "solc",
    "version": "0.6.0+commit.26b70077.Emscripten.clang"
  },
  "schemaVersion": "3.3.2",
  "updatedAt": "2020-11-28T14:25:17.205Z",
  "devdoc": {
    "methods": {
      "owner()": {
        "details": "Returns the address of the current owner."
      },
      "renounceOwnership()": {
        "details": "Leaves the contract without owner. It will not be possible to call `onlyOwner` functions anymore. Can only be called by the current owner.     * NOTE: Renouncing ownership will leave the contract without an owner, thereby removing any functionality that is only available to the owner."
      },
      "transferOwnership(address)": {
        "details": "Transfers ownership of the contract to a new account (`newOwner`). Can only be called by the current owner."
      }
    }
  },
  "userdoc": {
    "methods": {}
  }
}