{
  "contractName": "TokenFactory",
  "abi": [
    {
      "anonymous": false,
      "inputs": [
        {
          "indexed": true,
          "internalType": "address",
          "name": "previousOwner",
          "type": "address"
        },
        {
          "indexed": true,
          "internalType": "address",
          "name": "newOwner",
          "type": "address"
        }
      ],
      "name": "OwnershipTransferred",
      "type": "event"
    },
    {
      "anonymous": false,
      "inputs": [
        {
          "indexed": true,
          "internalType": "address",
          "name": "series",
          "type": "address"
        },
        {
          "indexed": false,
          "internalType": "address",
          "name": "value",
          "type": "address"
        }
      ],
      "name": "TokenCreated",
      "type": "event"
    },
    {
      "inputs": [],
      "name": "owner",
      "outputs": [
        {
          "internalType": "address",
          "name": "",
          "type": "address"
        }
      ],
      "stateMutability": "view",
      "type": "function",
      "constant": true
    },
    {
      "inputs": [],
      "name": "renounceOwnership",
      "outputs": [],
      "stateMutability": "nonpayable",
      "type": "function"
    },
    {
      "inputs": [
        {
          "internalType": "address",
          "name": "newOwner",
          "type": "address"
        }
      ],
      "name": "transferOwnership",
      "outputs": [],
      "stateMutability": "nonpayable",
      "type": "function"
    },
    {
      "inputs": [
        {
          "internalType": "address",
          "name": "token",
          "type": "address"
        },
        {
          "internalType": "address[]",
          "name": "previousSeries",
          "type": "address[]"
        },
        {
          "internalType": "address[]",
          "name": "previousTokens",
          "type": "address[]"
        }
      ],
      "name": "initialize",
      "outputs": [],
      "stateMutability": "nonpayable",
      "type": "function"
    },
    {
      "inputs": [
        {
          "internalType": "address",
          "name": "newAddress",
          "type": "address"
        }
      ],
      "name": "updateTokenContract",
      "outputs": [],
      "stateMutability": "nonpayable",
      "type": "function"
    },
    {
      "inputs": [
        {
          "internalType": "address",
          "name": "newAddress",
          "type": "address"
        }
      ],
      "name": "updateRegistryContract",
      "outputs": [],
      "stateMutability": "nonpayable",
      "type": "function"
    },
    {
      "inputs": [
        {
          "internalType": "uint256",
          "name": "_supply",
          "type": "uint256"
        },
        {
          "internalType": "string",
          "name": "_name",
          "type": "string"
        },
        {
          "internalType": "string",
          "name": "_symbol",
          "type": "string"
        },
        {
          "internalType": "address",
          "name": "_series",
          "type": "address"
        }
      ],
      "name": "createERC20",
      "outputs": [],
      "stateMutability": "nonpayable",
      "type": "function"
    }
  ],
  "bytecode": "0x608060405234801561001057600080fd5b50611539806100206000396000f3fe608060405234801561001057600080fd5b506004361061007d5760003560e01c80638da5cb5b1161005b5780638da5cb5b146101be578063989ced2614610208578063e4f503e11461024c578063f2fde38b146103c85761007d565b806310bba285146100825780634a200fa5146100c6578063715018a6146101b4575b600080fd5b6100c46004803603602081101561009857600080fd5b81019080803573ffffffffffffffffffffffffffffffffffffffff16906020019092919050505061040c565b005b6101b2600480360360608110156100dc57600080fd5b81019080803573ffffffffffffffffffffffffffffffffffffffff1690602001909291908035906020019064010000000081111561011957600080fd5b82018360208201111561012b57600080fd5b8035906020019184602083028401116401000000008311171561014d57600080fd5b90919293919293908035906020019064010000000081111561016e57600080fd5b82018360208201111561018057600080fd5b803590602001918460208302840111640100000000831117156101a257600080fd5b909192939192939050505061051a565b005b6101bc6106b1565b005b6101c661083c565b604051808273ffffffffffffffffffffffffffffffffffffffff1673ffffffffffffffffffffffffffffffffffffffff16815260200191505060405180910390f35b61024a6004803603602081101561021e57600080fd5b81019080803573ffffffffffffffffffffffffffffffffffffffff169060200190929190505050610866565b005b6103c66004803603608081101561026257600080fd5b81019080803590602001909291908035906020019064010000000081111561028957600080fd5b82018360208201111561029b57600080fd5b803590602001918460018302840111640100000000831117156102bd57600080fd5b91908080601f016020809104026020016040519081016040528093929190818152602001838380828437600081840152601f19601f8201169050808301925050505050505091929192908035906020019064010000000081111561032057600080fd5b82018360208201111561033257600080fd5b8035906020019184600183028401116401000000008311171561035457600080fd5b91908080601f016020809104026020016040519081016040528093929190818152602001838380828437600081840152601f19601f820116905080830192505050505050509192919290803573ffffffffffffffffffffffffffffffffffffffff169060200190929190505050610974565b005b61040a600480360360208110156103de57600080fd5b81019080803573ffffffffffffffffffffffffffffffffffffffff169060200190929190505050610dfb565b005b61041461100b565b73ffffffffffffffffffffffffffffffffffffffff16603360009054906101000a900473ffffffffffffffffffffffffffffffffffffffff1673ffffffffffffffffffffffffffffffffffffffff16146104d6576040517f08c379a00000000000000000000000000000000000000000000000000000000081526004018080602001828103825260208152602001807f4f776e61626c653a2063616c6c6572206973206e6f7420746865206f776e657281525060200191505060405180910390fd5b80606660006101000a81548173ffffffffffffffffffffffffffffffffffffffff021916908373ffffffffffffffffffffffffffffffffffffffff16021790555050565b818190508484905014610578576040517f08c379a00000000000000000000000000000000000000000000000000000000081526004018080602001828103825260398152602001806114cb6039913960400191505060405180910390fd5b610580611013565b84606560006101000a81548173ffffffffffffffffffffffffffffffffffffffff021916908373ffffffffffffffffffffffffffffffffffffffff16021790555060008090505b848490508110156106a9578484828181106105de57fe5b9050602002013573ffffffffffffffffffffffffffffffffffffffff1673ffffffffffffffffffffffffffffffffffffffff167fd5f9bdf12adf29dab0248c349842c3822d53ae2bb4f36352f301630d018c813984848481811061063e57fe5b9050602002013573ffffffffffffffffffffffffffffffffffffffff16604051808273ffffffffffffffffffffffffffffffffffffffff1673ffffffffffffffffffffffffffffffffffffffff16815260200191505060405180910390a280806001019150506105c7565b505050505050565b6106b961100b565b73ffffffffffffffffffffffffffffffffffffffff16603360009054906101000a900473ffffffffffffffffffffffffffffffffffffffff1673ffffffffffffffffffffffffffffffffffffffff161461077b576040517f08c379a00000000000000000000000000000000000000000000000000000000081526004018080602001828103825260208152602001807f4f776e61626c653a2063616c6c6572206973206e6f7420746865206f776e657281525060200191505060405180910390fd5b600073ffffffffffffffffffffffffffffffffffffffff16603360009054906101000a900473ffffffffffffffffffffffffffffffffffffffff1673ffffffffffffffffffffffffffffffffffffffff167f8be0079c531659141344cd1fd0a4f28419497f9722a3daafe3b4186f6b6457e060405160405180910390a36000603360006101000a81548173ffffffffffffffffffffffffffffffffffffffff021916908373ffffffffffffffffffffffffffffffffffffffff160217905550565b6000603360009054906101000a900473ffffffffffffffffffffffffffffffffffffffff16905090565b61086e61100b565b73ffffffffffffffffffffffffffffffffffffffff16603360009054906101000a900473ffffffffffffffffffffffffffffffffffffffff1673ffffffffffffffffffffffffffffffffffffffff1614610930576040517f08c379a00000000000000000000000000000000000000000000000000000000081526004018080602001828103825260208152602001807f4f776e61626c653a2063616c6c6572206973206e6f7420746865206f776e657281525060200191505060405180910390fd5b80606560006101000a81548173ffffffffffffffffffffffffffffffffffffffff021916908373ffffffffffffffffffffffffffffffffffffffff16021790555050565b8061097d61100b565b73ffffffffffffffffffffffffffffffffffffffff168173ffffffffffffffffffffffffffffffffffffffff16638da5cb5b6040518163ffffffff1660e01b815260040160206040518083038186803b1580156109d957600080fd5b505afa1580156109ed573d6000803e3d6000fd5b505050506040513d6020811015610a0357600080fd5b810190808051906020019092919050505073ffffffffffffffffffffffffffffffffffffffff1614610a80576040517f08c379a000000000000000000000000000000000000000000000000000000000815260040180806020018281038252602c81526020018061149f602c913960400191505060405180910390fd5b6000610aad606560009054906101000a900473ffffffffffffffffffffffffffffffffffffffff16611122565b90508073ffffffffffffffffffffffffffffffffffffffff1663bd3a13f6868689336040518563ffffffff1660e01b81526004018080602001806020018581526020018473ffffffffffffffffffffffffffffffffffffffff1673ffffffffffffffffffffffffffffffffffffffff168152602001838103835287818151815260200191508051906020019080838360005b83811015610b5a578082015181840152602081019050610b3f565b50505050905090810190601f168015610b875780820380516001836020036101000a031916815260200191505b50838103825286818151815260200191508051906020019080838360005b83811015610bc0578082015181840152602081019050610ba5565b50505050905090810190601f168015610bed5780820380516001836020036101000a031916815260200191505b509650505050505050600060405180830381600087803b158015610c1057600080fd5b505af1158015610c24573d6000803e3d6000fd5b50505050600073ffffffffffffffffffffffffffffffffffffffff16606660009054906101000a900473ffffffffffffffffffffffffffffffffffffffff1673ffffffffffffffffffffffffffffffffffffffff1614610d7957606660009054906101000a900473ffffffffffffffffffffffffffffffffffffffff1673ffffffffffffffffffffffffffffffffffffffff166357bd2412846001846040518463ffffffff1660e01b8152600401808473ffffffffffffffffffffffffffffffffffffffff1673ffffffffffffffffffffffffffffffffffffffff1681526020018361ffff1681526020018273ffffffffffffffffffffffffffffffffffffffff1673ffffffffffffffffffffffffffffffffffffffff1681526020019350505050600060405180830381600087803b158015610d6057600080fd5b505af1158015610d74573d6000803e3d6000fd5b505050505b8273ffffffffffffffffffffffffffffffffffffffff167fd5f9bdf12adf29dab0248c349842c3822d53ae2bb4f36352f301630d018c813982604051808273ffffffffffffffffffffffffffffffffffffffff1673ffffffffffffffffffffffffffffffffffffffff16815260200191505060405180910390a2505050505050565b610e0361100b565b73ffffffffffffffffffffffffffffffffffffffff16603360009054906101000a900473ffffffffffffffffffffffffffffffffffffffff1673ffffffffffffffffffffffffffffffffffffffff1614610ec5576040517f08c379a00000000000000000000000000000000000000000000000000000000081526004018080602001828103825260208152602001807f4f776e61626c653a2063616c6c6572206973206e6f7420746865206f776e657281525060200191505060405180910390fd5b600073ffffffffffffffffffffffffffffffffffffffff168173ffffffffffffffffffffffffffffffffffffffff161415610f4b576040517f08c379a000000000000000000000000000000000000000000000000000000000815260040180806020018281038252602681526020018061144b6026913960400191505060405180910390fd5b8073ffffffffffffffffffffffffffffffffffffffff16603360009054906101000a900473ffffffffffffffffffffffffffffffffffffffff1673ffffffffffffffffffffffffffffffffffffffff167f8be0079c531659141344cd1fd0a4f28419497f9722a3daafe3b4186f6b6457e060405160405180910390a380603360006101000a81548173ffffffffffffffffffffffffffffffffffffffff021916908373ffffffffffffffffffffffffffffffffffffffff16021790555050565b600033905090565b600060019054906101000a900460ff1680611032575061103161118c565b5b8061104957506000809054906101000a900460ff16155b61109e576040517f08c379a000000000000000000000000000000000000000000000000000000000815260040180806020018281038252602e815260200180611471602e913960400191505060405180910390fd5b60008060019054906101000a900460ff1615905080156110ee576001600060016101000a81548160ff02191690831515021790555060016000806101000a81548160ff0219169083151502179055505b6110f66111a3565b6110fe6112a2565b801561111f5760008060016101000a81548160ff0219169083151502179055505b50565b6000808260601b90506040517f3d602d80600a3d3981f3363d3d373d3d3d363d7300000000000000000000000081528160148201527f5af43d82803e903d91602b57fd5bf3000000000000000000000000000000000060288201526037816000f092505050919050565b6000803090506000813b9050600081149250505090565b600060019054906101000a900460ff16806111c257506111c161118c565b5b806111d957506000809054906101000a900460ff16155b61122e576040517f08c379a000000000000000000000000000000000000000000000000000000000815260040180806020018281038252602e815260200180611471602e913960400191505060405180910390fd5b60008060019054906101000a900460ff16159050801561127e576001600060016101000a81548160ff02191690831515021790555060016000806101000a81548160ff0219169083151502179055505b801561129f5760008060016101000a81548160ff0219169083151502179055505b50565b600060019054906101000a900460ff16806112c157506112c061118c565b5b806112d857506000809054906101000a900460ff16155b61132d576040517f08c379a000000000000000000000000000000000000000000000000000000000815260040180806020018281038252602e815260200180611471602e913960400191505060405180910390fd5b60008060019054906101000a900460ff16159050801561137d576001600060016101000a81548160ff02191690831515021790555060016000806101000a81548160ff0219169083151502179055505b600061138761100b565b905080603360006101000a81548173ffffffffffffffffffffffffffffffffffffffff021916908373ffffffffffffffffffffffffffffffffffffffff1602179055508073ffffffffffffffffffffffffffffffffffffffff16600073ffffffffffffffffffffffffffffffffffffffff167f8be0079c531659141344cd1fd0a4f28419497f9722a3daafe3b4186f6b6457e060405160405180910390a35080156114475760008060016101000a81548160ff0219169083151502179055505b5056fe4f776e61626c653a206e6577206f776e657220697320746865207a65726f2061646472657373496e697469616c697a61626c653a20636f6e747261637420697320616c726561647920696e697469616c697a65644572726f723a204f6e6c7920536572696573204f776e657220636f756c64206465706c6f7920746f6b656e7350726576696f7573207365726965732073697a6520646966666572656e74207468616e2070726576696f757320746f6b656e732073697a652ea2646970667358221220d0c1fb1bc0e906e549ea378e5d96f5bcd4365372b594279bf48729edc348421964736f6c63430006000033",
  "source": "// SPDX-License-Identifier: UNLICENSED\npragma solidity 0.6.0;\n\nimport '@openzeppelin/contracts-upgradeable/access/OwnableUpgradeable.sol';\nimport '@openzeppelin/contracts-upgradeable/proxy/Initializable.sol';\nimport \"./utils/IMasterRegistry.sol\";\nimport \"./Token.sol\";\n\ncontract TokenFactory is Initializable, OwnableUpgradeable {\n\n    event TokenCreated(address indexed series, address value);\n\n    address private _tokenContract; \n    address private _registryContract; \n\n    modifier onlySeriesOwner(address _series) {\n        require(OwnableUpgradeable(_series).owner() == _msgSender(), \"Error: Only Series Owner could deploy tokens\");\n        _;\n    }\n\n    function initialize(address token, address[] calldata previousSeries, address[] calldata previousTokens) external {\n        require(previousSeries.length == previousTokens.length, 'Previous series size different than previous tokens size.');\n        __Ownable_init();\n        _tokenContract = token;\n        for (uint i = 0; i < previousSeries.length; i++ ) {\n            emit TokenCreated(previousSeries[i], previousTokens[i]);\n        }\n    }\n\n    function updateTokenContract(address newAddress) onlyOwner public {\n        _tokenContract = newAddress;\n    }\n\n    function updateRegistryContract(address newAddress) onlyOwner public {\n        _registryContract = newAddress;\n    }\n    \n    function createERC20(uint256 _supply, string memory _name, string memory _symbol, address _series) onlySeriesOwner(_series) public {\n        SeriesToken newToken = SeriesToken(createClone(_tokenContract));\n        newToken.initialize(_name, _symbol, _supply, msg.sender);\n        if (_registryContract != address(0)){\n            IMasterRegistry(_registryContract).setRecord(_series, 1, address(newToken));\n        }\n        emit TokenCreated(_series, address(newToken));\n    }\n\n    function createClone(address target) internal returns (address result) {\n        bytes20 targetBytes = bytes20(target);\n        assembly {\n          let clone := mload(0x40)\n          mstore(clone, 0x3d602d80600a3d3981f3363d3d373d3d3d363d73000000000000000000000000)\n          mstore(add(clone, 0x14), targetBytes)\n          mstore(add(clone, 0x28), 0x5af43d82803e903d91602b57fd5bf30000000000000000000000000000000000)\n          result := create(0, clone, 0x37)\n        }\n    }\n}",
  "sourcePath": "/Users/filipemsoccol/Documents/doiim/otoco-smart-contracts/contracts/TokenFactory.sol",
  "compiler": {
    "name": "solc",
    "version": "0.6.0+commit.26b70077.Emscripten.clang"
  },
  "schemaVersion": "3.3.2",
  "updatedAt": "2020-12-07T17:34:30.023Z",
  "networkType": "ethereum",
  "devdoc": {
    "methods": {
      "owner()": {
        "details": "Returns the address of the current owner."
      },
      "renounceOwnership()": {
        "details": "Leaves the contract without owner. It will not be possible to call `onlyOwner` functions anymore. Can only be called by the current owner.     * NOTE: Renouncing ownership will leave the contract without an owner, thereby removing any functionality that is only available to the owner."
      },
      "transferOwnership(address)": {
        "details": "Transfers ownership of the contract to a new account (`newOwner`). Can only be called by the current owner."
      }
    }
  },
  "userdoc": {
    "methods": {}
  }
}